:020000040000FA
:10100000E0E0FFFF0000007845454545000401FF92
:10101000300200204D95000009BF000009BF00000C
:1010200009BF000009BF000009BF000009BF0000A0
:1010300009BF000009BF000009BF000009BF000090
:1010400009BF000009BF000073C40000D74A2DE9A2
:10105000F04F0126ADF1140D02F141010490D14889
:10106000C1F8CF6F0768002FFCD0D148C0234438A7
:101070000360CD4B029003F108000068800804D2A1
:101080005868000C40F0F00000E07220D94FDA4CB4
:101090000193002587F84C02A4F1DC081846C1F83A
:1010A000FF5FD0F80CA058F8040CC0F304600BF0FC
:1010B0004EFE00EB2A70401C162805DA10F10A0FCC
:1010C000B8BF6FF0090000E0152000F01F0040F4E9
:1010D000F850A7F864021068800828BF4AF0406AF8
:1010E000C6494FEADA604FEA9A6580F0010000F0E5
:1010F0000100086085F0010000F0010088605046A2
:1011000006F092FB0022044615460BF0A9FE00B93A
:1011100035462A46BA4D2B68002BFCD0DFF8E49206
:1011200009F10809C9F810402E600AB10BF09EFEC3
:101130000BF024FA80B20090B24840F2FF32002354
:101140002C2108F015F80BF0DBFC04460BF088FEB0
:101150004FF0000B00B9B3462B68002BFCD0C9F848
:101160001440BBF1000F2E6001D00BF07FFE0AF09F
:10117000D3FF04460BF074FE4FF0000B00B9B346EA
:101180002B68002BFCD0C9F80C40BBF1000F2E607F
:1011900001D00BF06BFE0BF0CDF904460BF060FEB6
:1011A0004FF0000B00B9B3462B68002BFCD0C9F8F8
:1011B0000840BBF1000F2E6001D00BF057FE0498E1
:1011C00006F0F2F804460BF04BFE4FF0000B00B9AE
:1011D000B3462B68002BFCD0C9F80440BBF1000FCC
:1011E0002E6001D00BF042FE049908460BF08AF9FC
:1011F000844C4000403440F0200084F80901084647
:101200000BF08CF940F0100084F8090108460AF050
:101210002BFD03900BF024FE4FF0000B00B9B346FA
:101220002B68002BFCD00398C9F82000BBF1000FFD
:101230002E6001D00BF01AFE049908460BF086F9D7
:10124000400040F0600084F80C0108460BF08AF979
:10125000C00040F0800084F8010108460BF09AF9C4
:10126000800040F47C40A4F89C0108460AF076FB1C
:1012700003900BF0F5FD4FF0000B00B9B3462B685F
:10128000002BFCD00398C9F80000BBF1000F2E60C2
:1012900001D00BF0EBFD4FF480002060D8F858002F
:1012A00040F20F216FF31F40814215D9D8F800009A
:1012B000D8F80030C0F30365C3F3034005B16D1ED9
:1012C000072805D006280EBF0720801C00F00F005D
:1012D00045EA001007F8080CCAF38140401E02D00E
:1012E000401E28D024E0D8F8D000810C20D24FF442
:1012F00080412160D7F80210420AC0F3033502F0A2
:10130000800221F08F010A4345EA0201C7F802106A
:10131000D7F80120031263F30302C7F801203968EC
:1013200000F0E70521F0E70145EA0100386002E03E
:101330004FF0004020604FF4007020640BF0D8FBA9
:1013400040F03000334F84F8C800CAF3815088B3AE
:10135000401E03D0401E20D002211FE030460AF07C
:1013600013FF05460420294607F08CFD04200AF0EF
:101370000BFF8542FAD10198056825F07F4009F0FE
:10138000A7FC384614300068036807214FF060223C
:10139000280E98474FF4806020600321042007F056
:1013A00071FD0EE094022243A83F00500000094066
:1013B00044600C400420314607F064FD124809F0F7
:1013C00087FCD8F8B0001149114B47F6180500F01A
:1013D0003F0084F8CB0F3A460D8018681068C1684A
:1013E00002208847402102980B4C016005B026601E
:1013F000BDE8F08F0A6008409813005000002043B9
:1014000000800C4000A00C40BD37860070B00C403E
:101410002C200940A0010010940460422DE9F04FF7
:10142000ADF1240D06F096F8D548D64904F026FF14
:10143000D2490860D4480BF00DFDDFF850B3D44911
:10144000584609F0FDFED4480BF088FCD149002431
:101450000860D24D009404200190C7484FF4FA620E
:101460002346294607F0F2F8A046CDF80080402038
:101470000190CB480A222346294607F0E7F8CDF829
:1014800000804FF400400190C6484EF6602223468B
:10149000294607F0DBF8C448CDF800804FF4007A05
:1014A00029464FF47A722346CDF804A007F0CEF80F
:1014B000CDF800804FF40060BE4C0190BB48294637
:1014C00043462246D20007F0C1F8CDF800804FF421
:1014D00080500190B64829464346224607F0B6F8A8
:1014E0001F200A2109F016F8CDF8088040F20530D7
:1014F000012102AA434600F075F9CDF8088040F2B8
:101500000630022102AA434600F06CF94FF00109AF
:101510004FF4447002AA4346CDF80890494600F0C3
:1015200061F9062440F21130022102AA43460294D6
:1015300000F058F90C2640F21230022102AA43466C
:10154000029600F04FF9CDF8088040F213300221E6
:1015500002AA434600F046F9D2254FF44570022115
:1015600002AA4346029500F03DF9934A41464FF4E2
:1015700042700B4600F036F9904A40F207301F21C6
:10158000434600F02FF94FF4C8670A200297394606
:1015900008F0C0FF0B20394608F0BCFF0820394690
:1015A00008F0B8FF0920394608F0B4FF2046394654
:1015B00008F0B0FF0720394608F0ACFF502740F292
:1015C0000440494603AA43468DF80C7000F00AF91E
:1015D000022040F2E24108F09DFF032040F2E24188
:1015E00008F098FF1020394608F094FF1220394681
:1015F00008F090FF1120394608F08CFF132039467F
:1016000008F088FF2320414608F084FF9BF8000083
:101610000BF03CFD6A4A404615210AF067FFADF821
:101620001840ADF81A60ADF81C80ADF81E500420CB
:10163000082106AA0AF05AFFCDF808A04846022160
:1016400002AA0AF053FF4FF0FF300BF027FD4FF0D6
:10165000FF300BF04FFD4FF0FF3007F0A1FB05F01E
:1016600021F958480BF008FC58480BF077FB564915
:10167000086057480BF050F99BF800000BF00AFD8A
:10168000CDF808804FF48160494602AA08F050FC6A
:10169000CDF808904FF48060494602AA08F048FC53
:1016A000CDF8088040F20240494602AA08F040FC0A
:1016B0000320494602AA029040F2034008F038FC99
:1016C000CDF8089040F20640494602AA08F030FCE6
:1016D00008F042FB40460AF091F809F0E1FA274889
:1016E00000683146424608F0CBFC0BF0EFFB0BF0F4
:1016F0000DFD40460AF01EFD08F0A2FD35480AF037
:101700001BF9354809F04EFF802041460DF10D02CE
:1017100008F0CEFD264D324CB8B9802002210DF1E3
:101720000D0208F0A9FD80B90DF10D002B490078DC
:1017300008709DF80E00401E012884BF48462070A6
:101740000AD89DF80E00207000E02078012803D010
:10175000022804D1404600E0052002F071F90BF0A8
:1017600035FD18B128460BF013FA08B106F0D6FC87
:1017700009B0BDE8F08FC046683F0020DC42002081
:10178000A0420020600B0020900C0020E0410020CF
:10179000E4410020E841002064420020BDC4000074
:1017A000203F0020D83E00208C3F00201C4000201D
:1017B000FC3E002080CBA400C80C0020800A002042
:1017C000480B0020A80C0020EC4100207C420020A7
:1017D000B00C0020AC0C0020000C00205D0B0020A1
:1017E000CE0900202DE9F0410E46A44BDFF8888297
:1017F000A3491446A0F2013200271A2A04D9A2F202
:101800000311002925D01CE0DFE812F02901250191
:101810001F011B000001FA00E200D100C900C10055
:10182000B900B100A9001B001B009F0091008300BC
:1018300078006A001B001B001B001B003F001B0000
:101840002A00282848DA022E46D1218808F062FEB4
:10185000D4E0012E40F0058121789F48017007E116
:10186000012E40F0FE801A461078012800F0EB802F
:101870000A4620781178107019B9002840F0D980F4
:10188000F6E0002800F0DA80F2E0012E40F0E98076
:101890002078012840F0E5807A480BF079F9E8B922
:1018A00079483E464FF6FD7101E0761CF6B29EB9CE
:1018B00000EB0612137A042B02D012889142F4D165
:1018C0003101415C384604F0D9F8071C40F0D08063
:1018D0006E480BF077FCCBE00227C9E01627C7E083
:1018E000022E40F0BE8020880A28C0F2BA80B0F5EF
:1018F000486F00F3B68066490880B9E0022E40F0D8
:10190000B0802088B0F5FA7F80F2AB806149088012
:10191000AEE0022E40F0A58020880628C0F2A1800B
:10192000B0F5486F00F39D805B490880A0E0022E6F
:1019300040F0978020880628C0F29380B0F5486F69
:1019400000F38F805549088092E0012E40F0898095
:101950002078022880F285805149087088E0012EA5
:101960007FD1207804287CDA4E49087080E0012E6F
:1019700077D12078082874DA4B49087078E0062E71
:101980006FD14A4821680160A688868070E0012EE8
:1019900067D12078042864DA4549087068E0012E90
:1019A0005FD1207804285CDC4249087060E0202E7A
:1019B00057DA414D39461F22284605F076FA21466E
:1019C0003246284604F02CFB3C48394606700FE0AE
:1019D000202E46DA3A4D39461F22284605F065FA90
:1019E00021463246284604F01BFB3648012106708A
:1019F0004046007832462B4607F072FB074637E038
:101A0000022E2ED120883049088031E0012E28D1C5
:101A10000A461078012816D01A46207811781070DE
:101A200059B928B3022009F0FDFE002808BF15208F
:101A30001FD001200AF07AFE1AE0C8B940460078AB
:101A40000BF03EF814E0122712E0042E09D12068B2
:101A50001E4908600CE0102E03D11D4804E0102E32
:101A600001D0182704E01B482146102204F0D8FAC0
:101A70003846BDE8F081C046644100201A0B0020C2
:101A80001B0B0020F83F002048420020D43F0020DC
:101A9000280B0020260B0020240B0020220B002006
:101AA0002A0B002077410020764100207C0C00208A
:101AB0007541002074410020BE0A00201F0B002049
:101AC0009F0A00201E0B00201C0B002070410020EC
:101AD00016420020064200202B0B00202DE9FE4F6D
:101AE000DFF8E0B20F460646F80B80F01D81B8081B
:101AF00080F0B980DFF87C92A24BDFF89482DFF8A7
:101B000098A2B80F6DD29A480678002E4DD13809A8
:101B10004DD39A4A984E0024484601250470107807
:101B2000357010B120460AF09FF995480BF05CF92A
:101B30009549224618460BF022FB9448DFF8649240
:101B4000017801291DD141460E78D6B9914E3068F1
:101B500088B10AF0F5FE55462968904B401A000BF3
:101B60008F4935680A6818608018B0EBC51F28BF18
:101B70000C6007D208608D484FF000510AF05AFE01
:101B80002CE005704846448040F609010180417B05
:101B900001F0F00141F001014173017B01F0F0011E
:101BA00001734460804E306018E0390914D2B80BDC
:101BB000C0F0D7805846001D0BF000FB061C08D073
:101BC000706830B17468F068B6F9101000222023F4
:101BD000A04727F40057C4E00021017027F0080750
:101BE000BFE07349184600220BF0C9FAF06840F6CE
:101BF000C411814218D104200AF0C6FAA0B155469A
:101C0000286888B16B4C206870B90AF099FE296881
:101C10002060814226BF401A401E401A000BF0602F
:101C2000F06800F58D70F0604446207858B10220CD
:101C3000ADF8000068460AF0D7F80026BDF80800A5
:101C400026705D4908805D4E0121484600250170DF
:101C50005B4930780D70401C307019200AF0D8FFB5
:101C600027F000577DE00BF10C0840460BF0A6FA78
:101C7000061C50D008F018FC7068326A00253562E6
:101C8000C0B196F8240042F002020023401E09D0A1
:101C9000401E04D0801E08D14FF0805304E04FF066
:101CA000804301E04FF000532A467468F068B6F9AB
:101CB0001010A0475C46B4F91200401C6FF31F30AF
:101CC000608240460AF0EAFCF068B0F98C10B4F982
:101CD000122091421FD13C49097801291BD090F86C
:101CE0008E409CB904688CB1384909680968B1F123
:101CF000FF3F10D0364909686830B4FBF1F10BF0B2
:101D000083FAF06868300AF0FCFD04E080F88E5039
:101D1000284605F0B5FE40460BF050FA27F00207C2
:101D200008B147F002071CE00BF0F4F801465846F2
:101D300008300BF043FA0646346A08460BF01CFAEA
:101D4000A0080CD25EB17568306AA043306235B12C
:101D50002246F068B6F9101074680023A04727F4F3
:101D600080471FB1114839460AF064FDBDE8FE8F77
:101D70008D3E0020683E00208B3E0020723E0020F9
:101D800051720000F840002035BA0000883E002063
:101D9000893E0020843E0020743E00207C3E0020CE
:101DA000803E0020B841002000100440CC3D0020BF
:101DB00015400000783E0020CC3E0020713E0020FF
:101DC0008A3E0020A4410020DD0A0020643E00205D
:101DD000E8D900002DE9F84F0446964FDFF858B2D5
:101DE000A0780025014606291ADCDFF85482DFF8C6
:101DF000549206292BD0DFF860A2002900F0DF8082
:101E0000491E00F00B81DFF84CC2491E00F0B38080
:101E1000DFF838E2491E012978D9891E43D002E152
:101E2000C81F09D0401F00F0F380401E00F0F6806C
:101E3000801E00F0E880F6E038460BF0C3F96078C9
:101E4000002840F0EB8058460AF0A2FEE6E0A088A9
:101E500009F094FBA0880AF0C3FD784E06EB00164B
:101E6000F58075804FF6FF73B580584633800BF0D0
:101E7000A9F938460BF0A6F9307A0125042840F07C
:101E8000CB804046007860B9A079082814BF0420B0
:101E900005204E4630700BF0EAF828460AF046FC62
:101EA000BAE0032062E06778F7B9204607F092FBBA
:101EB000207B042811D106204E4630700BF0D7F855
:101EC00061480078012808D11F2007F091FE4FF4E7
:101ED0007A714143584608F027F9E0786289237BFC
:101EE000211D07F0ABFA99E06078312806D0207BFD
:101EF000042800F0848006F074FD8FE07046277B94
:101F00000570042F40F08A80042079E067784FBB89
:101F10004F494E460F883178032815D0704698F8FF
:101F20000030027827B9012A18BF4046057006E044
:101F3000134304D06046394608F0F6F83178072993
:101F400014BF0420062009E0062906D07046007858
:101F500000280CBF0320022000E0072030700BF0A7
:101F600086F85BE060780C285DD008204E46307023
:101F70000BF07DF850E06778002F40D1504637498C
:101F8000E77800780A78A7B94E46307802284AD018
:101F9000072848D0062803D140460078012842D1BE
:101FA00060460AF0F5FD00283DD101200AF0BEFB95
:101FB00039E02B4B294607F093F8607033E06078E6
:101FC000E8B9284A0220102108F072F9264A0320B5
:101FD000102108F06DF9E01C2449026880880A602D
:101FE0004E4688800121084631700BF040F850467B
:101FF0001F4A204B0078127807F072F870B1082061
:102000004E463070ABE7A08805210AF0FFFE03E0E2
:10201000A088217B09F07AF8012D04D116480068C8
:1020200008B1016811B90120BDE8F88F2046884742
:10203000BDE8F88FF83F0020D43F00204842002040
:102040001B0B0020784100202A0B00201A0B0020D7
:102050001C0B0020B03F0020644100201F0B00201B
:10206000BE0A00200642002016420020AC4200209A
:102070001E0B00209F0A00202C0B00202DE9F04FA2
:102080000128ADF1140D40F0F280DFF81492D9F878
:10209000DC00012840F0E9800220C9F8DC000AF0E9
:1020A000F7FD0290012007F0CFF820B1012106468C
:1020B000C9F8DC10D5E00AF0D3FD03906E484FF06C
:1020C0000008C0F8008001200AF05EF8012818BF5F
:1020D000CDF8008004D1404606F0E2FA01200090DD
:1020E00066486E4CC0F800801934D4F8FF0F1120F8
:1020F0000AF0D4FE00280CBF4646012610200AF044
:10210000CDFE08B146F002060F200AF0C7FE08B166
:1021100046F004060B200AF0C1FE30B158480068B2
:102120005849006B0246088890470A200AF0B6FE1C
:102130000028404618BF01204FF0805B0BF5DC758E
:1021400028B128685049006B0246088890474F48DC
:102150000127076028688069014646F0200088470B
:102160004B4807600AF094FE00F00101019140081D
:1021700015D248480AF0D6FD8246BAF1040FF8D0CD
:10218000BAF1010F06D1DBF8D80140680246414898
:10219000032190474049086820F00300086040464A
:1021A00000F080F82868D4F8FF1F806B8047019802
:1021B00001280ED0BAF1010F06D1DBF8D801406832
:1021C00002463448394690473349086840F00300D6
:1021D00008602A48076028684069014630468847F9
:1021E0000B200AF05BFE28B128682649C06A024627
:1021F000088890470A200AF051FE28B12868224931
:10220000C06A024608889047204807600322C9F840
:10221000DC201F4BC3F800802868406B0146304625
:1022200088470128F8D1042007F00EF8124807600B
:102230001A48D4F8FF1F01688909FCD300980128C7
:1022400002D1384606F02CFA0AF010FE082006F0FB
:10225000FBFF06460398C9F8DC7008F0B1FB05F0F7
:10226000A5FE029809F006FB02E0042600E0012624
:10227000304605B0BDE8F08F0C4009400002224313
:10228000B80100107AD3000076D30000282008603F
:1022900080010443004003402422084014100940F8
:1022A000200500202DE9F84F82467A48DFF8D891C2
:1022B00035380068800880F0D78009F04BF9054672
:1022C00078480830D0F8008000244FEA2876761C41
:1022D0005FEA98500AD2C5F13E0015F10A0F4FEAA5
:1022E000E000D8BF08208642B8BF061C634FD7F86D
:1022F0007C01C0F304600AF02AFD83463868C0F30D
:1023000004400AF024FD06EB0B020090162A05DAC1
:1023100012F10A0FB8BF6FF0090200E01522584B06
:10232000584F02F01F0141F4F8511980396811F03B
:10233000030F18BF0124C90828BF44F00204BAF1F2
:10234000000F18BF44F00404494691F90730EB1A16
:10235000052B04DA8B79A34208BF888863D0DFF8A5
:102360002CE10F2DA5F10F0325DB03EB03134FEA3F
:10237000232CBCF1070F88BF4FF0070C6746062FD0
:1023800088BF06275EF82700042606EB87067746F7
:10239000BE59361A06F0FF07E00824BFC6F307202F
:1023A0000744A00824BFC6F307400744600828BFBD
:1023B00007EB166701E00027BC465EF82CE0E0085A
:1023C0000EF0FF0624BFCEF307200644A00824BF6A
:1023D000CEF307400644600828BF06EB1E6600984F
:1023E000A3EB0C23BFB25F438037801A06EB17269E
:1023F000D8BF0120342208F0FF0742437A43B2FBE2
:10240000F6F04FF6FF72824238BF101C802D80B26A
:10241000888005DA15F1800FB8BF6FF07F0500E006
:102420007F25CD718C711A4A12681F280A604FF0FF
:10243000000208D340F2FF11814206D24008521C2C
:102440008142FBD301E01F208880134F11490F38D0
:10245000000942EAC00247EA0200C1F8FB0F002669
:10246000C1F8FF6FBDE8F88F0D4F0C4E49460820AC
:102470003760891D0870BDE8F88FC0463C110050D8
:102480006E62084024220840C44200209C13005081
:10249000082009403500094000E7A48030100940B9
:1024A000FDFDA400AC3F00502DE9F84F7C4C2046C8
:1024B0000AF084FE16460D4600900AF02BFD06F049
:1024C00001078046B5F1FF3F0DD1606820B9B4F92E
:1024D0001200401C05B202E06068B0F9105071486B
:1024E00000210930017028466F4D6368811000EBB0
:1024F0005171083D21F00701401AC10001EB401164
:102500006D18AB4200F086800098DFF874B1854208
:1025100048D000284FF003073ED04FF00009CA46CC
:10252000006885421FD1584609F03EFD00980168B9
:10253000C0F800A0009140460AF01EFEB0080FD27D
:10254000009991F8240040F0040081F824006846C6
:102550000AF0A4F8014604F10C0008F013F901E0B8
:102560004FF001098327B9F1010F03D000980068EB
:1025700000900EE0009991F8240040F0040081F8EA
:10258000240068460AF08AF8014604F10C0008F0BD
:10259000F9F800980028C3D1832F23D040460AF0D1
:1025A000EBFD1FE0584609F0FFFCB0083ABF206879
:1025B00000680020206040460AF0DEFD0C340099DF
:1025C00091F8240040F0040081F8240068460AF0E5
:1025D00065F80146204608F0D5F8009808B1B00823
:1025E000EDD283272748294A007870B926480AF097
:1025F000FBFB022110460AF01DF92548007801284E
:102600003BD024480AF0F0FB37E0104602210AF0E4
:1026100011F932E0B00803D3206800900023236052
:1026200095F824100120B840084385F824000AF0EA
:1026300017FB002F054614BF1748184809F0D4FBB4
:1026400040460AF099FDB00813D3009888B10C34C5
:10265000014691F8240040F0040081F82400684607
:102660000AF01CF80146204608F08CF80098002873
:10267000EED1284608F0A4F983273846BDE8F88F44
:10268000903E00208A3E0020DD1A0000CC3D002054
:10269000683E0020B1520000010002040100010464
:1026A000A4410020CC3E0020F83800202DE9F04164
:1026B0001C4615468C4208BF854282BF002300227B
:1026C000E5E0002C08BF002D0AD100290EBF00282C
:1026D0006FF000006FF0000100F0E1F8BDE8F0815C
:1026E0005FF000085FF0000E002C08BF8D429CBF19
:1026F0002C1C0025070C47EA01470E0CB44208BF0A
:10270000BD429EBF5FEA044444EA15445FEA0545C2
:10271000070A47EA01670E0AB44208BFBD429EBFDE
:102720005FEA042444EA15645FEA0525470847EA9E
:10273000C1774E08B44208BFBD4200F293808708BB
:1027400047EA81778E08B44208BFBD427CD8C708EB
:1027500047EA4177CE08B44208BFBD4266D80709B0
:1027600047EA01770E09B44208BFBD4250D8470975
:1027700047EAC1674E09B44208BFBD423AD887094B
:1027800047EA81678E09B44208BFBD4224D8C70911
:1027900047EA4167CE09B44208BFBD420DD8E60101
:1027A00046EA5566EF01B14208BFB84201D3C01BEB
:1027B000B14158EB08085EEB0E0EA60146EA95669D
:1027C0004FEA8517B14208BFB84201D3C01BB141DF
:1027D00058EB08084EEB0E0E660146EAD5666F010F
:1027E000B14208BFB84201D3C01BB14158EB080841
:1027F0004EEB0E0E260146EA15762F01B14208BFB8
:10280000B84201D3C01BB14158EB08085EEB0E0E75
:10281000E60046EA5576EF00B14208BFB84201D360
:10282000C01BB14158EB08084EEB0E0EA60046EA5D
:102830009576AF00B14208BFB84201D3C01BB14189
:1028400058EB08084EEB0E0E660046EAD5766F0090
:10285000B14208BFB84201D3C01BB14158EB0808D0
:102860005EEB0E0EA14208BFA84201D3401BA1415E
:1028700058EB08085EEB0E0EA34208BFAA423EBF0B
:102880002D0A45EA0465240A89D3734642461E464A
:1028900017460B46024631463846BDE8F081704780
:1028A0002DE9F04FADF1840D209001F027FB06F0EB
:1028B000F3FB0026012804D109F0F4FD022808BF2B
:1028C000012661490868C0F38150012806D151F8FA
:1028D0000C0C0127010E07FA01F006435B485C4F20
:1028E0005C4D00783868C0F34601296006F0D4FBDF
:1028F000A846012809D109F0D5FD022805D1D8F84C
:102900000000401CC8F8000001E0D8F80000DFF823
:1029100048A130B1FF21074652467F1E02F8011B35
:10292000FBD120990968002701F0FF02FE2A19D087
:10293000DDF880C001F0FF053B4601245246A84265
:1029400003D904FA05F52E4201D0022079E001F006
:10295000FF0153545CF8041F2F435B1C01F0FF057B
:10296000FE2DECD1092002F077F944482099242269
:102970000823016001A800210AF002FB4FF00109C1
:1029800001AA3F488DF81C90494608F091FAD8F802
:1029900000303BB33B4C00254FF0040BAA4609FA2C
:1029A00005F0064218D1074204BF05F0FF0141F4CB
:1029B000C04104D028482099405D51F82010274894
:1029C00002F008FFE8B24FF0FF3109F0EBFBD8F856
:1029D0000030C4F800A001E0C4F800B06D1C241D54
:1029E0009D42DCD30AA80021302208230AF08CFA89
:1029F0001B4D1D4A2878002410210AAB129019485B
:102A0000009407F021FA16A82822082321460AF08C
:102A1000BDFA686816AA16491C9014481D942346EE
:102A200007F0EEFC134951F80D0C4F4620F4F85016
:102A300040F4005041F80D0C0F4EC1F8FF7F2046C6
:102A4000376021B0BDE8F08FB43F0050A2410020B4
:102A500080120840D842002040400020007FC76715
:102A60003CD90000C0400020C1C10000983D0020BA
:102A7000B99100000D3009400800094034350020AC
:102A8000DC400020D83B00202DE9F84F99469246C3
:102A90008B4606460AF03EFA614CB4F91220B4F9AE
:102AA00010100AAF891A40F6F8720A40082A02DBB1
:102AB0000AF062FB3EE0B4F91010491C6FF31F31BD
:102AC0002182B4F910800AF057FB564D4046811020
:102AD00000EB517121F00701401AC10001EB4011D8
:102AE00006F168006D1809F05FFAC5F808B085F8BE
:102AF00012A0C5F80490EE604B48A5F8108097E846
:102B00000C00202100271940104085F8247005F1A1
:102B1000180383E803002068002866D12046294670
:102B200007F030FE48B9B4F9100000F6FF706FF3FB
:102B30001F3020826FF001086FE0A6F88C800AF049
:102B4000E9F90346DFF8E490424886F88E7006788B
:102B500066B149460E784EB107703F48354E0121A7
:102B6000334A077030781170401C307018460AF0F4
:102B700003FB6068002850D149460878002830D10E
:102B80002D480078012848D00AF0C4F906462B48A1
:102B90000078F8B9A86805F0ADFD2A4F2F4A2849FA
:102BA00013683A68086038B930460AF0E5FA2648F2
:102BB000042109F03FFE30E00968D868234C091A67
:102BC000B1FBF2F120460AF01FFB204609F099FE06
:102BD000304620E030460AF0CFFA1D490120087047
:102BE0001BE019200AF014F817E00AF093F90746E1
:102BF0002946204607F0C6FD002818BFA6F88C809D
:102C000008D1B4F910006FF0010800F6FF706FF3FF
:102C10001F30208238460AF0AFFA4046BDE8F88FF0
:102C2000A4410020F0380020F1EFFF9F683E002013
:102C30008D3E0020713E00208A3E00208B3E002009
:102C4000843E0020E8D90000CC3D0020903E0020CA
:102C5000733E00208C3E0020893E0020643E002010
:102C60002DE9F84381460AF0FBF8002100B9012163
:102C70006B4E30680028FCD06C4D01242D1DEF6A8E
:102C8000346009B10AF0F2F8DFF89881C7F3072041
:102C900008F1BC0108600AF0E3F8002100B9214600
:102CA00030680028FCD02F68346009B10AF0DEF8E3
:102CB000C7F38440C8F8C0000AF0D2F801460020EB
:102CC00001B92046014630680028FCD0ED69346027
:102CD00009B10AF0CBF8C5F38120C8F8D000B9F5E6
:102CE000C061C8F8B81000F0968098F8D80068B9AC
:102CF000C8F8D410D8F8C000C8F8C800D8F8BC701C
:102D0000C8F8C470D8F8D060C8F8CC60D8F8D4102F
:102D1000D8F8BC60002954BF02206FF0010045467E
:102D200005F1C8031A6801EB41014018411000EB9E
:102D3000917002EBA0021A60D5F8C810C5F8C46003
:102D400000291CDD1E293DDDD5F8CC0030B9342921
:102D5000B4BF15391E21C5F8C81025E02A29BABF0D
:102D6000D5F8C8000B381E20C5F8C800D5F8C40037
:102D70003F28B4BF401C3F20C5F8C4001FE0D5F871
:102D8000CC00032812D011F10B0FC6BFD5F8C80034
:102D90000B30201CC5F8C800D5F8C4000028CCBFF3
:102DA000401E0020C5F8C400032009E011F1150FF2
:102DB000C6BFD5F8C8001530201CC5F8C8000020D3
:102DC000C5F8CC00B5F8C400174E30214FF47F424F
:102DD00008230090304606F0CBF9009404214FF40C
:102DE00000321123304606F0C3F9B5F8C8000421BB
:102DF0004FF4F80212230090304606F0B9F9B5F806
:102E0000CC0020214FF440620A230090304606F0A7
:102E1000AFF9BDE8F883002088F8D800BDE8F88352
:102E200000800C402005002000A00C4000A00C40B9
:102E30002DE9FC4F83F0004301E02DE9FC4F1F0317
:102E4000FF0847EAD2574FEA42284FEA43095FEAB0
:102E5000595906D147EA080A1CBF00210020BDE8E5
:102E6000FC8F57F000575FF4E06E1EF1FF0EF14546
:102E700005D14FF00000190D0905BDE8FC8F002BAE
:102E800005D55FF0000AD8F100086AEB07070C03CC
:102E9000E40844EAD0544FEA40254FEA4106760D53
:102EA00008D144EA050A19BF00210020191C101C92
:102EB000BDE8FC8F44F00054764504D10020090D94
:102EC0000905BDE8FC8F002904D55FF0000A6D42BA
:102ED0006AEB0404B6EB090E08D5A2463C465746F9
:102EE000AA464546D046CEF1000E4E46BEF1360FFC
:102EF0005CBF4FF0000B23E0BEF1000F04BF4FF0AA
:102F0000000B1AE0CEF1390ABAF120092EBF08FAF7
:102F100009FB07FA0AFB4BEA080BDEF1200A07FA65
:102F20000AFA38BFBA4647FA0EF72DBF28FA0EF84C
:102F3000AEF1200E4AFA0EF8D04415EB08057C419C
:102F400054EA050A02BF00210020BDE8FC8F002CD6
:102F500058BF4FF0000A06D55FF0010A5FF0000E7F
:102F60006D426EEB0404A6F101066D006441FAD5D2
:102F700015F4806E11D005F480794BEA090B15F534
:102F8000806554F1000428BF761C0BD205F400794B
:102F90005BEA090B08BF25F4006525F4E0656D00C8
:102FA00044EB0404B61CDEBF00210020BDE8FC8F0A
:102FB0005FF4E06E1EF1FF0E76450AD34FF000007D
:102FC00013F00043FF21C900C91D09051943BDE8DD
:102FD000FC8F270547EA1530210B41EA065141EAEB
:102FE000CA71BDE8FC8F70472DE9F84304465F487D
:102FF00001785F480278A078002800F0AE805D4D2F
:10300000DFF87881401E00F09680801E00F09F80DF
:103010005B4A5C4E801E5ED0DFF85C91401E3BD068
:10302000C01F40F0A080E77828780022022F00F12E
:103030000100C1B2297008BF0122002007B9012098
:103040000026032F40EA020008BF0126064310D0E5
:10305000204603F02FFD064636F0010008D1204639
:10306000314608F027F8012E02D1204602F05AFB23
:103070002978502977DB48460078002873D009F07A
:10308000B9FE4446002103200A46217007F030FDB6
:1030900001202070BDE8F8834FF6FE7310460380D0
:1030A000A088002208F07EFC142008F0A5F93078F2
:1030B00008B103F0B3FB48460078002853D0012143
:1030C00040F21B300DF1010200238DF80110FEF7D4
:1030D00089FBBDE8F883607828BB608910800822EE
:1030E00008F060FC002440F2053001216A468DF8AA
:1030F00000402346FEF776FB307808B103F08EFBE4
:10310000234640F21B3001216A468DF80030FEF75D
:1031100069FB1D4C204609F03BFD20B320460AF018
:1031200051F8BDE8F8834FF6FE701849108000276B
:103130000F70BDE8F883002044462870012A2070F3
:1031400011D109F083F809F0E5FABDE8F8830846E3
:10315000102108F015FCBDE8F883E41C0C48216838
:103160000160A7888780BDE8F883C046E041002061
:10317000CE090020D9090020C6090020D809002066
:10318000E8090020EB090020D83E0020C4090020F7
:10319000B44200202DE9F041654C074620680D46F9
:1031A000ADF1180D28B94FF00040002106F024F9C8
:1031B0002060002100918846CDF80480CDF8088079
:1031C0003AA3CDF80C800A46CDF8108008F07AFBBF
:1031D00038463AA3801E04D0801E4CD0401E2BD00F
:1031E0000BE02068012D14BF37A63CA6454600958C
:1031F000019502950395049546E0CDF8008045467B
:10320000019502950395049520684146424608F0D1
:1032100059FB009542460192029203920492206863
:1032200034A3022108F04EFB01208DF815009DF813
:1032300015000028FBD136E0CDF800804546019509
:1032400002950395049520684146424608F03AFBF2
:1032500000954246019202920392049220682BA3A9
:10326000022108F02FFB01208DF814009DF81400B6
:103270000028FBD117E0CDF8008045460195029566
:10328000039526A6049520684146424608F01AFB9D
:103290000095424601920292039204922068022114
:1032A000334608F00FFB06B0BDE8F0813E3E3E53CA
:1032B0005441434B20415353455254002A2A2A4536
:1032C00052524F522A2A2A003E3E20494E5445521D
:1032D0004E414C204552524F522100C03E3E2049A3
:1032E0004E5445524E414C204657204552524F5263
:1032F0002100C0463E3E2044454641554C54205393
:1033000050494E4C4F434B2100C046C03E3E2049E1
:1033100043414C4C2041424F525421003E3E204FED
:103320005554204F46204D454D4F52592100C0461F
:10333000E40900202DE9FE4FFEF770F85A4C5B4E71
:10334000DFF86C815B4FDFF880B14FF000094FF080
:10335000FF3008F029FD002841D1CDF804900DF18F
:103360000200694601AA07F009F9002832D1BDF828
:1033700002004FF0010A10281AD14F489DF80010A2
:103380000078884214D1019D28884FF6FF71814250
:103390000AD16888000901D305F0DCFC688840097F
:1033A00006D301F05DFE03E0284608F088FE824661
:1033B000019878B1BAF1000F0CD008F095FC09E043
:1033C000386808F041FD051C04D006F037FB28469C
:1033D00008F05AFC386809F0F2FC0028F0D0208888
:1033E000C1080FD3354920F004000D7820804DB17D
:1033F00033490978022905D1324809F0E1FE09F084
:10340000D3FE2088C1090FD320F040002080D8F8D7
:1034100000000A214A4606F033FED8F800000F21CA
:103420004A4606F02DFE2088810A05D320F400705C
:10343000208002F017FC2088C10BCD0308D06FF369
:10344000DF309BF80050208015B103F0E7F92088A9
:10345000410B05D320F48050208006F031FD2088F8
:10346000010B04D320F40060208002F073FE30686A
:1034700009F0A5FC00287FF46AAF306809F074FDFC
:103480000546287A012806D0022808D16889E9680B
:1034900001F09EFA03E06889E96802F073FD2846AE
:1034A00008F0F2FBE3E7C046F0410020EC410020C9
:1034B000DC420020E8410020E0410020C609002055
:1034C000CE090020683F0020EB0900202DE9FC41D7
:1034D0005D4C564D564EDFF85C81594F94F8E41020
:1034E000481E0B2800F29F80DFE800F0772C43068F
:1034F0002343062343067260042907D001220A29C8
:1035000045F8212C14BF0220032004E020210120D3
:1035100045F8211C024684F8E200002045F8390CE9
:103520000827C5F8FF7FC5F8F37F45F8392CBDE8BB
:10353000FC81052914BF09200620002584F8E40039
:1035400035606CE094F8E1700120383D002FC5F83B
:103550001B0004BF0620002102D00021F1600320DF
:1035600084F8E400032045F8010C316030688008DD
:1035700055D294F8E400012503280DD000214046DF
:1035800060220523009105F0F3FD94F8E40006287D
:1035900014BF0A200720D1E70220009000216022FA
:1035A0000523404605F0E4FD0420C7E72249002634
:1035B00022480E60012505600E2001F07BFA0220F2
:1035C00007F026FB84F8E45084F8E360BDE8FC8152
:1035D000002038600C2578601FE01A4800680068F9
:1035E0000146202088472C3D41F61D560F20002122
:1035F0004FF4C072072345F8010C4046C5F803603C
:103600000225009505F0B4FD404600214FF4C0723C
:10361000072306F073F90120386084F8E45004F1C0
:10362000780009F06EF9BDE8FC81C04639400C40D5
:1036300038600C4000A00C402C500C4004800C4022
:1036400034600C40A001001020050020B0B5456892
:1036500084684F48297BADF1180D012916D0217ED1
:10366000627E4C4B2F7E0143009143EA020101919F
:10367000494937F0010718BF081CA27E1043029089
:1036800095F88D000322FF2811D00DE0677E217E82
:103690003843A37E019041F00041009143F0004087
:1036A0003E49029095F88D00014304220391FE20CB
:1036B0004DF82200694605F1900002F0DFFDC5F8E3
:1036C0009C00002808BF00205FD0287B344951F8B7
:1036D000200001282BD02068B0F1804F14BF222297
:1036E0000A22217ED5F89C0007F0ECFD2068B0F19D
:1036F000804F14BF21220922617ED5F89C0007F07B
:10370000E1FD2068B0F1804F14BF24220C22A17E7D
:10371000D5F89C0007F0D6FD95F88D10FF2933D021
:103720002068B0F1804F14BF23220B2228E02068CC
:10373000B0F1804F14BF21220922217ED5F89C00D0
:1037400007F0C0FD2068B0F1804F14BF22220A228A
:10375000617ED5F89C0007F0B5FD2068B0F1804F80
:1037600014BF24220C22A17ED5F89C0007F0AAFDEC
:103770002068B0F1804F14BF23220B2295F88D10E2
:10378000D5F89C0007F09EFD012006B0B0BDC046F4
:10379000000480A0004000800004C0A00020008041
:1037A00064D900002DE9F04FADF1140D00F0BEFC1E
:1037B000454C464EDFF83C81DFF828A14FF6FD79F5
:1037C0004FF0000B4D46AD1C4FF0FF3008F0FCFAF7
:1037D00038BBCDF804B00DF10200694601AA06F02D
:1037E000E7FEF0B9BDF802000127102814D13078A7
:1037F0009DF8001088420FD1019801888D4208D1B0
:103800004088C00B08D3324A0420014606F050FD20
:1038100002E005F0D7F90746019810B10FB108F0A2
:1038200093FA2088410830D32A492B4B20F001001D
:103830000F781978208057EA010326D030787FB9B5
:1038400026490978264F8DF80810397852468DF8A8
:10385000091013680DF10A073B609288BA8002E0F4
:1038600003218DF8081020490978204F8DF8101099
:1038700039788DF8111002A909F0C2FA20B11C495B
:103880000820087009F0F3FB2088810816D320F087
:1038900002005F46208001E07F1CFFB277B908EB91
:1038A00007110A7A042A02D009888945F4D138011F
:1038B00018F80010584602F0E1F82088C10883D3B8
:1038C00020F0040020807FE7180B002064410020D6
:1038D000704100201B0B00201A0B002074410020B7
:1038E000754100207C0C00207641002077410020AB
:1038F00078410020484200202DE9F04304466568E5
:10390000A7680E46ADF1340D09F004FB95F8D91007
:10391000012903D109F030FC002084E04FF00109B7
:1039200085F8D99009F028FC4FF00008C5F8888088
:103930003069286170696861307E2876307B287331
:1039400030782870706885F8A48068607069414696
:10395000092828BF494685F88C10387B01F07CF98E
:10396000204604F0F5FAF87E85F88D002046FFF732
:103970006DFE50B9387B01F09DF809F0CBFA85F85F
:10398000D98009F0F9FB44464CE001A841463022B9
:10399000082309F0B9FA7879069401AB234ACDF8E7
:1039A00000803979099005F11C0006F04DFA01A854
:1039B00041462822082309F0E9FAB868059401AACB
:1039C00043461B49079005F1380006F019FD287899
:1039D00078B901A841462422082309F0D1FA8DF8CC
:1039E0001C9005F16C00414601AA07F061FA1148EC
:1039F00000E0B068A86004F007FBC5F8A000287BD1
:103A0000012808D1D5F89C000B4909F03BFAD5F8FC
:103A10009C0000B18460094A05F1C40004212346DA
:103A200007F0B0FE20460DB0BDE8F083A55D0000B4
:103A3000D58A0000B5D000001D9D0000F1CE000029
:103A400002462DE9F04F424B40481F780178ADF116
:103A5000240D002F71D13F4B07213F4E1A700927CB
:103A60008DF80010F5788DF801704FF0000A8DF890
:103A7000035070798DF80BA034798DF80500B27879
:103A80008DF80440B1798DF80220F7798DF8061091
:103A9000FF258DF8077031488DF809500D248DF8F9
:103AA0000A40027803AE32702D4CDFF8C4901978CA
:103AB00094F800800E255746A3460DF10E038DF8AD
:103AC0000D1044461CE000EB04160121304608F0BE
:103AD00039FE68B130460078187096F90C00AD1CBC
:103AE000EDB25B1C002803F8010BB8BF40423073F5
:103AF000641CE4B2462CA8BF5446A04508BF012769
:103B00001B2D03DA48460068002FDCD01549164EFD
:103B10004878ED1CEAB20F7803F8010B30788BF887
:103B20000040A2F1090103F8017B084F18706B46B1
:103B300038788DF80810014601E00C4B0B2208463E
:103B4000012105F0CDFA09B0BDE8F08FE041002079
:103B5000EB090020C5090020800A00205D0B002031
:103B6000DA090020D0090020CD090020D40B002064
:103B7000DC09002070B5ADF1380D00F0BFF9354912
:103B800008682822082340F00200086001A80021EC
:103B900009F0FCF9304EB078314907902F480023E6
:103BA00001AA06F02DFC00213022082301A809F00B
:103BB000ABF90025192130782B4AADF81C5001AB28
:103BC00009902848009506F03FF92822082301A80B
:103BD000294609F0DBF9F07807902549234801AA26
:103BE0002B4606F00DFC01A829463022082309F0D7
:103BF0008BF901247078ADF81C401A2101AB1E4AE4
:103C000009901C48009506F01FF91C481C492A46DB
:103C1000134606F0A1FE1B4809F0E6F805F03CFA51
:103C20002E46012808BF261C1A4A1570174B83F828
:103C300021504FF6FF71198313480670144A14700F
:103C400017490D70154B1D70134E3570154C2570AE
:103C50000EB070BD00200940B0D90000CC3D00205E
:103C6000A5C70000F840002035BA0000003E002043
:103C7000215B0000144100209D870000903E002041
:103C800031C20000B1520000723E0020B43E00205C
:103C9000893E0020883E00208A3E00208B3E002086
:103CA0008C3E00208D3E00202DE9F0430746414820
:103CB0000078890FADF1140D78D3424D3E490026AE
:103CC0001C352E6045F81C1C10B1012008F0CCF802
:103CD0003D4809F089F8BC683C4840F60A01814635
:103CE000027B6680437B468002F0F002C84601807A
:103CF00003F0F003027343F0010343733246426062
:103D000000E01C46636813B118888142F9D1C4F8F9
:103D10000490607B00F0F0006073284809F04EFAD0
:103D200080680088C91F81421FD0491C81421CD075
:103D30003B8BE3B197F824007E8397F82530FA6136
:103D400000F0F00087F8240003F0F00040F00100DC
:103D500087F8250007F11801C9F8041098F80D003C
:103D600000F0F00088F80D0001E019480660B8681E
:103D7000694608F049F8684608F0EAFEB86800F0BD
:103D800058FB28680028FCD02E60012008F0FCF9C0
:103D9000012808D0607B00F0F00040F00100607363
:103DA000074809F021F8B86845F81C0C05B0BDE8D3
:103DB000F083C046723E002001010E04A4410020A1
:103DC0004987000000100440DD1A0000B8410020BF
:103DD000743E00202DE9FC470646F17800220229B6
:103DE00008BF0122002001B90120032940EA020294
:103DF0004FF0000008BF0120104374D0327B002434
:103E000003E000780019401CC4B2A2426BDD3169A6
:103E10000B195B786018FF2BF3D100782018401E37
:103E20005FFA80F93148271D0122FCB2611808F0C1
:103E30003BF8002857D12E480278A1454FF00007E3
:103E40004DDD2D4DDFF8ACA080461D2C47DA3069E2
:103E50002118491C0878401E2DD0401E2FD0401E2E
:103E600041D152B348780146491E012925D828700E
:103E70008DF80100504600786F46022101AA387083
:103E8000802006F0F9F928789DF80510884206D0C0
:103E9000802002216A4606F00BFA284600780128A5
:103EA00003D0022804D1002000E00520FFF7C8FD60
:103EB00098F8002000E002B90127A41C0CE04A7821
:103EC0008878CF7800EB022207EB022003F07AFC1F
:103ED00098F80020241D0127E4B2A145B5DC12B1F9
:103EE0000FB102F09BFCBDE8FC87C046DF0A002052
:103EF000EB0900205D0B0020CE0900202DE9F041E8
:103F0000434C94F8E700ADF1280D00286CD1384FF0
:103F1000387B01250021242284F8E750082384F807
:103F2000E60001A809F014F8002604F10C0006963A
:103F300001ABADF814602F490796324606F00CFD30
:103F40002D4904F1300001AB324606F005FD2B4946
:103F500004F1540001AB324606F0FEFCB86801469D
:103F600028468847DFF89C8025487B7B0078D8F876
:103F70000410C1F381571BB1032F03D184F8E15022
:103F8000032F16D0022F14D0012F26D103201E4C50
:103F9000009031464FF040521C23204605F0E8F8CF
:103FA000009531464FF400720923204605F0E0F8F1
:103FB00013E0022006F044FE032F0CBF4FF47A7189
:103FC00042F21071114800685434B1FBF0F1204600
:103FD00009F01AF9204608F094FCD8F80000C0084F
:103FE00002D2304606F02CFE0AB0BDE8F081C04691
:103FF00094D80000A38500005D650000AD6D000051
:10400000A2410020B03F005000A00C40E8D90000C1
:10401000200500202DE9F04108F010FB3F4D3E4EF9
:10402000DFF8FC800446A00820D330464168E9B19F
:10403000002242600B6A8A698F6922401A4342F06B
:10404000020205F108030A621A68BA4301F118076F
:104050001A6097E80C002A680C301B1C9A432A60EF
:1040600006F090FB4046022108F0E4FB7068A108CE
:1040700015D200F1180191E80C00002702EA0401B2
:104080003B40002B08BF002909D01440016AB060F2
:104090000C4304624FF48041404608F0CBFB70684B
:1040A000002837D1304609F089F8071C32D01E4865
:1040B000F9680068884228D1B86804F01BFB1949E8
:1040C0000860E8B905F10801B8690A68104308609A
:1040D0002B6807F1180494E80300081C18432860B3
:1040E00000222A61B86845F80C0C05F11000006840
:1040F0000028FAD0304608F0D1FA7760BDE8F081A8
:10410000086803F0BDFCBDE8F08140464FF48051E3
:1041100008F090FBBDE8F081A44100200C100440A1
:10412000CC3D0020843E0020643E002030484049C1
:104130002DE9FC4707F09AF82E4800240470204629
:1041400008F095FF2C494FF6FF70088006F05CF8E8
:104150002A49A04608702A4ECDF80080012001901F
:10416000284822462346314604F070FA02272648A2
:10417000CDF80080224623463146019704F066FAC6
:1041800004252248CDF80080224623463146019579
:1041900004F05CFA1E49DFF87C90062010220870BB
:1041A0002146484602F081FEDFF86CA0214610222D
:1041B000504602F07AFE194E2046194B1A491C70DF
:1041C000184A306007230B70184B147038464A4663
:1041D00010211C7006F050F803201021524606F002
:1041E0004BF828463246014606F046F8BDE8FC8703
:1041F000644100207841002048420020A341002073
:104200002DC70000B03F0020D43F0020F83F002021
:104210006C41002006420020164200207041002020
:104220007441002075410020764100207741002034
:10423000684100202DE9F041344D064628780028D9
:1042400061D03349B1F91200B1F91010884207D09A
:10425000B6F98C10304602224FF0E04301F012FB19
:1042600008F058FE01462B48DFF8C4800778002F7D
:1042700038D07F1EFFB2002F077033D1084608F0F8
:104280007BFF2548002400782C7040B1204603F0C5
:10429000F7FB06F130004FF0FF3100F015FE06F19C
:1042A000300008F0B9FF06F1680008F0A7FF1B48CE
:1042B00008F0B4FF1A4808F093FF1A4808F0AEFF60
:1042C000194808F08DFF194808F098FF4046194F2B
:1042D0000460357C3C70012D15D10E2000F0EAFB06
:1042E000BDE8F081084608F047FF404601688E426D
:1042F00004BF0021016006F1300008F08DFF06F1D7
:10430000680008F07BFFBDE8F081C046DE0A0020AF
:10431000A4410020703E0020683E0020CC3D0020DB
:10432000F8400020003E002014410020903E002074
:10433000643E0020DD0A002081F000412DE9FC41AF
:104340004FEA01244FEA41052D0E04D1002C18BF7D
:104350000020BDE8FC8144F00044FF2D5ED04FEA10
:104360009404002948BF64424FEA00224FEA400308
:104370001B0E05D1002A14BF0020081CBDE8FC81DB
:1043800042F00042FF2B4AD04FEA9202002848BF79
:1043900052425E1B41BF171C221C3C1C764248BF88
:1043A0002B1C192E47BF44FA06F73A444FF0000879
:1043B00003E0C6F11C0704FA07F8002A04BF002036
:1043C000BDE8FC8146BF524201270027A3F101034B
:1043D0005200FBD512F080040DD002F0200548EA0F
:1043E0000508803228BF5B1C02F0400458EA04082C
:1043F00008BF22F480729B1CDCBF0020BDE8FC815A
:10440000FF2B0ED222F0FF024FEA42024FEA522067
:1044100040EAC35040EAC770BDE8FC8108464FEA55
:10442000D0774FEAC777FF204FEAC0503843BDE846
:10443000FC8170472DE9F04104466668A7680D4687
:10444000ADF1380D08F066FD96F8DC10012903D1B6
:1044500008F092FE00205EE04FF0010886F8DC8054
:1044600008F08AFEE968204603F042FA0028F1D1FC
:104470002878307068687060287A0021302208231C
:10448000F06001A808F040FD06943A7B09920025EF
:104490000095224AB96806F1100001AB05F0D4FC82
:1044A00001A828220823294608F070FD39690791E0
:1044B0001B49059406F12C0001AA2B4605F0A0FF2C
:1044C00001A824220823294608F05AFD06F16000BD
:1044D0008DF81C80414601AA06F0EAFC307838B914
:1044E00006F17C00294601AA06F0E2FC0D48706046
:1044F0003572C6F8BC50C6F8C050786800F0ACFB06
:10450000204604F011FE084A06F1C80004212346A3
:1045100007F038F920460EB0BDE8F08125460000CE
:104520008B820000A5D00000C1CB00002DE9F84F20
:1045300000298346009106DD024600980021401EB6
:1045400042F8041BFBD10098DFF8C880DFF8CC905C
:104550000028C8F800B012DD2F48009C076800252D
:1045600037F8020B38B1D9F80000AE0031580020FE
:1045700088474BF80600641E05F10105F0D1284F6D
:1045800041460120D7F80080C880B8F1000F22DD35
:104590004FF0000A00980127002817DDABF1040650
:1045A0000446002556F8040FB0F1FF3F04D0D9F8B7
:1045B00000106958884730600021B0F1FF3F08BF04
:1045C00001212D1D641E01EA0707EBD137B90AF15D
:1045D000010AC245DEDB04A007F0FCFE0D49002005
:1045E0000860BDE8F88FC0467864632E72756E74FB
:1045F000696D652E537461727475703A20276D6110
:1046000078506173736573272065786365656465A9
:104610006400C046600C002038DA00003CDA00007C
:1046200034DA000098B53A4982684468096810682D
:1046300049688847374B01229A6160B1217AFF2986
:1046400009D0FF21400921725CD2042018600220A9
:1046500008F059FD56E0207A002853D0401E1DD0A6
:10466000401E02D0FD3851D049E05968D4F8B4005A
:104670000170D4F8B800D4F8B410401E491CC4F836
:10468000B800D4F8B870C4F8B41017B3012F88BFBD
:10469000092202201A6008F036FD98BDD4F8B00057
:1046A000401EC4F8B000D4F8B070A7B9D4F8B87000
:1046B0007FB10220D4F8A8102072097C012F4FEAA4
:1046C000410141F0010143F8041C94BF03220B2275
:1046D000E0E7042210E0D4F8AC0000785860D4F889
:1046E000AC00022F00F10100C4F8AC00D1D2D4F824
:1046F000B870002FCDD1052200202072C9E7FF201D
:10470000207298BD04F12C0005F030F898BDC04629
:10471000AC010010042800402DE9F0430646ADF13D
:104720001C0D08F045FC06F05BFA4FF00009054649
:10473000CDF8009008F0E2FB30F0010002D00098C4
:10474000A84202D16FF0040059E070684C4658B19D
:10475000B0F1FF3F05D001A906F02AFA30B10746B3
:104760004CE04FF0FF3000E02046019007F00CFCD9
:104770000199012701EB000800E0019368680199A5
:1047800000F0A2FB00282ED003A805F045FFD8B901
:104790009DF8100002A906F011FD88B9B368BDF8B4
:1047A00008009DF81210059A984748B19DF81270BC
:1047B000B773BDF80800B081059B33614F4612E026
:1047C0000599684606F0CEFC0198641CB0F1FF3FE5
:1047D000D4D00028D2D007F0D7FBB8EB000302D02A
:1047E00001989842C9D2009905F1080006F0A2FF8D
:1047F00024B1686803F076F9641EFAD1384607B030
:10480000BDE8F0832DE9F84307467C68BE6808F0F0
:1048100081FBD4F8881000295FD008F0ADFC316826
:10482000486820F0020048603168486A20F00300C0
:104830004862D4F8A0507069316908436968096812
:10484000C1F804053168486920F00100486130680A
:1048500001250562384606F0A9FFD4F88800D0F893
:10486000048008F057FB814694F8D80058B118F03E
:10487000704F02D1042006F0CBF9022006F0C8F9EF
:10488000002084F8D800484608F076FCD4F8881058
:10489000087C042803D003200874D4F888103269F7
:1048A0007069D4F8A0301043854058680068C5622C
:1048B0003068B0F1804F14BF0A480B480E6880681A
:1048C00000258204A6EB9250401E08603846A2687C
:1048D000C4F888509047BDE8F88308F04DFCBDE867
:1048E000F883C0460005002030040020374938B561
:1048F0000978002854D0401E50D0401E15D02A4CB4
:10490000801E07D0401E4ED10A2007F08DF9207876
:1049100028B107E00A2007F087F9207810B901F0E4
:1049200051F938BD01F07AFF38BD244D012928D155
:1049300004F070F90A2007F077F907F087FC1B48AC
:104940001B4C0078022804D1207801280FD00220C7
:104950000EE007F0DFFE174A00210620401E02F895
:10496000011BFBD12078012818BF081C00D10520AD
:10497000FFF766F8104808F025FC284608F022FCEE
:1049800038BD03F0CBFB0F2007F04EF90C4802F0C6
:1049900019FF0C49284605F0C7FB38BD002000E090
:1049A00080200949087038BDEB090020C5090020A6
:1049B000CE090020BC4200201C400020FC3E00200C
:1049C0008051010080CBA400CD090020C609002041
:1049D000F8B50D460746314E69782878334C00EB20
:1049E0000120ADF800003188BDF8000088424BD1AD
:1049F0002B48006840F6FF7300EB0110034203D11F
:104A0000000BC0B208F015FB2648BDF80010007876
:104A1000AA1C1023090108F016FB3088224D401C07
:104A200081B22888318088422AD104F0A3F8E8B105
:104A30003846002102F05AFD06F0D8FF21780843DD
:104A4000207005F03BFF07F021FD98B12078410868
:104A500006D3174803683946002203209847207878
:104A600010F0060F06D008F083F803E03846012165
:104A700002F03CFD0025257007F06CFF3580F8BD85
:104A8000384602F067FFF8BD00203080207007F044
:104A900061FF3846032102F029FDF8BDA80B002074
:104AA0000042002004420020AA0B0020AC0B002092
:104AB000A40B00202DE9F843044608F02BFA8146A8
:104AC0002D48021992F8ED10491ECFB2002F82F83E
:104AD000ED704BD12B4D05EB84052E78698836F0AF
:104AE0007F0788461AD1F10911D24FF08054D4F8CB
:104AF000B801806901464046884704F5DC742068A7
:104B0000406B0146404688470228F8D121E000EB7F
:104B10008800D0F80011002088471AE04FF0805438
:104B2000D4F8B801006A014640468847D4F8B80175
:104B3000806A014640468847D4F8B801006B0146B8
:104B40004046884701210D4A0D48116001688908D7
:104B5000FCD306F03F003F2801D0FFF7ABFF687899
:104B600000F03F003F2801D0FFF7A4FF484608F0BF
:104B700003FBBDE8F883C04620050020282008601C
:104B8000282008404CD300002DE9F0410446E0788D
:104B90000A460023022808BF0123002100B9012191
:104BA000032841EA03034FF0000108BF0121194324
:104BB0004CD03ABB032849D12648066800238046DA
:104BC0001D0177190121384607F0BCFD80B994F921
:104BD0000B00387307F0D8F9B860D8F800002169E5
:104BE0000C310978281801702069407B464624E082
:104BF0005B1CDBB2462B29DA2069407B0628DFDB11
:104C0000BDE8F081012A21D1114E376835680023B3
:104C10002846062107F096FDA0B994F90B001D0166
:104C20007F19387307F0B0F9641DB86030682168E7
:104C300028180160A3888380FE2031686D18A87150
:104C4000BDE8F0815B1C10350A2BE1DBBDE8F0818B
:104C5000E0090020DC0900202DE9F041064608F0BB
:104C600059F92D4D8046A91991F8ED00421C0028F4
:104C700081F8ED204AD1294C04EB8604277807F00F
:104C80003F003F2801D0FFF7E7FF607800F03F00CA
:104C90003F2801D0FFF7E0FF668837F07F001AD188
:104CA000F80911D24FF08054D4F8B8014069014698
:104CB0003046884704F5DC742068406B0146304676
:104CC00088470128F8D121E005EB8605D5F80011C9
:104CD000012088471AE04FF08054D4F8B801C06929
:104CE000014630468847D4F8B801406A014630464C
:104CF0008847D4F8B801C06A014630468847012188
:104D0000074A0848116001688908FCD3404608F04A
:104D100033FABDE8F081C046200500204CD30000E6
:104D200028200860282008402DE9F0414568836864
:104D30000F6895F88C20B8B290401FFA80FC186874
:104D4000B0F1804F14BF254C254CDFF898E08868FF
:104D500038B995F88C0086007046825905F1A60096
:104D600006E095F88C2096001F4A92596044401E38
:104D7000A260606018683A0143F6F077103A174075
:104D800008302060A2683A43A2601C68B4F1804FEA
:104D900014BF164A164AD1F80480B8F1000F04D1A6
:104DA0007146895903F10E0604E0124989590CEB4A
:104DB0000806761E91601660506090680743976001
:104DC0001969D5F8A0605869084371680968886254
:104DD000606A40F003006062BDE8F08100050020D9
:104DE000300400204CD9000054D9000010050020E8
:104DF000400400205CD900001EF0040F14BFEFF344
:104E0000098169468869EFF3118102B400B5DFF8C2
:104E1000A4E0F047DFF8A8E0DEF8001001EA0000A7
:104E2000CEF800005DF804EB1EF0080F03D101BCC2
:104E300080F31188704704BC1EF0040F14BFEFF319
:104E400009816946A1F1200114BF81F309888D46CB
:104E50001B4B1868086040F2011018604A604FF060
:104E60008070C86117488861704702B401B4EFF3DD
:104E7000148100291CBF002282F3148802B402B4FA
:104E8000DFF834E0F04701BC01BC00281CBF022160
:104E900081F3148801BCDFF824E0F04704484FF0A8
:104EA0008051016001BC80F3118800BF00BFC04683
:104EB00004ED00E099880000DDD0000073D100000F
:104EC000F40800206B4E00002DE9F0410D46064627
:104ED000B5F1FF3FADF1380D09D045B12B496B4617
:104EE00005A82A4606F0B2FC05A9022001E000212F
:104EF00003200391264F8DF8100038682024EFF32B
:104F00001188371884F31188708980BB002D04BF85
:104F100088F31188002036D007F0BAFE064608F064
:104F200047F80290C0F818D005F064FD384669468D
:104F300008F020F89DF810000025022802D10398FF
:104F400002F0A4FB88F31188304606F093FCEFF3DF
:104F5000118384F31188039810B108F053F9039575
:104F60000298856183F311889DF810000BE0708929
:104F7000401E7081039818B108F044F90020039096
:104F800088F3118801200EB0BDE8F081A9B40000BB
:104F9000F4D900002DE9F04115460446A869A06047
:104FA000686A98460E4608B92A4800686062286A0E
:104FB000002806BF28480768071C07F0B7FFEB6901
:104FC000A3B9002808BF391C03D03F1841427F1EF7
:104FD00039400246E161606AE169434602F050FAF5
:104FE0002062206AB8B90120BDE8F081002804BF22
:104FF0002362391C0BD01B1841425B1E01EA0300DF
:1050000020623F1AE869C019E061E0690140E1618E
:105010004FF0FF306062A6622869E0626869206331
:10502000A86A6063A88DA087A08F012803D10B49CF
:10503000C868401CC8602046414601F0BBFD0346DD
:10504000404607F09DF9002814BFD81C0020BDE899
:10505000F081C04608DA00000CDA00009008002059
:1050600038B52B492B4A2C4C2C4D08781278012A44
:1050700022D0207800283FD105F09EFB06F0FEFCF0
:105080001F4901F0D1FE1F4901F0CEFE05F02CF9B9
:105090001DA20CCAFDF7D1FE04F0BEFA0146284657
:1050A00005F042F8002340F21B3001216A468DF8DA
:1050B0000030FCF797FB1BE0401C3C22C0B208709C
:1050C000401E90FBF2F15143401A07D11448154A93
:1050D00001687D2303FB01F0400910600520FEF705
:1050E000AFFC207830B1284640F2DE3105F01CF8E4
:1050F000207808B90F2000E00A2006F095FD38BDA1
:10510000000020410000802F0000000000408F4080
:10511000CD090020CE090020EB0900208C3F0020A3
:1051200028500940D00900202DE9F84F06F02CFF47
:1051300000252E4680462B4C274F236801215B1902
:10514000184607F0FFFA40B19868A8EB00008742C4
:1051500003D23046002104F0CFFE761C1035462ED7
:10516000EBDBDFF878900024BB46254626461E4838
:10517000036801211B19184607F0E4FA28B3986860
:10518000A8EB0000834520D2DFF854A099F8007006
:1051900018460622514606F087FE90B9381C10D0FA
:1051A000401E05D0401E10D10320FEF749FC0CE044
:1051B00089F8006006277F1E0AF8016BFBD10620E4
:1051C00000E02846012104F097FE6D1C10340A2DE2
:1051D000CDDBBDE8F88FC04620A10700C50900203F
:1051E000BC420020DC090020E00900202DE9F04746
:1051F0000D46064628687468B768002853D007F043
:1052000089FED4F8881021B107F0B6FF0320287476
:1052100049E04FF0010885F81080C4F8885007F085
:10522000ABFF94F8A40038B194F88D201F49D4F84E
:105230009C00114304F008FFD5F8049007F06AFEC3
:10524000824694F8D80050B919F0704F02D104206A
:1052500005F0F6FC022005F0F3FC84F8D8805046F7
:1052600007F08AFF3968486840F00200486030461D
:105270002946FFF759FD3968486940F00100486147
:10528000207830B9616804F16C052846FFF71CFEF0
:1052900010B14046BDE8F0873046FFF7B3FA284624
:1052A0000021FFF711FE0020BDE8F0870000068016
:1052B000042998B547D1244807F080FF234C48B90A
:1052C0002B48411D0978490838BF206804D31C3891
:1052D000406800E0C068206041681D4A097811609C
:1052E00040681168007888422CD1022005F0A8FCA3
:1052F0001120FFF7B1FC1749012008702168087CD4
:1053000018B115480078012803D00E20FFF7A4FC3F
:105310002168496811488F680FB9CF681FB1002113
:10532000C1610F4F07600F4A40F2FF711160002703
:1053300087610D4941610D4807F056FD192004F0C1
:10534000F3F998BDFEE798BDA4410020643E00201B
:10535000D02108408A3E0020883E002000100440F2
:105360005100070600000460020000406580000054
:10537000D03E00202DE9F8430D4606466868746863
:10538000D6F80890002710B9E868002850D0207897
:10539000012814D107F0BEFDD4F8BC1049B1D4F8EF
:1053A000C0108D61C4F8C05007F0E6FE0120BDE8D2
:1053B000F883C4F8BC50C4F8C05007F0DDFE0220EA
:1053C00005F03EFC04F160084FF0FF314046FFF766
:1053D0007BFDD9F8080004F085F93046294601F034
:1053E00005F90546D9F8080004F09EF9207888B937
:1053F000B5F1FF3F08D004F17C004FF0FF31FFF71B
:1054000063FD207A48B110E003202072022005F0ED
:10541000FFFB0AE0B5F1FF3F01D0012705E00320C3
:10542000207204F12C0004F0A1F9404602F05AFB6E
:105430003846BDE8F8837047F8B507F011FD07F06E
:1054400027FD044604F00C000C2845D0E0081ED2CD
:1054500005F0FEFF234E376805460120014606F0A1
:1054600010FE31686943884211D21F4C8220B0FB84
:10547000F7F0291A204607F0C7FE204607F041FA48
:105480000120FCF7FBFD204606F08EFD25E02009FB
:1054900022D21648610939BF016821F00101016873
:1054A00041F0010102460160D2F898004FF08054AB
:1054B00040F00300C2F89800D4F8B80180690146B2
:1054C00020208847D4F8B801094C806B21688047B8
:1054D00001202060206800E030BF07F0C7FC02F028
:1054E0006DF8F8BDE8D900002C0500208C2108409B
:1054F0002C2009402DE9F041DFF8A880044698F8F7
:1055000000001F4616460D46ADF1300D012804D0AF
:10551000FEF730FB4046012101704DB165603EB1A0
:10552000A66007F0F7FC204A117819B107F024FEB5
:10553000002033E0491CC9B2117007F01DFE01259F
:105540001FB9684607F01CFB6F4638682060786812
:10555000E060387A00217822207404F1180001F00C
:10556000A4FC03A800212422082307F009FD8DF8DC
:10557000245004F13000002103AA05F099FC03A88F
:1055800000212422082307F0E3FC0849099404F1D0
:105590006800002203AB05F0DFF920460CB0BDE83F
:1055A000F081C046DE0A0020703E002013D10000CA
:1055B0002DE9FC470C46814620781D4616460AAF69
:1055C000022832D0DFF894A060681022514606F01D
:1055D00043FADFF88C80002750B940460368002B5F
:1055E00038D020480570012049463246984731E0BE
:1055F00060680AF11001102206F02EFA20B9404628
:1056000003683BB30220EFE760680AF12001102233
:1056100006F022FA90B9012D05D1307800281CBF80
:105620001149087016D1802714E06068417800782D
:1056300042F6021300EB0120834201D00A2709E061
:10564000388801272B46214600904846019702F0F2
:105650007DFF07463846BDE8FC87C046E4D300001E
:10566000A40B0020AD0B0020A20C002010B50028D8
:10567000ADF1200D4BD0401E4DD10120694605F003
:1056800003FD9DF80000254C254A01282DD09DF8EA
:10569000000003283FD19DF80100401E01283AD8A0
:1056A0009DF801009DF80130207011468DF81930E9
:1056B000097807AA06AB80201970022104F0DCFDEE
:1056C00020789DF81D10884205D08020022106AA6E
:1056D00004F0EEFD2078012803D002281BD1002021
:1056E00000E00520FEF7ACF915E00DF101000178AE
:1056F00003461170197805AB18460170207805AA89
:1057000002218DF81500802004F0D2FD03E0002076
:10571000694605F0B9FC08B010BDC046CE090020AE
:105720005D0B00202DE9F0410446254DDFF8948003
:105730002878012803D0022818BF032806D1601D4D
:105740004146062206F0B0FB002837D1204600F083
:1057500043F92978064620B3401E1AD0401E13D0C4
:10576000801E0AD0FA3829D111B91948007828B317
:105770002046FEF72FFBBDE8F081022918BF012962
:105780001CD14EF6602115E0012916D0032915D150
:1057900013E099B9641D216840460160A78887809D
:1057A0000BE0002006277F1E08F8010BFBD104291F
:1057B00003D10649044804F0B7FC2E70BDE8F0811F
:1057C000C5090020BC420020FC3E002080CBA40084
:1057D000EB090020F8B50D46EEB2290824BF254993
:1057E0004D40254AB300D15885EA01040440C4F372
:1057F000006C224C00EA050781433C4000F4E0279E
:105800002143B7F5E02F01D14C0E15D300F4E0246D
:105810005CEA040710D001F4E027B7F5A02707D011
:10582000B7F5803704BF21F4003141F4A02103E033
:1058300021F4803141F4C021114CD150C10D04D369
:10584000A4F1D001C5F380528A55000E10D307F0A1
:1058500061FB290E03D201210022B14002E00121A7
:10586000B1400A4623688B431A43226007F084FC48
:10587000F8BDC046006000A000100840007F077F10
:10588000D0200240F8B51F4616460C46054607F0E4
:10589000E7F9244AB2F91010091B04D4B2F9121026
:1058A000A14204DA0CE0B2F91210A14205DAB2F911
:1058B0001210B2F91020914202DC05F081F82EE0BE
:1058C000194BA11004EB517121F00701641AE1009A
:1058D00001EB44115C1894F8241011F0070F17D154
:1058E00012496268914202D062686160AA6505F15E
:1058F000500181E8C00005F063F805F130004FF079
:10590000FF31FFF7E1FA05F1600494E80300F8BD08
:1059100005F056F894F8240010F0070FFAD1022091
:105920000021F8BDA4410020F0380020658C000063
:105930002DE9F84306462348006890460F46B042DA
:1059400018BF03203CD1224C204603F0E7FA051C87
:1059500035D407F0DFFA1C4B814605F00F0047EA0B
:10596000002727F0030143EA0100206006F03CFA1B
:1059700000F0FF0001281AD1780B0FD3134A05F16C
:105980000C010120884011688143116094F82100C6
:1059900084F8205040F0040084F82100666004EB95
:1059A00085040C4844F80C8C0121017004E0284661
:1059B00002F01EFF6FF00105484607F0DDFB2846A8
:1059C000BDE8F883643E002001000306081004408F
:1059D000B43E0020DD0A00202DE9F041C778002206
:1059E000022F08BF0122002107B901210026032F41
:1059F00041EA020108BF01260E4332D0027B002497
:105A000003E009780919491CCCB2A24229DD0569D5
:105A10002B195B786119FF2BF3D10878271D20180B
:105A20005FFA80F8FCB201E0A41CE4B2601C80457F
:105A300017DD0F4867190122394606F035FA661955
:105A4000002808BF787810D00A483146012206F0B5
:105A50002BFA0028E8D17078012802D10648007896
:105A600010B1FE20BDE8F081B078BDE8F081C046FD
:105A70005D0B0020DF0A0020EB0900202DE9FF412B
:105A800005460E46084606F0ABFF1E4901EB001026
:105A9000017A042907D101884FF6FD70884202D0AF
:105AA000801C884201D1142029E0174C2088062848
:105AB00023DDB0F5486F20DA052004F099F8804620
:105AC0002088ADF80200114FADF800603888104B07
:105AD000ADF8040018880F4AADF806001088ADF83C
:105AE0000800684606F0F4FF071C07D10A48057055
:105AF0000A48414604F018FB00E018273846009099
:105B0000BDE8FF8148420020220B0020240B00202A
:105B1000260B0020280B0020200B0020F83F00203F
:105B2000F8B507F0F7F9254C0746E06910F4602F47
:105B300026D0400CC6B2700807D2B00803D2F008D5
:105B400028BF022602E0012600E00026751D68B28B
:105B500002F04EFEE36906F111010120884023EABC
:105B600000013846E16107F007FB04EB8600876817
:105B70004FB16068294600224FF00063B84702E049
:105B8000384607F0F9FAE06918B10D48002106F02F
:105B900051FE94F8210080080ED3676937B1606820
:105BA0006FF0010100224FF00043B84794F8210044
:105BB00000F0FD0084F82100F8BDC046B43E00208E
:105BC000003E002020487CB5012404701F48007866
:105BD00040B1002340F21B3021466A468DF8003068
:105BE000FBF700FE1A4A40F207300B210023FBF7B7
:105BF000F9FD1848054606F0CBFF10B1284607F01E
:105C0000E1FA154E304606F0C3FF10B1304607F0FA
:105C1000D9FA28464EF6602104F086FA00210320C6
:105C20000A4604F065FF0D4821466A468DF80010CB
:105C30000023047040F20530FBF7D4FD08480078DB
:105C4000102105F09DFE7CBDEB090020C609002057
:105C5000D40B0020D83E00208C3F0020D809002023
:105C6000E0410020F8B51F4F224E234D387802281E
:105C700024D11D4908783C22401CC0B20870401E47
:105C800090FBF2F15143401A07D11848184B0168B4
:105C90007D2404FB01F04009186019480078FDF7E5
:105CA000CFFE307850B9287840B1012140F21B3046
:105CB0006A4600238DF80010FBF794FD0F4C207806
:105CC00078B939783078012903D02978084301D18F
:105CD000F8BD30B1002103200A4604F009FF01207D
:105CE0002070F8BDCE090020CD09002028500940C1
:105CF000D0090020EB090020C6090020D8090020A7
:105D0000C5090020F8B50F4601468E684D68384633
:105D100020383AD0401E34D0401E2FD1287B147832
:105D2000012814BF1D491E49FF2C41EA040109D175
:105D300095F88D10FF2903D0D5F89C0002F050F89B
:105D4000FF2415E0D5F89C0001F036FE98B93068C4
:105D5000B0F1804F14BF23220B22D5F89C002146BE
:105D600005F0B0FAD5F89C0095F88D1002F038F8DF
:105D700085F88D4010E04FF0FF30F8BD6FF0010066
:105D8000F8BD002085F8A400F8BD297B002001297A
:105D900008BF012085F8A4000020F8BD0004C0A0C1
:105DA00000200080B0B501468B681C68E269486835
:105DB0002262520824D2D0F8A01049680A685D69AE
:105DC000D2F80415294206D01C68616A21F002014C
:105DD0006162C2F80455D2F8042519690A4230D02C
:105DE0001A68516A21F001015162D0F8A02052686E
:105DF000196912683830C2F8041503F0B7FCB0BD59
:105E00001C68626922F001026261D0F88870AFB943
:105E1000626822F0020262601C68626A22F0030279
:105E20006262D0F8A0005A6940681C690068224389
:105E3000C0F80425084605F0B9FCB0BD0846FEF7D9
:105E4000E1FCB0BDF0B520480127F84201D003F0D5
:105E5000B1F8204D204F214EBD4206D203CD04782B
:105E6000A4003459401CA047F6E71D48002800D084
:105E70008047164D164FBD4202D210CDA047FAE71B
:105E8000F0BD03251BE0416808300A1C2A400BD1F5
:105E90001A1C2A40AB4305D0046804300C6004315E
:105EA000043BF9D1131C05D0047801300C7001318A
:105EB000013BF9D1021C2A4001D0A84304300368F9
:105EC000002BE0D17047C046FFFFFFFF000000003D
:105ED0000000000030DE000068DE0000F0DD0000A1
:105EE000058D00001B4838B50468B4F1FF3F08BFBA
:105EF000002406F06BFD00251748184905600120B5
:105F000008601749086002F00DFE1648006820B1CD
:105F1000154800682046FBF799F8144814490560B5
:105F2000144C0A686FF35B4244EA020008601249AD
:105F30000868C0F30130012806D10A680F481040F4
:105F400040F400320A6008600D4908680028FCD15E
:105F500038BDC0461C130050840460425C600C4095
:105F60000822044380012843000120438C2108407B
:105F7000482003400000390104000940FFFFFCFCF9
:105F80000C0068427FB506461F4800780D46082879
:105F900014BF04240024084603F0D0FC684601F036
:105FA000A9F818B93046694600F044FD6419E17853
:105FB000A078164D164B00EB012082102A80002598
:105FC0001D80144B694620461D7002F08AF9A0B16D
:105FD000204606F0AEFE104908601049040B0C8004
:105FE00006F038FB20B93046022101F07FFA08E0C4
:105FF0003046294601F0AEFC03E03046694600F029
:1060000019FD00907FBDC046AD0B0020AA0B0020FB
:10601000A80B0020AC0B002000420020044200200E
:10602000002A4AD05FEA000C8B071CD1830722D1DB
:10603000102A08D370B4103A78C978C0103AFBD24D
:1060400070BC103238D0042A2CD3082A05D30C2A6D
:1060500024BF08C908C008C908C008C908C09207F9
:106060002AD0920F22E00B780370491C401C521E6C
:1060700022D08B07F7D1C30714D18307D8D0121FC2
:1060800012D308C903801B0C4380001D121FF8D2D5
:106090000AE008C903701B0A43701B0A83701B0ABD
:1060A000C370001D121FF4D2121D05D00B780370AF
:1060B000491C401C521EF9D1604670472DE9F84337
:1060C0002020EFF3118780F31188214CA068012173
:1060D00007F08EF84FF001094FF00008656921685C
:1060E000A4F81C906A1A2168A4F81E80461B401A66
:1060F000904227D387F3118840464519361A4846FF
:10610000294600F047FFB042F7D92021EFF311876D
:1061100081F31188E18B012903D14046294600F023
:1061200039FFB0F1FF3F06D0A169801B814238BF23
:10613000081C411901E0A069291806F0DBF8A4F851
:1061400020902560A4F81C8087F31188BDE8F883AF
:106150009809002070B51E4C206850B31D4E4AF2BD
:10616000104585421ED304F027FB05F087FC164935
:1061700000F05AFE154900F057FE216805464FF41D
:106180007A704843A0F57A7005F078FC2946FEF74E
:10619000D5F804F079FB0146304603F0C5FF002036
:1061A000206070BD0C49304603F0BEFF2068401BE4
:1061B000F6E701F0B3FF0948094903F0B5FF0948C4
:1061C00001F000FB70BDC0460000FA440000802FC3
:1061D000D40900201C40002080DE8002FC3E00200C
:1061E00080CBA40080510100B0B504462048A768C8
:1061F0000068ADF1280D2FBB0C2000F067F9071CDB
:1062000017D0684600212422082306F0A1FE0023AF
:1062100006976A466168ADF810301648059304F099
:10622000D3F83860386838B905F092FF384604F082
:10623000D9F96FF0030018E0E06878602069B86071
:10624000A7600AE080470546386805F0ADFE0A4BB6
:1062500020691968B860284688473868616806F080
:10626000D3FF386806F04DFB00200AB0B0BDC04631
:10627000800B002019CE0000840B00202DE9F8438C
:10628000DFF87C900F4605464FF0FF314846FEF799
:106290001BFEDFF870801D4800210AE0FF2A07D0AE
:1062A0000368934202D958F822600EB1002520E01D
:1062B000491C1FB117F82120FE2AEFD100242C60C1
:1062C0006C600126AC600EE0FF280BD06A6848F8CD
:1062D000205006FA00F0104368600A680A49284610
:1062E00004F01CFA641C27B107EB84010878FE282F
:1062F000EAD1484601F0F6FB2846BDE8F883C046DF
:10630000DC400020D83B0020007FC767D842002037
:10631000FEB584460D461C4608AF287A3B888009A6
:1063200028BF08203AD22878FF2702282BD1686896
:1063300041780078002600EB012042F60211401A55
:1063400017D04DF2EF61401A1ED0401E0FD163B935
:10635000E86811462246FFF763FEE868C4F11402BC
:106360003146201800F0A1FD10E007260CE00A26B7
:106370000AE000930120294623460190604602F07E
:10638000E5F8064600E00126FF2F06D00448006825
:1063900018B1016809B1012088473046FEBDC046EA
:1063A000700C002022482DE9FE4F00885FFA90F221
:1063B000000100F47041401A1E491FFA80FB088852
:1063C000C5B282185FFA82FA0022AA45019226DB42
:1063D000AAEB05068846761CA8420CBF04240024BC
:1063E000AA45D8BFA34514DD284621466A460423A2
:1063F00006F024FE0427E94619F8011B019804F071
:10640000AFFC7F1E0190F7D1241DA4B2B4F5805FCC
:10641000E6DBB8F800006D1C761EEDB2DCD1019809
:10642000002104F09DFC002104F09AFCBDE8FE8FE1
:10643000AA0B002004420020FEB50446224816465E
:10644000089FC069618250F821201C4800681D46E1
:1064500090420DD01B480068009000220191184E18
:10646000029231888F23384605F098FF0120FEBD47
:10647000084603F037F9A66068696060286AB0F1E1
:10648000FF3F08BFFF2020740026E660288B00280D
:106490000EBF301C0120E0600146A88C10B141F015
:1064A0000200E060204601F0CDFF0346384605F0CB
:1064B00067FF002814BFD81C301CFEBDD4D90000D3
:1064C00066DA0000C0D90000D4080020F8B5001D2D
:1064D00084B214F0030002D0241A241DA4B205F0E3
:1064E00087FF1C4E0146102C194837680160C4BF55
:1064F00019480768388800221646C30BDD0319D1F6
:1065000026B984420ADD3A46012617E01388C318EB
:106510009BB29C42138011DC174618469FB1001BAA
:1065200080B20428B4BF3C88385344F400443C8013
:106530003F1D08E080F40040002680B2C71938886B
:106540000028DAD10027084606F0A4F93846F8BD3D
:106550007042002074420020784200202DE99843C8
:1065600006F0D8FC1F4CDFF87880814604F1E0008B
:10657000007850B94446A068014602208847074683
:10658000102002F061FE2FB320E001F0FBFB002899
:1065900020460FD1144909683222B2FBF1F101B94A
:1065A000012100F13004204606F02EFE204606F0C0
:1065B000A8F90FE044460022A16880F8E0200220FC
:1065C00088470746102002F03FFE1FB1A068014631
:1065D00003208847484606F0CFFDBDE89883C046B3
:1065E00094D8000020050020E8D9000080B542685A
:1065F000C2F8A8100868C2F8AC004868C2F8B00039
:10660000D2F8B0708868C2F8B400C8681949C2F8F6
:10661000B80097B9D2F8A800007C400040F0010013
:1066200041F8040C022010720B68DB0917D2D2F873
:10663000B820022A17D30B2216E0D2F8A800007C5B
:106640000123400041F8040CD2F8AC001372431C43
:10665000C2F8AC30007848600868C00902D34FF037
:10666000FF3080BD022003220A6006F04CFD0020AE
:1066700080BDC046042800402DE9B84104460120F1
:106680001E4DDFF87C8060712079D0B905F0B0FE36
:10669000844628460778002F04BF6FF0070564463C
:1066A00017D07F1EFFB207704FB9604606F0F2F8B0
:1066B0004046006804F074FC0020607119E06446F4
:1066C00014E005F095FE29780446FF2905D16FF006
:1066D0000605204606F0DEF80CE0491CC8B2012889
:1066E000287003D14046006804F071FC204606F093
:1066F000D1F800252846BDE8B881C046F80B002037
:10670000FC0B002070B51F4CA568064605F08AFFFB
:106710004FF47A71401B4843050C04F01BFF2169BC
:10672000401A48BF404240F6B831AD19A94211D3D2
:1067300006280FDAA268E1688A420BD8206848B1BF
:10674000891A114A51438A0C02EB1141884288BFD1
:10675000011C08E00D49486840080ED208687D21F8
:1067600000F0FF004143C82905D3B1F57A6F88BF17
:106770004FF47A6103E0C82101E04FF4FA61084662
:1067800070BDC046CC41002040420F00AC3F0050DD
:1067900070B5204C1E4D2078022809D100202070B1
:1067A00006F0ECF818B928680168032088472078BB
:1067B00001280AD100202070042006F0DFF818B963
:1067C0002868016802208847207803280ED1002617
:1067D0000420267006F0D2F838B9304606F0CEF81C
:1067E00018B92868016804208847207804280AD14D
:1067F00000202070032006F0C1F8012803D128688A
:1068000001680520884704480121017070BDC04619
:10681000F00B0020F60B0020F70B0020204838B5C5
:106820000024047006F0E6FA40F2053001216A46C1
:1068300023468DF80040FAF7D5FF144D284606F0A0
:10684000A7F910B1284606F0BDFC114A40F2073006
:106850001F212346FAF7C6FF0E48007868B10121D0
:1068600040F21B306A4623468DF80010FAF7BAFF53
:1068700009480078102105F083F8084800780128BD
:1068800003D105F0E3FC05F045FF38BDD83E0020FC
:10689000800A0020C6090020E0410020CE09002027
:1068A000EB09002070B51B4E3078800004F01AFF11
:1068B000194D286060B33078800004F013FF174C46
:1068C0000028206008BF2C1C1FD03078800004F006
:1068D00009FF134E3060A8B129684FF6FF7003F02E
:1068E00033FE21684FF6FF7003F02EFE31684FF63D
:1068F000FF7003F029FE0B480B4B10210A4602F0F3
:10690000BFFD70BD286805F0CFF9206805F0CCF90F
:10691000132070BDA3410020F4410020F841002065
:10692000FC4100202C06002010D90000F8B50446D8
:10693000E7780023022F08BF0123002007B90120B8
:106940000026032F40EA030008BF012606432AD091
:10695000154F3E68A2B1154F3E68012A23D194F924
:106960000B000D017619307305F00EFB641DB0604D
:106970003868216828180160A3888380FE200FE012
:1069800094F90B000D017619307305F0FDFAB06033
:10699000386821690C310978281801702069407B1A
:1069A00039686D18A871F8BDDC090020E0090020E5
:1069B00070B50C461E490968814218BF032030D1CA
:1069C000184890F82110C9080CD390F82010A14263
:1069D00008D1002690F8211080F8206001F0FB011A
:1069E00080F8211006F096FA0646204601F000FFD6
:1069F0000D48210201F47F41084305F0F5F90B4AE7
:106A00001168054604F10C0301209840814330468B
:106A1000116006F0B1FB05F0FF05012D0CBF8120D0
:106A2000022070BDB43E002001000804081004409C
:106A3000643E00203EB50C461B490968054606F039
:106A40004FF840082DD328461B210822002305F0CB
:106A5000FBF8019028B3164A14481021921E05F045
:106A60004CFB08234089ADF802300199ADF80000D5
:106A700022780A702188019809124170A1788170EA
:106A80006188231D0912C17019680022041D28465F
:106A90002160694605F0C8FA18B168461B2105F067
:106AA00019FD05F057FF3EBDF44100202C060020E3
:106AB000A20C0020B0B5C7780022022F18BF012217
:106AC000002107B10121032F01EA02014FF000026A
:106AD00018BF01220A4218BF042025D1027B0021E1
