:020000040000FA
:10100000E718FFFF0000007845454545000401FF53
:10101000300200208991000075B1000075B1000018
:1010200075B1000075B1000075B1000075B1000028
:1010300075B1000075B1000075B1000075B1000018
:1010400075B1000075B1000051B600002DE9F04FF8
:10105000ADF1940D07F014F8AA4C04F18C0004F1E2
:10106000980105F0D3FAA849606204F144000860D1
:101070000820ADF828000120ADF82A000AA809F0E0
:1010800093F99DF82C0020700C98606104F17400B5
:101090000AF088FE9D4D4FF4FA620423A0612946B0
:1010A00004F1DC00209007F02DFF0A22402304F514
:1010B0008070294607F026FF4EF660224FF4004369
:1010C00004F59270294607F01DFF4FF47A724FF431
:1010D000007304F5C87029461C9007F013FF8C4A72
:1010E00004F5A4704FF40063239229461E90D200A9
:1010F00007F008FF239A04F5B67029464FF4805391
:101100001F9007F0FFFE1F200A2108F083FE002534
:1011100040F20530012102AA029501F04FFFA846D6
:1011200040F20630022102AACDF8088001F046FF05
:101130004FF001094FF4447002AACDF808904946D7
:1011400001F03CFF062540F21130022102AA02956F
:1011500001F034FF0C2740F21230022102AA02975C
:1011600001F02CFF40F21330022102AACDF80880D2
:1011700001F024FFD2264FF44570022102AA029604
:1011800001F01CFF4FF442704146224601F016FF69
:1011900004F1BD0240F207301F2101F00FFF4FF4B0
:1011A000C86A0A20CDF808A0514608F033FE0B208B
:1011B000514608F02FFE0820514608F02BFE09206A
:1011C000514608F027FE2846514608F023FE072026
:1011D000514608F01FFE4FF0500A40F204404946C5
:1011E00003AA8DF80CA001F0E9FE022040F2E241D2
:1011F00008F010FE032040F2E24108F00BFE102040
:10120000514608F007FE1220514608F003FE112057
:10121000514608F0FFFD1320514608F0FBFD232046
:10122000414608F0F7FD4846102108F011FF04F18F
:10123000A802404615210AF0E7FB3846ADF82050D9
:101240004746ADF826600821ADF8220008AAADF89F
:10125000247004200AF0D8FB4FF40070022102AA87
:10126000029048460AF0D0FB032008F0D7FE042085
:1012700008F0D4FE04260820AC4DADF834002878E0
:10128000ADF8366080000E900DA809F08DF80028AA
:101290000CBF0F98381CA64F786038B109F0BAFE21
:1012A000A44A07F13000082108F01EFA09F02AFBD1
:1012B000A1490028C86030D009F024FB9E490E46A1
:1012C00008610C36316828B309F01CFB9A49486163
:1012D00028B930680AF02AFA974800691BE00846E6
:1012E000C06809F097FE9448006909F093FE92489F
:1012F000406909F08FFE9048904A1021203008F094
:10130000F3F90AE020050020840D002085B60000D6
:1013100080CBA40008460AF009FAA06C86498861CF
:1013200004F180000AF03EFDE061102104F140006C
:101330003860022008F08CFECDF808804FF4816000
:1013400002A908F04DFDCDF808904FF4806002A985
:1013500008F046FDCDF8088040F2024002A908F0EE
:101360003FFD032002A9029040F2034008F038FD3F
:10137000CDF8089040F2064002A908F031FD404641
:10138000772106F04DF880B1CB49882018220AF069
:10139000FBFC40B1B6208DF80D000DF10D014A4661
:1013A000E02009F085FC0AF08BFD8DF80E804046A8
:1013B000772106F035F838B1F4200DF10E014A46D8
:1013C00009F076FC0AF07CFD4046432106F028F83F
:1013D00058B11020ADF8100004A90220024609F00F
:1013E00067FCCD4908700AF06BFD606A0C2142462B
:1013F00008F0ACFD4046452106F012F858B14FF414
:101400008650ADF812000DF112010222484609F093
:101410004FFC0AF055FD4046442106F001F840B16A
:10142000CD49404608800220024609F041FC0AF0FE
:1014300047FDCA4842460721009013464FF6014037
:1014400008F0F6F84FF48C6009F014FE2063206B6E
:1014500041464FF48C6205F084FEA02009F00AFE9C
:101460006063606B4146A02205F07BFEAF7B37BB1B
:1014700004F13C0095F801B095F802A06E7B68621B
:10148000182009F0D7FD071C19D0042142460AF0A4
:101490001FFB584609F06EFC387287F809A0BE722F
:1014A00005F14400F86005F154033B6105F12002A9
:1014B0007A6109F0CFFDC64A394608F0E7F90C20F9
:1014C00009F0B8FD071C0BD0494604220AF094FC31
:1014D00004F16000B86009F0BDFD394609F054FA26
:1014E000802041460DF1160208F048FBB8B9802073
:1014F00002210DF1160208F025FB80B90DF116014D
:101500000978A01D01709DF81700401E012884BFB6
:101510000220207208D89DF81700207200E0207A7F
:1015200001280DD002280ED140460AE0BC09002057
:10153000BC140020F8C8000090120020F4C2000083
:10154000052003F0DFFB08F0DDF904F15800A74D9A
:101550001D90A81C2190083022900820ADF8400072
:101560000A27ADF842704FF0FF36119610A808F028
:101570001BFF002840F04B81002001900827ADF8A8
:1015800048700926ADF84A6012A808F00DFF149EB5
:101590000028019640F03581BDF84C004FF001085D
:1015A000102840F08F8020789DF84E10884240F03F
:1015B000898030884FF6FF7181427FD170880009A1
:1015C0002CD3276A57B32079B7F802B0401C20719A
:1015D00097F804A0102009F02DFD07F10809071C59
:1015E0001CD0022115220AF007FCA7F808B087F8E2
:1015F0000AA0C7F80C9009F02DFDBD4A394608F045
:1016000045F90746162F09D0042F07D0206A4088D5
:10161000002109F035F9384609F024FA70884009AC
:1016200050D3217A6079012922D0677B002F3FD1E6
:1016300008F0DAFC09F00AFCAA4905F051FDA849B6
:1016400005F04EFD08F0B6FAA7A20CCA02F055FC50
:1016500007F0DEFD01461C9808F058FA00204146CC
:1016600005AA8DF8140040F21B3001F0A7FC1BE026
:10167000401C3C21C7B20B4667717F1E97FBF3F0FD
:1016800048433F1A06D1C34801687D2707FB01F094
:101690004009A062052003F035FB677B37B11C9839
:1016A00040F2DE3108F032FA677B0FB90F2000E01C
:1016B0000A2009F03BFE05E0D8410020304600F04A
:1016C000A7FF80460198002800F09B80B8F1000F2A
:1016D00000F0978030460AF041F892E0A069064693
:1016E0000AF091FB38B930460AF038FC87680AF0F6
:1016F00011F8384600E000200028074600F08180FD
:101700003888401E74D0401E6BD01E3806D043F679
:10171000E071401A61D071E004420020B878E178AD
:10172000002857D0401E51D0401E19D0801E07D02F
:10173000401E63D10A2009F0F9FD667B2EB107E057
:101740000A2009F0F3FD667B16B905F00FFC55E0A1
:1017500006F092F852E0C0460C42002081C0000022
:10176000012926D108F0ECF80A2009F0DFFD09F084
:1017700069FEA078237A022803D1012B0FD0022022
:101780000EE00AF04BF800201D9A0021461C11546F
:10179000F0B20628F8DB012B18BF081C00D1052089
:1017A00003F0B0FA1E980AF0D8FC1F980AF0D5FC96
:1017B00024E008F0A7F80F2009F0B8FDB54806F0BE
:1017C00093F91F98239908F0A1F917E0002002E08F
:1017D000CBC000008020607110E0786809F08EFFB7
:1017E0000CE0B87804F064FB08E0C0465019002013
:1017F000786800F00DFF786809F0B0FF384609F00E
:101800007DFFA0690AF0FFFA00283FF467AFE68980
:10181000F0080DD326F00406E681E378277A43B179
:10182000022F06D120980AF096FC04F0E7FAE68928
:10183000277A606A8046F0090CD326F040064046BD
:101840000A210022E68108F081FB404600220F2198
:1018500008F07CFBB00A4DD326F40076022FE68117
:101860002BD10AF079F90020607260793C210E4694
:10187000401CC7B267717F1E97FBF6F048433F1AC2
:1018800006D1444801687D2707FB01F04009A062AA
:10189000A07803F037FA607B68B9E7785FB1012080
:1018A0008DF8150001210DF1150240F21B3001F0F9
:1018B00085FB277A01E0277A00E0607B667A6EB9C3
:1018C000012F04D0E17850EA010701D106E028B1E8
:1018D00008F0C0FF01206072E6890BE0E6890AE0AB
:1018E0000000802F000020410000000000408F40D9
:1018F000DDBD0000607BF10BCF0306D06FF3DF3658
:10190000E68110B105F0B8FFE689700B18D326F414
:101910008056E68108F014F809F094FD09F07EFF86
:1019200000201D990022471C0A54F8B20628F8DB53
:10193000207A012814BF101C052003F0E3F9E68982
:10194000300B3BD326F40066E76AE6816FB34AF2B8
:101950001040B84220D308F047FB09F077FA7D49E0
:1019600005F0BEFB7C4905F0BBFBE16A06464FF47F
:101970007A704843A0F57A7009F068FA314603F0AE
:10198000D9FB08F07FFB01461E9808F0BFF8002045
:10199000E06213E0285009401E98704908F0B6F83C
:1019A000E06A4AF21041401AF2E707F0ABFF1F98D5
:1019B000239908F0ABF8374806F096F8E0690AF08A
:1019C00022FA00287FF4C9ADE0690AF0C7FA06469A
:1019D0006348317A4078012907D0022940F0B58068
:1019E0007089F16802F0C0F8AFE0B6F80A80F768D5
:1019F00008280CBF4FF000094FF00409219A7978AC
:101A0000387800EB01201080B878F97800EB0120DD
:101A10005080387B797B00EB0120E881B88807F1A2
:101A20000803E880F888229A288119681160B87B39
:101A3000287404F097FA78B3287C022804D003288D
:101A400018BF4FF4F02001D14FF4F220102118AA52
:101A500007F00EFD06F0B2FDBDF86600ADF85600C9
:101A6000BDF86400FF2808BF00201AA9ADF8540093
:101A7000096816A80160FF228DF85F20BDF86C0090
:101A80008DF85D009DF86E308DF85E3001128DF896
:101A90005C1005E080510100404615A905F06EFD7F
:101AA00009EB07022E4FD17890783B4600EB0120DE
:101AB0008010B880002159800B463B70107A517A13
:101AC000D77800EB012083009178907A01EB072111
:101AD0008F10B7F5005F34DC002F32D0032804D01C
:101AE000190B2ED0B3F5F83F2BD8B3F5805F01D09A
:101AF000012826D0BDF854704FF6FF71B94204D0CA
:101B00001FB113880BB19F421BDA012814BF4FF499
:101B1000003000201249070B0B46C8612878DF808F
:101B2000012802D004F01EFA2870012804D0404693
:101B3000022106F01BFA08E04046002106F0E0FB17
:101B400003E0404615A905F019FD304609F0D6FD21
:101B500034E7C0460000FA440000802F80DE800297
:101B6000901200202DE9F04F0120ADF17C0DADF871
:101B700016004FF0080BADF814B005A808F014FCDF
:101B8000CD4C4FF0000884F80E809DF8180060706E
:101B90000798E06109F07EFF04F134094FF6FF7009
:101BA000A9F8000045468DF80850584609F042FA59
:101BB000071C0CD0012112220AF01EF909F04AFA82
:101BC00002A90123CD4A0091394607F07DFE9DF818
:101BD0000800CF4E207042460123314604F1A40094
:101BE000129007F08FF904F1C800424602233146F3
:101BF000119007F087F904F1EC00424604233146C6
:101C0000109007F07FF9062041461022A07004F1E1
:101C1000440005F0A6FA04F154004146102205F0F4
:101C2000A0FA256284F8078004F1440784F808804C
:101C3000072084F80A8004F144026072102114978E
:101C4000022007F07FFF04F1540004F15402102138
:101C50001590032007F076FF04F1200004F1200224
:101C600018900420014607F06DFF04F1280604F1E6
:101C70008300139004F16405169604F12E0717955E
:101C80004FF6FF731997981E1D900A20ADF8220099
:101C9000ADF820B04FF0FF37099708A808F084FB93
:101CA000002840F0BE8140460190ADF828B00927D9
:101CB000ADF82A700AA808F077FBDDF830C0CDF83F
:101CC00068C00028CDF804C040F0AB81BDF82C10EE
:101CD00060780127102940F097819DF82E108842E6
:101CE00040F09281654629884FF6FF728A4200F0E3
:101CF00083811B972F78A23F00F068812E3F40F030
:101D0000798141461C91A978062911DC06293BD02E
:101D1000002900F02981491E00F05081491E00F081
:101D20000481491E012940F2C980891E68D061E101
:101D3000C91F1ED0491F06D0491E00F03F81891ED1
:101D400000F0348156E1B5F804A02E7B0C2009F098
:101D500071F9071C00F02F811B9916220AF04CF82C
:101D6000A7F808A0BE7209F075F9394608F00CFE14
:101D700040E110980AF0F1F96F78002F40F01E81D1
:101D8000119809F029FF19E1AE880A2009F052F9EB
:101D9000071C09D01B9915220AF02EF83E8109F084
:101DA00059F9394608F0F0FDA88809F069FE0601E6
:101DB0004FF6FF7029F806004E44A6F80680A6F8F4
:101DC00002801198A6F804800AF0C7F910980AF06A
:101DD000C4F91B9F307A1C97042840F0EC802779C7
:101DE0005FB9A879082814BF04200520A07309F062
:101DF00051FE1C9809F01EFDDDE00320A07391E068
:101E00006F78002F48D1104609F03AFEA0B96989D1
:101E1000000129F80010298A00EB09077980698AF6
:101E2000B980E989F980297B2E1D3972326807F162
:101E300009031A60B1889980287B04280FD10620F5
:101E4000A07309F027FE207B012808D11F2007F08E
:101E50002DFC4FF47A714143119807F057FE6889C1
:101E600095F803A02E7B1C90142009F0E3F8071CC2
:101E700000F0A4801B99142209F0BEFF87F808A087
:101E8000281DF8601C9A3A82BE7409F0E3F88C4A67
:101E9000394607F0FBFC91E06878312805D0287BB3
:101EA00004287ED005F0D9FB88E084F80380287BE5
:101EB00004281ED082E0C046BC0900206F78002FA5
:101EC0002CD1A878678AA17B032819D0E0782679DD
:101ED00037B9012814BF84F8048084F8038006E031
:101EE000064304D01298394607F010FEA17B07295B
:101EF00001D0042009E0062007E0C046EBBD000049
:101F0000062909D0E7782FB90320A0734BE0C0461B
:101F100035B800000220F8E70720F6E70C2F69D05B
:101F200084F80EB009F0B6FD45E06F78002F38D187
:101F3000EF78A27997B9A07B02285BD0072859D007
:101F4000062802D12079012854D1129809F044FEC4
:101F500000284FD11B9809F06DFC4BE0139B4146C4
:101F600006F040FF687045E06F78D7B9149A0220F8
:101F7000102107F003FE159A0320102107F0FEFD43
:101F8000E91C16980A680260898881800120A07384
:101F900009F080FD6078179B62791B9906F022FF9B
:101FA00060B184F80EB009F075FD07E0A888454AD5
:101FB000102108F003F91C9801281BD1676ACFB1E2
:101FC0003F68BFB12846B8471B9013E068791328D3
:101FD00010D12889012806D1E07A022803D110986F
:101FE0000AF0BBF806E0052007F060FB01461098F8
:101FF00007F08CFD1B9F07E06888C00B04D3189A7C
:102000000420014607F0BAFD019E56B14FB10320EE
:10201000ADF83A00ADF838B01A9F0F970EA808F047
:10202000C3F9208A2779E178420829D320F00100FA
:1020300057EA0106208223D06FB9E079277A8DF81C
:10204000090019998DF80A700A680DF10B063260C3
:102050008988B18002E003208DF80900607AA77AB0
:10206000194A8DF8110006218DF812700DF1090042
:1020700007F0ACF818B184F80EB009F00BFD208A17
:10208000810816D320F002004746208201E07F1C21
:10209000FFB277B9390109EB0102137A042B04D09E
:1020A00039F801101D9B8B42F1D1107804F090FD9E
:1020B000208AC108FFF4E9AD20F004002082E4E5A5
:1020C000CFBD0000E9C00000DDC00000C6492DE919
:1020D000F04F0122ADF1140D0390A1F13000026028
:1020E000BD480768002FFCD0DFF8F892BB4AC0203B
:1020F00009F1080A1060DAF80000800806D24846A4
:1021000001904068000C40F0F00002E07220CDF831
:102110000490B34AB74D002782F84C024846A5F117
:10212000D0060F60C76856F8040C0296C0F304602E
:1021300009F031FE00EB2770401C162805DA10F17B
:102140000A0FB8BF6FF0090000E01520A74E00F09D
:102150001F00114640F4F850A1F86402306880086E
:1021600028BF47F04067A249F80EA5F13C04BE0E17
:1021700080F0010000F00100086086F0010000F02E
:10218000010088602068C0F38363C0F38F26B80C19
:1021900022D247F3072000280BD5414200207608C1
:1021A00005D15B0806BF01231E1C4FF6FF76491EB2
:1021B000F5D1002810DD4FF6FF71760046F00106DC
:1021C000B14207D25B0043F001030F2B92BF0126FF
:1021D0000F230E1C401EF0D146EA034B0022164688
:1021E00009F04AFE08B9012216463246CD4E336840
:1021F000002BFCD0DFF83083012008F10808C8F874
:1022000010B030600AB109F03DFE20682368C0F3C9
:10221000870103F0030041EA002188B20090C24820
:1022200040F2FF3200232C2106F024FEA5F110001D
:102230000068C0F30D0409F01FFE4FF0000B08B951
:102240004FF0010B3368002BFCD0C8F8144001207C
:10225000BBF1000F306001D009F014FEA5F11800A9
:10226000D04C0068044000F07C40044309F004FEB8
:102270004FF0000B08B94FF0010B3368002BFCD076
:10228000C8F80C400120BBF1000F306001D009F00C
:10229000F9FDA5F11C00016801F47C0009040C0C97
:1022A000044309F0E9FD4FF0000B08B94FF0010BB2
:1022B0003368002BFCD0C8F808400120BBF1000FA8
:1022C000306001D009F0DEFDA5F114000068DAF8F5
:1022D0000020C0F30351C0F30343520814D24A460E
:1022E000121D1268140511EB247103D41029A8BF24
:1022F0000F2100E00021120413EB227303D4102BF2
:10230000A8BF0F2300E00023039C43EA011300F45D
:102310007F4100F0FF02222C41EA034142EA010220
:1023200024BF00F080400243144609F0A5FD4FF0A1
:10233000000908B94FF001093368002BFCD0C8F838
:1023400004400120B9F1000F306001D009F09AFD7E
:102350000398222832BF01202868C0F30070724C15
:10236000039B4034222B4FEA400040F0200084F8C9
:10237000090126BF2868C0F340700120DFF86C9285
:10238000202B40F0100084F8090138BF002107D34A
:1023900048460168C80C00F44070C1F38451014301
:1023A0008A4609F069FD4FF0000B08B94FF0010BA8
:1023B0003368002BFCD0C8F820A00120BBF1000F2F
:1023C000306001D009F05EFD0398202814D3484600
:1023D0000068C0F3015010E09402224300600C40FA
:1023E0000A600840A83F0050401009400000094022
:1023F000000020438C1300500020039B400040F05D
:102400006000222B84F80C0126BF2868C0F3C0604E
:102410000020222B4FEAC00040F0800084F8010128
:1024200026BF2868C0F345500020202B4FEA8000CB
:1024300040F47C40A4F89C0138BF6D490BD348465A
:10244000006801038A15920501F47C1100F00F0069
:10245000114341EA0031894609F00EFD4FF0000AB0
:1024600008B94FF0010A3368002BFCD0C8F800907F
:102470000120BAF1000F306001D009F003FD4FF4E4
:102480008000029E2060B06D40F20F216FF31F406C
:10249000814215D9304601680068C1F30366C0F374
:1024A000034006B1761E072805D006280EBF072078
:1024B000801C00F00F00544946EA001001F8080C97
:1024C000C7F38140401E02D0401E32D02EE0029859
:1024D000D0F8D000810C29D24FF480414A4E2160BF
:1024E000D6F80210420AC0F3033302F0800221F052
:1024F0008F010A4343EA02013346C6F80210D3F8BB
:102500000120061266F303021E46C3F8012031685B
:1025100000F0E703324621F0E70143EA01001060D2
:1025200007E0C04600800C4000A00C404FF0004087
:1025300020604FF4007020642868314DC0F3C14022
:1025400040F0300084F8C800C7F3815060B3401EEB
:1025500003D0401E20D002211FE0012008F010FF10
:1025600006460420314606F05BFB042008F008FF15
:102570008642FAD10198066826F07F4007F0BCFF3A
:10258000284614300068036807214FF06022300E9F
:1025900098474FF4806020600321042006F040FB40
:1025A00009E0C046FCFCFC000420012106F038FBD9
:1025B000104807F0A1FF02980F49104ED0F8B00064
:1025C00047F6180700F03F0084F8CB0F2B460F802A
:1025D00030681868C16802208847012740200B49ED
:1025E000084C086005B02760BDE8F08F98130050D4
:1025F00000803F40BD37860070B00C402C20094061
:10260000A0010010940460420A60084000600C4081
:102610002DE9FE4F044620784FF0010BB03800F052
:102620002F82203840F04D82A046C94C98F8020015
:10263000217A002800F01C82401E00F00C82801ECF
:1026400000F01382801E00F0D581401E00F0B6819C
:10265000C01F40F03682A07A401CA07298F8030098
:102660000022022808BF5A46002100B95946032813
:1026700041EA02024FF0000108BF5946114300F041
:102680008781464600F08481357B0020854240F3F7
:102690007F813169421841184B78092B40F08981BC
:1026A00010788D1C04F1BF01401EC6B23246284688
:1026B00008F030FD50B104F14C013246284608F0D4
:1026C00029FD002840F06481D94601E04FF000095F
:1026D00045465FEA090606BFD8F810000C30681DB1
:1026E000494605F041FFFF2828D0EF780022022F4D
:1026F00008BF5A46002107B959460023032F41EA73
:10270000020108BF5B460B4367D0216B2EB1616BA2
:10271000012E62D1060177184FE00601771895F96E
:102720000B00387308F066FDB8602A69206B0C3224
:10273000127881190A702969497B4CE0EF784B4681
:102740000021022F08BF5946002007B9584600262D
:10275000032F40EA010008BF5E4606433DD0B3B9EF
:10276000032F3AD1D4F830A000231E010AEB06074C
:102770005946384609F010F90028D0D05B1CDBB26E
:10278000462B2ADA2869407B0628EEDB25E0012B60
:1027900023D1D4F834A00A23002657463846062110
:1027A00009F0FAF830B15B1E07F1100706F10106D7
:1027B000F4D112E0360106EB0A0795F90B003873E5
:1027C00008F018FD6D1DB860606B2A6881190A60F9
:1027D000AB888B80FE2180198171B9F1010F40F027
:1027E000D780A0784746012805D0022803D00328C7
:1027F00018BF381C09D1781D04F15801062208F0D1
:1028000089FC002840F0C480404603F00FFDA37807
:102810000546002800F0AC80401E00F0A080401E5D
:1028200000F09880801E00F08C80FA3840F0B08074
:10283000667B56EA030000F0AB80FD780020022D95
:1028400008BF5846002105B95946032D41EA000149
:102850004FF0000008BF5846084300F099803B7BCA
:102860000025AB4240F3948039694A1952786818C0
:10287000FF2A61D100782B1D28185A46401EDDB270
:102880005FFA80F86918E01D08F044FC00287FD149
:10289000002346E038692818401C0178491E2FD0D3
:1028A000491E31D0491E73D166B341780A46521E83
:1028B000012A27D821724078A11D8DF803000978DC
:1028C0000DF102060DF1060280203170022107F0A1
:1028D00039F9207A9DF80710884206D0802002211D
:1028E0000DF1020207F04AF9207A012803D00228EC
:1028F00004D1002000E0052002F004FA667B00E02D
:1029000006B95B46AD1C0BE042788178C07801EBDC
:10291000022100EB012005F0E7F8667B2D1D5B46E8
:10292000EDB2A84501DD1D2DB4DB002E30D0002B0B
:102930002ED004F0A1FF2BE000784019401CC5B256
:102940008FE7022B18BF012B22D14EF660211AE02F
:1029500020050020012B1AD0032B18D018E0BBB99A
:102960007F1D396804F158000160BE8886800EE042
:10297000002104F1580006277F1E00F8011BFBD13F
:10298000042B04D1504904F5B67007F0BFF8A570C8
:10299000A07A5028C0F29580E078002800F091805D
:1029A00009F0DAF80020607207F054FF58466072B0
:1029B00087E011784018401CC0B267E64FF6FE7001
:1029C0002082B8F80400002107F05AFF142008F014
:1029D00049F8607B08B104F04FFFE078002870D020
:1029E000594640F21B300DF101028DF8011000F044
:1029F000E5FA66E098F8010038BBB8F80A002082D2
:102A0000B8F80A00082107F03BFF002540F2053026
:102A100059466A468DF8005000F0D0FA607B08B144
:102A200004F02AFF8DF8005040F21B3059466A46E8
:102A300000F0C4FA04F59270044609F0CDF80028BD
:102A40003FD0204609F089FB3BE04FF6FE70208224
:102A50000027677035E0002060720129A07230D134
:102A600008F0F0FC08F0DAFE2BE008F0BDF828E0F2
:102A700008F103000168523421608088A08020E0C2
:102A80006078124D162807D020797E2811D07F2833
:102A900004BF207A28700CE06088082107F0F0FE5F
:102AA00038B9584607F0DEFF14354FF0000B2C60A4
:102AB00007E0584608F082F9217904F1080008F08F
:102AC000F9FD5846BDE8FE8F80CBA4002C05002000
:102AD0002DE9FE43A84C0F460546F80B80F02681F1
:102AE000B80880F0AD80B80F6ED2E07A00284FD1E0
:102AF00038094FD30025012665706079667210B1E0
:102B0000284608F0E7FA9D4809F092F99C492A46C0
:102B100004F14C0009F000FBA07901281FD1E079F5
:102B2000E8B9DFF86082266AD4F81490D8F800007B
:102B300070B108F07DFFA0EB09004346000B861939
:102B4000E0611868B6EBC01F28BF256208D2266274
:102B500004F1CC004FF0005108F0D8FE31E0A6712E
:102B600040F60900208794F8450000F0F00040F09E
:102B7000010084F84500658794F8440000F0F000F7
:102B800084F844008049E56304F138060E6018E0DB
:102B9000380914D2B80BC0F0E68004F1280009F01F
:102BA000D8FA061C08D0706830B17568F068B6F9BC
:102BB000101000222023A84727F40057D3E000205C
:102BC000E07227F00807CEE0704904F14C000022C3
:102BD00009F0A2FAE86840F6C411814215D1042038
:102BE00008F0CEFB88B166697EB1A06968B908F0CB
:102BF0001FFFA061864226BF801B401E801B000B6A
:102C0000E860E86800F58D70E860E07958B102206E
:102C1000ADF80000684607F0FBFF0026E671BDF83E
:102C20000800A4F89C000120607020790026401C58
:102C300020711920267209F00FF827F0005792E052
:102C400004F13008404609F084FA061C65D0B068EB
:102C500040F6030320251A46521C02E040686D1E10
:102C6000EDB260B15DB101888B4218BF8A42F5D1E7
:102C7000F1682CC818312CC129C881E82900326AB2
:102C80004FF00009C6F820907068C0B196F8240093
:102C900042F002020023401E09D0401E04D0801ED4
:102CA00008D14FF0805304E04FF0804301E04FF033
:102CB00000534A467568F068B6F91010A847B4F991
:102CC0003600401C6FF31F30E086404608F082FD5E
:102CD000F068B0F98C10B4F9362091421DD12178FA
:102CE00001291AD090F88E5095B9056885B1E16830
:102CF0000968B1F1FF3F10D0254909686830B5FB7C
:102D0000F1F109F04AFAF068683008F071FE04E069
:102D100080F88E90484605F00FFA404609F019FAFF
:102D200027F0020708B147F002071CE009F0ECF8B1
:102D3000014604F12C0009F00CFA0646356A0846F3
:102D400009F0E7F9A8080CD25EB1306AA8433062F6
:102D5000706830B12A46F068B6F910107568002323
:102D6000A84727F4804727B104F1CC00394608F082
:102D7000CDFDBDE8FE83C046181000204567000069
:102D800005AE00001842002000100440194E00005B
:102D90009CC900002DE9F04F0128ADF1140D40F061
:102DA000F280DFF81492D9F8DC00012840F0E980C5
:102DB0000220C9F8DC0008F08FFF0290012006F025
:102DC000E9F820B101210646C9F8DC10D5E008F089
:102DD0006BFF03906E484FF00008C0F800800120A0
:102DE00008F0CEFA012818BFCDF8008004D1404683
:102DF00005F038FC0120009066486E4CC0F8008059
:102E00001934D4F8FF0F112009F04EF800280CBF38
:102E100046460126102009F047F808B146F00206A0
:102E20000F2009F041F808B146F004060B2009F024
:102E30003BF830B1584800685849006B0246088892
:102E400090470A2009F030F80028404618BF0120BA
:102E50004FF0805B0BF5DC7528B128685049006B9A
:102E60000246088890474F48012707602868806914
:102E7000014646F0200088474B48076009F00EF8ED
:102E800000F001010191400815D2484808F06EFF9A
:102E90008246BAF1040FF8D0BAF1010F06D1DBF87F
:102EA000D8014068024641480321904740490868DC
:102EB00020F003000860404600F088F92868D4F844
:102EC000FF1F806B8047019801280ED0BAF1010FD7
:102ED00006D1DBF8D80140680246344839469047AD
:102EE0003349086840F0030008602A4807602868F2
:102EF00040690146304688470B2008F0D5FF28B1CD
:102F000028682649C06A0246088890470A2008F0C7
:102F1000CBFF28B128682249C06A0246088890473A
:102F2000204807600322C9F8DC201F4BC3F800804B
:102F30002868406B0146304688470128F8D10420B4
:102F400006F028F8124807601A48D4F8FF1F0168F5
:102F50008909FCD30098012802D1384605F082FB8C
:102F600008F090FF082006F015F806460398C9F807
:102F7000DC7007F0EFF805F0B1F8029807F0C0FE3A
:102F800002E0042600E00126304605B0BDE8F08FDF
:102F90000C40094000022243B80100106EC300003B
:102FA0006AC30000282008608001044300400340F9
:102FB0002422084014100940B0130020F8B50E4632
:102FC00001461746A1F20130022840F2FA807D4CFA
:102FD000001F0F2806D914383AD0801E26D0E938B1
:102FE0001DD011E0DFE810F0B300AE00DA00CB0036
:102FF000A7009F00ED0098009100100010008A00CB
:10300000800075006D006000282980F2DA80022EB1
:1030100040F0D7800846398806F0FCFEF8BD012E46
:1030200040F0CF80684C38780D3482E0012E40F0BB
:10303000C880E078012800F0C480224638781179F1
:103040000029107140F09680002840F08F80F8BD74
:10305000012E40F0B6803878012840F0B28004F1AB
:10306000EC0008F0B9FD002840F0AB8004F134001A
:1030700000274FF6FD7101E07F1CFFB2002F40F0EA
:10308000A0803A0183181D7A042D02D0825A914201
:10309000F2D1187803F09CFD002840F0928004F1F2
:1030A000C80009F05AF8F8BD022E40F08A8038882E
:1030B0000A28C0F28680B0F5486F00F382801A3487
:1030C00010E0022E7DD13888B0F5FA7F79DA183415
:1030D00008E0022E75D13888062872DBB0F5486FFB
:1030E0006FDC16342080F8BD022E6AD1388806289D
:1030F00067DBB0F5486F64DC1434F3E7012E60D170
:10310000387802285DDA0C3413E0012E59D1387872
:10311000042856DA0A340CE0012E52D138780828F7
:103120004FDA093405E0012E4BD13878042848DA0B
:1031300008342070F8BD012E43D13878042840DCD3
:10314000E41DF6E7022E3CD138881234CAE7012E7E
:1031500037D12079012834D022463878D178D07000
:1031600041B970B3022007F029FE50B3012008F0E6
:1031700061FBF8BD387820BB08F0F6FCF8BD04F11F
:10318000830500211F22284603F0EBFF3946324613
:10319000284603F089FAA67100210DE004F16405C8
:1031A00000211F22284603F0DCFF3946324628461C
:1031B00003F07AFA66710121607832462B4605F0F9
:1031C00011FEF8BDBC090020BC0900202DE9F84F14
:1031D000DFF8E8B10746ABF13500DFF8D4910068BD
:1031E000800880F0D68007F0EBFC06467748083070
:1031F000D0F8008000254FEA28725FEA985002F16B
:1032000001020AD2C6F13E0016F10A0F4FEAE000B1
:10321000D8BF08208242B8BF021C624BD3F87C01A1
:10322000C0F3046008F0B7FD04461868C0F304401A
:1032300008F0B1FD12198246162A05DA12F10A0FBA
:10324000B8BF6FF0090200E01522574B574802F053
:103250001F0141F4F8511980006810F0030F18BFE6
:103260000125C00828BF45F002050FB145F004054F
:10327000494691F90700301A052804DA8879A842EE
:1032800008BF888865D0DFF82CE10F2EA6F10F0C5F
:1032900025DB0CEB0610A0F1F00C4FEA2C27072FD2
:1032A00088BF07273C46062C88BF06245EF824000A
:1032B000042303EB84037446E3581B1A03F0FF0452
:1032C000E80824BFC3F307200444A80824BFC3F3BD
:1032D00007400444680828BF04EB136401E000249D
:1032E00027465EF827E0E8080EF0FF0324BFCEF380
:1032F00007200344A80824BFCEF30740034468080E
:1033000028BF03EB1E63A4B2ACEB0727BAEB0200A5
:1033100004FB07F404F1800403EB1423D8BF01205D
:10332000342208F0FF0742437A43B2FBF3F04FF632
:10333000FF72824238BF101C802E80B2888005DA6E
:1033400016F1800FB8BF6FF07F0600E07F26CE71C8
:103350008D71194A12681F280A604FF0000208D3C5
:1033600040F2FF11814206D24008521C8142FBD339
:1033700001E01F208880124F0F38000942EAC00286
:1033800047EA0200CBF8FB0F0026CBF8FF6FBDE841
:10339000F88F0D4F0B4E494608203760891D087085
:1033A000BDE8F88F3C1100506E62084024220840AE
:1033B0001C4200209C1300500820094035000940A1
:1033C00000E7A48030100940FDFDA400AC3F005090
:1033D0002DE9F0411C4615468C4208BF854282BF4C
:1033E00000230022E5E0002C08BF002D0AD10029AF
:1033F0000EBF00286FF000006FF0000100F0E1F850
:10340000BDE8F0815FF000085FF0000E002C08BFFF
:103410008D429CBF2C1C0025070C47EA01470E0C6F
:10342000B44208BFBD429EBF5FEA044444EA15446B
:103430005FEA0545070A47EA01670E0AB44208BF7A
:10344000BD429EBF5FEA042444EA15645FEA052595
:10345000470847EAC1774E08B44208BFBD4200F2B0
:103460009380870847EA81778E08B44208BFBD423F
:103470007CD8C70847EA4177CE08B44208BFBD42AE
:1034800066D8070947EA01770E09B44208BFBD4272
:1034900050D8470947EAC1674E09B44208BFBD4248
:1034A0003AD8870947EA81678E09B44208BFBD420E
:1034B00024D8C70947EA4167CE09B44208BFBD42D4
:1034C0000DD8E60146EA5566EF01B14208BFB842A1
:1034D00001D3C01BB14158EB08085EEB0E0EA601EC
:1034E00046EA95664FEA8517B14208BFB84201D354
:1034F000C01BB14158EB08084EEB0E0E660146EAC0
:10350000D5666F01B14208BFB84201D3C01BB141BB
:1035100058EB08084EEB0E0E260146EA15762F01F1
:10352000B14208BFB84201D3C01BB14158EB0808F3
:103530005EEB0E0EE60046EA5576EF00B14208BF9C
:10354000B84201D3C01BB14158EB08084EEB0E0E38
:10355000A60046EA9576AF00B14208BFB84201D353
:10356000C01BB14158EB08084EEB0E0E660046EA50
:10357000D5766F00B14208BFB84201D3C01BB1413C
:1035800058EB08085EEB0E0EA14208BFA84201D31B
:10359000401BA14158EB08085EEB0E0EA34208BF8A
:1035A000AA423EBF2D0A45EA0465240A89D3734620
:1035B00042461E4617460B46024631463846BDE88F
:1035C000F08170472DE9FE4F754C04F12408404608
:1035D00008F0BFFD16460D46009008F095FC06F079
:1035E0000107B5F1FF3F01900CD1A06A20B9B4F9F1
:1035F0003600401C05B202E0A06AB0F9105000206D
:1036000084F8A500A36AA81005EB507020F007000D
:103610002D1AE80000EB4510251805F59C75AB4206
:1036200000F086800098854249D000284FF00307BB
:103630003FD04FF0000904F1A80BCA46006885424C
:103640001ED1584607F0E6FD00980768C0F800A0B4
:103650000198009708F05DFDB0080ED297F824009D
:1036600040F0040087F82400684608F0B3F80146EB
:1036700008F10C0006F09EFC01E04FF001098327E1
:10368000B9F1010F03D00098006800900EE0009996
:1036900091F8240040F0040081F82400684608F006
:1036A00099F8014608F10C0006F084FC0098002807
:1036B000C4D1832F25D0019808F02BFD21E004F11F
:1036C000A80007F0A7FDB0083ABF606A00680020B4
:1036D0006062019808F01DFD08F10C05009991F851
:1036E000240040F0040081F82400684608F072F8D5
:1036F0000146284606F05EFC009808B1B008EDD2FD
:103700008327207A70B9274808F092FB022104F140
:10371000CC0008F0FBF8607801283DD0224808F082
:1037200087FB39E004F1CC00022108F0EFF833E028
:10373000B00803D3606A00900023636295F82410F8
:103740000120B840084385F8240008F0ADFA04468B
:10375000002F14BF1548164807F05AFA019808F0D0
:10376000D8FCB00814D3009890B108F10C050146BC
:1037700091F8240040F0040081F82400684608F025
:1037800029F80146284606F015FC00980028EED1DD
:10379000204606F0DFFC83273846BDE8FE8FC04692
:1037A00018100020D12A00007D61000001000204F1
:1037B000010001042DE9F04F744C75494FF4FA6291
:1037C000082304F13000ADF11C0D069005F09AFBC2
:1037D00004F1140004F1200102F018FF6D49E060CB
:1037E00008F056FBE0704FF0010AADF802A0082087
:1037F000ADF80000684606F0D7FD9DF80400207083
:1038000002984FF6F776361DB04608F10308C14618
:10381000A9F101090027A0600820ADF810000A25D1
:10382000ADF812504FF0FF33059304A806F0BCFD2D
:10383000A088810821D309EA00006578A080384675
:1038400008F00AF970B135F00200607002D10698F4
:1038500008F083FC256985B1A37873B929685046BF
:1038600088470AE045F002056570069DA770284666
:1038700008F0B2F9284608F06EFCA088410821D370
:1038800008EA00006578A080042008F0E5F870B12F
:1038900035F00100607002D1069808F05EFC2569E1
:1038A00085B1A37873B92968384688470AE045F09E
:1038B00001056570069DA770284608F08DF9284619
:1038C00008F049FCA088C1081AD330406578A08070
:1038D000032008F0C1F8012807D035F0040060701B
:1038E0000ED1069808F039FC0AE045F00405657031
:1038F000069DA770284608F06FF9284608F02BFCB3
:10390000A088000988D36578A1884FF6F770022D4A
:1039100000EA0100A0800AD125696770384608F0E6
:103920009BF800282ED12968032088476578012D4F
:1039300009D125696770042008F08EF810BB29684A
:10394000022088476578032D10D16770042008F0A5
:1039500083F83D4650B9D4F810B0284608F07CF8FA
:1039600020B9DBF80010042088476578042D09D1C0
:1039700025696770032008F06FF8012802D12968D3
:103980000520884784F802A046E7C046740D002051
:103990001DBA000091AF00002DE9F843814608F000
:1039A0006BFA002100B901216B4E30680028FCD071
:1039B0006C4D01242D1DEF6A346009B108F062FAE4
:1039C000DFF89881C7F3072008F1BC01086008F010
:1039D00053FA002100B9214630680028FCD02F6836
:1039E000346009B108F04EFAC7F38440C8F8C0004B
:1039F00008F042FA0146002001B92046014630682D
:103A00000028FCD0ED69346009B108F03BFAC5F339
:103A10008120C8F8D000B9F5C061C8F8B81000F02E
:103A2000968098F8D80068B9C8F8D410D8F8C000C3
:103A3000C8F8C800D8F8BC70C8F8C470D8F8D0600E
:103A4000C8F8CC60D8F8D410D8F8BC60002954BFAE
:103A500002206FF00100454605F1C8031A6801EB2A
:103A600041014018411000EB917002EBA0021A6076
:103A7000D5F8C810C5F8C46000291CDD1E293DDD3D
:103A8000D5F8CC0030B93429B4BF15391E21C5F89A
:103A9000C81025E02A29BABFD5F8C8000B381E2067
:103AA000C5F8C800D5F8C4003F28B4BF401C3F206B
:103AB000C5F8C4001FE0D5F8CC00032812D011F1DE
:103AC0000B0FC6BFD5F8C8000B30201CC5F8C800C6
:103AD000D5F8C4000028CCBF401E0020C5F8C400A3
:103AE000032009E011F1150FC6BFD5F8C800153045
:103AF000201CC5F8C8000020C5F8CC00B5F8C400EB
:103B0000174E30214FF47F4208230090304605F0D5
:103B1000B1F9009404214FF400321123304605F02E
:103B2000A9F9B5F8C80004214FF4F8021223009057
:103B3000304605F09FF9B5F8CC0020214FF44062E3
:103B40000A230090304605F095F9BDE8F88300207F
:103B500088F8D800BDE8F88300800C40B01300203E
:103B600000A00C4000A00C402DE9F04F0D46ADF137
:103B70001C0D6D4C69780490287800EB0120ADF89D
:103B800000006188BDF80000884240F0BF80E06915
:103B900040F6FF7700EB0110074204D1000BC0B2E2
:103BA000000304F059F9BDF80000A179AA1C000136
:103BB00000EB0130102103F019FD6088401C81B238
:103BC0000A466180A188914240F09B805748801C42
:103BD000028802904FF6FF770392974200F08780A9
:103BE000E088171C00F083805FFA91F2090100253C
:103BF000C6B2871801F470435FFA87FA0595B2459B
:103C0000A1EB03011FFA81FB28DBAAEB060101F1FE
:103C10000108B0420CBF04250025B245D8BFAB4512
:103C200016DD05EB063004210DF1020205F020FC43
:103C300004270DF1020919F8011B059806F0A4FCF0
:103C40007F1E0590F7D12D1DADB2B5F5805FE4DB89
:103C5000E088761CB8F10108F6B2DAD105980021A7
:103C600006F092FC002106F08FFC039981423ED1C0
:103C7000029948800498002104F078F92B4D297CA2
:103C8000012908D0022908BF042005D000200329FB
:103C900008BF012000E002202278012940EA02004A
:103CA00020700CBF4FF4F0264FF4F226304604F09B
:103CB000D3F8FF201021029A6874304603F096FC76
:103CC000A07A2178401EA072C0B2A0B9480805D3DE
:103CD000A3690499032000229847217811F0060F68
:103CE00009D01049086840F00040086003E00498DB
:103CF000012104F03BF90025257007F0A3FE658043
:103D00000DE00498114604F0FBFA08E00020608002
:103D1000207007F097FE0498032104F027F907B0FC
:103D2000BDE8F08F040009409012002050190020D7
:103D30002DE9F04FADF1840D00F058FF05F02EF89D
:103D40000026012804D107F091FC022808BF0126B3
:103D50005D490868C0F38150012806D151F80C0C68
:103D60000127010E07FA01F006435848584F594DF4
:103D700000783868C0F346072F6005F00FF82C462E
:103D8000012805D107F072FC022804BF7F1C2760C0
:103D90003FB1FF2204F140013846401E01F8012BDB
:103DA000FBD14D4800684FF0000900F0FF01FE29EB
:103DB00019D0DFF824C100F0FF03494601229F42D9
:103DC0007FD902FA03F31E427BD100F0FF002018D6
:103DD00080F840105CF8040F43EA0909491C00F020
:103DE000FF03FE2BEBD1092001F0ECFC3A48002147
:103DF00024220823606001A808F0BCF84FF00108F5
:103E000004F1240001AA8DF81C80414606F064FCF0
:103E1000236843B3002794354FF0040BBA4608FAE1
:103E200007F0064219D119EA000F04BF07F0FF019D
:103E300041F4C04105D0E019274990F8400051F8FD
:103E40002010264802F042F9F8B24FF0FF3107F097
:103E5000A5FA2368C5F800A001E0C5F800B07F1CF2
:103E60002D1D9F42DBD30AA800213022082308F031
:103E700045F80025FF2010210AAB1290184A009542
:103E800004F1080005F07AFD16A828220823294627
:103E900008F076F804F1600016AA1C9511491D95EA
:103EA0002B4605F013FF104951F80D0C20F4F85083
:103EB00040F4005041F80D0C4746C1F8FF7F0B4E0F
:103EC000376021B0BDE8F08FB43F00506E34002061
:103ED00080120840B03E00208CC20000007FC767FF
:103EE000B9B30000459100000D30094008000940B9
:103EF0002DE9FC4F83F0004301E02DE9FC4F1F0347
:103F0000FF0847EAD2574FEA42284FEA43095FEADF
:103F1000595906D147EA080A1CBF00210020BDE814
:103F2000FC8F57F000575FF4E06E1EF1FF0EF14575
:103F300005D14FF00000190D0905BDE8FC8F002BDD
:103F400005D55FF0000AD8F100086AEB07070C03FB
:103F5000E40844EAD0544FEA40254FEA4106760D82
:103F600008D144EA050A19BF00210020191C101CC1
:103F7000BDE8FC8F44F00054764504D10020090DC3
:103F80000905BDE8FC8F002904D55FF0000A6D42E9
:103F90006AEB0404B6EB090E08D5A2463C46574628
:103FA000AA464546D046CEF1000E4E46BEF1360F2B
:103FB0005CBF4FF0000B23E0BEF1000F04BF4FF0D9
:103FC000000B1AE0CEF1390ABAF120092EBF08FA27
:103FD00009FB07FA0AFB4BEA080BDEF1200A07FA95
:103FE0000AFA38BFBA4647FA0EF72DBF28FA0EF87C
:103FF000AEF1200E4AFA0EF8D04415EB08057C41CC
:1040000054EA050A02BF00210020BDE8FC8F002C05
:1040100058BF4FF0000A06D55FF0010A5FF0000EAE
:104020006D426EEB0404A6F101066D006441FAD501
:1040300015F4806E11D005F480794BEA090B15F563
:10404000806554F1000428BF761C0BD205F400797A
:104050005BEA090B08BF25F4006525F4E0656D00F7
:1040600044EB0404B61CDEBF00210020BDE8FC8F39
:104070005FF4E06E1EF1FF0E76450AD34FF00000AC
:1040800013F00043FF21C900C91D09051943BDE80C
:10409000FC8F270547EA1530210B41EA065141EA1A
:1040A000CA71BDE8FC8F70472DE9FE4F0D46814671
:1040B0002868D9F80440D9F80870002800F0B680C4
:1040C00007F022FFD4F8881021B108F022F803206D
:1040D0002874ABE04FF0010B85F810B0C4F888509D
:1040E00008F017F894F8A40038B194F88D205149DD
:1040F000D4F89C00114306F09FF96E6807F004FFA6
:10410000804694F8D80050B916F0704F02D10420C0
:1041100006F0C2F9022006F0BFF984F8D8B0404694
:1041200007F0F7FFD7F80080D8F8040040F002004D
:10413000C8F80400D9F80830D9F804C028681E6807
:104140009CF88C10009080B2B6F1804F00FA01F01C
:104150001FFA80FA14BF384E384EAF6838484FB94E
:104160009CF88C104FEA810E00EB0E018A690CF16D
:10417000A60109E09CF88C104FEA810E00EB0E01BD
:104180000A690AEB0701491EB2607160196843F6BB
:10419000F07208310291009F31603901B7680190D7
:1041A000103902EA010040EA0701B1601A68B2F171
:1041B000804F14BF234924496F682FB9019D75446E
:1041C000AD6903F10E0605E0019D7544AD680AEB8B
:1041D0000706761E8D600E60029D4D608D68284337
:1041E0008860DCF8A0701869596901437868006834
:1041F0008162506A40F003005062D8F8140040F029
:104200000100C8F81400207830B9616804F16C0529
:10421000284601F0A7FB10B15846BDE8FE8F48467E
:1042200001F0F2F92846002101F09CFB0020BDE8D6
:10423000FE8FC046000006800005002030040020EC
:1042400014C4000010050020400400202DE9F84FA0
:10425000994692468B46064607F056FE5D4CB4F9E9
:104260003620B4F934100AAF891A40F6F8720A40C1
:10427000082A02DB07F04DFF40E0B4F93410491C76
:104280006FF31F31A186B4F9348007F042FF404636
:10429000811000EB517121F00701401AC10001EBC0
:1042A0004011651806F1680006F0B4FF05F59C752D
:1042B000C5F808B085F812A0C5F80490EE6046482D
:1042C000A5F8108097E80C00202100271940104025
:1042D00005F1180383E8030004F1240085F8247035
:1042E0000368002B5AD1294605F064FE48B9B4F999
:1042F000340000F6FF706FF31F30A0866FF00108E6
:1043000065E0A6F88C8007F0FFFD86F88E70A17A34
:1043100041B1617831B10121E172A772E771217970
:10432000491C217107F0F5FEA06A00284FD1607882
:1043300000282FD1207A012849D007F0E5FD064654
:10434000607A00BBA86804F091FC254A2349E36821
:104350001268086040B9304607F0DBFE04F1CC007B
:10436000042107F0D3FA32E00968DB6804F1A80001
:10437000C91AB1FBF2F107F010FF04F1A80007F031
:1043800037FB304621E0304607F0C3FE15490120D7
:1043900008701CE0192007F05FFC18E007F0B4FD7E
:1043A0000746294604F1240005F004FE002818BF42
:1043B000A6F88C8008D1B4F934006FF0010800F63B
:1043C000FF706FF31F30A086384607F0A2FE40460C
:1043D000BDE8F88F18100020F1EFFF9F1842002071
:1043E0009CC90000144200202DE9FC415D4C564D53
:1043F000564EDFF85C81594F94F8E410481E0B28A4
:1044000000F29F80DFE800F0772C43062343062369
:1044100043067260042907D001220A2945F8212C9D
:1044200014BF0220032004E02021012045F8211CB4
:10443000024684F8E200002045F8390C0827C5F848
:10444000FF7FC5F8F37F45F8392CBDE8FC810529CD
:1044500014BF09200620002584F8E40035606CE0D4
:1044600094F8E1700120383D002FC5F81B0004BF0F
:104470000620002102D00021F160032084F8E4002E
:10448000032045F8010C31603068800855D294F85B
:10449000E400012503280DD00021404660220523B9
:1044A000009104F0E7FC94F8E400062814BF0A2009
:1044B0000720D1E70220009000216022052340461A
:1044C00004F0D8FC0420C7E72249002622480E60E9
:1044D000012505600E2001F00BF9022005F0C4FF54
:1044E00084F8E45084F8E360BDE8FC810020386083
:1044F0000C2578601FE01A480068006801462020FB
:1045000088472C3D41F61D560F2000214FF4C07204
:10451000072345F8010C4046C5F8036002250095C5
:1045200004F0A8FC404600214FF4C072072304F0B9
:10453000DFFF0120386084F8E45004F1780007F0D0
:1045400057FABDE8FC81C04639400C4038600C4049
:1045500000A00C402C500C4004800C4034600C40F7
:10456000A0010010B01300202DE9FC41524D074678
:10457000A86B8846C8B9514C002611E0B6F1004F2F
:1045800003D080698047000808D320684C4902683E
:1045900020469047002818BF201C05D10C34761CFB
:1045A00020680028EAD10020A86322A2002106F09A
:1045B00021FD384623A2801E04D0801E2DD0401E2F
:1045C00019D006E0A86BB8F1010F14BF20A425A4F0
:1045D00025E0A86B002106F00DFDA86B27A20221A3
:1045E00006F008FD01208DF801009DF8010000286B
:1045F000FBD1BDE8FC81A86B002106F0FBFCA86B99
:1046000024A2022106F0F6FC01208DF800009DF89E
:1046100000000028FBD1BDE8FC81A86B21A400218B
:1046200006F0E8FCA86B0221224606F0E3FCBDE898
:10463000FC81C0463E3E3E535441434B20415353C0
:10464000455254002A2A2A4552524F522A2A2A00F9
:104650003E3E20494E5445524E414C204552524F09
:10466000522100C03E3E20494E5445524E414C20FE
:104670004657204552524F522100C0463E3E2044EC
:10468000454641554C54205350494E4C4F434B21C5
:1046900000C046C03E3E204943414C4C2041424F61
:1046A000525421003E3E204F5554204F46204D4548
:1046B0004D4F52592100C04620050020E0C800009F
:1046C00083C50000B0B5456884684F48297BADF1CB
:1046D000180D012916D0217E627E4C4B2F7E01439E
:1046E000009143EA02010191494937F0010718BFDF
:1046F000081CA27E1043029095F88D000322FF282B
:1047000011D00DE0677E217E3843A37E019041F0F9
:104710000041009143F000403E49029095F88D0021
:10472000014304220391FE204DF82200694605F161
:10473000900001F06BFFC5F89C00002808BF002026
:104740005FD0287B344951F8200001282BD0206805
:10475000B0F1804F14BF22220A22217ED5F89C009E
:1047600006F028F92068B0F1804F14BF21220922F9
:10477000617ED5F89C0006F01DF92068B0F1804FED
:1047800014BF24220C22A17ED5F89C0006F012F959
:1047900095F88D10FF2933D02068B0F1804F14BFF9
:1047A00023220B2228E02068B0F1804F14BF212281
:1047B0000922217ED5F89C0006F0FCF82068B0F1B3
:1047C000804F14BF22220A22617ED5F89C0006F099
:1047D000F1F82068B0F1804F14BF24220C22A17E92
:1047E000D5F89C0006F0E6F82068B0F1804F14BFC1
:1047F00023220B2295F88D10D5F89C0006F0DAF8EC
:10480000012006B0B0BDC046000480A0004000807A
:104810000004C0A00020008014C400002DE9F04373
:1048200004466568A7680E46ADF1340D07F06CFBD1
:1048300095F8D910012903D107F06BFC002084E022
:104840004FF0010985F8D99007F063FC4FF000089C
:10485000C5F888803069286170696861307E287683
:10486000307B287330782870706885F8A480686081
:1048700070694146092828BF494685F88C10387B65
:1048800000F0A0FF204603F0BFFDF87E85F88D0004
:104890002046FFF717FF50B9387B00F029FF07F0DB
:1048A00033FB85F8D98007F034FC44464CE001A87E
:1048B00041463022082307F021FB06947879CDF891
:1048C0000080234A0990397901AB05F11C0005F0FD
:1048D00055F801A841462822082307F051FB05940A
:1048E0001C49B86801AA4346079005F1380005F055
:1048F000EDF9287878B901A841462422082307F069
:1049000039FB8DF81C9005F16C00414601AA05F0B9
:10491000E3FE114800E0B068A86002F041FFC5F86E
:10492000A000287B012808D1D5F89C000B4907F08E
:10493000AFFAD5F89C0000B18460094A05F1C400C3
:104940000421234606F078F920460DB0BDE8F08337
:10495000CD640000498A000069C00000D5710000E4
:10496000E5BE0000F8B5414C201D0368B3F1FF3FE0
:1049700008BF002304F012FA002876D13C4E2068CC
:104980003468070F04F0FF04802C28BF002404F0D3
:1049900005FA4FF0FF3578B1401E07D0401E0128C0
:1049A00002D9801E13D014E08FB112E0381C5CD005
:1049B000801E0ED114340BE03846401E55D0801EA8
:1049C00053D0001F51D0401E03D1163400E00A34EA
:1049D00065B2162D49DB27482749002501270560C8
:1049E000264E0F60264C376020680028FCD1274AED
:1049F000161D2449244F306820F003000143386815
:104A0000C0080CD2106810F0030F0AD041F0030068
:104A10003060106800F003000328FAD101E041F093
:104A200001011B483160006820B11A48006818462F
:104A3000FDF74CFB184819490560194F0A686FF3D8
:104A40005B4247EA0200086016490868C0F301307B
:104A5000012806D10A681448104040F400320A6068
:104A6000086020680028FCD1F8BDFEE7181300504C
:104A7000A0100050840460425C600C400822044393
:104A80000C00684204000020B03F0050004003408A
:104A900080012843000120438C2108404820034026
:104AA0000000390104000940FFFFFCFC2DE9F04340
:104AB0000746880FADF1140DC0F08680484D494B74
:104AC000434800261C352E605C1D45F81C0C2078E0
:104AD00010B1012006F0FEFA434807F0A9F940F6AC
:104AE0000A08B146194601F138024E87BC68A2F89F
:104AF000008091F84530C1F83C90107B668000F052
:104B0000F000107303F0F00040F0010081F8450060
:104B100000E01C46636813B118888045F9D16260D3
:104B2000607B00F0F000607301F1240007F011FBDE
:104B3000806803884046C01F98421DD0401C9842A0
:104B40001AD03B8BCBB197F8240097F82530C7F8E3
:104B50001C9000F0F00087F8240003F0F00040F013
:104B6000010087F8250007F11803CB63507B7E8393
:104B700000F0F000507300E04E6116480168836851
:104B80000193C368406B00911022694620F0784081
:104B900040F0805003901048029301F085FD286892
:104BA0000028FCD02E60012006F0EAFB012808D086
:104BB000607B00F0F00040F001006073074807F0F0
:104BC00037F9B86845F81C0C05B0BDE8F083C0465D
:104BD00001010E044C13005018000021B98600009A
:104BE0000010044018100020D12A00002DE9F041E7
:104BF000434C94F8E700ADF1280D00286CD1384FF4
:104C0000387B01250021242284F8E750082384F80A
:104C1000E60001A807F096F9002604F10C000696BC
:104C200001ABADF814602F490796324605F05EFAE5
:104C30002D4904F1300001AB324605F057FA2B49FB
:104C400004F1540001AB324605F050FAB868014651
:104C500028468847DFF89C8025487B7B0078D8F879
:104C60000410C1F381571BB1032F03D184F8E15025
:104C7000032F16D0022F14D0012F26D103201E4C53
:104C8000009031464FF040521C23204604F0F2F8C9
:104C9000009531464FF400720923204604F0EAF8EB
:104CA00013E0022005F0F8FB032F0CBF4FF47A71DC
:104CB00042F21071114800685434B1FBF0F1204603
:104CC00007F06BFA204606F093FED8F80000C00803
:104CD00002D2304605F0E0FB0AB0BDE8F081C046E4
:104CE00094C80000676D00002D6A00006570000028
:104CF0006E340020B03F005000A00C409CC9000062
:104D0000B0130020434B2DE9F04F5F7B197893F8E7
:104D10000BA0ADF1240D002F72D109278DF8017081
:104D200093F8BF608DF8026093F8C0508DF803507F
:104D300093F8C1408DF8044093F8C2209870072181
:104D40008DF805204FF0000B8DF8001093F8C3701C
:104D50008DF80BB093F8C4608DF80670FF258DF8C0
:104D600007600D248DF809509A1D8DF80A401278BD
:104D700003AF0DF10E045546D9463A700E268DF854
:104D80000D0023E008EB05170121384606F004FE6C
:104D900038B138782070387BB61CF6B2641C04F841
:104DA000010B4046462290F90C100029B8BF494239
:104DB000521E017300F11000F5D16D1CEDB2462DAD
:104DC000A8BF5D46AA4508BF4FF001091B2E04DAB3
:104DD000D3F83080B9F1000FD4D0F61C986ADD7298
:104DE000F2B2010A5F791E7804F8011BA2F10905ED
:104DF00004F8010B6B46277031468DF8085001E02E
:104E000068330B220846012103F0ECFF09B0BDE82E
:104E1000F08FC04620050020F8B506F0C3FC404ED8
:104E20003E4F0446A00823D3B96A09B33D4600208B
:104E30008B690A6AA86204EA0300104340F002008A
:104E400006F1080208628B6910689843106001F14E
:104E5000180090E80C0030681A1C9043306005F18F
:104E6000300005F0A7F8022105F1CC0006F04EFD58
:104E7000B86AA10815D200F118020CCA002122401C
:104E80000B40002B08BF002A0BD08169056A0C403B
:104E9000F8622C434FF48041046207F1CC0006F025
:104EA00035FDB86A002837D107F12404204607F001
:104EB00050F9051C30D0F868E968884226D1A86806
:104EC00003F0D4FE17490860E0B906F10801A869AB
:104ED0000A6810430860326805F1180393E803007C
:104EE000081C1043306000233361A86846F80C0C9E
:104EF00006F1100000680028FAD0204606F06AFC8F
:104F0000BD62F8BD086803F017F9F8BD07F1CC00E1
:104F10004FF4805106F0FAFCF8BDC046181000208E
:104F20000C100440184200202DE9F0430746ADF173
:104F30001C0D07F037F805F067FA4FF00009064638
:104F4000CDF8009006F0D4FF30F0010002D00098B8
:104F5000B04202D16FF0040066E078684C4658B168
:104F6000B0F1FF3F05D001A905F036FA30B1804617
:104F700059E04FF0FF3000E02046019006F03AF98A
:104F8000019D4FF001082D1802E00A463BE0019315
:104F90007068019900F0E6FC00282DD003A803F00A
:104FA00037FBD8B99DF8100002A904F04DFF88B96D
:104FB000BB68BDF808009DF81210059A984748B1E3
:104FC000BDF808009DF81250B881059BBD73C84616
:104FD0003B6111E00599684605F0AAFC0198641C44
:104FE000B0F1FF3FD4D00028D2D006F003F92B1A3D
:104FF00002D001989842CAD2009F06F0F5FA06F155
:10500000080547B13A4652F80C1C0029BDD1296861
:1050100042F80C1C2F6006F0A9FC24B1706802F065
:10502000F9FD641EFAD1404607B0BDE8F083704731
:105030002DE9F84F0F460146D1F808A04E683846D2
:10504000203862D0401E5CD0401E57D1307B92F891
:105050000080012814BF324D324DB8F1FF0F45EAF0
:1050600008050AD196F88D10FF2903D0D6F89C00C8
:1050700003F09AFCFF2080463DE0D6F89C704FF08C
:10508000FF34002F49D029480168EAB2914244D93F
:10509000834621460BF12400814600F063FCE8B210
:1050A0000BEB800BDBF8940070B97B68E9B2012050
:1050B00088401D49CBF894702A46184378603846DA
:1050C00005F08EFC002700E00127484602F0A2FD13
:1050D0001FBBDAF80000B0F1804F14BF23220B226F
:1050E000D6F89C00414605F065FCD6F89C0096F881
:1050F0008D1003F059FC86F88D800DE06FF00104EF
:105100000BE0002486F8A44007E0317B0020012951
:1051100008BF012086F8A40000242046BDE8F88FCF
:105120000004C0A000200080007FC767B03E0020C0
:1051300081F000412DE9FC414FEA01244FEA41058D
:105140002D0E04D1002C18BF0020BDE8FC8144F0D6
:105150000044FF2D5ED04FEA9404002948BF64420A
:105160004FEA00224FEA40031B0E05D1002A14BF6C
:105170000020081CBDE8FC8142F00042FF2B4AD011
:105180004FEA9202002848BF52425E1B41BF171CE3
:10519000221C3C1C764248BF2B1C192E47BF44FAE8
:1051A00006F73A444FF0000803E0C6F11C0704FA82
:1051B00007F8002A04BF0020BDE8FC8146BF524228
:1051C00001270027A3F101035200FBD512F0800450
:1051D0000DD002F0200548EA0508803228BF5B1C8C
:1051E00002F0400458EA040808BF22F480729B1CB5
:1051F000DCBF0020BDE8FC81FF2B0ED222F0FF02B5
:105200004FEA42024FEA522040EAC35040EAC770D8
:10521000BDE8FC8108464FEAD0774FEAC777FF2008
:105220004FEAC0503843BDE8FC8170472DE9F0419A
:1052300004466668A7680D46ADF1380D06F064FEB9
:1052400096F8DC10012903D106F063FF00205EE030
:105250004FF0010886F8DC8006F05BFFE968204625
:1052600002F0A6FC0028F1D12878307068687060E0
:10527000287A002130220823F06001A806F03EFEC3
:1052800006943A7B099200250095224AB96806F1F6
:10529000100001AB04F072FB01A828220823294664
:1052A00006F06EFE396907911B49059406F12C0042
:1052B00001AA2B4604F00AFD01A82422082329464E
:1052C00006F058FE06F160008DF81C80414601AAE8
:1052D00005F002FA307838B906F17C00294601AAB7
:1052E00005F0FAF90D4870603572C6F8BC50C6F882
:1052F000C050786800F066FA204603F097FD084A2F
:1053000006F1C8000421234605F096FC20460EB0A5
:10531000BDE8F08115550000A982000059C00000C9
:1053200009BC0000F0B5ADF1340DFFF75FFC334967
:1053300008682822082340F00200086001A8002124
:1053400006F01EFE2E4E2F490524002301AA0794C5
:1053500006F1CC0004F0BAFC00213022082301A899
:1053600006F0CCFD0025FF271921274AADF81C5077
:1053700001AB099706F14C00009504F0FFFA2822D2
:10538000082301A8294606F0FBFD2049079406F5ED
:10539000807001AA2B4604F099FC01A8294630220E
:1053A000082306F0ABFD0124ADF81C40099706F177
:1053B00068001A2101AB164A009504F0DFFA15497E
:1053C0002A4606F1A800134604F090FE124806F0A3
:1053D0002FFD03F0E3FC2B46012808BF231C86F8B1
:1053E000A550B57135727572B572F572F47173713D
:1053F0004FF6FF70A6F89C000DB0F0BD00200940EC
:10540000181000207DB8000005AE0000455D0000CA
:105410000D87000029B400007D6100002DE9F84FE0
:1054200000298346009106DD024600980021401EB7
:1054300042F8041BFBD10098DFF8C880DFF8CC905D
:105440000028C8F800B012DD2F48009C076800252E
:1054500037F8020B38B1D9F80000AE0031580020FF
:1054600088474BF80600641E05F10105F0D1284F6E
:1054700041460120D7F80080C880B8F1000F22DD36
:105480004FF0000A00980127002817DDABF1040651
:105490000446002556F8040FB0F1FF3F04D0D9F8B8
:1054A00000106958884730600021B0F1FF3F08BF05
:1054B00001212D1D641E01EA0707EBD137B90AF15E
:1054C000010AC245DEDB04A006F080F80D49002089
:1054D0000860BDE8F88FC0467864632E72756E74FC
:1054E000696D652E537461727475703A20276D6111
:1054F00078506173736573272065786365656465AB
:105500006400C046F4190020ECC90000F0C9000096
:10551000E8C9000098B53A4982684468096810688B
:1055200049688847374B01229A6160B1217AFF2987
:1055300009D0FF21400921725CD2042018600220AA
:1055400006F0B1FD56E0207A002853D0401E1DD051
:10555000401E02D0FD3851D049E05968D4F8B4005B
:105560000170D4F8B800D4F8B410401E491CC4F837
:10557000B800D4F8B870C4F8B41017B3012F88BFBE
:10558000092202201A6006F08EFD98BDD4F8B00002
:10559000401EC4F8B000D4F8B070A7B9D4F8B87001
:1055A0007FB10220D4F8A8102072097C012F4FEAA5
:1055B000410141F0010143F8041C94BF03220B2276
:1055C000E0E7042210E0D4F8AC0000785860D4F88A
:1055D000AC00022F00F10100C4F8AC00D1D2D4F825
:1055E000B870002FCDD1052200202072C9E7FF201E
:1055F000207298BD04F12C0003F092FE98BDC046C5
:10560000AC010010042800402DE9F84307467C68EF
:10561000BE6806F079FCD4F8881000295FD006F047
:1056200078FD3168486820F0020048603168486AB7
:1056300020F003004862D4F8A05070693169084333
:1056400069680968C1F804053168486920F00100FB
:105650004861306801250562384605F001FBD4F841
:105660008800D0F8048006F04FFC814694F8D800FA
:1056700058B118F0704F02D1042004F0F5FE02205A
:1056800004F0F2FE002084F8D800484606F041FD00
:10569000D4F88810087C042803D003200874D4F8B8
:1056A000881032697069D4F8A0301043854058687A
:1056B0000068C5623068B0F1804F14BF0A480B48DB
:1056C0000E68806800258204A6EB9250401E086098
:1056D0003846A268C4F888509047BDE8F88306F0C1
:1056E00018FDBDE8F883C046000500203004002006
:1056F0002DE9F843044606F007FC81462D480219BF
:1057000092F8ED10491ECFB2002F82F8ED704BD108
:105710002B4D05EB84052E78698836F07F07884687
:105720001AD1F10911D24FF08054D4F8B801806930
:1057300001464046884704F5DC742068406B01460A
:10574000404688470228F8D121E000EB8800D0F8D5
:105750000011002088471AE04FF08054D4F8B801B7
:10576000006A014640468847D4F8B801806A01467D
:1057700040468847D4F8B801006B01464046884748
:1057800001210D4A0D48116001688908FCD306F01B
:105790003F003F2801D0FFF7ABFF687800F03F00E3
:1057A0003F2801D0FFF7A4FF484606F0B2FCBDE851
:1057B000F883C046B0130020282008602820084045
:1057C00040C300002DE9F041064606F09DFB2D4D3B
:1057D0008046A91991F8ED00421C002881F8ED20BF
:1057E0004AD1294C04EB8604277807F03F003F2874
:1057F00001D0FFF7E7FF607800F03F003F2801D0BD
:10580000FFF7E0FF668837F07F001AD1F80911D260
:105810004FF08054D4F8B8014069014630468847BB
:1058200004F5DC742068406B014630468847012847
:10583000F8D121E005EB8605D5F800110120884755
:105840001AE04FF08054D4F8B801C06901463046E0
:105850008847D4F8B801406A014630468847D4F8F2
:10586000B801C06A0146304688470121074A084806
:10587000116001688908FCD3404606F04AFCBDE887
:10588000F081C046B013002040C30000282008600B
:10589000282008401EF0040F14BFEFF30981694669
:1058A0008869EFF3118102B400B5DFF8A4E0F04796
:1058B000DFF8A8E0DEF8001001EA0000CEF80000F2
:1058C0005DF804EB1EF0080F03D101BC80F31188D2
:1058D000704704BC1EF0040F14BFEFF30981694642
:1058E000A1F1200114BF81F309888D461B4B186874
:1058F000086040F2011018604A604FF08070C86183
:1059000017488861704702B401B4EFF3148100298D
:105910001CBF002282F3148802B402B4DFF834E022
:10592000F04701BC01BC00281CBF022181F3148890
:1059300001BCDFF824E0F04704484FF080510160DB
:1059400001BC80F3118800BF00BFC04604ED00E039
:105950005D88000089C000000DC10000C417002050
:10596000075900002DE9F0410D460646B5F1FF3F0D
:10597000ADF1380D09D045B12B496B4605A82A4633
:1059800005F0AAF905A9022001E0002103200391F6
:10599000264F8DF8100038682024EFF3118837184F
:1059A00084F31188708980BB002D04BF88F31188AF
:1059B000002036D006F090F9064606F0F3FA029081
:1059C000C0F818D004F0E0FB3846694606F0CCFA7F
:1059D0009DF810000025022802D1039801F0E8FF8D
:1059E00088F31188304605F08BF9EFF3118384F3C7
:1059F0001188039810B106F0CEFB039502988561DB
:105A000083F311889DF810000BE07089401E7081AF
:105A1000039818B106F0BFFB0020039088F31188AB
:105A200001200EB0BDE8F08115AB0000A8C9000050
:105A30002DE9F04115460446A869A060686A9846B9
:105A40000E4608B92A4800686062286A002806BF26
:105A500028480768071C06F063FAEB69A3B9002819
:105A600008BF391C03D03F1841427F1E394002460F
:105A7000E161606AE169434601F0C8FE2062206A84
:105A8000B8B90120BDE8F081002804BF2362391CA9
:105A90000BD01B1841425B1E01EA030020623F1A33
:105AA000E869C019E061E0690140E1614FF0FF3051
:105AB0006062A6622869E06268692063A86A606320
:105AC000A88DA087A08F012803D10B49C868401C6E
:105AD000C8602046414601F0C9F90346404605F03A
:105AE0004BFD002814BFD81C0020BDE8F081C04643
:105AF000BCC90000C0C900006017002070B5304C60
:105B00000646A078002859D0B4F93600B4F934100C
:105B1000884207D0B6F98C10304602224FF0E0439D
:105B200000F0DAFB06F0F0F9E178002937D0491EE1
:105B3000C9B2E17099BB06F0ECFA0025A570607857
:105B400040B1284602F0F8FA06F130004FF0FF317C
:105B5000FFF708FF06F1300006F027FB06F16800AA
:105B600006F015FB04F1CC0006F021FB04F14C001B
:105B700006F0FFFA04F5807006F019FB04F16800E6
:105B800006F0F7FA04F1A80006F001FBE5602570C5
:105B9000307C012812D10E20FFF7AAFD70BD06F05F
:105BA000B8FAE068864204BF0020E06006F13000E9
:105BB00006F0FBFA06F1680006F0E9FA70BDC0468F
:105BC000181000202DE9F8430D46064668687468F1
:105BD000D6F80890002710B9E868002850D020783F
:105BE000012814D106F090F9D4F8BC1049B1D4F8CA
:105BF000C0108D61C4F8C05006F08BFA0120BDE8DA
:105C0000F883C4F8BC50C4F8C05006F082FA0220F1
:105C100004F042FC04F160084FF0FF314046FFF70A
:105C2000A1FED9F8080003F037FB3046294600F002
:105C300045FF0546D9F8080003F050FB207888B9E5
:105C4000B5F1FF3F08D004F17C004FF0FF31FFF7C2
:105C500089FE207A48B110E003202072022004F06F
:105C600003FC0AE0B5F1FF3F01D0012705E0032066
:105C7000207204F12C0003F053FB404601F0CAFFF0
:105C80003846BDE8F8837047F8B506F0F5F806F039
:105C900005F9044604F00C000C2845D0E0081ED29B
:105CA00004F00CFF234E376805460120014605F03D
:105CB0000FFB31686943884211D21F4C8220B0FB30
:105CC000F7F0291A204606F068FA204605F090FE03
:105CD0000120FDF75FF8204605F09CFA25E0200939
:105CE00022D21648610939BF016821F0010101681B
:105CF00041F0010102460160D2F898004FF0805453
:105D000040F00300C2F89800D4F8B8018069014659
:105D100020208847D4F8B801094C806B216880475F
:105D200001202060206800E030BF06F0ABF801F0F1
:105D3000D7FDF8BD9CC90000BC1300208C21084091
:105D40002C2009402DE9F04106F0DEF8DFF8A880AC
:105D50000646D8F8A00010F4602F2AD0400CC4B238
:105D6000600807D2A00803D2E00828BF022402E09E
:105D7000012400E00024651D68B202F01BFDD8F884
:105D8000A07004F111010120884027EA000130468B
:105D9000C8F8A01006F0BDF908EB8400D0F88C70AC
:105DA00057B1D8F88800294600224FF00063B84761
:105DB00002E0304606F0ADF9D8F8A00020B108F5B1
:105DC0008070002105F0A2FD98F8A500800810D38E
:105DD000D8F898703FB1D8F888006FF00101002220
:105DE0004FF00043B84798F8A50000F0FD0088F890
:105DF000A500BDE8F081C046181000202DE9F84F3D
:105E000005F0F8F9294C284F824604F13000066865
:105E100000253046012105F0BFFD40B1B068AAEB76
:105E20000000874203D22846002103F0BFFF6D1C0B
:105E30001036462DEDDB0025A346B9462E46A84672
:105E4000636B01215B19184605F0A6FD28B398681D
:105E5000AAEB0000814520D2A77804F1580118462A
:105E6000062205F057F9A0B9381C12D0401E05D003
:105E7000401E12D10320FEF745FF0EE084F8028099
:105E80000BF1580006277F1E00F8018BFBD106207E
:105E900000E03046012103F089FF761C10350A2E00
:105EA000CEDBBDE8F88FC04620A10700200500200A
:105EB00010B50028ADF1200D4BD0401E4DD1012072
:105EC000694605F087F8264C9DF80000227A0128E3
:105ED0002DD09DF8000003283FD19DF80100401E01
:105EE00001283AD89DF801009DF801302072A11DCB
:105EF0008DF81930097807AA06AB802019700221A5
:105F000003F020FE207A9DF81D10884205D08020E5
:105F1000022106AA03F032FE207A012803D00228CB
:105F20001BD1002000E00520FEF7ECFE15E00DF18E
:105F300001000178A41D03462170197805AB1C46A9
:105F4000217080208DF81520022105AA03F016FE8D
:105F500003E00020694605F03DF808B010BDC046DA
:105F600020050020F8B52A4C04F1180004F11001B6
:105F700000F04CFB0028606008BF002047D004F10F
:105F80002406304605F072FD002584F8245021488F
:105F90006063314684F83050284604F095FA2F4665
:105FA000E06000B10127002830D0AB208DF8000060
:105FB00005F022FE6846012104F0CEFA2F4600B912
:105FC000012705F011FE1FB101F074FF00B12F464B
:105FD000C7B103F04DFB002808BF2F1C14D004F1FB
:105FE000440000E0083007683FB10179227891420F
:105FF000F8D1417962789142F4D1A060006800B193
:1060000001252F46012F01D002F0D8FA3846F8BDFD
:106010001016002000093D002DE9F0412A4C0546EC
:10602000A0781F4616468846ADF1300D012803D0F2
:10603000FFF778F90120A070B8F1000F09D0C5F87A
:10604000048036B1AE6005F05FFFE17819B106F06B
:1060500060F8002033E0491CC9B2E17006F059F83D
:1060600001241FB9684605F0AFFD6F463868286007
:106070007868E860387A00217822287405F11800E1
:1060800001F06FF803A800212422082305F072FF15
:106090008DF8244005F13000002103AA04F01CFB18
:1060A00003A800212422082305F04CFF0549099587
:1060B00005F16800002203AB04F018F828460CB084
:1060C000BDE8F081ADC0000018100020F8B50D4605
:1060D000EEB2290824BF25494D40254AB300D158C6
:1060E00085EA01040440C4F3006C224C00EA050771
:1060F00081433C4000F4E0272143B7F5E02F01D174
:106100004C0E15D300F4E0245CEA040710D001F42F
:10611000E027B7F5A02707D0B7F5803704BF21F4F3
:10612000003141F4A02103E021F4803141F4C02189
:10613000114CD150C10D04D3A4F18001C5F380529C
:106140008A55000E11D305F0DFFE290E03D201217E
:106150000022B14002E00121B1400A4650342368D8
:106160008B431A43226005F0D4FFF8BD006000A005
:1061700000100840FF7F077F80200240042998B567
:1061800045D1294C04F1240005F0E3FF40B994F80F
:10619000A500400838BFE06804D3D4F8880000E0C8
:1061A000C068E06041681A4A097811604068116867
:1061B000007888422AD1022004F06EF91120FFF7FE
:1061C00001FB01202072E168087C10B1A079012850
:1061D00003D00E20FFF7F6FAE16849680D488F6892
:1061E0000FB9CF681FB10021C1610B4F07600B4A87
:1061F00040F2FF7111600027876109494161094838
:1062000005F016FE192003F069F898BDFEE798BD69
:10621000D02108400010044051000706000004602F
:106220000200004095810000181000202DE9F84F71
:10623000C7780022022F08BF0122002107B90121DF
:106240000026032F41EA020108BF01260E433ED07B
:10625000027B002403E009780919491CCCB2A24250
:1062600035DD05692B195B786119FF2BF3D10878AF
:10627000261D2018C7B2F4B2601C874227DD1548DE
:10628000A0F1300808F1070908F1060A04EB050B34
:1062900050460122594604F03DFF6619002808BF08
:1062A0009BF8010014D048463146012204F032FF29
:1062B00040B9707801280AD198F80D0038B9B07843
:1062C000BDE8F88FA41CE4B2601C8742DEDCFE202F
:1062D000BDE8F88F50050020F8B51F4616460C465D
:1062E000054605F0E1FC2549B1F93420121B04D420
:1062F000B1F93620A24204DA0CE0B1F93620A2420C
:1063000005DAB1F93620B1F934309A4202DC03F0F3
:1063100021FF30E0A21004EB527222F00702A41A0F
:10632000E20002EB4412891801F59C74214691F8B1
:10633000242012F0070F17D1114A4B689A4202D05D
:106340004B68AB654A6005F1500181E8C00003F07D
:1063500001FF05F130004FF0FF31FFF703FB05F1BE
:10636000600494E80300F8BD03F0F4FE94F8240000
:1063700010F0070FFAD102200021F8BD18100020FC
:10638000998A00002DE9F84F804608781C46164689
:106390000AAF022831D02348DFF88C90D1F804B03E
:1063A0008569102282464946584604F03DFD002783
:1063B00040B9002D33D08AF80140012041463246D1
:1063C000A8472CE009F110015846102204F02CFDDA
:1063D00010B925B30220F1E709F120015846102237
:1063E00004F022FD90B9012C05D13078002818BFA7
:1063F0008AF80A0013D1802711E0486842780078B3
:1064000042F6021500EB0220854201D00A2706E081
:10641000388832460090404601F02EFC0746384648
:10642000BDE8F88F9012002000C300002DE9F8436A
:10643000254C0746E06890460E46B84218BF032038
:106440003BD102F08DF9051C36D405F05DFD1C4BE7
:10645000814605F00F0046EA002626F0030143EAD4
:106460000100C4F8840004F0D3FB00F0FF00012811
:106470001AD1700B0FD305F10C010120114A84F8D9
:10648000A450884094F8A56011688143116046F0DB
:10649000040084F8A500C4F8887004EB8500C0F8F7
:1064A00078800127277004E0284602F083F96FF016
:1064B0000105484605F02DFE2846BDE8F883C04694
:1064C000010003060810044018100020B0B5014672
:1064D0008B681C68E26948682262520824D2D0F8AE
:1064E000A01049680A685D69D2F80415294206D0EF
:1064F0001C68616A21F002016162C2F80455D2F899
:10650000042519690A4230D01A68516A21F0010144
:106510005162D0F8A0205268196912683830C2F868
:10652000041502F0FDFEB0BD1C68626922F0010294
:106530006261D0F88870AFB9626822F002026260CE
:106540001C68626A22F003026262D0F8A0005A69F5
:1065500040681C6900682243C0F80425084604F01E
:106560007FFBB0BD0846FFF74FF8B0BDF0B520483F
:106570000127F84201D002F09FFB204D204F214E11
:10658000BD4206D203CD0478A4003459401CA04774
:10659000F6E71D48002800D08047164D164FBD4233
:1065A00002D210CDA047FAE7F0BD03251BE04168F9
:1065B00008300A1C2A400BD11A1C2A40AB4305D0D4
:1065C000046804300C600431043BF9D1131C05D07D
:1065D000047801300C700131013BF9D1021C2A40D2
:1065E00001D0A84304300368002BE0D17047C046B7
:1065F000FFFFFFFF0000000000000000F0CD0000E2
:1066000028CE0000B4CD0000398B00002DE9F843FE
:10661000244C884606464FF0FF31603C04F12400CC
:106620008146FFF79FF900200CE0FF2909D022687E
:106630008A4204D904EB8101D1F894700FB100268D
:1066400027E0401CB8F1000F03D018F82010FE29F5
:10665000EBD10025356075600127B56011E0FF289A
:106660000ED004EB80000B787268C0F8946007FAD3
:1066700003F0104370600A680949304604F0B0F92D
:106680006D1CB8F1000F04D008EB85010878FE28D6
:10669000E5D1484601F0BEFA3046BDE8F883C04671
:1066A000007FC767103F0020002A4AD05FEA000C35
:1066B0008B071CD1830722D1102A08D370B4103A5B
:1066C00078C978C0103AFBD270BC103238D0042A96
:1066D0002CD3082A05D30C2A24BF08C908C008C92E
:1066E00008C008C908C092072AD0920F22E00B7890
:1066F0000370491C401C521E22D08B07F7D1C307E0
:1067000014D18307D8D0121F12D308C903801B0CE1
:106710004380001D121FF8D20AE008C903701B0A4B
:1067200043701B0A83701B0AC370001D121FF4D232
:10673000121D05D00B780370491C401C521EF9D164
:1067400060467047F8B50546880F3CD31E4E30684A
:106750001E4F20F0020040F400703060032147F823
:10676000041C41F23004BC60012139605022BA603F
:1067700039604FF4CA63BB603960154847F80C1C98
:1067800005F056FB134FB81C0078012803D005F123
:10679000300001F03FFA00240220346003F064FE70
:1067A0001120FEF7A5FF287C10B90E20FEF7A0FFF0
:1067B0003846094A44721178847221B11470CC3081
:1067C000042105F0A3F8F8BD000004600C4104406A
:1067D0007D61000018100020144200202DE9F843CC
:1067E0002020EFF3118780F31188214CA06801214C
:1067F00005F0C7FC4FF001094FF0000865692168FA
:10680000A4F81C906A1A2168A4F81E80461B401A3E
:10681000904227D387F3118840464519361A4846D7
:10682000294600F013FDB042F7D92021EFF311877C
:1068300081F31188E18B012903D14046294600F0FC
:1068400005FDB0F1FF3F06D0A169801B814238BF32
:10685000081C411901E0A069291804F047FEA4F8BA
:1068600020902560A4F81C8087F31188BDE8F88388
:1068700068180020B0B50446A768ADF1280D5FBBCD
:106880000C2000F071FA071C1DD06846002124225C
:10689000082305F057FB002306976A466168ADF8A8
:1068A00010301848059303F0F5F9386070B90820E6
:1068B000ADF824000C25ADF8265009A803F074FDAE
:1068C000384604F009F86FF0030018E0E0687860DB
:1068D0002069B860A7600AE004F086FE05463868C3
:1068E00004F098FC2069B860284605F03FF8386845
:1068F000616805F052FC386805F07AF800200AB0AB
:10690000B0BDC0463DBE0000FEB504462248164656
:10691000089FC069618250F821201C4800681D460C
:1069200090420DD01B480068009000220191184E43
:10693000029231888F23384604F02CFE0120FEBDE0
:10694000084602F0A9FCA66068696060286AB0F198
:10695000FF3F08BFFF2020740026E660288B002838
:106960000EBF301C0120E0600146A88C10B141F040
:106970000200E060204601F073FD0346384604F053
:10698000FBFD002814BFD81C301CFEBD88C90000C8
:1069900012CA000074C90000A4170020F8B584468C
:1069A0000D461C4606AF287A3B88800928BF082080
:1069B00038D22878FF27022829D1686841780078E2
:1069C000002600EB012042F60211401A17D04DF2CA
:1069D000EF61401A1CD0401E0FD163B9E868114620
:1069E0002246FFF761FEE868C4F114023146201820
:1069F00000F0B7FB0EE007260AE00A2608E0009345
:106A000060462946234601F037F9064600E0012694
:106A1000FF2F06D00448006818B1016809B10120B1
:106A200088473046F8BDC046BC1400202DE9984385
:106A300005F06AFA1F4CDFF87880814604F1E00027
:106A4000007850B94446A0680146022088470746AE
:106A5000102002F09FFA2FB320E001F0B5FA0028D1
:106A600020460FD1144909683222B2FBF1F101B975
:106A7000012100F13004204605F08FFB204604F090
:106A8000B7FF0FE044460022A16880F8E020022012
:106A900088470746102002F07DFA1FB1A068014622
:106AA00003208847484605F034FBBDE89883C0467C
:106AB00094C80000B01300209CC9000080B5426853
:106AC000C2F8A8100868C2F8AC004868C2F8B00064
:106AD000D2F8B0708868C2F8B400C8681949C2F822
