:020000040000FA
:10100000F691FFFF0000007845454545000401FFCB
:10101000300200207196000061BF000061BF000037
:1010200061BF000061BF000061BF000061BF000040
:1010300061BF000061BF000061BF000061BF000030
:1010400061BF000061BF000057C50000D74A2DE90D
:10105000F04F0126ADF1140D02F141010490D14889
:10106000C1F8CF6F0768002FFCD0D148C0234438A7
:101070000360CD4B029003F108000068800804D2A1
:101080005868000C40F0F00000E07220D94FDA4CB4
:101090000193002587F84C02A4F1DC081846C1F83A
:1010A000FF5FD0F80CA058F8040CC0F304600BF0FC
:1010B00091FE00EB2A70401C162805DA10F10A0F89
:1010C000B8BF6FF0090000E0152000F01F0040F4E9
:1010D000F850A7F864021068800828BF4AF0406AF8
:1010E000C6494FEADA604FEA9A6580F0010000F0E5
:1010F0000100086085F0010000F0010088605046A2
:1011000006F0B0FC0022044615460BF0EDFE00B9D7
:1011100035462A46BA4D2B68002BFCD0DFF8E49206
:1011200009F10809C9F810402E600AB10BF0E2FE7F
:101130000BF096FA80B20090B24840F2FF320023E2
:101140002C2108F087F80BF015FD04460BF0CCFEBF
:101150004FF0000B00B9B3462B68002BFCD0C9F848
:101160001440BBF1000F2E6001D00BF0C3FE0BF05A
:101170001DF804460BF0B8FE4FF0000B00B9B34663
:101180002B68002BFCD0C9F80C40BBF1000F2E607F
:1011900001D00BF0AFFE0BF03FFA04460BF0A4FEBB
:1011A0004FF0000B00B9B3462B68002BFCD0C9F8F8
:1011B0000840BBF1000F2E6001D00BF09BFE04989D
:1011C00006F0A6F904460BF08FFE4FF0000B00B9B5
:1011D000B3462B68002BFCD0C9F80440BBF1000FCC
:1011E0002E6001D00BF086FE049908460BF0FCF946
:1011F000844C4000403440F0200084F80901084647
:101200000BF0FEF940F0100084F8090108460AF0DE
:1012100087FD03900BF068FE4FF0000B00B9B3465A
:101220002B68002BFCD00398C9F82000BBF1000FFD
:101230002E6001D00BF05EFE049908460BF0F8F921
:10124000400040F0600084F80C0108460BF0FCF907
:10125000C00040F0800084F8010108460BF00CFA51
:10126000800040F47C40A4F89C0108460AF0C2FBD0
:1012700003900BF039FE4FF0000B00B9B3462B681A
:10128000002BFCD00398C9F80000BBF1000F2E60C2
:1012900001D00BF02FFE4FF480002060D8F85800EA
:1012A00040F20F216FF31F40814215D9D8F800009A
:1012B000D8F80030C0F30365C3F3034005B16D1ED9
:1012C000072805D006280EBF0720801C00F00F005D
:1012D00045EA001007F8080CCAF38140401E02D00E
:1012E000401E28D024E0D8F8D000810C20D24FF442
:1012F00080412160D7F80210420AC0F3033502F0A2
:10130000800221F08F010A4345EA0201C7F802106A
:10131000D7F80120031263F30302C7F801203968EC
:1013200000F0E70521F0E70145EA0100386002E03E
:101330004FF0004020604FF4007020640BF012FC6E
:1013400040F03000334F84F8C800CAF3815088B3AE
:10135000401E03D0401E20D002211FE030460AF07C
:101360005DFF05460420294607F092FD04200AF09F
:1013700055FF8542FAD10198056825F07F4009F0B4
:101380007BFD384614300068036807214FF0602267
:10139000280E98474FF4806020600321042007F056
:1013A00077FD0EE094022243A83F00500000094060
:1013B00044600C400420314607F06AFD124809F0F1
:1013C0005BFDD8F8B0001149114B47F6180500F045
:1013D0003F0084F8CB0F3A460D8018681068C1684A
:1013E00002208847402102980B4C016005B026601E
:1013F000BDE8F08F0A6008409813005000002043B9
:1014000000800C4000A00C40BD37860070B00C403E
:101410002C200940A0010010940460422DE9F04FF7
:10142000ADF1240D06F0E8F9D548D64905F00EF8DF
:10143000D2490860D4480BF051FDDFF850B3D449CD
:10144000584609F061FFD4480BF0CBFCD149002489
:101450000860D24D009404200190D1484FF4FA6204
:101460002346294607F0E0F9A046CDF80080402049
:101470000190CC480A222346294607F0D5F9CDF839
:1014800000804FF400400190C7484EF6602223468A
:10149000294607F0C9F9C548CDF800804FF4007A15
:1014A000294640F2DE322346CDF804A007F0BCF90D
:1014B000CDF800804FF40060BF4C0190BC48294635
:1014C00043462246D20007F0AFF9CDF800804FF432
:1014D00080500190B74829464346224607F0A4F9B8
:1014E0001F200A2109F008F9CDF8088040F20530E4
:1014F000012102AA434600F011FBCDF8088040F21A
:101500000630022102AA434600F008FB4FF0010911
:101510004FF4447002AA4346CDF80890494600F0C3
:10152000FDFA062440F21130022102AA4346029439
:1015300000F0F4FA0C2640F21230022102AA4346CF
:10154000029600F0EBFACDF8088040F21330022149
:1015500002AA434600F0E2FAD2254FF44570022178
:1015600002AA4346029500F0D9FA944A41464FF444
:1015700042700B4600F0D2FA914A40F207301F2128
:10158000434600F0CBFA4FF4C8670A200297394669
:1015900009F0B2F80B20394609F0AEF808203946B8
:1015A00009F0AAF80920394609F0A6F8204639467C
:1015B00009F0A2F80720394609F09EF8502740F2BA
:1015C0000440494603AA43468DF80C7000F0A6FA81
:1015D000022040F2E24109F08FF8032040F2E2419C
:1015E00009F08AF81020394609F086F812203946A9
:1015F00009F082F81120394609F07EF813203946A7
:1016000009F07AF82320414609F076F89BF80000AB
:101610000BF080FD6B4A404615210AF0D9FFADF86A
:101620001840ADF81A6004200821ADF81C8006AA05
:10163000ADF81E500AF0CCFFCDF808A048460221B4
:1016400002AA0AF0C5FF4FF0FF300BF06BFD4FF020
:10165000FF300BF093FD4FF0FF3007F06BFD04F00F
:10166000ADFE59480BF04CFC59480BF0BAFB5749FA
:10167000086058480BF09EF99BF800000BF04EFDF7
:10168000CDF808804FF48160494602AA08F0D6FCE4
:10169000CDF808904FF48060494602AA08F0CEFCCD
:1016A000CDF8088040F20240494602AA08F0C6FC84
:1016B0000320494602AA029040F2034008F0BEFC13
:1016C000CDF8089040F20640494602AA08F0B6FC60
:1016D00008F08CFB40460AF0B7F809F09DFB27485C
:1016E00000683146424608F0A5FD0BF033FC0BF0D4
:1016F00051FD07200AF068FD08F044FE36480AF064
:1017000067F9364809F0B0FF802041460DF10D021F
:1017100008F08CFE334CB0B9802002210DF10D028F
:1017200008F068FE78B90DF10D002D4900780870B9
:101730009DF80E00401E012802D9484620700BE09B
:101740009DF80E0020702078012805D0022806D1CF
:10175000404602F04FF902E0052002F04BF90BF091
:1017600079FD30B113480BF05DFA20B106F09CFD15
:1017700001E004F043FF09B0BDE8F08FDC42002037
:10178000A0420020600B0020900C0020E0410020CF
:10179000E4410020E841002064420020A1C500008F
:1017A000683F0020203F0020D83E00208C3F0020D2
:1017B0001C400020FC3E002080CBA400C80C002070
:1017C000800A0020480B0020A80C0020EC410020DB
:1017D0007C420020B00C0020AC0C0020000C00204B
:1017E0005D0B0020CE0900202DE9FE4FDFF81CA381
:1017F0000F460646F80B80F03881B80880F0D1809B
:10180000DFF8B492B04ADFF8CCB2DFF8D482B80F78
:1018100080F08180A7480178012960D0380960D321
:10182000002448460470A54801260670A4480078A4
:1018300010B120460AF046FDA2480BF019FBA3495F
:10184000104622460BF0DFFCA148A84DDFF8989225
:1018500003787BB35946097801292BD09E4E306816
:1018600010B30BF0BBF841460968401A9B49000BC6
:1018700008609C490A68801808603268B0EBC21F93
:1018800012D30C60484640F609010180417B01F00B
:10189000F00141F0010141734480017B01F0F0014E
:1018A00001734460286017E091484FF000510BF03D
:1018B0000FF811E0067040F6090148460180417BAF
:1018C00001F0F00141F0010141734480017B01F01E
:1018D000F00101734460286027F00807E2E039094D
:1018E00014D2B80BC0F0DE805046001D0BF0AAFCED
:1018F000041C08D0606830B1E068B4F91010646866
:1019000000222023A04727F40057CBE0002127F036
:1019100008070170C6E07749104600220BF073FCFF
:10192000F06840F6C41181421CD104200AF076FC14
:10193000C0B145462868A8B16F4C206890B90BF03B
:101940004DF820602968814204D229682068401A35
:10195000000B02E0401A401E000BF060F06800F53A
:101960008D70F0605C46207858B10220ADF8000020
:1019700068460AF095FABDF8080060490880002022
:1019800020700121484601705D490878401C0870AC
:101990005C490020087019200BF084F927F00057EB
:1019A00080E0DFF8648140460BF04CFC041C53D00F
:1019B00009F071F90026226A26626068D0B194F8B5
:1019C000240042F002020023401E0BD0401E05D02E
:1019D000801E0AD132464FF0805306E032464FF067
:1019E000804302E032464FF000536568E068B4F986
:1019F0001010A8475546B5F91200401C6FF31F3070
:101A0000688240460AF0B0FEE068B0F98C10B5F983
:101A10001220914220D13E49097801291CD090F82A
:101A20008E509DB905688DB13A4909680968B1F1D0
:101A3000FF3F11D0384909686830B5FBF1F10BF070
:101A400027FCE06868300AF0AAFF05E0E16830464C
:101A500081F88E0006F032F940460BF0F3FB27F0D8
:101A60000207F8B147F002071CE00BF097FA0146B5
:101A7000504608300BF0E6FB0446256A08460BF09A
:101A8000BFFBA8080CD25CB1206AA8432062606842
:101A900030B1E068B4F9101064682A460023A0470A
:101AA00027F480471FB1124839460AF011FFBDE8FC
:101AB000FE8FC0468D3E0020683E00208B3E0020F9
:101AC000723E002069720000F8400020CDBA00008C
:101AD000883E0020893E0020843E00207C3E00207D
:101AE000743E0020803E0020B841002000100440D9
:101AF000CC3D0020953D0000783E0020CC3E0020EB
:101B0000713E00208A3E0020B0410020A441002008
:101B1000DD0A0020643E002070DA00002DE9F0416B
:101B20000E46AA4BAB4DAA491446A0F2013200273B
:101B30001A2A04D9A2F20311002926D01CE0DFE8FA
:101B400012F04001380132011B0011010B01F300BA
:101B5000DB00D300CB00C300B900AF001B001B00AB
:101B6000A500970089007E0070001B001B001B0071
:101B70001B0043001B002B0028284EDA022E4CD1FC
:101B8000218808F0B9FD07462BE1012E40F01B81AA
:101B900020789549087024E1012E40F014811A46FE
:101BA0001078012800F0FD800A4610782178117025
:101BB00028B1002900F0F180002840F0128110784F
:101BC000002840F0E6800CE1012E40F0FC802078F7
:101BD000012840F0F88085480BF024F8F8B98448D3
:101BE0003E464FF6FD710DE03101415C384603F091
:101BF000A9FF071C40F0F5807E480BF027FBF0E0C2
:101C0000761CF6B24EB900EB0612137A042B02D002
:101C100012889142F4D1002EE6D00227E1E0162787
:101C2000DFE0022E40F0CF8020880A28C0F2CB806F
:101C3000B0F5486F00F3C7806F490880D1E0022EED
:101C400040F0C1802088B0F5FA7F80F2BC806B49FB
:101C50000880C6E0022E40F0B68020880628C0F238
:101C6000B280B0F5486F00F3AE8065490880B8E0F7
:101C7000022E40F0A88020880628C0F2A480B0F58B
:101C8000486F00F3A0805F490880AAE0012E40F071
:101C90009A802078022880F296805B490870A0E044
:101CA000012E40F090802078042880F28C805749E3
:101CB000087096E0012E40F086802078082880F297
:101CC0008280534908708CE0062E7CD151482168EF
:101CD0000160A188818084E0012E74D120780428DD
:101CE00071DA4D4908707CE0012E6CD1207804280F
:101CF00069DC4A49087074E0202E64DADFF820813C
:101D000039461F22404605F0DAF821463246404661
:101D100004F044F943480670287832463946434671
:101D200007F050FA07465CE0202E4CDADFF8F88026
:101D300039461F22404605F0C2F821463246404649
:101D400004F02CF9394806702878324601214346C0
:101D500007F038FA074644E0022E34D1208834498F
:101D600008803EE0012E2ED10A461078012818D0B6
:101D70001A4621781078117010B171B1002830D155
:101D8000107800282DD0022008F06CF808B9152032
:101D900028E001200AF024FD23E028780AF0CAFE9A
:101DA0001FE012271DE0042E0DD120682149086094
:101DB00017E0102E07D120482146102204F0EEF83B
:101DC0000FE0102E08D018270BE0C0461A0B002099
:101DD0001B0B00206441002018482146102204F00B
:101DE000DDF83846BDE8F0812B0B0020F83F0020DD
:101DF00048420020D43F0020280B0020260B002062
:101E0000240B0020220B00202A0B00207741002009
:101E1000764100207C0C0020754100207441002098
:101E2000BE0A00201F0B00209F0A00201E0B00206E
:101E30001C0B0020704100201642002006420020AA
:101E40002DE9F84F0446A84FDFF8A0B2A07800258E
:101E500006281BDCDFF89C92DFF89C8206282CD039
:101E6000DFF8A8A2002800F00181401E00F03081B8
:101E7000DFF894C2401E00F0D580DFF884E2401EF7
:101E8000012840F28680801E4CD029E1C01F09D075
:101E9000401F00F01781401E00F01A81801E00F0E4
:101EA0000C811DE138460BF0D1F96078002840F034
:101EB0000F8158460AF0B6FE0AE1A08809F0C0FB7F
:101EC000A0880AF01DF88A4E06EB00164FF6FF7048
:101ED0003080F58075805846B5800BF0B7F93846EC
:101EE0000BF0B4F9307A0125042840F0EF80494620
:101EF000087888B9A079082805D0042041460870E0
:101F00000BF0F9F804E00520414608700BF0F3F8F7
:101F100028460AF065FCD9E00320414608700BF022
:101F2000EAF8D3E06778F7B9204607F073FD207B25
:101F3000042811D10620414608700BF0DCF86F48E8
:101F40000078012808D11F2007F07EFE4FF47A7137
:101F50004143584608F0A0FCE0786289237B211DAC
:101F600007F0B8FCB4E06078312806D0207B042864
:101F700000F09D8006F025FEAAE071460D70207BE2
:101F8000042840F0A5800420414608700BF0B3F807
:101F90009EE06778002F3CD1A078032823D05948D1
:101FA000078847B971460878012802D049460D7064
:101FB0000BE00D7009E071460A7849460F78174327
:101FC00003D00188604608F067FC4146087807287E
:101FD00004D0042008700BF08EF879E00620087019
:101FE0000BF089F874E04146087806280CD070465A
:101FF000077827B9032008700BF07DF868E002200D
:1020000008700BF078F863E0072008700BF073F8A5
:102010005EE060780C2863D00820414608700BF021
:102020006AF853E06778002F41D1E778A7B94146B5
:102030000878022854D0072852D0062803D14946F0
:10204000087801284CD160460AF0ECFD002847D101
:1020500001200AF0C5FB43E02D4950462D4B0A787C
:102060000078294607F0AEF8607039E06078F0B982
:10207000294A0220102108F0D9F9284A032010210A
:1020800008F0D4F9E01C2649026880880A6001251E
:1020900088804046057028460BF02DF850462149AF
:1020A000214B00780A78294607F08CF880B1082087
:1020B000414608700BF01FF80AE0A08805210AF0DD
:1020C000E9FE03E0A088217B09F0C6F8012D07D1C5
:1020D0001648006820B1016811B12046884700E029
:1020E0000120BDE8F88FC046F83F0020D43F002013
:1020F000484200201B0B0020784100202A0B0020C2
:102100001A0B00201C0B0020B03F0020644100206F
:102110001F0B0020BE0A00200642002016420020AD
:10212000AC4200201E0B00209F0A00202C0B002038
:102130002DE9F04F0128ADF1140D40F0F280DFF8E9
:102140001492D9F8DC00012840F0E9800220C9F897
:10215000DC000AF0E7FD0290012007F09FF820B1B3
:1021600001210646C9F8DC10D5E00AF0C3FD039052
:102170006E484FF00008C0F8008001200AF04EF8C9
:10218000012818BFCDF8008004D1404606F076FB48
:102190000120009066486E4CC0F800801934D4F8D5
:1021A000FF0F11200AF0BEFE00280CBF4646012694
:1021B00010200AF0B7FE08B146F002060F200AF020
:1021C000B1FE08B146F004060B200AF0ABFE30B1B8
:1021D000584800685849006B0246088890470A2012
:1021E0000AF0A0FE0028404618BF01204FF0805B97
:1021F0000BF5DC7528B128685049006B0246088849
:1022000090474F480127076028688069014646F0DB
:10221000200088474B4807600AF07EFE00F001016D
:102220000191400815D248480AF0C6FD8246BAF12D
:10223000040FF8D0BAF1010F06D1DBF8D8014068DD
:1022400002464148032190474049086820F00300B6
:102250000860404600F086F92868D4F8FF1F806BBC
:102260008047019801280ED0BAF1010F06D1DBF8A2
:10227000D8014068024634483946904733490868D7
:1022800040F0030008602A4807602868406901465A
:10229000304688470B200AF045FE28B128682649B9
:1022A000C06A0246088890470A200AF03BFE28B11F
:1022B00028682249C06A024608889047204807607B
:1022C0000322C9F8DC201F4BC3F800802868406B4C
:1022D0000146304688470128F8D1042006F0DEFF89
:1022E000124807601A48D4F8FF1F01688909FCD317
:1022F0000098012802D1384606F0C0FA0AF0FAFD2B
:10230000082006F0CBFF06460398C9F8DC7008F0F9
:10231000ADFB05F06DFF029809F0E6FA02E0042635
:1023200000E00126304605B0BDE8F08F0C400940C2
:1023300000022243B801001002D40000FED30000C6
:102340002820086080010443004003402422084004
:1023500014100940200500202DE9F84FDFF8D09136
:1023600048460AF06FFF1646884600900AF016FEAF
:10237000DFF8C0C10024032706F0010A8346B8F144
:10238000FF3F0ED1484645682DB9B0F91200401CF8
:102390000FFA80F803E060460068B0F910806648E4
:1023A00004704046654DDFF89C81811000EB51714F
:1023B00021F00701401AC10001EB4011604600689E
:1023C0006D18A8427ED00098DFF874A1854201D034
:1023D000A14625E0504609F013FEB00804D2484655
:1023E00001680968016001E04846046058460AF047
:1023F00007FF009991F8240040F0040081F82400C0
:1024000068460AF0B1F90146404607F0C1FD009860
:1024100008B1B008EDD2832709E000980068009069
:102420000098E8B9832F02D058460AF0E9FE4648E2
:10243000474A007801280ED044480AF019FD0221CD
:1024400010460AF045FA4348007801286DD042480A
:102450000AF00EFD69E0104602210AF039FA64E044
:10246000006885421DD1504609F0CAFD00980168F8
:10247000C0F80090584600910AF0C2FEB0080ED293
:10248000009991F8240040F0040081F82400684687
:102490000AF06AF90146404607F07AFD00E001249F
:1024A0008327002CB9D0009991F8240040F0040053
:1024B00081F8240068460AF057F90146404607F0C3
:1024C00067FDADE7B00803D348460168009104609A
:1024D00095F82410012000FA0AF0084385F824003A
:1024E0000AF008FCBAF1000F044601D01B4800E0D6
:1024F0001B4809F0D5FC58460AF082FEB00810D3FC
:102500000CE090F8241041F0040180F82410684693
:102510000AF02AF90146404607F03AFD00980028E3
:10252000EFD1204608F0A2FA83273846BDE8F88F9D
:10253000A4410020A8410020D53E0020F038002012
:10254000903E0020B04100208A3E0020E9170000A4
:10255000CC3D0020683E0020E15100000100020453
:10256000010001042DE9F84F82467A48DFF8D8913E
:1025700035380068800880F0D78009F04DF80546AE
:1025800078480830D0F8008000244FEA2876761C7E
:102590005FEA98500AD2C5F13E0015F10A0F4FEAE2
:1025A000E000D8BF08208642B8BF061C634FD7F8AA
:1025B0007C01C0F304600AF00DFC83463868C0F368
:1025C00004400AF007FC06EB0B020090162A05DA1D
:1025D00012F10A0FB8BF6FF0090200E01522584B44
:1025E000584F02F01F0141F4F8511980396811F079
:1025F000030F18BF0124C90828BF44F00204BAF130
:10260000000F18BF44F00404494691F90730EB1A53
:10261000052B04DA8B79A34208BF888863D0DFF8E2
:102620002CE10F2DA5F10F0325DB03EB03134FEA7C
:10263000232CBCF1070F88BF4FF0070C6746062F0D
:1026400088BF06275EF82700042606EB8706774634
:10265000BE59361A06F0FF07E00824BFC6F307206C
:102660000744A00824BFC6F307400744600828BFFA
:1026700007EB166701E00027BC465EF82CE0E00897
:102680000EF0FF0624BFCEF307200644A00824BFA7
:10269000CEF307400644600828BF06EB1E6600988C
:1026A000A3EB0C23BFB25F438037801A06EB1726DB
:1026B000D8BF0120342208F0FF0742437A43B2FB1F
:1026C000F6F04FF6FF72824238BF101C802D80B2A8
:1026D000888005DA15F1800FB8BF6FF07F0500E044
:1026E0007F25CD718C711A4A12681F280A604FF03D
:1026F000000208D340F2FF11814206D24008521C6A
:102700008142FBD301E01F208880134F11490F380D
:10271000000942EAC00247EA0200C1F8FB0F0026A6
:10272000C1F8FF6FBDE8F88F0D4F0C4E49460820E9
:102730003760891D0870BDE8F88FC0463C11005015
:102740006E62084024220840C44200209C130050BE
:10275000082009403500094000E7A48030100940F6
:10276000FDFDA400AC3F00502DE9F0411C4615468C
:102770008C4208BF854282BF00230022E5E0002C86
:1027800008BF002D0AD100290EBF00286FF00000FD
:102790006FF0000100F0E1F8BDE8F0815FF00008A3
:1027A0005FF0000E002C08BF8D429CBF2C1C002542
:1027B000070C47EA01470E0CB44208BFBD429EBF5A
:1027C0005FEA044444EA15445FEA0545070A47EA1C
:1027D00001670E0AB44208BFBD429EBF5FEA0424EF
:1027E00044EA15645FEA0525470847EAC1774E08C1
:1027F000B44208BFBD4200F29380870847EA817760
:102800008E08B44208BFBD427CD8C70847EA41776A
:10281000CE08B44208BFBD4266D8070947EA01772F
:102820000E09B44208BFBD4250D8470947EAC16704
:102830004E09B44208BFBD423AD8870947EA8167CA
:102840008E09B44208BFBD4224D8C70947EA416790
:10285000CE09B44208BFBD420DD8E60146EA55662E
:10286000EF01B14208BFB84201D3C01BB14158EBE0
:1028700008085EEB0E0EA60146EA95664FEA85173C
:10288000B14208BFB84201D3C01BB14158EB0808A0
:102890004EEB0E0E660146EAD5666F01B14208BFE7
:1028A000B84201D3C01BB14158EB08084EEB0E0EE5
:1028B000260146EA15762F01B14208BFB84201D37E
:1028C000C01BB14158EB08085EEB0E0EE60046EA6D
:1028D0005576EF00B14208BFB84201D3C01BB141E9
:1028E00058EB08084EEB0E0EA60046EA9576AF00B0
:1028F000B14208BFB84201D3C01BB14158EB080830
:102900004EEB0E0E660046EAD5766F00B14208BF68
:10291000B84201D3C01BB14158EB08085EEB0E0E64
:10292000A14208BFA84201D3401BA14158EB0808AF
:102930005EEB0E0EA34208BFAA423EBF2D0A45EA37
:102940000465240A89D3734642461E4617460B4641
:10295000024631463846BDE8F08170472DE9B04166
:10296000784C074620680D46ADF11C0D28B94FF094
:102970000040002106F026F92060002000908046EB
:10298000CDF80480CDF80880CDF80C80CDF810800B
:1029900020684BA341460A4608F0BAFF38464CA3CC
:1029A000801E41D0801E71D0401E1ED0CDF8008008
:1029B0004546019502950395049520684146424697
:1029C00008F0A6FF009542460192029203920492FB
:1029D000206842A3022108F09BFF01208DF815001A
:1029E0009DF815000028FBD167E0CDF80080454632
:1029F000019502950395049520684146424608F0EA
:102A000087FF009542460192029203920492206849
:102A100038A3022108F07CFF01208DF814009DF8F6
:102A200014000028FBD148E0012D17D0CDF800801C
:102A30004546019502950395049520684146424616
:102A400008F066FF009542460192029203920492BA
:102A500020682CA3022108F05BFF2EE0CDF8008057
:102A600045460195029503950495206841464246E6
:102A700008F04EFF009542460192029203920492A2
:102A8000206825A3022108F043FF16E0CDF800805E
:102A900045460195029503950495206841464246B6
:102AA00008F036FF0095424601920292039204928A
:102AB00020681FA3022108F02BFF07B0BDE8B081FA
:102AC0003E3E3E535441434B2041535345525400E4
:102AD0002A2A2A4552524F522A2A2A003E3E204490
:102AE000454641554C54205350494E4C4F434B2181
:102AF00000C046C03E3E204943414C4C2041424F1D
:102B0000525421003E3E20494E5445524E414C20E5
:102B10004552524F522100C03E3E20494E5445522C
:102B20004E414C204657204552524F522100C0463C
:102B30003E3E204F5554204F46204D454D4F525953
:102B40002100C046E40900202DE9F84F994692463D
:102B50008B4606460AF022FA664D0090B5F912102F
:102B6000B5F910000AAF401A40F6F8710140082983
:102B700005DB00980AF044FB6FF00100B8E0B5F9FE
:102B80001000401C6FF31F302882B5F910800098A8
:102B90000AF036FB584C4046811000EB517121F091
:102BA0000701401AC10001EB401106F168006418EA
:102BB00009F026FAC4F808B084F812A0C4F804900A
:102BC000A4F810804D48E66097E80C0020211940D9
:102BD000104004F1180282E80300002784F82470F2
:102BE0002868002869D12846214607F0D1F948B95C
:102BF000B5F9100000F6FF706FF31F3028826FF0F8
:102C0000010075E0A6F88C800AF0C8F986F88E708D
:102C10003B49DFF8F0900E7866B14A4616784EB11F
:102C2000394B01221A700F703849394A0F701178E8
:102C3000491C11700AF0E4FA2D1D286800283AD1C9
:102C40004A461078012833D032480078012832D023
:102C50000AF0A4F9009030480078012821D0A0683B
:102C600005F036FE2D49086038B900980AF0C8FA18
:102C70002B48042109F02CFE1DE02B480068096850
:102C8000C068091A2948274C0068B1FBF0F12046BA
:102C90000AF0FEFA204609F082FE00980AF0B0FA27
:102CA00009E000980AF0ACFA21490120087002E01E
:102CB000192009F0F7FF40461AE00AF06FF90746BD
:102CC0002146284607F064F930B1A6F88C803846D2
:102CD0000AF096FA40460BE0B5F9100000F6FF70D6
:102CE0006FF31F30288238460AF08AFA6FF001002D
:102CF000BDE8F88FA4410020F0380020F1EFFF9FDD
:102D00008C3E0020683E00208D3E0020893E002041
:102D1000713E00208A3E00208B3E0020843E002031
:102D2000CC3D0020903E0020643E002070DA000080
:102D3000733E00202DE9F84381460AF0D5F80021C2
:102D400000B901216B4E30680028FCD06C4D012485
:102D50002D1DEF6A346009B10AF0CCF8DFF89881D4
:102D6000C7F3072008F1BC0108600AF0BDF8002194
:102D700000B9214630680028FCD02F68346009B1C2
:102D80000AF0B8F8C7F38440C8F8C0000AF0ACF8FD
:102D90000146002001B92046014630680028FCD0D9
:102DA000ED69346009B10AF0A5F8C5F38120C8F8CF
:102DB000D000B9F5C061C8F8B81000F0968098F856
:102DC000D80068B9C8F8D410D8F8C000C8F8C8004E
:102DD000D8F8BC70C8F8C470D8F8D060C8F8CC6017
:102DE000D8F8D410D8F8BC60002954BF02206FF086
:102DF0000100454605F1C8031A6801EB410140187E
:102E0000411000EB917002EBA0021A60D5F8C810D7
:102E1000C5F8C46000291CDD1E293DDDD5F8CC00B5
:102E200030B93429B4BF15391E21C5F8C81025E0C2
:102E30002A29BABFD5F8C8000B381E20C5F8C8002B
:102E4000D5F8C4003F28B4BF401C3F20C5F8C400DB
:102E50001FE0D5F8CC00032812D011F10B0FC6BF2C
:102E6000D5F8C8000B30201CC5F8C800D5F8C40040
:102E70000028CCBF401E0020C5F8C400032009E094
:102E800011F1150FC6BFD5F8C8001530201CC5F8C4
:102E9000C8000020C5F8CC00B5F8C400174E30219A
:102EA0004FF47F4208230090304606F0D3F9009497
:102EB00004214FF400321123304606F0CBF9B5F867
:102EC000C80004214FF4F80212230090304606F0A7
:102ED000C1F9B5F8CC0020214FF440620A230090DC
:102EE000304606F0B7F9BDE8F883002088F8D8002E
:102EF000BDE8F88300800C402005002000A00C40B5
:102F000000A00C402DE9F04F0746ADF1840D00F014
:102F1000D1FF06F0EBF80025012804D109F034FBBD
:102F2000022800D101255A49C868C0F38150012800
:102F300004D10868010E01208840054355480078F7
:102F40005648554E0068C0F34600306006F0CEF893
:102F5000012806D109F018FB022802D13068401C74
:102F6000306030464E49066800242EB1FF230268C7
:102F70000B55641CA242FAD8002682464FF0010984
:102F8000884634460DE0DAF80010814203D909FA88
:102F900000F10D4201D0022077E008F800400E4316
:102FA000641C57F8240000F0FF00FE28EBD1092034
:102FB00001F04AFE3B48002124220823076001A8B3
:102FC0000AF022F838488DF81C90494601AA08F00A
:102FD0002BF850460368002443B3DFF8D4802094D4
:102FE0004FF0040B09FA04F10D4218D12F480E429C
:102FF00006D104F0FF0141F4C04102F045FC05E0B8
:103000002749095D57F8211002F03EFCE0B24FF06D
:10301000FF3109F011F9209848F8240001E048F840
:1030200024B0DAF80000641CA042DBD80AA8002112
:103030003022082309F0ACFF1E4D204A28780024D6
:1030400010210AAB12901C48009406F083FF16A8CA
:1030500028220823214609F0DDFF6868194916AACD
:1030600023461C9016481D9407F088FA164951F81B
:103070000D0C20F4F85040F4005041F80D0C484677
:10308000C1F8FF0F11490860204621B0BDE8F08F5C
:10309000A83F0050A2410020D842002080120840E2
:1030A0004040002034350020DC400020007FC7670E
:1030B000D83B0020C4D90000C040002055C2000009
:1030C000983D0020619500000D300940080009403E
:1030D0002DE9F04FADF1140DFEF7A0F9624C614EF1
:1030E0004FF6FF70001FA046C1460290CA463C380A
:1030F000D34603904FF0FF3008F0B2FE00283ED1D7
:1031000000200190694601AA0DF1020007F00EFBB4
:1031100000282FD1BDF80200012710281AD15048ED
:103120009DF800100078884214D1019D28884FF640
:10313000FF7181420AD16888000901D305F0B2FF0E
:103140006888400906D304F0BBFA03E0284609F07A
:103150000FF80746019868B167B108F021FE09E051
:10316000306808F0C9FF071C04D006F093FC38460D
:1031700008F0E6FD306809F065FE0028F0D02088F0
:10318000C1080ED30299084020803848077847B11B
:1031900037480078022804D136480AF055F80AF07A
:1031A00047F82088C1090ED303990840208032488F
:1031B000006800220A2107F03DF82F4800680F211F
:1031C000002207F037F8B8F80000810A06D34FF65E
:1031D000FF510840A8F8000003F012F8B9F8000009
:1031E000C10BCF0308D0C0F30E00A9F8000023489C
:1031F00007780FB103F01AFBBAF80000410B06D3B1
:103200004EF6FF710840AAF8000006F0C3FCBBF8B8
:103210000000010B06D34FF2FF710840ABF800002D
:1032200003F038F81648006809F00CFE00287FF417
:1032300061AF1348006809F0DBFE0546287A0128D3
:1032400006D0022808D16889E96801F045FA03E050
:103250006889E96802F0C8FC284608F071FDE1E7DA
:10326000E0410020E8410020F0410020C609002094
:10327000CE090020683F0020DC420020EB0900203E
:10328000EC4100202DE9FC478178002900F0B18055
:103290005C4CDFF87881491E00F099805D4A891EF8
:1032A00000F0A2805A4BDFF870A1891E5DD0DFF8D4
:1032B0005891491E39D0C91F40F0A1802178491C7E
:1032C0002170C7780022022F00D10122002107B906
:1032D0000121032F41EA02014FF0000600D101262F
:1032E0000E430FD0054603F06BFD064636F0010095
:1032F00008D13146284607F0EDFB012E02D12846C1
:1033000002F092F82078502879DB484600780028AF
:1033100075D009F0B3FD4446002103200A46217010
:1033200007F0D2FC0120207069E04FF6FE741946C8
:103330000C8011788088002208F080FB142008F0AF
:1033400093F85046007808B103F070FA48460078C8
:10335000002854D0012140F21B300DF1010200235E
:103360008DF80110FEF7DAFB49E047783FBB408952
:10337000194608801178082208F060FB002440F20A
:10338000053001216A468DF800402346FEF7C6FB52
:103390005046007808B103F049FA234640F21B304A
:1033A00001216A468DF80030FEF7B8FB1B4C204621
:1033B00009F038FC18B3204609F048FF1FE04FF62B
:1033C000FE701946088016490020087017E0002199
:1033D0004046017013480078217001280FD108F091
:1033E0008DFF08F099FF0AE01078102108F014FB17
:1033F00005E0C01C0C4902680A6080888880BDE82E
:10340000FC87C046D9090020C6090020D809002041
:10341000E8090020E0410020EB090020D83E002010
:10342000C4090020CE090020B4420020B0B50146F6
:103430004D688C682A7B5E490020ADF1180D012A89
:1034400020D0207E0A46104300905A48617E0843EF
:10345000019059492F7E022037F0010704D1A07E48
:1034600002430292032004E0A27E0A434DF820208A
:10347000401C95F88D20FF2A1CD011434DF82010D8
:10348000401C17E0227E42F000424DF82020627E70
:10349000401C11434DF82010A17E401C41F000411A
:1034A0004DF82010454995F88D20401C11434DF8EA
:1034B0002010401CFE214DF8201005F190006946B7
:1034C00002F0C4FFC5F89C0008B900206DE0297B1C
:1034D0003B4850F82100012835D02068B0F1804FDA
:1034E00001D10A2200E02222D5F89C00217E07F0BB
:1034F0004DFF2068B0F1804F01D1092200E0212268
:10350000D5F89C00617E07F041FF2068B0F1804F44
:1035100001D10C2200E02422D5F89C00A17E07F006
:1035200035FF95F88D00FF283ED02068B0F1804F20
:1035300001D10B2200E02322D5F89C0095F88D10D4
:1035400007F024FF30E02068B0F1804F01D109225C
:1035500000E02122D5F89C00217E07F017FF2068AB
:10356000B0F1804F01D10A2200E02222D5F89C0060
:10357000617E07F00BFF2068B0F1804F01D10C2273
:1035800000E02422D5F89C00A17E07F0FFFE206811
:10359000B0F1804F01D10B2200E02322D5F89C002E
:1035A00095F88D1007F0F2FE012006B0B0BDC046C0
:1035B000000480A0004000800004C0A00020008023
:1035C000ECD900002DE9FC415D4C564D564EDFF81C
:1035D0005C81594F94F8E410481E0B2800F29F803C
:1035E000DFE800F0772C430623430623430672608E
:1035F000042907D001220A2945F8212C14BF0220F2
:10360000032004E02021012045F8211C024684F813
:10361000E200002045F8390C0827C5F8FF7FC5F8FF
:10362000F37F45F8392CBDE8FC81052914BF09203A
:103630000620002584F8E40035606CE094F8E17021
:103640000120383D002FC5F81B0004BF06200021D3
:1036500002D00021F160032084F8E400032045F843
:10366000010C31603068800855D294F8E4000125DF
:1036700003280DD00021404660220523009105F06B
:10368000E9FD94F8E400062814BF0A200720D1E7DA
:1036900002200090002160220523404605F0DAFD5B
:1036A0000420C7E72249002622480E600125056054
:1036B0000E2001F05FFA022007F066FB84F8E45068
:1036C00084F8E360BDE8FC81002038600C25786058
:1036D0001FE01A48006800680146202088472C3DFA
:1036E00041F61D560F2000214FF4C072072345F804
:1036F000010C4046C5F803600225009505F0AAFDBF
:10370000404600214FF4C072072306F043F9012020
:10371000386084F8E45004F1780009F040F9BDE81D
:10372000FC81C04639400C4038600C4000A00C4081
:103730002C500C4004800C4034600C40A001001060
:10374000200500202DE9F04FADF1140D00F0CAFC6A
:103750004A4CDFF84C91DFF820B14FF6FD7A554620
:10376000AD1C2E46761EA0464FF0FF3008F088FBB9
:1037700040BB00200190694601AA0DF1020006F04D
:10378000EFFFF8B9BDF802000127102815D19BF80A
:1037900000009DF8001088420FD1019801888D42E9
:1037A00008D14088C00B08D33E4A0420014606F0E9
:1037B0003DFE02E005F0E0F80746019810B10FB1B8
:1037C00008F01EFB208841082FD3304020802C4871
:1037D00007782C48007857EA000326D07FB92A489A
:1037E00000788DF808002948007829498DF80900EB
:1037F0000A680DF10A0002608988818002E00320D6
:103800008DF80800234800788DF8100022480078D1
:103810008DF811009BF8000002A909F035FB20B1DA
:103820001E490820087009F066FCB8F800008108FD
:1038300017D30AEA0000A8F80000002001E0401CAD
:10384000C0B270B909EB00110A7A042A02D00988C3
:103850008A45F4D128B9000119F80010002002F0BF
:1038600071F940460078C008FFF47EAF207800F080
:10387000FB00207078E7C04664410020180B002050
:103880001B0B00201A0B0020744100207541002002
:103890007C0C0020764100207741002078410020F8
:1038A00048420020704100202DE9F043064674682C
:1038B000B7680D46ADF1340D09F070FB94F8D910DE
:1038C000012903D109F09CFC002085E04FF001099B
:1038D00084F8D99009F094FC4FF00008C4F888806F
:1038E0002869206168696061287E2076287B2073C2
:1038F00028782070686884F8A48060606869414610
:10390000092800D3494684F88C10387B01F09CF9D3
:10391000304604F03FFCF87E84F88D003046FFF717
:1039200085FD50B9387B01F025F909F037FB84F8A3
:10393000D98009F065FC40464EE001A8414630229E
:10394000082309F025FB06967879CDF80080244AF3
:103950000990397901AB04F11C0006F0FBFA01A8CB
:1039600041462822082309F055FB05961D49B868F1
:1039700001AA4346079004F1380006F0FFFD2078C5
:1039800080B901A841462422082309F03DFB8DF8A7
:103990001C9004F16C00414601AA07F045FB124857
:1039A000A06001E0A868A06004F056F9C4F8A00087
:1039B000207B012808D1D4F89C000C4909F0A6FA14
:1039C000D4F89C0000B18660094A04F1C400334673
:1039D000042107F011FF30460DB0BDE8F083C0466A
:1039E000D5570000658C00003DD10000B19D00005E
:1039F00079CF000001462DE9F04F4E48DFF82CB199
:103A00000078ADF1240D002878D1414A11700720CB
:103A10008DF8000009208DF801003E4881788DF86E
:103A20000210C1788DF8031001798DF804104179E6
:103A30008DF8051081798DF80610C07936498DF81A
:103A40000700FF208DF809000D208DF80A000020E6
:103A50008DF80B00097803A8017010788DF80D001F
:103A60002E48DFF8BCA004780E254FF000088146F0
:103A700021E0DAF80000260101213718384608F065
:103A800050FD68B1397805EB0D000170DAF80000DF
:103A90003618317B6D1CE8B200F80D10401CC5B221
:103AA000641CE4B2462C00DB002499F80000A0421C
:103AB00001D14FF001081B2D02DAB8F1000FD8D068
:103AC0004846047017480168080A05F80D006D1C87
:103AD000E8B200F80D1014490978401CC0B200F893
:103AE0000D10401CC2B2A2F109008DF80800584622
:103AF00000786B46012105F065FB06E058460C4B4B
:103B0000007801210B2205F05DFB09B0BDE8F08FC4
:103B1000C5090020800A00205D0B0020DA09002082
:103B2000DC090020D0090020CD090020E041002060
:103B3000D40B0020EB09002070B5ADF1380D00F07A
:103B4000B9F9354908682822082340F002000860C6
:103B500001A8002109F05EFA304EB0783049079094
:103B60003E48002301AA06F009FD00213022082367
:103B700001A809F00DFA0025ADF81C502A4A30784A
:103B8000192101AB09902748009506F0E3F9282296
:103B9000082301A8294609F03DFAF0780790244946
:103BA000224801AA2B4606F0E9FC01A8294630224A
:103BB000082309F0EDF90124ADF81C401E4A707885
:103BC0001A2101AB09901B48009506F0C3F91B4868
:103BD0001B492A46134606F015FF214809F048F90B
:103BE00005F084FA2E46012800D1264615480670B5
:103BF00015484FF6FF71018314490C7080F821506D
:103C0000134805701348057016480570164805706E
:103C1000114805700EB070BD0020094038DA000070
:103C200041C80000F8400020CDBA0000003E00204E
:103C3000E959000014410020CD890000903E002089
:103C4000E1C20000723E0020B43E0020893E002008
:103C5000883E00208A3E00208D3E0020CC3D002082
:103C6000E15100008B3E00208C3E00202DE9FC47F6
:103C70000646F17800242246022900D1012220467E
:103C800001B9012002430329204600D1012010433D
:103C900076D004E03069205C2418641CE4B2307BE8
:103CA000A0426DDD316960184078FF28F2D1605C78
:103CB0002018401E5FFA80F934480122241DE4B226
:103CC000611808F046FA00285AD12F4DDFF8C0A03D
:103CD000DFF8B080002749E0306922185078401E94
:103CE0002FD0401E34D0401E4AD198F8003063B324
:103CF00090780146491E012927D8287090788DF8C0
:103D00000100504600786F46022101AA38708020D9
:103D100006F070FB28789DF80510884204D08020BA
:103D200002216A4606F082FB2878012805D0022885
:103D30000AD10020FFF75EFE06E00520FFF75AFEDD
:103D400002E098F8003003B90127A41CE4B20DE0AA
:103D5000306921188A78C87800EB0222087900EBD4
:103D6000022003F02DFB0127241DE4B2A14501DD53
:103D70001D2CB1DB4046067816B10FB102F056FD9E
:103D8000BDE8FC87EB090020CE090020DF0A0020F7
:103D90005D0B00202DE9F84308F0B6FCDFF8008148
:103DA0003E4EDFF800910546A80821D3304644680E
:103DB000F4B100214160226AA1692940114341F018
:103DC00002012162414601F10803A7691A68BA435A
:103DD0001A6004F118020CCA0A680C301B1C9A43C2
:103DE0000A60214606F0D4F84846022108F070FD2A
:103DF0007468A80815D204F1180090E80C0000219E
:103E00000B4002EA0500002B00D1002809D0B46065
:103E1000206A15404FF4804105434846256208F06A
:103E200057FD214D2868002836D1304609F00AFA9E
:103E3000041C31D01D48E1680068884227D1A06881
:103E400004F046FD1A490860E8B9414601F108024C
:103E5000A06913681843106004F1180090E80C0082
:103E60000A68181C1043086000200861A06841F827
:103E70000C0C01F1100000680028FAD0304608F060
:103E800073FC2C6008E0086803F018FF04E0484663
:103E90004FF4805108F01CFDBDE8F883A4410020D8
:103EA0000C100440CC3D0020A8410020643E0020BE
:103EB000843E00202DE9F041434C94F8E700ADF139
:103EC000280D00286CD1384F387B01250021242291
:103ED00084F8E750082384F8E60001A809F07CF88C
:103EE000002604F10C00069601ABADF814602F49D2
:103EF0000796324606F086FD2D4904F1300001ABED
:103F0000324606F07FFD2B4904F1540001AB3246E6
:103F100006F078FDB868014628468847DFF89C809F
:103F200025487B7B0078D8F80410C1F381571BB17A
:103F3000032F03D184F8E150032F16D0022F14D0A1
:103F4000012F26D103201E4C009031464FF04052E5
:103F50001C23204605F07EF9009531464FF400728F
:103F60000923204605F076F913E0022006F024FF2D
:103F7000032F0CBF4FF47A7142F2107111480068A0
:103F80005434B1FBF0F1204609F082F9204608F0E4
:103F900006FDD8F80000C00802D2304606F00CFF3B
:103FA0000AB0BDE8F081C0461CD9000017840000AB
:103FB0006D650000456D0000A2410020B03F00503B
:103FC00000A00C4070DA000020050020F0B5074684
:103FD000880FADF1140D71D3394E00253560394885
:103FE00046F81C0C3848007810B1012008F06AF936
:103FF000364808F03DFF364840F60A01018045800A
:10400000027B02F0F00202734560427B02F0F00294
:1040100042F001024273BC68658000E06468636836
:1040200013B11A889142F9D102466260607B00F0B8
:10403000F0006073274809F005F980680088C91FFF
:10404000814219D0491C814216D0388BB0B107F19A
:1040500018014D8028464860087B00F0F000087386
:10406000487B00F0F00040F0010048735160507B45
:1040700000F0F000507301E017480560B868694629
:1040800007F01EFF684608F09DFDB86800F0FDFCD3
:1040900030680028FCD03560012008F0BFF8012806
:1040A00008D0607B00F0F00040F0010060730B4826
:1040B00008F0DEFE0A48B9681C38016005B0F0BDA2
:1040C0001C10044001010E04723E0020E91700009C
:1040D000B8410020A4410020743E00202589000042
:1040E0001C1004402DE9FE434048324907F022F9F4
:1040F0003F4800240470204608F0FDFF3D4D4FF678
:10410000FF7320460101A5F10802401CC0B25352C2
:104110000028F7D006F01AF9274927460870274EDD
:10412000009701200190264822462346314604F09C
:104130007BFB022523480097224623463146019502
:1041400004F072FB04243A461F4800973146134698
:10415000019404F069FBDFF878801C4906201022E6
:1041600008704046394602F0AAFEDFF86890102237
:104170003946484602F0A3FE174E184937603846C4
:1041800008701749174A08700721117016494246EE
:1041900008701021284606F02DF9032010214A4608
:1041A00006F028F920463246014606F023F9BDE81C
:1041B000FE83C04668410020A3410020E1C7000003
:1041C000B03F0020D43F0020F83F00206C41002089
:1041D0000642002016420020704100207441002059
:1041E0007541002076410020774100206441002085
:1041F00078410020504200202DE9F041334D064621
:104200002878002860D03249B1F91200B1F91010B5
:10421000884207D0B6F98C10304602224FF0E043B6
:1042200001F01CFA08F0BAFE01463248DFF8BC8003
:104230000778002F37D07F1EFFB2002F077032D1D2
:10424000084608F0DDFF2348002400782C7040B1B8
:10425000204603F033FD06F130004FF0FF3100F04F
:104260008FFE06F1300009F01BF806F1680009F036
:1042700009F8194809F016F8184808F0F5FF184829
:1042800009F010F8174808F0EFFF174808F0FAFF98
:104290004046046016480470307C012814D10E207A
:1042A00000F068FC10E0084608F0AAFF40460168EC
:1042B0008E4201D10021016006F1300008F0F0FFCC
:1042C00006F1680008F0DEFFBDE8F081DE0A00209C
:1042D000A4410020683E0020CC3D0020F840002092
:1042E000003E002014410020903E0020643E00204B
:1042F000DD0A0020703E002081F000412DE9FC41E4
:104300004FEA01244FEA41052D0E04D1002C18BFBD
:104310000020BDE8FC8144F00044FF2D5ED04FEA50
:104320009404002948BF64424FEA00224FEA400348
:104330001B0E05D1002A14BF0020081CBDE8FC811B
:1043400042F00042FF2B4AD04FEA9202002848BFB9
:1043500052425E1B41BF171C221C3C1C764248BFC8
:104360002B1C192E47BF44FA06F73A444FF00008B9
:1043700003E0C6F11C0704FA07F8002A04BF002076
:10438000BDE8FC8146BF524201270027A3F101038B
:104390005200FBD512F080040DD002F0200548EA4F
:1043A0000508803228BF5B1C02F0400458EA04086C
:1043B00008BF22F480729B1CDCBF0020BDE8FC819A
:1043C000FF2B0ED222F0FF024FEA42024FEA5220A8
:1043D00040EAC35040EAC770BDE8FC8108464FEA96
:1043E000D0774FEAC777FF204FEAC0503843BDE887
:1043F000FC8170472DE9F04104466668A7680D46C8
:10440000ADF1380D08F0CAFD96F8DC10012903D192
:1044100008F0F6FE00205EE04FF0010886F8DC8030
:1044200008F0EEFEE968204603F080FB0028F1D199
:104430002878307068687060287A0021302208235C
:10444000F06001A808F0A4FD06943A7B09920025CB
:104450000095224AB96806F1100001AB05F07AFD1B
:1044600001A828220823294608F0D4FD39690791BC
:104470001B49059406F12C0001AA2B4606F07EF894
:1044800001A824220823294608F0BEFD06F1600099
:104490008DF81C80414601AA06F0C6FD307838B977
:1044A00006F17C00294601AA06F0BEFD0D487060A9
:1044B0003572C6F8BC50C6F8C050786800F0C4FB2E
:1044C000204604F0A3FE084A06F1C8000421234652
:1044D00007F092F920460EB0BDE8F081E5450000F6
:1044E000718400002DD1000055CC00002DE9F84F5B
:1044F00000298346009106DD024600980021401EF7
:1045000042F8041BFBD10098DFF8C880DFF8CC909C
:104510000028C8F800B012DD2F48009C076800256D
:1045200037F8020B38B1D9F80000AE00315800203E
:1045300088474BF80600641E05F10105F0D1284FAD
:1045400041460120D7F80080C880B8F1000F22DD75
:104550004FF0000A00980127002817DDABF1040690
:104560000446002556F8040FB0F1FF3F04D0D9F8F7
:1045700000106958884730600021B0F1FF3F08BF44
:1045800001212D1D641E01EA0707EBD137B90AF19D
:10459000010AC245DEDB04A007F074FF0D490020CC
:1045A0000860BDE8F88FC0467864632E72756E743B
:1045B000696D652E537461727475703A20276D6150
:1045C00078506173736573272065786365656465EA
:1045D0006400C046600C0020C0DA0000C4DA0000AD
:1045E000BCDA000098B53A498268446809681068E6
:1045F00049688847374B01229A6160B1217AFF29C7
:1046000009D0FF21400921725CD2042018600220E9
:1046100008F0BDFD56E0207A002853D0401E1DD082
:10462000401E02D0FD3851D049E05968D4F8B4009A
:104630000170D4F8B800D4F8B410401E491CC4F876
:10464000B800D4F8B870C4F8B41017B3012F88BFFD
:10465000092202201A6008F09AFD98BDD4F8B00033
:10466000401EC4F8B000D4F8B070A7B9D4F8B87040
:104670007FB10220D4F8A8102072097C012F4FEAE4
:10468000410141F0010143F8041C94BF03220B22B5
:10469000E0E7042210E0D4F8AC0000785860D4F8C9
:1046A000AC00022F00F10100C4F8AC00D1D2D4F864
:1046B000B870002FCDD1052200202072C9E7FF205D
:1046C000207298BD04F12C0005F07CF898BDC0461E
:1046D000AC01001004280040F8B50D460746344CE4
:1046E00069782878334E00EB0120ADF8000021886E
:1046F000BDF8000088424FD13048006800EB01103F
:1047000040F6FF71014203D1000BC0B208F0D5FCA6
:104710002B48BDF800100078AA1C1023090108F0EE
:10472000D6FC284920880988401C80B2208081421C
:104730002DD104F08BFE00B33846002102F0F4FFC7
:1047400007F0A0F9354629780843287005F0A6FE41
:1047500007F00EFFA8B12878400805D31648036873
:104760003946002203209847287810F0060F01D020
:1047700008F048FA0020287003E03846012102F0D2
:10478000D3FF0025357008F033F925800EE021882D
:10479000384603F0FDF909E00020208035462870F6
:1047A00008F026F93846032102F0BEFFF8BDC046E6
:1047B000A80B0020AC0B0020A40B0020004200201E
:1047C00004420020AA0B00203849002838B559D0EF
:1047D000401E53D0401E13D0801E05D0401E54D121
:1047E0000A2007F06DFA02E00A2007F069FA27486C
:1047F000007810B901F002FF47E002F017F844E03A
:104800002348274D007801282BD104F053FF0A20BC
:1048100007F056FA07F072FD1E481F4C0078022878
:1048200005D12178012912D0FFF7E4F812E007F052
:1048300073FD1A4A002108465054491CC9B2062982
:10484000FADB2178012902D0FFF7D4F802E0052035
:10485000FFF7D0F8164808F0F9FC284608F0F6FCF7
:1048600013E003F021FD0F2007F02AFA0D4802F0B3
:10487000A7FD0D49284606F00FF806E0002208467D
:10488000027002E080220846027038BDEB09002069
:10489000C6090020C5090020CE090020BC42002026
:1048A000FC3E00208051010080CBA400CD090020F7
:1048B0001C4000202DE9F84307467C68BE6808F0DC
:1048C0006DFBD4F88810002961D008F099FC31689C
:1048D000486820F0020048603168486A20F0030010
:1048E0004862706931690843D4F8A01049680968C2
:1048F000C1F804053168486920F00100486130685A
:1049000001250562384606F035FCD4F88800D0F859
:10491000048008F043FB814694F8D80058B118F0A1
:10492000704F02D1042006F02FFA022006F02CFA74
:10493000002084F8D800484608F062FCD4F88800CB
:10494000017C042901D00321017431697069084395
:104950008540D4F8A00040680068C5623068B0F1B6
:10496000804F01D10C4800E00C488068D4F88810D2
:1049700082040868A0EB9250401E08600020D4F822
:104980008810A268C4F888003846904701E008F013
:1049900037FCBDE8F883C046300400200005002045
:1049A0002DE9F0430546ADF11C0D08F045FB05F07F
:1049B00009FC4FF000090746CDF8009008F0E2FA34
:1049C0004C4630F0010000D017B96FF0040059E0F8
:1049D000686860B1B0F1FF3F05D001A906F0BCF9ED
:1049E000061C06D04DE04FF0FF30019001E0CDF8FD
:1049F000049007F0F5FA0199012601EB000800E0A8
:104A000001937868019900F0BBFA00282ED003A822
:104A100006F092F8D8B99DF8100002A906F032FC11
:104A200088B9AB68BDF808009DF81210059A984740
:104A300048B1BDF80800A8819DF81200A873059838
:104A40004E46286112E00599684606F05CF8019828
:104A5000641CB0F1FF3FD4D00028D2D007F0C0FAD8
:104A6000B8EB000302D001989842C9D2009907F12F
:104A7000080006F092FD24B1786803F051F9641E35
:104A8000FAD1304607B0BDE8F0837047F8B5466804
:104A90008568088896F88C2090402A6880B2B2F128
:104AA000804F01D12C4C00E02C4C8F68DFF8B0C057
:104AB00047B996F88C205CF82220A26006F1A60285
:104AC000626009E096F88C20264B53F82220A26001
:104AD0008A688218521E62602A68083222600A6858
:104AE000A7681301103B43F6F07213403B43A360E9
:104AF0002B68B3F1804F01D11B4C00E01B4C4F6879
:104B000047B996F88C005CF82000A06005F10E0013
:104B1000206009E096F88C30154F57F82330A360D9
:104B20004B68C018401E2060286808306060086824
:104B3000000110380240A0680243A2602969686938
:104B40000843D6F8A0104968096888622968486A4D
:104B500040F003004862F8BD30040020000500204A
:104B6000D4D90000DCD9000040040020100500204A
:104B7000E4D900002DE9F843044608F00FFA814615
:104B80002D48021992F8ED10491ECFB2002F82F87D
:104B9000ED704BD12B4D05EB84052E78698836F0EE
:104BA0007F0788461AD1F10911D24FF08054D4F80A
:104BB000B801806901464046884704F5DC742068E6
:104BC000406B0146404688470228F8D121E000EBBF
:104BD0008800D0F80011002088471AE04FF0805478
:104BE000D4F8B801006A014640468847D4F8B801B5
:104BF000806A014640468847D4F8B801006B0146F8
:104C00004046884701210D4A0D4811600168890816
:104C1000FCD306F03F003F2801D0FFF7ABFF6878D8
:104C200000F03F003F2801D0FFF7A4FF484608F0FE
:104C3000E7FABDE8F883C046200500202820086078
:104C400028200840D4D300002DE9F041064608F0A2
:104C5000A5F92D4D8046A91991F8ED00421C0028B8
:104C600081F8ED204AD1294C04EB8604277807F01F
:104C70003F003F2801D0FFF7E7FF607800F03F00DA
:104C80003F2801D0FFF7E0FF668837F07F001AD198
:104C9000F80911D24FF08054D4F8B80140690146A8
:104CA0003046884704F5DC742068406B0146304686
:104CB00088470128F8D121E005EB8605D5F80011D9
:104CC000012088471AE04FF08054D4F8B801C06939
:104CD000014630468847D4F8B801406A014630465C
:104CE0008847D4F8B801C06A014630468847012198
:104CF000074A0848116001688908FCD3404608F05B
:104D00007FFABDE8F081C04620050020D4D3000022
:104D100028200860282008401EF0040F14BFEFF37D
:104D2000098169468869EFF3118102B400B5DFF8A3
:104D3000A4E0F047DFF8A8E0DEF8001001EA000088
:104D4000CEF800005DF804EB1EF0080F03D101BCA3
:104D500080F31188704704BC1EF0040F14BFEFF3FA
:104D600009816946A1F1200114BF81F309888D46AC
:104D70001B4B1868086040F2011018604A604FF041
:104D80008070C86117488861704702B401B4EFF3BE
:104D9000148100291CBF002282F3148802B402B4DB
:104DA000DFF834E0F04701BC01BC00281CBF022141
:104DB00081F3148801BCDFF824E0F04704484FF089
:104DC0008051016001BC80F3118800BF00BFC04664
:104DD00004ED00E0C98A000065D10000FBD10000AD
:104DE000F40800208B4D00002DE9F0410546EF78D6
:104DF0000022022F00D10122002007B90120032F39
:104E000040EA02004FF0000600D1012606434AD0D6
:104E1000002431BB032F46D1244F386826010121DD
:104E200006EB0008404607F07CFB88B9E87A88F872
:104E30000C003868341807F0D3F8A06028690C30EB
:104E400000782070386836182869407BB0712AE0F5
:104E5000641CE4B2462C26DA2869407B0628DCDB99
:104E600021E001291FD1124F38682601062106EBE7
:104E70000008404607F055FB88B9E87A88F80C002E
:104E80003868341807F0ACF86D1DA0602868206001
:104E9000A888A08038683618FE20B07103E0641C32
:104EA000E4B20A2CE0DBBDE8F081C046DC0900205A
:104EB000E00900202DE9F84F07F092F8DFF8BC80F8
:104EC0002A4D0024074640460668012106EB0416D9
:104ED000304607F026FB38B1B068381A854203D255
:104EE000E0B2002105F08EF8641CA4B2462CEADB87
:104EF000DFF87CB0DFF88080DFF878900024AA46E5
:104F00002646DBF80050012105EB0415284607F082
:104F100008FB28B3A868381A824521D2284649469A
:104F2000062207F016F9B8B998F80000A0B1401EA3
:104F300005D0401E14D10320FEF75CFD10E088F878
:104F40000060304609F80060401CC0B20628F9DB5A
:104F5000012105F057F803E0E0B2012105F052F815
:104F6000641CA4B20A2CCCDBBDE8F88F20A107009A
:104F7000E0090020BC420020C5090020DC09002017
:104F80002DE9F0410D460646B5F1FF3FADF1380D74
:104F900009D045B12B496B4605A82A4606F090FC7E
:104FA00005A9022001E0002103200391264F8DF87E
:104FB000100038682024EFF31188371884F3118823
:104FC000708980BB002D04BF88F31188002036D083
:104FD00007F0A8FE064608F02FF80290C0F818D097
:104FE00005F05EFD3846694608F008F89DF81000A7
:104FF0000025022802D1039802F066FC88F311888C
:10500000304606F071FCEFF3118384F311880398A6
:1050100010B108F03BF903950298856183F311887C
:105020009DF810000BE07089401E7081039818B144
:1050300008F02CF90020039088F3118801200EB0AD
:10504000BDE8F08119B500007CDA00002DE9F041DF
:1050500015460446A869A060686A98460E4608B9D5
:105060002A4800686062286A002806BF2848076846
:10507000071C07F09FFFEB69A3B9002808BF391C84
:1050800003D03F1841427F1E39400246E161606A09
:10509000E169434602F0DEFA2062206AB8B90120D5
:1050A000BDE8F081002804BF2362391C0BD01B1817
:1050B00041425B1E01EA030020623F1AE869C01901
:1050C000E061E0690140E1614FF0FF306062A6629B
:1050D0002869E06268692063A86A6063A88DA08778
:1050E000A08F012803D10B49C868401CC860204626
:1050F000414601F069FD0346404607F099F9002852
:1051000014BFD81C0020BDE8F081C04690DA000032
:1051100094DA0000900800202DE9F0470E4607467B
:1051200030687C68D7F8088008B9002054E007F0A0
:1051300035FFD4F8881029B108F062F803203074E4
:10514000002049E001253574C4F8886008F058F85B
:1051500094F8A40038B194F88D202049D4F89C002C
:10516000114305F04BF8D6F804A007F017FF81466D
:1051700094F8D80050B91AF0704F02D1042005F00D
:105180001BFE022005F018FE84F8D850484608F0AF
:1051900037F8D8F80010486840F0020048603846F8
:1051A0003146FFF773FCD8F80010486940F0010061
:1051B0004861207830B9616804F16C063046FFF729
:1051C000DFFE08B1284607E03846FFF773FB30469C
:1051D0000021FFF7D5FE0020BDE8F0870000068023
:1051E000042998B546D1244808F02CF8244C38B945
:1051F000224991F82100400804D34868206001E06A
:10520000C0682060206841681E4A097811604068C3
:105210001168007888422CD1022005F0CDFD1120C4
:10522000FFF712FD1849012008702068007C18B1B2
:1052300016480078012802D00E20FFF705FD2068EF
:1052400041688F6812480FB9CF681FB10021C16152
:1052500010490160104A40F2FF7111600021816124
:105260000E4941610E4807F003FE192004F088FA48
:1052700000E0FEE798BDC046A4410020B43E0020F7
:10528000643E0020D02108408A3E0020883E002055
:1052900000100440510007060000046002000040B6
:1052A000A57E00002DE9F8430D460646686874683F
:1052B000D6F80890002710B9E868002850D0207868
:1052C000012814D107F06AFED4F8BC1049B1D4F813
:1052D000C0108D61C4F8C05007F092FF0120BDE8F6
:1052E000F883C4F8BC50C4F8C05007F089FF02200E
:1052F00005F062FD04F160084FF0FF314046FFF712
:105300003FFED9F8080004F019FA3046294601F0AA
:10531000BBF90546D9F8080004F032FA207888B9BC
:10532000B5F1FF3F08D004F17C004FF0FF31FFF7EB
:1053300027FE207A48B110E003202072022005F0F9
:1053400023FD0AE0B5F1FF3F01D0012705E003206E
:10535000207204F12C0004F035FA404602F0E0FC23
:105360003846BDE8F88370472DE9F041DFF8AC809E
:10537000044698F800001F4616460D46ADF1300D64
:10538000012804D0FEF7D8FB012088F800000DB1F9
:1053900065600EB900203DE0A66007F0FFFD204AE1
:1053A000117819B107F02CFF002033E01178491C67
:1053B000117007F025FF1FB9684607F02BFC6F46F8
:1053C000386820607868E060387A0021782220749C
:1053D00004F1180001F073FD03A800212422082322
:1053E00007F012FE0120002103AA8DF8240004F129
:1053F000300005F019FE03A800212422082307F03D
:10540000EBFD0849099404F16800002203AB05F0A4
:10541000F9FA20460CB0BDE8F081C046DE0A002053
:10542000703E00209BD10000F8B50546284C294E5F
:105430002078012803D0022801D0032806D1681D56
:105440003146062206F085FE002840D1284600F0AD
:10545000BBFC07460146214800292AD0491E1FD01F
:10546000491E17D0891E0BD0B1F1FA002FD11A486E
:105470002178007808432AD02846FEF7F7FB26E07B
:105480002178022901D0012921D14EF6602105F0B1
:1054900003FA1BE02078012818D0032817D115E063
:1054A0002078A0B96D1D296830460160A9888180E7
:1054B0000CE000210A467254491CC9B20629FADBE5
:1054C0002178042902D1064905F0E6F92770F8BDD4
:1054D000C5090020BC420020EB090020FC3E002052
:1054E00080CBA40010B50028ADF1200D4DD0401E9A
:1054F0004FD10120694605F0CBF89DF80000264CFD
:10550000264A01282FD09DF80000032841D19DF89C
:105510000100401E01283CD89DF8010020709DF834
:10552000010011468DF81900097806A807AA017034
:105530008020022104F05EFF20789DF81D10884233
:1055400004D08020022106AA04F070FF20780128F0
:1055500005D002281DD10020FEF74CFA19E00520E5
:10556000FEF748FA15E00DF10100017811700146CF
:10557000097805AA10460170207805AA02218DF845
:105580001500802004F052FF03E00020694605F07A
:105590007FF808B010BDC046CE0900205D0B00208A
:1055A000F8B507F0A1FC07F0B7FC044604F00C00C6
:1055B0000C2845D0E0081ED205F082FF234E376844
:1055C00005460120014606F088FD3168694388429E
:1055D00011D21F4C8220B0FBF7F0291A204607F0A9
:1055E00057FE204607F0DBF90120FCF7A1FD20461D
:1055F00006F006FD25E0200922D21648610939BFD0
:10560000016821F00101016841F0010102460160D9
:10561000D2F898004FF0805440F00300C2F8980090
:10562000D4F8B8018069014620208847D4F8B80131
:10563000094C806B2168804701202060206800E0D1
:1056400030BF07F057FC02F00BF9F8BD70DA00002C
:105650002C0500208C2108402C200940F8B51F465D
:1056600016460C46054607F045FB284AB2F91010CD
:10567000091B0AD4B2F91210A14215DBB2F91210BB
:10568000B2F9102091420ADD0EE0B2F91210A142E7
:1056900005DAB2F91210B2F91020914204DC05F0DB
:1056A000E5F9022000212FE0A11004EB517121F057
:1056B0000701641AE10001EB4411154C641894F8D9
:1056C000241011F0070F16D1124A61688A4202D0E5
:1056D0006168A965626005F1500181E8C00005F0CC
:1056E000C5F905F130004FF0FF31FFF749FC603597
:1056F00095E8030008E005F0B9F994F8240010F0EB
:10570000070FFAD102200021F8BDC046A4410020B5
:10571000F0380020558D00002DE9FC470C468046EE
:1057200020781E46914600250AAF022833D0254F27
:1057300060681022394606F0DBF9DFF88CA050B91A
:1057400050460368002B3AD0204841464A4606702E
:105750000120984733E0606807F11001102206F03D
:10576000C7F938B9504603684BB3414602204A4650
:10577000984724E0606839461022203106F0B8F9D5
:1057800090B9012E05D199F8000010B110490870A8
:1057900015E0802513E060684178007800EB012077
:1057A00042F60211814201D00A2508E038880090B3
:1057B000214601200190404602F0B8FF05462846E8
:1057C000BDE8FC876CD40000A40B0020AD0B0020CA
:1057D000A20C002098B501468B681C68E2694868F5
:1057E000226252082DD2D0F8A01049680968D1F879
:1057F000042559690A420BD01A68516A21F0020146
:105800005162D0F8A020526859691268C2F8041594
:10581000D0F8A01049680968D1F8042519690A422E
:1058200031D01A68516A21F001015162D0F8A020EC
:105830005268196912683830C2F8041503F0C2FFC3
:1058400021E01C68626922F001026261D0F8887070
:10585000B7B91C68626822F0020262601C68626A62
:1058600022F003026262D0F8A0005A6940681C6905
:1058700000682243C0F80425084605F07BFC02E0DE
:105880000846FFF717F898BDF8B50D462908EEB29F
:1058900001D325494D40254B53F8261085EA0102D6
:1058A0000240C2F30067224A00EA05048143224015
:1058B0000A4300F4E021B1F5E02F01D1510E14D3D9
:1058C00000F4E0210F4310D002F4E027B7F5A02741
:1058D00007D0B7F5803708D122F4003242F4A02275
:1058E00003E022F4803242F4C022C10D114C43F88F
:1058F000262004D3A4F1C001C5F380528A55000EBE
:1059000010D307F04BFB290E01D2002101E0012149
:10591000B140103423680122B240934319432160FF
:1059200007F06EFCF8BDC046006000A00010084003
:10593000007F077FC02002402DE9F8430746264834
:10594000006890460C46B84201D003203FE0234D4A
:10595000284603F0E9FA061C38D407F01FFB8146FD
:1059600006F00F0044EA00241A48A4B224F0030110
:105970000843286006F094FA00F0FF0001281DD1CA
:10598000600B10D3164806F10C020121001F914054
:1059900002688A43026085F8206095F8210040F093
:1059A000040085F82100281D0835076005EB8605F1
:1059B0000C4845F8148C0121017004E0304603F0D6
:1059C0002FF86FF00106484607F01AFC3046BDE894
:1059D000F883C04601000306643E0020B43E002068
:1059E0000C100440DD0A00202DE9F04107F0D6FA42
:1059F0008046264D264C286810F4602F28D0400C95
:105A0000C6B2700807D2B00803D2F00804D3022649
:105A100002E0012600E00026771D78B203F000F8CE
:105A200006F11101012004F11C0288401168814334
:105A30004046116007F0E4FB2046083050F826602D
:105A40004EB16068394600224FF00063B04702E073
:105A5000404607F0D5FB286818B10E48002106F033
:105A600037FF94F8210080080DD3676937B160686B
:105A70006FF0010100224FF00043B8476D1D2878F8
:105A800000F0FD002870BDE8F081C046D03E002047
:105A9000B43E0020003E0020F8B50F4601468E6857
:105AA0004D684FF0FF34384620383CD0401E36D089
:105AB000401E31D1287B1778012802D11F49394374
:105AC00001E01F493943FF2F0BD195F88D10FF29B5
:105AD00003D0D5F89C0002F0B5F985F88D7000244C
:105AE00029E0D5F89C0001F053FE20BB3068B0F1EE
:105AF000804F01D10B2200E02322D5F89C003946CB
:105B000005F044FCD5F89C0095F88D1002F09AF948
:105B1000002485F88D700EE06FF001040BE0002486
:105B200085F8A44007E0297B0020012900D101204D
:105B300085F8A40000242046F8BDC046002000805F
:105B40000004C0A02DE9FF4104460D46084606F0BA
:105B5000D7F91E4901EB0010017A042907D1018809
:105B60004FF6FD70884202D0801C884201D114207B
:105B700029E0174E3088062823DDB0F5486F20DA7B
:105B8000052004F061F88046ADF800503088ADF88B
:105B9000020010480088ADF804000F480088ADF8F6
:105BA00006000E480088ADF80800684606F0CAFFF7
:105BB000071C07D10A4804700A48414604F06CFEED
:105BC00000E0182738460090BDE8FF8148420020D9
:105BD000220B0020240B0020260B0020280B002085
:105BE000200B0020F83F00207FB5064625480078AE
:105BF0000D46082801D1002400E00424084603F0E3
:105C0000E9FE684601F082FA18B93046694600F0AC
:105C10001BFF6419E178A07800EB0120801082B2AC
:105C20001348028013480025058013486946057013
:105C3000204602F0D7F8A0B1204606F0D3FF0F4966
:105C400008600F49000B088006F06AFD20B9304655
:105C5000022101F069FD08E03046294601F098FF75
:105C600003E03046694600F0EFFE00907FBDC0467D
:105C7000AA0B0020A80B0020AC0B00200042002043
:105C800004420020AD0B0020F0B520480127F84267
:105C900001D003F095F9204D204F214EBD4206D290
:105CA00003CD0478A4003459401CA047F6E71D48F2
:105CB000002800D08047164D164FBD4202D210CDAD
:105CC000A047FAE7F0BD03251BE0416808300A1C35
:105CD0002A400BD11A1C2A40AB4305D0046804307B
:105CE0000C600431043BF9D1131C05D00478013059
:105CF0000C700131013BF9D1021C2A4001D0A843AC
:105D000004300368002BE0D17047C046FFFFFFFF5F
:105D10000000000000000000B0DE0000E8DE00002F
:105D200074DE0000F58D00001B4838B50468B4F13E
:105D3000FF3F08BF002406F08DFE002517481849D4
:105D40000560012008601749086002F0B3FF16489B
:105D5000006820B1154800682046FBF777F9144821
:105D600014490560144C0A686FF35B4244EA020070
:105D7000086012490868C0F30130012806D10A689A
:105D80000F48104040F400320A6008600D4908686E
:105D90000028FCD138BDC0461C130050840460426A
:105DA0005C600C400822044380012843000120432A
:105DB0008C210840482003400000390104000940BC
:105DC000FFFFFCFC0C006842F8B50546E9780024AA
:105DD0002246022900D10122204601B901200243B6
:105DE0000329204600D10120104331D003E0205C7C
:105DF0002418641CE4B2287BA04229DD28692118FC
:105E00004978FF29F3D12869205C2018241DC6B2E7
:105E1000E4B201E0A41CE4B2601C864218DD2869EB
:105E200027180D480122394606F093F908B9787809
:105E300011E02869271809480122394606F089F936
:105E40000028E7D17878012802D10548007808B108
:105E5000FE2000E0B878F8BD5D0B0020DF0A0020CE
:105E6000EB090020F8B5001D002584B22E4614F081
:105E7000030002D0241A241DA4B206F011FB1D4A0F
:105E8000102C106002DC1C48076801E01B48076802
:105E90003888C10BCB031ED126B984420BDD012605
:105EA0003D461CE02B883988C91889B28C4229806C
:105EB00015DC2F460846BFB1001B80B2042804DA67
:105EC000388840F40040388003E0E05344F4004454
:105ED0003C803F1D08E080F40040002680B2C719D6
:105EE00038880028D5D10027106806F021FD3846F3
:105EF000F8BDC04670420020744200207842002065
:105F0000B0B50446A068ADF1280D40BB0C20FFF7EA
:105F1000A9FF071C02D16FF0030036E0684600219C
:105F20002422082307F058F80023ADF81030059319
:105F30001748069761686A4604F004FB38603868C1
:105F400038B906F04FF9384604F0E8F86FF003006E
:105F50001BE0E06878602069B860A7600DE00D483C
:105F6000A768006880470546386806F049F8206948
:105F7000B86009480168284688473868616807F0B2
:105F800087F9386806F00BFD00200AB0B0BDC046A6
:105F9000A1CE0000800B0020840B0020002A4AD0F4
:105FA0005FEA000C8B071CD1830722D1102A08D38B
:105FB00070B4103A78C978C0103AFBD270BC103275
:105FC00038D0042A2CD3082A05D30C2A24BF08C9A8
:105FD00008C008C908C008C908C092072AD0920F93
:105FE00022E00B780370491C401C521E22D08B0704
:105FF000F7D1C30714D18307D8D0121F12D308C911
:1060000003801B0C4380001D121FF8D20AE008C950
:1060100003701B0A43701B0A83701B0AC370001DA8
:10602000121FF4D2121D05D00B780370491C401CBE
:10603000521EF9D160467047F8B5064606F0AEFF2D
:10604000012407461F491E481F4D0470B1F9100076
:10605000B6F98C20801A11D4B1F91200B6F98C105F
:10606000884217D106F1680005F0CAFF002001F050
:1060700025FE2C70384607F0C3F81FE0B1F9120076
:10608000B6F98C2090420EDAB1F91200B1F9101075
:10609000884208DD0D4986F88E4000200870384699
:1060A00007F0AEF80AE006F1680005F0A9FF00204D
:1060B00001F004FE2C70384607F0A2F8F8BDC04687
:1060C000893E0020A44100208C3E0020DD0A0020F3
:1060D000FEB584460D461C4608AF287A3B8800264C
:1060E00080094FF0FF0701D3082039E02878022803
:1060F0002BD168684178007800EB012042F602114C
:10610000401A18D04DF2EF61401A1FD0401E10D136
:106110006BB9E86811462246FFF740FFE868C4F112
:1061200014023146201800F0CAFE012710E00726AD
:106130000CE00A260AE0009301202946234601903C
:10614000604602F0F3FA064600E00126FF2F06D073
:106150000448006818B1016809B1384688473046DC
:10616000FEBDC046700C00202DE9F8432020EFF35F
:10617000118780F31188214CA068012107F07CF879
:106180004FF001094FF0000865692168A4F81C90E0
:106190006A1A2168A4F81E80461B401A904227D331
:1061A00087F3118840464519361A4846294600F0BB
:1061B000FBFEB042F7D92021EFF3118781F311885C
:1061C000E18B012903D14046294600F0EDFEB0F1F4
:1061D000FF3F06D0A169801B814238BF081C4119CE
:1061E00001E0A069291806F0DDF8A4F820902560E8
:1061F000A4F81C8087F31188BDE8F8839809002073
:1062000038B51C4D2878022816D11B4908783C2245
:10621000401CC0B20870401E90FBF2F15143401A7E
:1062200006D1164801687D20484315494009086099
:1062300014480078FDF7DEFB134C2078C8B92978A4
:10624000124801290CD0124900780978084310D06F
:10625000002103200A4604F037FD0120207008E0E9
:10626000007830B1002103200A4604F02DFD012002
:10627000207038BDCE090020CD09002028500940EB
:10628000D0090020C5090020D8090020EB09002012
:10629000C609002070B51E4C206858B31D4E4AF246
:1062A000104585421ED304F0DDFA05F033FC164993
:1062B00000F0C4FD154900F0C1FD216805464FF40A
:1062C0007A704843A0F57A7005F024FC2946FEF761
:1062D00015F804F049FB0146304604F0DDFA0020D1
:1062E000206010E00C49304604F0D6FA2068401BCC
:1062F000206008E001F0D8FF0848094904F0CCFA12
:10630000084801F05DF870BD0000FA440000802FDD
:10631000D40900201C40002080DE8002FC3E0020CA
:1063200080CBA40080510100FEB5044622481646E9
:10633000089FC069618250F821201C4800681D46F2
:1063400090420DD01B480068009000220191184E29
:10635000029231888F23384606F078F80120FEBD7E
:10636000084603F0EBF9A66068696060286AB0F13E
:10637000FF3F08BFFF2020740026E660288B00281E
:106380000EBF301C0120E0600146A88C10B141F026
:106390000200E060204602F01BF90346384606F092
:1063A00047F8002814BFD81C301CFEBD5CDA000082
:1063B000EEDA000048DA0000D408002070B51E4E66
:1063C0003078800005F0DCF91A4C206008B9132001
:1063D0002FE03078800005F0D3F9184D286020B9FF
:1063E000206805F0BDFC132023E03078800005F024
:1063F000C7F9134E3060A8B121684FF6FF7003F063
:1064000039FE29684FF6FF7003F034FE31684FF60D
:10641000FF7003F02FFE0B480B4B10210A4603F0D0
:1064200079FA06E0206805F09BFC286805F098FCE6
:10643000132070BDF4410020A3410020F84100204A
:10644000FC4100202C06002098D900002DE9F843DB
:10645000DFF878900D4606464FF0FF314846FEF7CC
:106460008FFDDFF870801A4A0024012708E0FF281A
:1064700005D01168814222D958F82030FBB9641C3C
:106480001DB115F82400FE28F1D1C7B100243460F5
:106490007460B460A5B155F82420D0B2FE280FD0A6
:1064A000FF280AD048F82060716807FA00F0084316
:1064B00009497060304604F0A1F9641CEAE700263F
:1064C000484601F02DFC3046BDE8F883DC40002052
:1064D000D8420020D83B0020007FC76721482DE923
:1064E000FC4700885FFA90F100F47062801A0001A6
:1064F0001FFA80FA1C4802884FF000098046D6B285
:106500005118CFB223E0B8F80000B04201D1042501
:1065100014E0002512E0304629466A46042306F0BE
:10652000D1FD002414F80D10484603F0D7FE641C7A
:10653000E4B28146042CF5DB2D1DADB2B5F5805FCC
:1065400003DAB742E7DCAA45E5DC761CF6B2B742CF
:10655000D9DA4846002103F0C1FE002103F0BEFE57
:10656000BDE8FC87AA0B0020044200202DE99843D7
:1065700006F014FD1F4CDFF87880814604F1E0003E
:10658000007850B94446A068014602208847074673
:10659000102002F083FE2FB320E001F043FD00281D
:1065A00020460FD1144909683222B2FBF1F101B93A
:1065B000012100F13004204606F06AFE204606F074
:1065C000EEF90FE044460022A16880F8E0200220A6
:1065D00088470746102002F061FE1FB1A0680146FF
:1065E00003208847484606F00BFEBDE89883C04666
:1065F0001CD900002005002070DA00001C4838B5C6
:10660000012404701B48007840B1002340F21B3085
:1066100021466A468DF80030FBF780FA164A40F2B0
:1066200007300B210023FBF779FA144D284606F0BA
:10663000F9FA10B1284606F009FE28464EF6602108
:1066400004F02AF9002103200A4604F03DFB0C481F
:1066500021466A468DF800100023017040F2053093
:10666000FBF75CFA07480078102105F0D5F938BD32
:10667000EB090020C6090020D40B0020D83E0020E2
:10668000D8090020E041002080B54268C2F8A81077
:106690000868C2F8AC004868C2F8B000D2F8B07020
:1066A0008868C2F8B400C8681949C2F8B80097B938
:1066B000D2F8A800007C400040F0010041F8040C32
:1066C000022010720B68DB0917D2D2F8B820022A18
:1066D00017D30B2216E0D2F8A800007C012340005B
:1066E00041F8040CD2F8AC001372431CC2F8AC3071
:1066F000007848600868C00902D34FF0FF3080BDC1
:10670000022003220A6006F042FD002080BDC04640
:106710000428004070B51F4CA568064605F0E8FF48
:106720004FF47A71401B4843050C04F075FF216952
:10673000401A48BF404240F6B831AD19A94211D3C2
:1067400006280FDAA268E1688A420BD8206848B1AF
:10675000891A114A51438A0C02EB1141884288BFC1
:10676000011C08E00D49486840080ED208687D21E8
:1067700000F0FF004143C82905D3B1F57A6F88BF07
:106780004FF47A6103E0C82101E04FF4FA61084652
:1067900070BDC046CC41002040420F00AC3F0050CD
:1067A00070B51F4C1F4D2078022808D100202070A2
:1067B00006F028F918B9286801680320884720786E
:1067C000012809D100202070042006F01BF918B917
:1067D0002868016802208847207803280DD1002608
:1067E0000420267006F00EF938B9304606F00AF992
:1067F00018B92868016804208847207804280AD13D
:1068000000202070032006F0FDF8012803D128683D
:1068100001680520884704480121017070BDC04609
:10682000F60B0020F00B0020F70B00201D4838B5B8
:106830000024047006F022FB40F2053001216A4674
:1068400023468DF80040FBF769F9174D284606F0FE
:10685000E9F910B1284606F0F9FC104A40F2073079
:106860001F212346FBF75AF91048007868B101212F
:1068700040F21B306A4623468DF80010FBF74EF9B4
:106880000B480078102105F0C7F80548007801286A
:1068900003D105F033FD05F03FFD38BD800A00202F
:1068A000CE090020EB090020D83E0020C6090020B8
:1068B000E0410020F8B50446E7780023022F00D11C
:1068C0000123002007B90120032F40EA03004FF005
:1068D000000600D1012606432BD0B2B1012A28D1EF
:1068E000144F38680D012918E07A087338682E189B
:1068F00005F076FB641DB06020683060A088B08031
:1069000038682D18FE20A87113E00B4F38680D0170
:106910002918E07A087338682E1805F061FBB0601A
:1069200020690C300078307038682D182069407B61
:10693000A871F8BDE0090020DC0900202DE9F04F26
:10694000ADF13C0D06F0EEF9DFF86490194F1A4EE8
:106950001A4D00248246684600213C22082306F096
:1069600065FBA00059F8001006913958089131587C
:1069700004912858059012480022694602F066FFEB
:106980005FEA00080FD005F08BFD8346404600F01B
:1069900083FB40B1584605F0CBFF641CDBD050466A
:1069A00004F0A2FF01E002F067F80FB0BDE8F08F3D
:1069B00030DA000034DA000040DA00008C0C0020ED
:1069C000B5CB000070B5054601201D4E1D4C687109
:1069D0002879C8B905F064FD317821B905F0A8FF20
:1069E0006FF007002AE032461178491EC9B21170D3
:1069F00039B905F09DFF206804F08EFB0020687116
:106A00001BE005F095FF18E005F04AFD05463078DB
:106A1000FF2805D1284605F08BFF6FF006000DE03A
:106A200031460878401CC0B20128087002D12068A5
:106A300004F089FB284605F07BFF002070BDC046AE
:106A4000F80B0020FC0B00203EB50C461B490968E2
:106A5000054606F07FF840082DD328461B21082262
:106A6000002305F04DF9019028B3154A154810216F
:106A7000521E05F035F94089ADF800000820ADF848
:106A8000020020780199087021880198091241704C
:106A9000A17881706188241D0912C1702168001DD0
:106AA000002201602846694605F0EAFA18B16846F6
:106AB0001B2105F081FD05F09BFF3EBDF441002048
:106AC000A10C00202C06002070B50C461C4909685A
:106AD000814201D003202EE01A4991F82100C2081A
