:020000040000FA
:101000006564FFFF0000007845454545000401FF89
:1010100030020020BD93000035B3000035B300005E
:1010200035B3000035B3000035B3000035B3000020
:1010300035B3000035B3000035B3000035B3000010
:1010400035B3000035B30000D7B700002DE9F04FED
:10105000ADF1B40D07F0B2F8C24C04F1940004F104
:10106000A00105F06DFAC049A06204F148000860D3
:1010700008F0F6FAE0630820ADF820000120ADF892
:10108000220008A809F070FA9DF8240020700A9840
:10109000606104F17C000AF053FFB44D4FF4FA6232
:1010A0000423A061294604F1C800259008F044F803
:1010B00004F1EC0029460522802308F03DF804F5F0
:1010C0008870294641F658324FF4807308F034F89E
:1010D00004F59A70294640F267224FF4806323900A
:1010E00008F02AF804F5AC702946C0224FF480437A
:1010F000229008F021F804F5BE7029464FF4805381
:101100009B4A279008F018F804F5D0702946994AB0
:1011100021904FF400532B9208F00EF81F20042169
:1011200008F072FF002540F20530012102AA029565
:1011300001F082FDA84640F20630022102AACDF855
:10114000088001F079FD4FF0010A4FF4447002AAC3
:10115000CDF808A0514601F06FFD4FF0A20940F212
:101160001130022102AACDF8089001F065FDB027E8
:1011700040F21230022102AA029701F05DFD40F216
:101180001330022102AACDF8088001F055FD962601
:101190004FF44570022102AA029601F04DFD04F1C0
:1011A00024054FF4427004212A4601F045FD4A35DA
:1011B00004F16E0240F207300B21249501F03CFD52
:1011C0004FF47A7B0A20CDF808B0594608F01CFF8E
:1011D0000B20594608F018FF4FF4C8650820029507
:1011E000294608F011FF0920294608F00DFF0620C6
:1011F000294608F009FF0720294608F005FF5A2074
:101200000290514602AA40F2044001F015FD02206E
:101210004FF4FA6108F0F8FE03204FF4FA6108F089
:10122000F3FE1020502108F0EFFE1220502108F0AC
:10123000EBFE0C20502108F0E7FE1120502108F0B1
:10124000E3FE1320502108F0DFFE0D20502108F0AE
:10125000DBFE5046102108F0DBFF04F1B0024046EF
:1012600015210AF09FFCADF81890ADF81A704046B1
:10127000ADF81E60082106AAADF81C0004200AF093
:1012800091FC4FF40070022102AA029050460AF02D
:1012900089FC032008F0A2FF042008F09FFF042728
:1012A0000820AC4DADF82C002878ADF82E708000E9
:1012B0000C900BA809F058F900280CBF0D98404677
:1012C000A54F786038B109F075FFA44A07F1D40042
:1012D000082108F021FB08200426ADF838002B78FF
:1012E000ADF83A6098000F900EA809F03DF900287B
:1012F0000CBF109840469A49486138B109F05AFF2E
:101300009748984A0621183008F006FB09F0DAFBE6
:1013100095490028C86032D009F0D4FB92490E46A6
:1013200008610C36316838B309F0CCFB8E4948614E
:1013300028B930680AF0BCFA8B4800691DE00846FD
:10134000C06809F037FF8848006909F033FF864814
:10135000406909F02FFF8448C54A1021203008F069
:10136000DBFA0CE020050020940D002009B80000F5
:10137000005C260580EE360008460AF099FAE06C1B
:101380007949886104F188000AF0DAFDE0611021F2
:1013900004F144003860022008F03AFFCDF80880DC
:1013A0004FF4816002A908F015FECDF808A04FF4B3
:1013B000806002A908F00EFECDF8088040F20240DD
:1013C00002A908F007FE032002A9029040F20340A0
:1013D00008F000FE504602A9029040F2064008F0D4
:1013E000F9FD4046772106F085F878B1C849882094
:1013F00018220AF097FD38B1B6208DF80C0003A929
:101400005246E02009F034FD0AF02EFE8DF80D80E2
:101410004046772106F06EF838B1F4200DF10D0149
:10142000524609F025FD0AF01FFE4046432106F012
:1014300061F860B11020ADF80E000DF10E01022030
:10144000024609F015FDBB4908700AF00DFEA06ABE
:101450000C21424608F074FE4046452106F04AF849
:1014600050B14FF48650ADF8100004A90222504646
:1014700009F0FEFC0AF0F8FD4046442106F03AF877
:1014800040B1CE49404608800220024609F0F0FCF7
:101490000AF0EAFDCC4842460721009013464FF679
:1014A000014008F0DDF94FF4A06009F0C3FE4146A9
:1014B0004FF4A062E06205F082FEA02009F0BAFEBF
:1014C0002063206B4146A02205F079FEAF7B37BB3D
:1014D00004F1400095F801A095F802906E7B6862D7
:1014E000182009F087FE071C19D0042142460AF093
:1014F000B3FB504609F01EFD387287F80990BE72A2
:1015000005F14400F86005F154033B6105F1200248
:101510007A6109F07FFEAF4A394608F0CFFA0C2015
:1015200009F068FE071C0BD0012104220AF032FDED
:1015300004F15C00B86009F06DFE394609F004FB67
:1015400004F064FE90B121980AF014FCA8B108F0F0
:10155000F1FA12E0CC090020A0120020B4CA000069
:10156000C4160020A8CA0000F4130020208A40F40A
:1015700080502082606906F08BFB04F16400B64F56
:1015800026903868BBFBF0F009F040FD2890B34886
:10159000811C299108312A910820ADF848000A27BA
:1015A000ADF84A704FF0FF36139612A808F0DCFF32
:1015B000002840F02081002001900827ADF85070ED
:1015C0000926ADF8526014A808F0CEFFDDF8589057
:1015D0000028CDF8049040F00881BDF854004FF089
:1015E000010810287BD120789DF85610884276D1CA
:1015F0004D4628884FF6FF7181426CD168880009FA
:1016000026D322980AF07EFE266A0EB36078B6F8DA
:1016100002B0401C607096F804A0102009F0EAFDAA
:101620000836071C14D0022115220AF0B3FCA7F8D3
:1016300008B087F80AA0FE6009F0ECFDAB4A394615
:1016400008F03CFA162803D0042801D009F0EAFA81
:101650006888800943D367795FB3E779E17B4FB945
:1016600000290CBF0F200A2009F040FF00251BE0D5
:10167000A4C40000A06A00290CBF0F210A21002287
:1016800008F05EFD09F096FE0546BF49A06B281ADA
:1016900081420AD208F050FBBC494978814203DDFF
:1016A000BA49487006F00EF8A56323980AF02AFE9E
:1016B00015E000208DF8120041460DF1120240F2B3
:1016C000053001F0B9FA40F21B3041460DF112022B
:1016D00001F0B2FA03E0484601F06EF98046019F3E
:1016E000002F00F08280B8F1000F7ED048460AF04B
:1016F000F7F87AE0A06905460AF053FC50B928468D
:101700000AF000FD87680AF0C7F8384603E0C046D3
:10171000A042002000200028074666D03888401EDE
:101720005AD0401E52D03E3806D047F6C071401AFB
:1017300046D057E0CC420020B8786179401E39D0BD
:10174000401E28D0801E4DD1E67B0EB30020249A87
:10175000E0730B2140F2073001F06EFAE679002EBB
:1017600040D0608A4FF6FF7181423BD0ADF85C00FB
:101770000620ADF85E000A26ADF860600025ADF8E1
:1017800062506423ADF8643017A80AF025FC29E004
:101790000120E07326E0012902D103F09BFF21E044
:1017A00008F0C8F9B64805F0B3F921982B9908F06C
:1017B000A7FA17E00020207214E0C046D4420020AF
:1017C00078680AF051F80DE029C20000B87802F0FC
:1017D000F9FD07E073C20000786801F0EDF8786861
:1017E0000AF07EF838460AF03FF8A0690AF0D9FB03
:1017F00000283FF47FAF258AE80810D325F00405C0
:1018000060792582012802D125980AF07BFDE679CE
:10181000012E18BF258A03D105F034F9258AE6790F
:10182000A76A280A0CD325F0800538460A21002231
:10183000258208F085FC384600220F2108F080FC44
:10184000E80AC0F0868025F48065207A25823EB9BA
:10185000E77857B95DE0C04660CB0000801A0020F1
:101860000121401CE170C0B22072002E51D0D4F88A
:101870002C8027790026354608EB051301211846F0
:101880000AF058F900283BD0012F08D1269800789B
:10189000012804D126984078FE2818BF9873987BB9
:1018A0009A79C0B1401E14D0401E0DD0401E1FD0EA
:1018B000401E04D0401E1DD1052A14D11AE0012A71
:1018C00018D0022A0FD115E0012A13D0032A0AD119
:1018D00010E042B90EE0012A0CD0022A0AD0032AF5
:1018E00008D0042A06D09A7304E0C04679BF0000ED
:1018F000022098730120022AE07004BF761CF6B221
:101900006D1CEDB2502DB7DB667302F0EBFF0020CB
:10191000E070E77BCFB127980AF0BAF8269D022144
:10192000297009F073FB289904F0D2FF08F08AFCB3
:10193000676B4FF47A71B0FBF1F17818010C6970A4
:10194000010AA970E87002F0CDFF0AF0D3F9258AE8
:10195000E679E80B5ED325F48045002E258259D028
:10196000A079C01E80B2054609F064FC074694F8D1
:101970000CB0A06A002F5B463DD0A5F1020A0025FD
:10198000A846C14627E0C046C0C62D00C4160020A8
:1019900006EB0316012130460AF0CCF890B1727BB9
:1019A00082B93178E8190170B1796D1CEAB2B95485
:1019B000317B4FF00109551CE8B2421CD5B23954B5
:1019C000494671735B1CDBB2502BA8BF00239B45BB
:1019D00008BF4FF00108AA4503DDE66AB8F1000F21
:1019E000D6D0B9F1000F237310D02846394604F041
:1019F0009BF970B1A06A05460A21012208F0A0FBFC
:101A0000012228460F2108F09BFB02E0384609F02E
:101A10002BFF258A680A04D325F4807525820020CF
:101A20002071A80B0ED325F400552582677B37B1B2
:101A3000E77927B12198804908F062F901E003F0C5
:101A400049FE258A680B26D325F48055676B2582CD
:101A5000C7B14AF21040B84207D327984FF47A71C1
:101A6000794308F04DF9002007E02798734908F002
:101A700047F9606B4AF21041401A60630BE0C046C0
:101A80008051010008F056F821982B9908F038F998
:101A90006D4805F03DF8E0690AF083FA00287FF40C
:101AA0007BADE0690AF02EFB06466548317A407846
:101AB000012907D0022940F0BB807089F16801F04C
:101AC000B1FFB5E0B6F80A80F76808280CBF00251A
:101AD0000425299A797838785A4B00EB0120108038
:101AE000B878F97800EB01205080387B797B00EBE7
:101AF0000120D881B8881A46D080F88807F10802FA
:101B000018812A9B116819604E49B87B087404F04B
:101B1000C3F988B34B48007C022804D0032818BFBF
:101B20004FF4F02001D14FF4F22010210DF1720298
:101B300007F0B6FD06F010FEBDF87800ADF86800BD
:101B4000BDF87600FF2808BF00200DF17A01ADF83E
:101B5000660009680DF16A000160FF228DF87120AE
:101B6000BDF87E008DF86F009DF880308DF87030E4
:101B700001128DF86E1004E040460DF1660105F08B
:101B800057FBED19E978A8782D4F002200EB0120D2
:101B90008010B8803B465A8011463970287A697A9D
:101BA000EB78AF7800EB01208200A87A07EB0321E5
:101BB0008F10B7F5005F36DC002F34D0032804D037
:101BC000110B30D0B2F5F83F2DD8B2F5805F01D0BF
:101BD000012828D0BDF866704FF6FF71B94204D0D5
:101BE0001FB12D880DB1AF421DDA012814BF4FF48B
:101BF000003000201249134B070B0D46C8611878BE
:101C0000EF80012803D004F047F90E49087001283D
:101C100004D04046022106F0CDF809E040460021FC
:101C200006F042FA04E040460DF1660105F000FBC3
:101C3000304609F019FE2EE7E093040080DE8002B2
:101C4000F4130020801A0020805101002DE9F04F8C
:101C50000120ADF17C0DADF816004FF0080BADF88A
:101C600014B005A808F080FCCC4C4FF0000884F8B4
:101C70000E809DF8180060700798E06105F021FD66
:101C800004F134094FF6FF70A9F8000045468DF8BD
:101C90000850584609F0AEFA071C0CD00121122258
:101CA0000AF078F909F0B6FA02A90123CC4A0091AA
:101CB000394607F021FF9DF80800CE4E20704246BD
:101CC0000123314604F1A400129007F035FA04F123
:101CD000C800424602233146119007F02DFA04F164
:101CE000EC00424604233146109007F025FA062006
:101CF00041461022A07004F1440005F060FA04F19E
:101D000054004146102205F05AFA256284F80780F3
:101D100004F1440784F80880072084F80A8004F15D
:101D20004402607210211497022008F021F804F197
:101D3000540004F1540210211590032008F018F803
:101D400004F1200004F1200218900420014608F05C
:101D50000FF804F1280604F18300139004F16405E0
:101D6000169604F12E0717954FF6FF731997981ED4
:101D70001D900A20ADF82200ADF820B04FF0FF37DB
:101D8000099708A808F0F0FB002840F0BC81404605
:101D90000190ADF828B00927ADF82A700AA808F01C
:101DA000E3FBDDF830C0CDF868C00028CDF804C0F2
:101DB00040F0A981BDF82C1060780127102940F06F
:101DC00095819DF82E10884240F0908165462988C3
:101DD0004FF6FF728A4200F081811B972F78A23F55
:101DE00000F066812E3F40F0778141461C91A97832
:101DF000062911DC06293BD0002900F02781491E65
:101E000000F04E81491E00F00281491E012940F276
:101E1000C780891E68D05FE1C91F1ED0491F06D048
:101E2000491E00F03D81891E00F0328154E1B5F871
:101E300004A02E7B0C2009F0DDF9071C00F02D8199
:101E40001B9916220AF0A6F8A7F808A0BE7209F09E
:101E5000E1F9394608F078FE3EE110980AF054FAAC
:101E60006F78002F40F01C81119809F083FF17E173
:101E7000AE880A2009F0BEF9071C09D01B9915226B
:101E80000AF088F83E8109F0C5F9394608F05CFE91
:101E9000A88809F0C3FE06014FF6FF7029F8060076
:101EA0004E44A6F80680A6F802801198A6F8048091
:101EB0000AF02AFA10980AF027FA1B9F307A1C972A
:101EC000042840F0EA8027795FB9A879082814BF70
:101ED00004200520A07305F0F4FB1C9809F06CFDAC
:101EE000DBE00320A0738FE06F78002F48D110460D
:101EF00009F094FEA0B96989000129F80010298A27
:101F000000EB09077980698AB980E989F980297B22
:101F10002E1D3972326807F109031A60B188998061
:101F2000287B04280FD10620A07305F0CAFB207B74
:101F3000012808D11F2007F0D1FC4FF47A714143EA
:101F4000119807F0DDFE688995F803A02E7B1C90A0
:101F5000142009F04FF9071C00F0A2801B991422ED
:101F60000AF018F887F808A0281DF8601C9A3A8231
:101F7000BE7409F04FF98B4A394607F09FFD8FE098
:101F80006878312803D0287B04287CD088E084F846
:101F90000380287B04281ED082E0C046CC090020A4
:101FA0006F78002F2CD1A878678AA17B032819D0DD
:101FB000E078267937B9012814BF84F8048084F8C2
:101FC000038006E0064304D01298394607F098FED5
:101FD000A17B072901D0042009E0062007E0C046C4
:101FE00087BF0000062909D0E7782FB90320A07326
:101FF0004BE0C046B9B900000220F8E70720F6E739
:102000000C2F69D084F80EB005F05BFB45E06F78CB
:10201000002F38D1EF78A27997B9A07B02285BD046
:10202000072859D0062802D12079012854D11298C6
:1020300009F0A0FE00284FD11B9809F0BDFC4BE031
:10204000139B414606F0E8FF687045E06F78D7B90A
:10205000149A0220102107F0A7FE159A03201021E0
:1020600007F0A2FEE91C16980A6802608988818040
:102070000127A77305F025FB179B62796078394625
:1020800006F0CAFF60B184F80EB005F01AFB07E055
:10209000A888454A102108F071F91C9801281BD125
:1020A000676ACFB13F68BFB12846B8471B9013E0BD
:1020B0006879132810D12889012806D1E07A0228EE
:1020C00003D110980AF020F906E0052007F006FC7D
:1020D0000146109807F014FE1B9F07E06888C00BAC
:1020E00004D3189A0420014607F05EFE019E56B103
:1020F0004FB10320ADF83A00ADF838B01A9F0F97F2
:102100000EA808F031FA208A2779E178420829D30D
:1021100020F0010057EA0106208223D06FB9E07950
:10212000277A8DF8090019998DF80A700A680DF15F
:102130000B0632608988B18002E003208DF8090027
:10214000607AA77A194A8DF8110006218DF812706D
:102150000DF1090007F054F918B184F80EB005F03C
:10216000B0FA208A810816D320F002004746208268
:1021700001E07F1CFFB277B9390109EB0102137A44
:10218000042B04D039F801101D9B8B42F1D110783B
:1021900004F058FE208AC108FFF4EBAD20F00400E3
:1021A0002082E6E56BBF000091C2000085C20000FE
:1021B000C6492DE9F04F0122ADF1140D0390A1F1B4
:1021C00030000260BD480768002FFCD0DFF8F892AD
:1021D000BB4AC02009F1080A1060DAF80000800844
:1021E00006D2484601904068000C40F0F00002E042
:1021F0007220CDF80490B34AB74D002782F84C0204
:102200004846A5F1D0060F60C76856F8040C029640
:10221000C0F3046009F08DFE00EB2770401C162807
:1022200005DA10F10A0FB8BF6FF0090000E01520C1
:10223000A74E00F01F00114640F4F850A1F86402C8
:102240003068800828BF47F04067A249F80EA5F122
:102250003C04BE0E80F0010000F00100086086F032
:10226000010000F0010088602068C0F38363C0F3C0
:102270008F26B80C22D247F3072000280BD5414205
:102280000020760805D15B0806BF01231E1C4FF60F
:10229000FF76491EF5D1002810DD4FF6FF7176005C
:1022A00046F00106B14207D25B0043F001030F2B59
:1022B00092BF01260F230E1C401EF0D146EA034BAD
:1022C0000022164609F0ACFE08B901221646324635
:1022D000CD4E3368002BFCD0DFF83083012008F1AD
:1022E0000808C8F810B030600AB109F09FFE2068F5
:1022F0002368C0F3870103F0030041EA002188B29C
:102300000090C24840F2FF3200232C2106F0CCFEA0
:10231000A5F110000068C0F30D0409F081FE4FF034
:10232000000B08B94FF0010B3368002BFCD0C8F844
:1023300014400120BBF1000F306001D009F076FE9F
:10234000A5F11800D04C0068044000F07C40044324
:1023500009F066FE4FF0000B08B94FF0010B33682F
:10236000002BFCD0C8F80C400120BBF1000F3060FE
:1023700001D009F05BFEA5F11C00016801F47C00AE
:1023800009040C0C044309F04BFE4FF0000B08B994
:102390004FF0010B3368002BFCD0C8F80840012037
:1023A000BBF1000F306001D009F040FEA5F1140030
:1023B0000068DAF80020C0F30351C0F30343520869
:1023C00014D24A46121D1268140511EB247103D46D
:1023D0001029A8BF0F2100E00021120413EB227383
:1023E00003D4102BA8BF0F2300E00023039C43EA73
:1023F000011300F47F4100F0FF02222C41EA034167
:1024000042EA010224BF00F080400243144609F072
:1024100007FE4FF0000908B94FF001093368002B9F
:10242000FCD0C8F804400120B9F1000F306001D0A1
:1024300009F0FCFD0398222832BF01202868C0F370
:102440000070724C039B4034222B4FEA400040F056
:10245000200084F8090126BF2868C0F340700120DD
:10246000DFF86C92202B40F0100084F8090138BF8F
:10247000002107D348460168C80C00F44070C1F33E
:10248000845101438A4609F0CBFD4FF0000B08B997
:102490004FF0010B3368002BFCD0C8F820A00120BE
:1024A000BBF1000F306001D009F0C0FD0398202877
:1024B00014D348460068C0F3015010E09402224350
:1024C00000600C400A600840A83F005040100940DE
:1024D00000000940000020438C1300500020039BA3
:1024E000400040F06000222B84F80C0126BF2868D1
:1024F000C0F3C0600020222B4FEAC00040F08000F3
:1025000084F8010126BF2868C0F345500020202B25
:102510004FEA800040F47C40A4F89C0138BF6D492C
:102520000BD34846006801038A15920501F47C111B
:1025300000F00F00114341EA0031894609F070FDB7
:102540004FF0000A08B94FF0010A3368002BFCD0A5
:10255000C8F800900120BAF1000F306001D009F0F6
:1025600065FD4FF48000029E2060B06D40F20F21A7
:102570006FF31F40814215D9304601680068C1F3EE
:102580000366C0F3034006B1761E072805D006286F
:102590000EBF0720801C00F00F00544946EA0010CF
:1025A00001F8080CC7F38140401E02D0401E32D013
:1025B0002EE00298D0F8D000810C29D24FF480414F
:1025C0004A4E2160D6F80210420AC0F3033302F0EB
:1025D000800221F08F010A4343EA02013346C6F824
:1025E0000210D3F80120061266F303021E46C3F858
:1025F0000120316800F0E703324621F0E70143EAA9
:102600000100106007E0C04600800C4000A00C40B4
:102610004FF0004020604FF4007020642868314D76
:10262000C0F3C14040F0300084F8C800C7F38150C7
:1026300060B3401E03D0401E20D002211FE00120C5
:1026400008F062FF06460420314606F0DDFB042058
:1026500008F05AFF8642FAD10198066826F07F40BA
:1026600008F02AF8284614300068036807214FF064
:102670006022300E98474FF48060206003210420D0
:1026800006F0C2FB09E0C046FCFCFC00042001216E
:1026900006F0BAFB104808F00FF802980F49104EE8
:1026A000D0F8B00047F6180700F03F0084F8CB0FD1
:1026B0002B460F8030681868C168022088470127C0
:1026C00040200B49084C086005B02760BDE8F08F3A
:1026D0009813005000803F40BD37860070B00C401A
:1026E0002C200940A0010010940460420A600840B8
:1026F00000600C402DE9FE43A84C0F460546F80B40
:1027000080F02681B80880F0AD80B80F6ED2E07AF4
:1027100000284FD138094FD3002501266570607914
:10272000667210B1284608F0B5FD9D4809F04EFCD0
:102730009C492A4604F14C0009F0C5FDA079012806
:102740001FD1E079E8B9DFF86082266AD4F81490E6
:10275000D8F8000070B109F039FAA0EB090043463F
:10276000000B8619E0611868B6EBC01F28BF256210
:1027700008D2266204F1CC004FF0005109F094F920
:1027800031E0A67140F60900208794F8450000F07A
:10279000F00040F0010084F84500658794F844009B
:1027A00000F0F00084F844008049E56304F1380645
:1027B0000E6018E0380914D2B80BC0F0E68004F1BE
:1027C000280009F09DFD061C08D0706830B17568BE
:1027D000F068B6F9101000222023A84727F400570C
:1027E000D3E00020E07227F00807CEE0704904F142
:1027F0004C00002209F067FDE86840F6C4118142F0
:1028000015D1042008F080FE88B166697EB1A06908
:1028100068B909F0DBF9A061864226BF801B401E23
:10282000801B000BE860E86800F58D70E860E079D7
:1028300058B10220ADF80000684608F0C9FA002639
:10284000E671BDF80800A4F89C00012060702079B2
:102850000026401C20711920267209F0CBFA27F0BF
:10286000005792E004F13008404609F049FD061C8B
:1028700065D0B06840F6030320251A46521C02E0DA
:1028800040686D1EEDB260B15DB101888B4218BF2A
:102890008A42F5D1F1682CC818312CC129C881E8C9
:1028A0002900326A4FF00009C6F820907068C0B164
:1028B00096F8240042F002020023401E09D0401E78
:1028C00004D0801E08D14FF0805304E04FF08043C5
:1028D00001E04FF000534A467568F068B6F91010F1
:1028E000A847B4F93600401C6FF31F30E08640461D
:1028F00009F032F8F068B0F98C10B4F93620914242
:102900001DD1217801291AD090F88E5095B905680B
:1029100085B1E1680968B1F1FF3F10D02549096828
:102920006830B5FBF1F109F011FDF068683009F08D
:102930002DF904E080F88E90484605F0F7FC4046FB
:1029400009F0DEFC27F0020708B147F002071CE09F
:1029500009F0AEFB014604F12C0009F0D1FC06465B
:10296000356A084609F0ACFCA8080CD25EB1306AA2
:10297000A8433062706830B12A46F068B6F910108A
:1029800075680023A84727F4804727B104F1CC00DD
:10299000394609F089F8BDE8FE83C04628100020BA
:1029A00079660000C5AF0000E0420020001004403E
:1029B000394C000060CB00002DE9FC410546287829
:1029C0000126B03800F01081203840F02E81994C5B
:1029D000A878E179002800F00081401E00F0E9802D
:1029E000801E00F0F680801E00F0A980401E67D097
:1029F000401E45D0801F40F01881A07B401CA07372
:102A0000E8780022022808BF321C002100B93146B4
:102A1000032841EA02024FF0000108BF311C1143B4
:102A200000F0038100F001812F7B0020874240F3FA
:102A3000FC802969421841184B78092B1BD110786A
:102A40008F1C04F15001401E5FFA80F84246384660
:102A500008F040FC50B104F170014246384608F0DD
:102A600039FC002840F0E180314600E00021284692
:102A700002F0DAFCD9E011784018401CC0B2D5E76A
:102A8000B1B9E888A22810DBB0280EDC288960B92B
:102A90006889962809D1E67107F0BCFFE88800EB49
:102AA000800080100A3805F0E5FBE67107F0B2FF00
:102AB000E88800EB800080100A3805F0DBFBB4E00A
:102AC0004FF6FE7060820027E7711720A07109F0B1
:102AD00011F904F16E0240F207300B2100F0ACF85E
:102AE000607970B98DF8027040F2053031460DF111
:102AF000020200F0A1F840F21B300DF10202314653
:102B00000FE08DF8017040F21B3031460DF10102EB
:102B100000F092F8314640F205300DF101028DF8D7
:102B2000011000F089F8A888394607F089FF2020B5
:102B300008F03AF9142008F075F8A77075E0687885
:102B4000002831D1688960826889082107F078FF00
:102B5000202008F029F9E889A22810DBB0280EDC33
:102B6000288A60B9688A962809D1E67107F052FF71
:102B7000E88900EB800080100A3805F07BFB607963
:102B8000002852D000208DF8000031466A4640F2FD
:102B9000053000F051F8314640F21B306A468DF89E
:102BA000001000F049F840E04FF6FE700027608208
:102BB000C3E700200029A07337D007F02BFFE17B8B
:102BC000A06A00290CBF0F210A21324607F0B8FA8B
:102BD0002BE0202008F0E8F827E0ED1C28685634A8
:102BE0002060AF88A78020E02C466078104D162822
:102BF00007D020797E2810D07F2804BF207A287043
:102C00000BE06088082107F01BFF30B9304608F060
:102C100009F81A3500262C6007E0304608F0AEF9B6
:102C2000217904F1080008F0FBFD3046BDE8FC8185
:102C30002605002020050020F8B50E46014617465F
:102C4000A1F20130012840F20581834C801E112839
:102C500006D916383CD0801E28D0E9381FD013E0A2
:102C6000DFE810F0D0001200B700B200E500D60097
:102C7000AB00A300F8009C009500120012008E002B
:102C8000840079006F006200282980F2E380022E20
:102C900040F0E0800846398807F0B6F9F8BD012E0B
:102CA00040F0D8806D4C38780D3484E0012E40F02F
:102CB000D180E078012800F0CD8022463878117963
:102CC0000029107140F09980002840F09280F8BDF2
:102CD000012E40F0BF803878012840F0BB8004F11D
:102CE000EC0009F047F8002840F0B48004F134000B
:102CF00000274FF6FD7101E07F1CFFB2002F40F06E
:102D0000A9803A0183181D7A042D02D0825A91427B
:102D1000F2D1187804F096F8002840F09B8004F176
:102D2000C80009F0F1FAF8BD022E40F0938038880F
:102D30000A28C0F28F80B0F5486F00F38B801A34F8
:102D400012E0022E40F086803888B0F5FA7F80F2DB
:102D50008180183408E0022E7CD13888062879DB7F
:102D6000B0F5486F76DC16342080F8BD022E71D1A4
:102D7000388806286EDBB0F5486F6BDC1434F3E757
:102D8000012E67D13878022864DA0C3413E0012E62
:102D900060D1387804285DDA0A340CE0012E59D16C
:102DA0003878082856DA093405E0012E52D13878EF
:102DB00004284FDA08342070F8BD012E4AD1387843
:102DC000042847DCE41DF6E7022E43D1388812348C
:102DD000CAE7012E3ED1207901283BD0224638781F
:102DE000D178D07049B9002834D0022008F0C6F854
:102DF00080B3012008F0E0FDF8BD387850BB08F042
:102E000081FFF8BD042E25D1386820342060F8BD3C
:102E100004F1830500211F22284604F0D0F9394629
:102E20003246284603F0DAFBA67100210DE004F1DA
:102E3000640500211F22284604F0C1F939463246B4
:102E4000284603F0CBFB66710121607832462B46A1
:102E500006F0E2F8F8BDC046CC090020CC090020FD
:102E60002DE9F04F0128ADF1140D40F0F280DFF8AC
:102E70001492D9F8DC00012840F0E9800220C9F85A
:102E8000DC0008F0F7FF0290012006F09DF920B168
:102E900001210646C9F8DC10D5E008F0D3FF039005
:102EA0006E484FF00008C0F80080012008F02CFBAD
:102EB000012818BFCDF8008004D1404605F0A0FCE1
:102EC0000120009066486E4CC0F800801934D4F898
:102ED000FF0F112009F0BCF800280CBF4646012660
:102EE000102009F0B5F808B146F002060F2009F0ED
:102EF000AFF808B146F004060B2009F0A9F830B18C
:102F0000584800685849006B0246088890470A20D4
:102F100009F09EF80028404618BF01204FF0805B62
:102F20000BF5DC7528B128685049006B024608880B
:102F300090474F480127076028688069014646F09E
:102F4000200088474B48076009F07CF800F0010139
:102F50000191400815D2484808F0D6FF8246BAF1E0
:102F6000040FF8D0BAF1010F06D1DBF8D8014068A0
:102F700002464148032190474049086820F0030079
:102F80000860404600F080F82868D4F8FF1F806B86
:102F90008047019801280ED0BAF1010F06D1DBF865
:102FA000D80140680246344839469047334908689A
:102FB00040F0030008602A4807602868406901461D
:102FC000304688470B2009F043F828B12868264985
:102FD000C06A0246088890470A2009F039F828B1EB
:102FE00028682249C06A024608889047204807603E
:102FF0000322C9F8DC201F4BC3F800802868406B0F
:103000000146304688470128F8D1042006F0DCF854
:10301000124807601A48D4F8FF1F01688909FCD3D9
:103020000098012802D1384605F0EAFB08F0FEFFBF
:10303000082006F0C9F806460398C9F8DC7007F0C6
:1030400069F905F0E9F8029807F03AFF02E0042672
:1030500000E00126304605B0BDE8F08F0C40094085
:1030600000022243B80100101EC500001AC500006E
:1030700028200860800104430040034024220840C7
:1030800014100940141500202DE9F84FDFF8E8B1BD
:103090000746ABF13500DFF8D4910068800880F076
:1030A000D68007F06DFE064677480830D0F80080DD
:1030B00000254FEA28725FEA985002F101020AD215
:1030C000C6F13E0016F10A0F4FEAE000D8BF082013
:1030D0008242B8BF021C624BD3F87C01C0F304608B
:1030E00008F027FF04461868C0F3044008F021FFE9
:1030F00012198246162A05DA12F10A0FB8BF6FF0CC
:10310000090200E01522574B574802F01F0141F415
:10311000F8511980006810F0030F18BF0125C0088E
:1031200028BF45F002050FB145F00405494691F965
:103130000700301A052804DA8879A84208BF888871
:1031400065D0DFF82CE10F2EA6F10F0C25DB0CEB80
:103150000610A0F1F00C4FEA2C27072F88BF072795
:103160003C46062C88BF06245EF82400042303EBAB
:1031700084037446E3581B1A03F0FF04E80824BFD5
:10318000C3F307200444A80824BFC3F30740044442
:10319000680828BF04EB136401E0002427465EF8AA
:1031A00027E0E8080EF0FF0324BFCEF30720034416
:1031B000A80824BFCEF307400344680828BF03EBE8
:1031C0001E63A4B2ACEB0727BAEB020004FB07F4C2
:1031D00004F1800403EB1423D8BF0120342208F04B
:1031E000FF0742437A43B2FBF3F04FF6FF7282428D
:1031F00038BF101C802E80B2888005DA16F1800F4F
:10320000B8BF6FF07F0600E07F26CE718D71194A3E
:1032100012681F280A604FF0000208D340F2FF1125
:10322000814206D24008521C8142FBD301E01F209C
:103230008880124F0F38000942EAC00247EA0200B4
:10324000CBF8FB0F0026CBF8FF6FBDE8F88F0D4FD2
:103250000B4E494608203760891D0870BDE8F88F7D
:103260003C1100506E62084024220840E4420020D5
:103270009C130050082009403500094000E7A48055
:1032800030100940FDFDA400AC3F00502DE9F04195
:103290001C4615468C4208BF854282BF002300228F
:1032A000E5E0002C08BF002D0AD100290EBF002840
:1032B0006FF000006FF0000100F0E1F8BDE8F08170
:1032C0005FF000085FF0000E002C08BF8D429CBF2D
:1032D0002C1C0025070C47EA01470E0CB44208BF1E
:1032E000BD429EBF5FEA044444EA15445FEA0545D7
:1032F000070A47EA01670E0AB44208BFBD429EBFF3
:103300005FEA042444EA15645FEA0525470847EAB2
:10331000C1774E08B44208BFBD4200F293808708CF
:1033200047EA81778E08B44208BFBD427CD8C708FF
:1033300047EA4177CE08B44208BFBD4266D80709C4
:1033400047EA01770E09B44208BFBD4250D8470989
:1033500047EAC1674E09B44208BFBD423AD887095F
:1033600047EA81678E09B44208BFBD4224D8C70925
:1033700047EA4167CE09B44208BFBD420DD8E60115
:1033800046EA5566EF01B14208BFB84201D3C01BFF
:10339000B14158EB08085EEB0E0EA60146EA9566B1
:1033A0004FEA8517B14208BFB84201D3C01BB141F3
:1033B00058EB08084EEB0E0E660146EAD5666F0123
:1033C000B14208BFB84201D3C01BB14158EB080855
:1033D0004EEB0E0E260146EA15762F01B14208BFCC
:1033E000B84201D3C01BB14158EB08085EEB0E0E8A
:1033F000E60046EA5576EF00B14208BFB84201D375
:10340000C01BB14158EB08084EEB0E0EA60046EA71
:103410009576AF00B14208BFB84201D3C01BB1419D
:1034200058EB08084EEB0E0E660046EAD5766F00A4
:10343000B14208BFB84201D3C01BB14158EB0808E4
:103440005EEB0E0EA14208BFA84201D3401BA14172
:1034500058EB08085EEB0E0EA34208BFAA423EBF1F
:103460002D0A45EA0465240A89D3734642461E465E
:1034700017460B46024631463846BDE8F081704794
:103480002DE9FE4F754C04F12408404608F038FF42
:1034900016460D46009008F00BFE06F00107B5F148
:1034A000FF3F01900CD1A06A20B9B4F93600401C4E
:1034B00005B202E0A06AB0F91050002084F8A5001F
:1034C000A36AA81005EB507020F007002D1AE80041
:1034D00000EB4510251805F59C75AB4200F0868081
:1034E0000098854249D000284FF003073FD04FF0A5
:1034F000000904F1A80BCA46006885421ED158464F
:1035000007F068FF00980768C0F800A001980097CE
:1035100008F0D6FEB0080ED297F8240040F0040060
:1035200087F82400684608F017FA014608F10C00F5
:1035300006F03AFE01E04FF001098327B9F1010FCF
:1035400003D00098006800900EE0009991F82400E4
:1035500040F0040081F82400684608F0FDF90146B7
:1035600008F10C0006F020FE00980028C4D1832F3B
:1035700025D0019808F0A4FE21E004F1A80007F08E
:1035800029FFB0083ABF606A0068002060620198B5
:1035900008F096FE08F10C05009991F8240040F01F
:1035A000040081F82400684608F0D6F90146284650
:1035B00006F0FAFD009808B1B008EDD28327207A12
:1035C00070B9274808F002FD022104F1CC0008F090
:1035D0006BFA607801283DD0224808F0F7FC39E00A
:1035E00004F1CC00022108F05FFA33E0B00803D305
:1035F000606A00900023636295F824100120B840AF
:10360000084385F8240008F01DFC0446002F14BF71
:103610001548164807F0DCFB019808F051FEB00889
:1036200014D3009890B108F10C05014691F82400DC
:1036300040F0040081F82400684608F08DF9014646
:10364000284606F0B1FD00980028EED1204606F08D
:1036500061FE83273846BDE8FE8FC0462810002053
:10366000F5260000B1600000010002040100010421
:103670002DE9F04F744C75494FF4FA62082304F1B8
:103680003000ADF11C0D069005F056FD04F114005C
:1036900004F1200102F054FF6D49E06008F0CCFC19
:1036A000E0704FF0010AADF802A00820ADF800006C
:1036B000684606F059FF9DF80400207002984FF606
:1036C000F776361DB04608F10308C146A9F1010995
:1036D0000027A0600820ADF810000A25ADF81250B0
:1036E0004FF0FF33059304A806F03EFFA088810841
:1036F00021D309EA00006578A080384608F07AFAFC
:1037000070B135F00200607002D1069808F0FCFD3F
:10371000256985B1A37873B92968504688470AE0BE
:1037200045F002056570069DA770284608F022FB4B
:10373000284608F0E7FDA088410821D308EA0000E8
:103740006578A080042008F055FA70B135F00100CA
:10375000607002D1069808F0D7FD256985B1A3787D
:1037600073B92968384688470AE045F00105657055
:10377000069DA770284608F0FDFA284608F0C2FD0D
:10378000A088C1081AD330406578A080032008F0D3
:1037900031FA012807D035F0040060700ED1069888
:1037A00008F0B2FD0AE045F004056570069DA770BB
:1037B000284608F0DFFA284608F0A4FDA088000992
:1037C00088D36578A1884FF6F770022D00EA0100D2
:1037D000A0800AD125696770384608F00BFA0028E6
:1037E0002ED12968032088476578012D09D12569E4
:1037F0006770042008F0FEF910BB29680220884792
:103800006578032D10D16770042008F0F3F93D4668
:1038100050B9D4F810B0284608F0ECF920B9DBF81C
:103820000010042088476578042D09D12569677048
:10383000032008F0DFF9012802D129680520884714
:1038400084F802A046E7C046840D0020B9BB000002
:1038500051B100002DE9F843814608F0E1FB002159
:1038600000B901216B4E30680028FCD06C4D01245A
:103870002D1DEF6A346009B108F0D8FBDFF898819C
:10388000C7F3072008F1BC01086008F0C9FB00215C
:1038900000B9214630680028FCD02F68346009B197
:1038A00008F0C4FBC7F38440C8F8C00008F0B8FBB8
:1038B0000146002001B92046014630680028FCD0AE
:1038C000ED69346009B108F0B1FBC5F38120C8F897
:1038D000D000B9F5C061C8F8B81000F0968098F82B
:1038E000D80068B9C8F8D410D8F8C000C8F8C80023
:1038F000D8F8BC70C8F8C470D8F8D060C8F8CC60EC
:10390000D8F8D410D8F8BC60002954BF02206FF05A
:103910000100454605F1C8031A6801EB4101401852
:10392000411000EB917002EBA0021A60D5F8C810AC
:10393000C5F8C46000291CDD1E293DDDD5F8CC008A
:1039400030B93429B4BF15391E21C5F8C81025E097
:103950002A29BABFD5F8C8000B381E20C5F8C80000
:10396000D5F8C4003F28B4BF401C3F20C5F8C400B0
:103970001FE0D5F8CC00032812D011F10B0FC6BF01
:10398000D5F8C8000B30201CC5F8C800D5F8C40015
:103990000028CCBF401E0020C5F8C400032009E069
:1039A00011F1150FC6BFD5F8C8001530201CC5F899
:1039B000C8000020C5F8CC00B5F8C400174E30216F
:1039C0004FF47F4208230090304605F06DFB0094D1
:1039D00004214FF400321123304605F065FBB5F8A1
:1039E000C80004214FF4F80212230090304605F07D
:1039F0005BFBB5F8CC0020214FF440620A23009015
:103A0000304605F051FBBDE8F883002088F8D80067
:103A1000BDE8F88300800C401415002000A00C4085
:103A200000A00C402DE9F04F0C46ADF11C0D6C4E82
:103A300061780490207800EB0120ADF800007188D7
:103A4000BDF80000884240F0BF80F06940F6FF7783
:103A500000EB0110074204D1000BC0B2000304F0D8
:103A600099FABDF80000B179A21C000100EB013009
:103A7000102103F05FFE7088401C81B20A467180FD
:103A8000B188914240F09B805748801C0288029088
:103A90004FF6FF770392974200F08780F088171C5B
:103AA00000F083805FFA91F209010024C5B2871803
:103AB00001F470435FFA87FA0594AA45A1EB03016C
:103AC0001FFA81FB28DBAAEB050101F10108A842DE
:103AD0000CBF04240024AA45D8BFA34516DD04EB7F
:103AE000053004210DF1020205F0DAFD04270DF185
:103AF000020919F8011B059806F026FE7F1E0590A5
:103B0000F7D1241DA4B2B4F5805FE4DBF0886D1C0E
:103B1000B8F10108EDB2DAD10598002106F014FEE3
:103B2000002106F011FE039981423ED1029948809E
:103B30000498002104F03EF92B4C217C012908D087
:103B4000022908BF042005D00020032908BF012056
:103B500000E002203278012940EA020030700CBFF8
:103B60004FF4F0254FF4F225284604F013FAFF2015
:103B70001021029A6074284603F0DCFDB07A317897
:103B8000401EB072C0B2A0B9480805D3B369049909
:103B9000032000229847317811F0060F09D011490F
:103BA000086840F00040086003E00498012104F038
:103BB00001F90024347008F013F874800DE00498C3
:103BC000114604F071FA08E000207080307008F0AF
:103BD00007F80498032104F0EDF807B0BDE8F08F72
:103BE000F413002004000940801A00202DE9F04F52
:103BF000ADF1840D00F094FF05F0EAF900260128EC
:103C000004D107F0F5FD022808BF01265D490868C8
:103C1000C0F38150012806D151F80C0C0127010E88
:103C200007FA01F006435848584F594D0078386854
:103C3000C0F346072F6005F0CBF92C46012805D1CB
:103C400007F0D6FD022804BF7F1C27603FB1FF228A
:103C500004F140013846401E01F8012BFBD14D48CC
:103C600000684FF0000900F0FF01FE2919D0DFF8CD
:103C700024C100F0FF03494601229F427FD902FA86
:103C800003F31E427BD100F0FF00201880F84010A3
:103C90005CF8040F43EA0909491C00F0FF03FE2BFE
:103CA000EBD1092001F080FD3A48002124220823AD
:103CB000606001A808F032FA4FF0010804F1240016
:103CC00001AA8DF81C80414606F0E6FD236843B347
:103CD000002794354FF0040BBA4608FA07F0064265
:103CE00019D119EA000F04BF07F0FF0141F4C041E8
:103CF00005D0E019274990F8400051F820102648D7
:103D000002F07EF9F8B24FF0FF3107F00BFC2368A8
:103D1000C5F800A001E0C5F800B07F1C2D1D9F4232
:103D2000DBD30AA800213022082308F0BBF90025C4
:103D3000FF2010210AAB1290184A009504F10800E8
:103D400005F016FF16A828220823294608F0ECF9EA
:103D500004F1600016AA1C9511491D952B4606F02A
:103D6000AFF8104951F80D0C20F4F85040F4005011
:103D700041F80D0C4746C1F8FF7F0B4E376021B06C
:103D8000BDE8F08FB43F0050BE3B002080120840D9
:103D9000783F00203CC40000007FC76741B50000A9
:103DA000799300000D300940080009402DE9FE4FCD
:103DB0000D4681462868D9F80440D9F808700028D3
:103DC00000F0B68008F074F9D4F8881021B108F03A
:103DD00077FA03202874ABE04FF0010B85F810B0A0
:103DE000C4F8885008F06CFA94F8A40038B194F83C
:103DF0008D205149D4F89C00114306F0FDFB6E68FC
:103E000008F056F9804694F8D80050B916F0704F73
:103E100002D1042006F020FC022006F01DFC84F8EC
:103E2000D8B0404608F04CFAD7F80080D8F8040023
:103E300040F00200C8F80400D9F80830D9F804C0EE
:103E400028681E689CF88C10009080B2B6F1804FF4
:103E500000FA01F01FFA80FA14BF384E384EAF68EE
:103E600038484FB99CF88C104FEA810E00EB0E01D8
:103E70008A690CF1A60109E09CF88C104FEA810ECA
:103E800000EB0E010A690AEB0701491EB26071607E
:103E9000196843F6F07208310291009F31603901D0
:103EA000B7680190103902EA010040EA0701B160E9
:103EB0001A68B2F1804F14BF234924496F682FB9A3
:103EC000019D7544AD6903F10E0605E0019D754441
:103ED000AD680AEB0706761E8D600E60029D4D6090
:103EE0008D6828438860DCF8A0701869596901431F
:103EF000786800688162506A40F003005062D8F828
:103F0000140040F00100C8F81400207830B961684E
:103F100004F16C05284601F017FD10B15846BDE8C4
:103F2000FE8F484601F0F8FA2846002101F00CFD0A
:103F30000020BDE8FE8FC04600000680000500207E
:103F400030040020C4C500001005002040040020FB
:103F50002DE9F84F994692468B46064608F0A8F898
:103F60005D4CB4F93620B4F934100AAF891A40F622
:103F7000F8720A40082A02DB08F0A2F940E0B4F91E
:103F80003410491C6FF31F31A186B4F9348008F056
:103F900097F94046811000EB517121F00701401A5A
:103FA000C10001EB4011651806F1680007F012FA34
:103FB00005F59C75C5F808B085F812A0C5F8049001
:103FC000EE604648A5F8108097E80C0020210027F5
:103FD0001940104005F1180383E8030004F12400A0
:103FE00085F824700368002B5AD1294606F0DCF8C6
:103FF00048B9B4F9340000F6FF706FF31F30A086A3
:104000006FF0010865E0A6F88C8008F051F886F89A
:104010008E70A17A41B1617831B10121E172A7724C
:10402000E7712179491C217108F04AF9A06A00283A
:104030004FD1607800282FD1207A012849D008F08C
:1040400037F80646607A00BBA86804F029FF254AC5
:104050002349E3681268086040B9304608F030F937
:1040600004F1CC00042107F01FFD32E00968DB6891
:1040700004F1A800C91AB1FBF2F108F067F904F1E4
:10408000A80007F083FD304621E0304608F018F91B
:104090001549012008701CE0192007F0ABFE18E05C
:1040A00008F006F80746294604F1240006F07CF8DB
:1040B000002818BFA6F88C8008D1B4F934006FF03E
:1040C000010800F6FF706FF31F30A086384608F035
:1040D000F7F84046BDE8F88F28100020F1EFFF9F69
:1040E000E042002060CB0000DC4200202DE9FC41D2
:1040F0005D4C564D564EDFF85C81594F94F8E410F4
:10410000481E0B2800F29F80DFE800F0772C430662
:104110002343062343067260042907D001220A299B
:1041200045F8212C14BF0220032004E020210120A7
:1041300045F8211C024684F8E200002045F8390CBD
:104140000827C5F8FF7FC5F8F37F45F8392CBDE88F
:10415000FC81052914BF09200620002584F8E4000D
:1041600035606CE094F8E1700120383D002FC5F80F
:104170001B0004BF0620002102D00021F1600320B3
:1041800084F8E400032045F8010C316030688008B1
:1041900055D294F8E400012503280DD000214046B3
:1041A00060220523009104F07FFF94F8E4000628C4
:1041B00014BF0A200720D1E70220009000216022CE
:1041C0000523404604F070FF0420C7E7224900267B
:1041D00022480E60012505600E2001F011FA022030
:1041E00006F022FA84F8E45084F8E360BDE8FC812C
:1041F000002038600C2578601FE01A4800680068CD
:104200000146202088472C3D41F61D560F200021F5
:104210004FF4C072072345F8010C4046C5F803600F
:104220000225009504F040FF404600214FF4C07283
:10423000072305F075FA0120386084F8E45004F192
:10424000780007F0A3FCBDE8FC81C04639400C4073
:1042500038600C4000A00C402C500C4004800C40F6
:1042600034600C40A001001014150020B0B5456862
:1042700084684F48297BADF1180D012916D0217EA5
:10428000627E4C4B2F7E0143009143EA0201019173
:10429000494937F0010718BF081CA27E104302905D
:1042A00095F88D000322FF2811D00DE0677E217E56
:1042B0003843A37E019041F00041009143F000405B
:1042C0003E49029095F88D00014304220391FE209F
:1042D0004DF82200694605F1900002F031F9C5F869
:1042E0009C00002808BF00205FD0287B344951F88B
:1042F000200001282BD02068B0F1804F14BF22226B
:104300000A22217ED5F89C0006F034FC2068B0F12A
:10431000804F14BF21220922617ED5F89C0006F04F
:1043200029FC2068B0F1804F14BF24220C22A17E0A
:10433000D5F89C0006F01EFC95F88D10FF2933D0AF
:104340002068B0F1804F14BF23220B2228E02068A0
:10435000B0F1804F14BF21220922217ED5F89C00A4
:1043600006F008FC2068B0F1804F14BF22220A2218
:10437000617ED5F89C0006F0FDFB2068B0F1804F0F
:1043800014BF24220C22A17ED5F89C0006F0F2FB7B
:104390002068B0F1804F14BF23220B2295F88D10B6
:1043A000D5F89C0006F0E6FB012006B0B0BDC04683
:1043B000000480A0004000800004C0A00020008015
:1043C000C4C500002DE9F04F0128ADF19C0D40F06F
:1043D0009A804E490AA8652202F000F94C4E322715
:1043E0000AAC4FF000084FF0430A4FF00D0B06F1F6
:1043F0000A05249506F1090025902078E94689F8F8
:10440000000024990122684606F064FF00287AD053
:1044100025996846012206F05DFF454600B1012559
:104420002846651C18BB01202F78307141F65831A1
:1044300006F5887005F064FC3846401E13D0401E17
:1044400004D0FD3804BF404630715CE02868643613
:104450003060A1782779E07800EB012107EB01209B
:1044600002F056FB4FE02888643630804BE0684607
:10447000414604F047F90146FF290AD0F06A00EBF3
:104480000110297882798A4238D0FE2918BF8173B9
:1044900034E006AB059303228DF8072007238DF83F
:1044A000183009228DF819208DF80F808DF81AA088
:1044B0008DF81FA08DF822B00E208DF823804C239C
:1044C0008DF8100069468DF81B3049228DF81C20AC
:1044D0004D238DF81D3042228DF81E2005238DF8C6
:1044E0002030FF228DF82120097809AB1970287837
:1044F00041468DF8250001A800F096FF7F1E04F1CB
:1045000002047FF47AAF27B0BDE8F08F0D130020CE
:10451000200500202DE9F04304466568A7680E4693
:10452000ADF1340D07F0C4FD95F8D910012903D180
:1045300007F0C6FE002084E04FF0010985F8D9900D
:1045400007F0BEFE4FF00008C5F88880306928618A
:1045500070696861307E2876307B287330782870E7
:10456000706885F8A480686070694146092828BF92
:10457000494685F88C10387B01F016F9204604F086
:1045800011F8F87E85F88D002046FFF76FFE50B9D0
:10459000387B01F035F807F08BFD85F8D98007F0FE
:1045A0008FFE44464CE001A841463022082307F024
:1045B00079FD06947879CDF80080234A09903979FD
:1045C00001AB05F11C0005F0D3FA01A841462822F1
:1045D000082307F0A9FD05941C49B86801AA4346C1
:1045E000079005F1380005F06BFC287878B901A830
:1045F00041462422082307F091FD8DF81C9005F117
:104600006C00414601AA06F047F9114800E0B06885
:10461000A86003F069F9C5F8A000287B012808D13B
:10462000D5F89C000B4907F007FDD5F89C0000B1B8
:104630008460094A05F1C4000421234606F0DCFB2E
:1046400020460DB0BDE8F08301640000E58B00005A
:1046500011C20000A97200008DC00000F8B5414CE5
:10466000201D0368B3F1FF3F08BF002304F0B0FC36
:10467000002876D13C4E20683468070F04F0FF0410
:10468000802C28BF002404F0A3FC4FF0FF3578B144
:10469000401E07D0401E012802D9801E13D014E00E
:1046A0008FB112E0381C5CD0801E0ED114340BE0A8
:1046B0003846401E55D0801E53D0001F51D0401E9A
:1046C00003D1163400E00A3465B2162D49DB2748C1
:1046D0002749002501270560264E0F60264C3760CC
:1046E00020680028FCD1274A161D2449244F306831
:1046F00020F0030001433868C0080CD2106810F0A5
:10470000030F0AD041F003003060106800F003008E
:104710000328FAD101E041F001011B483160006833
:1047200020B11A4800681846FDF742FD184819499B
:104730000560194F0A686FF35B4247EA02000860A0
:1047400016490868C0F30130012806D10A681448E8
:10475000104040F400320A60086020680028FCD154
:10476000F8BDFEE718130050A0100050840460420A
:104770005C600C40082204430C00684204000020E6
:10478000B03F005000400340800128430001204317
:104790008C210840482003400000390104000940F2
:1047A000FFFFFCFC2DE9F0430746880FADF1140D27
:1047B000C0F08680484D494B434800261C352E608A
:1047C0005C1D45F81C0C207810B1012006F062FD3C
:1047D000434807F0FBFB40F60A08B146194601F1D1
:1047E00038024E87BC68A2F8008091F84530C1F8C5
:1047F0003C90107B668000F0F000107303F0F00036
:1048000040F0010081F8450000E01C46636813B1E8
:1048100018888045F9D16260607B00F0F000607319
:1048200001F1240007F06CFD806803884046C01F3A
:1048300098421DD0401C98421AD03B8BCBB197F8C0
:10484000240097F82530C7F81C9000F0F00087F896
:10485000240003F0F00040F0010087F8250007F184
:104860001803CB63507B7E8300F0F000507300E0B0
:104870004E611648016883680193C368406B0091DC
:104880001022694620F0784040F080500390104894
:10489000029301F0A3FE28680028FCD02E600120BE
:1048A00006F032FE012808D0607B00F0F00040F0F6
:1048B00001006073074807F089FBB86845F81C0CD5
:1048C00005B0BDE8F083C04601010E044C13005052
:1048D0001800002155880000001004402810002016
:1048E000F52600002DE9F043454D0720ADF1240DDC
:1048F000123D8DF8000009208DF8010095F8700038
:104900008DF8020095F871000D238DF8030095F8DD
:1049100072008DF80A304FF000098DF8040095F808
:1049200073002E798DF8050095F874008DF80B90C2
:104930008DF8060095F87500EF7B8DF80700FF20D5
:104940008DF809003EBB95F80B8027BB44460C232D
:104950004F4619E006EB04160121304607F0EAF84D
:1049600050B1307803EB0D010870B07B5B1CDAB2FC
:10497000511C02F80D00CBB2641CE4B2502CA8BF4D
:104980004C46A04508BF01271D2B02DAEE6A002F16
:10499000E0D0EC7223E005F10901097803A8017069
:1049A00095F8646005F16400761E07D0761E0AD182
:1049B00000680DF10D011123086004E000880DF17D
:1049C0000D010F230880012F09D103205F1C012155
:1049D00003F80D00F8B200F80D10401CC3B2287A9D
:1049E0005F1CFAB203F80D00A2F109008DF808006F
:1049F000287801216B4604F00FFB09B0BDE8F08375
:104A000032050020BCB5454C0746E06B0D4610B999
:104A100004F026FEE06320A2002106F0BBFB38462E
:104A200021A2801E04D0801E2AD0401E17D005E08F
:104A3000E06B012D14BF1FA523A523E0E06B00212F
:104A400006F0A8FBE06B26A2022106F0A3FB0120E2
:104A50008DF801009DF801000028FBD1BCBDE06B82
:104A6000002106F097FBE06B23A2022106F092FBE7
:104A700001208DF800009DF800000028FBD1BCBD8E
:104A8000E06B21A5002106F085FBE06B02212A46A0
:104A900006F080FBBCBDC0463E3E3E535441434BF6
:104AA00020415353455254002A2A2A4552524F520C
:104AB0002A2A2A003E3E20494E5445524E414C205F
:104AC0004552524F522100C03E3E20494E5445525D
:104AD0004E414C204657204552524F522100C0466D
:104AE0003E3E2044454641554C54205350494E4C7F
:104AF0004F434B2100C046C03E3E204943414C4CF1
:104B00002041424F525421003E3E204F5554204FE9
:104B100046204D454D4F52592100C04620050020EA
:104B20002DE9F041434C94F8E700ADF1280D002841
:104B30006CD1384F387B01250021242284F8E750BE
:104B4000082384F8E60001A807F0D0FA002604F153
:104B50000C00069601ABADF814602F49079632465B
:104B600005F0A4FB2D4904F1300001AB324605F0FD
:104B70009DFB2B4904F1540001AB324605F096FB36
:104B8000B868014628468847DFF89C8025487B7B2B
:104B90000078D8F80410C1F381571BB1032F03D15B
:104BA00084F8E150032F16D0022F14D0012F26D104
:104BB00003201E4C009031464FF040521C232046EB
:104BC00004F072FA009531464FF400720923204632
:104BD00004F06AFA13E0022005F03EFD032F0CBF3B
:104BE0004FF47A7142F21071114800685434B1FBED
:104BF000F0F1204607F0AAFB204606F0C7FFD8F8E0
:104C00000000C00802D2304605F026FD0AB0BDE81B
:104C1000F081C04644CA0000BF6D0000F569000085
:104C2000C1700000BE3B0020B03F005000A00C400F
:104C300060CB000014150020F8B506F075FE404E5C
:104C40003E4F0446A00823D3B96A09B33D4600206D
:104C50008B690A6AA86204EA0300104340F002006C
:104C600006F1080208628B6910689843106001F130
:104C7000180090E80C0030681A1C9043306005F171
:104C8000300005F091FA022105F1CC0006F00CFF8E
:104C9000B86AA10815D200F118020CCA00212240FE
:104CA0000B40002B08BF002A0BD08169056A0C401D
:104CB000F8622C434FF48041046207F1CC0006F007
:104CC000F3FEB86A002837D107F12404204607F024
:104CD00017FB051C30D0F868E968884226D1A8681F
:104CE00004F0DEF817490860E0B906F10801A86988
:104CF0000A6810430860326805F1180393E803005E
:104D0000081C1043306000233361A86846F80C0C7F
:104D100006F1100000680028FAD0204606F01CFEBC
:104D2000BD62F8BD086803F001FBF8BD07F1CC00D7
:104D30004FF4805106F0B8FEF8BDC04628100020A0
:104D40000C100440E04200202DE9F0430746ADF18D
:104D50001C0D07F0FBF905F037FC4FF00009064683
:104D6000CDF8009007F098F930F0010002D00098DB
:104D7000B04202D16FF0040066E078684C4658B14A
:104D8000B0F1FF3F05D001A905F006FC30B1804627
:104D900059E04FF0FF3000E02046019006F00AFB9A
:104DA000019D4FF001082D1802E00A463BE00193F7
:104DB0007068019900F0C8FD00282DD003A803F009
:104DC000F5FCD8B99DF8100002A905F037F988B9AB
:104DD000BB68BDF808009DF81210059A984748B1C5
:104DE000BDF808009DF81250B881059BBD73C846F8
:104DF0003B6111E00599684605F07AFE0198641C54
:104E0000B0F1FF3FD4D00028D2D006F0D3FA2B1A4D
:104E100002D001989842CAD2009F06F0A8FC06F181
:104E2000080547B13A4652F80C1C0029BDD1296843
:104E300042F80C1C2F6006F067FE24B1706802F087
:104E400027FF641EFAD1404607B0BDE8F0837047E3
:104E50002DE9F84F0F460146D1F808A04E683846B4
:104E6000203862D0401E5CD0401E57D1307B92F873
:104E70000080012814BF324D324DB8F1FF0F45EAD2
:104E800008050AD196F88D10FF2903D0D6F89C00AA
:104E900003F058FEFF2080463DE0D6F89C704FF0AE
:104EA000FF34002F49D029480168EAB2914244D921
:104EB000834621460BF12400814600F045FDE8B20F
:104EC0000BEB800BDBF8940070B97B68E9B2012032
:104ED00088401D49CBF894702A46184378603846BC
:104EE00005F05EFE002700E00127484602F0D0FEF4
:104EF0001FBBDAF80000B0F1804F14BF23220B2251
:104F0000D6F89C00414605F035FED6F89C0096F890
:104F10008D1003F017FE86F88D800DE06FF0010410
:104F20000BE0002486F8A44007E0317B0020012933
:104F300008BF012086F8A40000242046BDE8F88FB1
:104F40000004C0A000200080007FC767783F0020D9
:104F500081F000412DE9FC414FEA01244FEA41056F
:104F60002D0E04D1002C18BF0020BDE8FC8144F0B8
:104F70000044FF2D5ED04FEA9404002948BF6442EC
:104F80004FEA00224FEA40031B0E05D1002A14BF4E
:104F90000020081CBDE8FC8142F00042FF2B4AD0F3
:104FA0004FEA9202002848BF52425E1B41BF171CC5
:104FB000221C3C1C764248BF2B1C192E47BF44FACA
:104FC00006F73A444FF0000803E0C6F11C0704FA64
:104FD00007F8002A04BF0020BDE8FC8146BF52420A
:104FE00001270027A3F101035200FBD512F0800432
:104FF0000DD002F0200548EA0508803228BF5B1C6E
:1050000002F0400458EA040808BF22F480729B1C96
:10501000DCBF0020BDE8FC81FF2B0ED222F0FF0296
:105020004FEA42024FEA522040EAC35040EAC770BA
:10503000BDE8FC8108464FEAD0774FEAC777FF20EA
:105040004FEAC0503843BDE8FC8170472DE9F0417C
:1050500004466668A7680D46ADF1380D07F028F8DC
:1050600096F8DC10012903D107F02AF900205EE050
:105070004FF0010886F8DC8007F022F9E968204645
:1050800002F0D4FD0028F1D1287830706868706093
:10509000287A002130220823F06001A807F002F8E6
:1050A00006943A7B099200250095224AB96806F1D8
:1050B000100001AB04F05CFD01A82822082329465A
:1050C00007F032F8396907911B49059406F12C0065
:1050D00001AA2B4604F0F4FE01A824220823294645
:1050E00007F01CF806F160008DF81C80414601AA0B
:1050F00005F0D2FB307838B906F17C00294601AAC8
:1051000005F0CAFB0D4870603572C6F8BC50C6F891
:10511000C050786800F048FB204603F0A1FF084A21
:1051200006F1C8000421234605F066FE20460EB0B5
:10513000BDE8F081355300009D84000001C20000ED
:10514000A5BD0000F0B5ADF1340DFFF7E9FC334922
:1051500008682822082340F00200086001A8002106
:1051600006F0E2FF2E4E2F490524002301AA0794E2
:1051700006F1CC0004F0A4FE00213022082301A88F
:1051800006F090FF0025FF271921274AADF81C5093
:1051900001AB099706F14C00009504F0E9FC2822C8
:1051A000082301A8294606F0BFFF2049079406F509
:1051B000807001AA2B4604F083FE01A82946302204
:1051C000082306F06FFF0124ADF81C40099706F193
:1051D00068001A2101AB164A009504F0C9FC154974
:1051E0002A4606F1A800134605F060F8124806F0BA
:1051F000EDFE03F0EDFE2B46012808BF231C86F8C8
:10520000A550B57135727572B572F572F47173711E
:105210004FF6FF70A6F89C000DB0F0BD00200940CD
:105220002810002001BA0000C5AF0000E15D0000B9
:10523000A9880000B1B50000B16000002DE9F84F69
:1052400000298346009106DD024600980021401E99
:1052500042F8041BFBD10098DFF8C880DFF8CC903F
:105260000028C8F800B012DD2F48009C0768002510
:1052700037F8020B38B1D9F80000AE0031580020E1
:1052800088474BF80600641E05F10105F0D1284F50
:1052900041460120D7F80080C880B8F1000F22DD18
:1052A0004FF0000A00980127002817DDABF1040633
:1052B0000446002556F8040FB0F1FF3F04D0D9F89A
:1052C00000106958884730600021B0F1FF3F08BFE7
:1052D00001212D1D641E01EA0707EBD137B90AF140
:1052E000010AC245DEDB04A006F026FA0D490020C3
:1052F0000860BDE8F88FC0467864632E72756E74DE
:10530000696D652E537461727475703A20276D61F2
:10531000785061737365732720657863656564658C
:105320006400C0462C1B0020B0CB0000B4CB0000B2
:10533000ACCB000098B53A498268446809681068A7
:1053400049688847374B01229A6160B1217AFF2969
:1053500009D0FF21400921725CD20420186002208C
:1053600006F075FF56E0207A002853D0401E1DD06D
:10537000401E02D0FD3851D049E05968D4F8B4003D
:105380000170D4F8B800D4F8B410401E491CC4F819
:10539000B800D4F8B870C4F8B41017B3012F88BFA0
:1053A000092202201A6006F052FF98BDD4F8B0001E
:1053B000401EC4F8B000D4F8B070A7B9D4F8B870E3
:1053C0007FB10220D4F8A8102072097C012F4FEA87
:1053D000410141F0010143F8041C94BF03220B2258
:1053E000E0E7042210E0D4F8AC0000785860D4F86C
:1053F000AC00022F00F10100C4F8AC00D1D2D4F807
:10540000B870002FCDD1052200202072C9E7FF20FF
:10541000207298BD04F12C0004F07AF898BDC046C3
:10542000AC010010042800402DE9F0410029064697
:105430006BD130690C3003F065F9DFF8D880FF28B4
:105440002BD0F7780022022F08BF0122002107B9D4
:1054500001210025032F41EA020108BF01250D4368
:1054600056D045463269E96A527B062A50DA040171
:10547000F07A6718387305F09DFFB860E86A316903
:105480000C3109780246001901703069407BA4187C
:10549000A07100206073BDE8F081F7780021022F31
:1054A00008BF0121002007B901200025032F40EA91
:1054B000010008BF012505432AD0032F28D140460B
:1054C000C56A00231C0128190121074606F032FB9A
:1054D00048B15B1CDBB2502B1ADA3069407B0628DE
:1054E000F0DBBDE8F081F07A387305F063FFB86057
:1054F000D8F82C0031690C31097802460019017086
:105500003069407BA418A073C2E7701D03F0FAF85D
:10551000BDE8F081200500202DE9F84307467C68AE
:10552000BE6806F0C5FDD4F8881000295FD006F0EB
:10553000C7FE3168486820F0020048603168486A58
:1055400020F003004862D4F8A05070693169084324
:1055500069680968C1F804053168486920F00100EC
:105560004861306801250562384605F059FCD4F8D9
:105570008800D0F8048006F09BFD814694F8D8009E
:1055800058B118F0704F02D1042005F04DF80220F8
:1055900005F04AF8002084F8D800484606F090FE4E
:1055A000D4F88810087C042803D003200874D4F8A9
:1055B000881032697069D4F8A0301043854058686B
:1055C0000068C5623068B0F1804F14BF0A480B48CC
:1055D0000E68806800258204A6EB9250401E086089
:1055E0003846A268C4F888509047BDE8F88306F0B2
:1055F00067FEBDE8F883C0460005002030040020A7
:105600002DE9F843044606F053FD81462D48021962
:1056100092F8ED10491ECFB2002F82F8ED704BD1F9
:105620002B4D05EB84052E78698836F07F07884678
:105630001AD1F10911D24FF08054D4F8B801806921
:1056400001464046884704F5DC742068406B0146FB
:10565000404688470228F8D121E000EB8800D0F8C6
:105660000011002088471AE04FF08054D4F8B801A8
:10567000006A014640468847D4F8B801806A01466E
:1056800040468847D4F8B801006B01464046884739
:1056900001210D4A0D48116001688908FCD306F00C
:1056A0003F003F2801D0FFF7ABFF687800F03F00D4
:1056B0003F2801D0FFF7A4FF484606F001FEBDE8F1
:1056C000F883C046141500202820086028200840D0
:1056D000F0C40000F8B5002005F066FB304C002552
:1056E000E57104F1C800657106F00EFE652005F055
:1056F000A1FD071C07D02946652201F060FD652049
:10570000394600F011FB8DF8005040F205300121C0
:105710006A46FDF791FA40F21B3001216A46FDF717
:105720008BFA608A4FF6FE71814210D006F076FA4D
:105730001C4901EB001090F83C00042805D10846F4
:10574000807B062818BF072801D103F0EBFA06F08A
:10575000D1FA2F462E46E36A0121DB19184606F0DE
:10576000E9F960B1987B801E012804D804F5D07057
:1057700006F000FB18B93046294604F011FC761CEF
:105780001037502EE7DB2846012104F009FC6D1C80
:105790000A2DF8DBFFF7A6F80A2005F0A7FEF8BDF2
:1057A00020050020CC0900202DE9F041064606F036
:1057B0007FFC2D4D8046A91991F8ED00421C002870
:1057C00081F8ED204AD1294C04EB8604277807F0B4
:1057D0003F003F2801D0FFF7E7FF607800F03F006F
:1057E0003F2801D0FFF7E0FF668837F07F001AD12D
:1057F000F80911D24FF08054D4F8B801406901463D
:105800003046884704F5DC742068406B014630461A
:1058100088470128F8D121E005EB8605D5F800116D
:10582000012088471AE04FF08054D4F8B801C069CD
:10583000014630468847D4F8B801406A01463046F0
:105840008847D4F8B801C06A01463046884701212C
:10585000074A0848116001688908FCD3404606F0F1
:105860002FFDBDE8F081C04614150020F0C40000F3
:1058700028200860282008401EF0040F14BFEFF312
:10588000098169468869EFF3118102B400B5DFF838
:10589000A4E0F047DFF8A8E0DEF8001001EA00001D
:1058A000CEF800005DF804EB1EF0080F03D101BC38
:1058B00080F31188704704BC1EF0040F14BFEFF38F
:1058C00009816946A1F1200114BF81F309888D4641
:1058D0001B4B1868086040F2011018604A604FF0D6
:1058E0008070C86117488861704702B401B4EFF353
:1058F000148100291CBF002282F3148802B402B470
:10590000DFF834E0F04701BC01BC00281CBF0221D5
:1059100081F3148801BCDFF824E0F04704484FF01D
:105920008051016001BC80F3118800BF00BFC046F8
:1059300004ED00E0F989000031C20000BBC20000A4
:10594000F4180020EB5800002DE9F0410D46064602
:10595000B5F1FF3FADF1380D09D045B12B496B468C
:1059600005A82A4605F098FA05A9022001E00021C1
:1059700003200391264F8DF8100038682024EFF3A0
:105980001188371884F31188708980BB002D04BFFB
:1059900088F31188002036D006F06CFA064606F02F
:1059A000D5FB0290C0F818D004F0CEFC384669460A
:1059B00006F0AEFB9DF810000025022802D10398E6
:1059C00002F066F888F31188304605F079FAEFF3B3
:1059D000118384F31188039810B106F0B3FC03958A
:1059E0000298856183F311889DF810000BE070899F
:1059F000401E7081039818B106F0A4FC00200390AB
:105A000088F3118801200EB0BDE8F081D5AC00000C
:105A10006CCB00002DE9F04115460446A869A06052
:105A2000686A98460E4608B92A4800686062286A83
:105A3000002806BF28480768071C06F045FBEB69ED
:105A4000A3B9002808BF391C03D03F1841427F1E6C
:105A500039400246E161606AE169434601F07AFF3C
:105A60002062206AB8B90120BDE8F081002804BF97
:105A70002362391C0BD01B1841425B1E01EA030054
:105A800020623F1AE869C019E061E0690140E16104
:105A90004FF0FF306062A6622869E06268692063A7
:105AA000A86A6063A88DA087A08F012803D10B4945
:105AB000C868401CC8602046414601F043FA0346CE
:105AC000404605F00FFE002814BFD81C0020BDE89A
:105AD000F081C04680CB000084CB000090180020ED
:105AE00070B5304C0646A078002859D0B4F936007D
:105AF000B4F93410884207D0B6F98C10304602222F
:105B00004FF0E04300F02CFB06F0D2FAE1780029D8
:105B100037D0491EC9B2E17099BB06F0D1FB002510
:105B2000A570607840B1284602F000FC06F1300014
:105B30004FF0FF31FFF708FF06F1300006F00EFCD2
:105B400006F1680006F0FAFB04F1CC0006F008FC50
:105B500004F14C0006F0E4FB04F5807006F000FC54
:105B600004F1680006F0DCFB04F1A80006F0E6FB97
:105B7000E5602570307C012812D10E20FFF740FD32
:105B800070BD06F09DFBE068864204BF0020E06027
:105B900006F1300006F0E2FB06F1680006F0CEFBED
:105BA00070BDC046281000202DE9F8430D4606467A
:105BB00068687468D6F80890002710B9E86800286B
:105BC00050D02078012814D106F072FAD4F8BC1015
:105BD00049B1D4F8C0108D61C4F8C05006F070FB14
:105BE0000120BDE8F883C4F8BC50C4F8C05006F0EA
:105BF00067FB022004F030FD04F160084FF0FF3134
:105C00004046FFF7A1FED9F8080003F03DFC3046FE
:105C1000294600F0C3FF0546D9F8080003F056FCFA
:105C2000207888B9B5F1FF3F08D004F17C004FF02F
:105C3000FF31FFF789FE207A48B110E0032020727F
:105C4000022004F0F1FC0AE0B5F1FF3F01D001278A
:105C500005E00320207204F12C0003F059FC4046BB
:105C600002F016F83846BDE8F8837047F8B506F03C
:105C7000D7F906F0E7F9044604F00C000C2845D0EB
:105C8000E0081ED204F0FAFF234E376805460120D3
:105C9000014605F0FDFB31686943884211D21F4C73
:105CA0008220B0FBF7F0291A204606F04FFB204671
:105CB00005F06CFF0120FDF7D3F8204605F08AFBC4
:105CC00025E0200922D21648610939BF016821F078
:105CD0000101016841F0010102460160D2F898001B
:105CE0004FF0805440F00300C2F89800D4F8B80197
:105CF0008069014620208847D4F8B801094C806BA0
:105D00002168804701202060206800E030BF06F055
:105D10008DF901F055FEF8BD60CB00002015002084
:105D20008C2108402C2009402DE9F84F80460C4674
:105D3000B8F1660F4ADA284D424605F10800009096
:105D400000F04CFC204605F09BFD6F68002F3AD018
:105D5000B8F1000F37D021480178002634462DE0F5
:105D6000A00037F800A04FF6FF733D18534521D02F
:105D700095F80290B9F1000F1CD01748009A08213D
:105D8000D43005F09BFF5FEA000B13D05FEA5900A7
:105D900006D35046434601215A4601F059FC0643BA
:105DA000A878800806D32888434602215A4601F085
:105DB0004FFC064309480178641CE4B2A142CFDCE1
:105DC0003046BDE8F88F0220BDE8F88F084605F0A0
:105DD00057FD1820BDE8F88FA0120020CC09002044
:105DE0002DE9F04106F064F9DFF8A8800646D8F8FE
:105DF000A00010F4602F2AD0400CC4B2600807D273
:105E0000A00803D2E00828BF022402E0012400E039
:105E10000024651D68B202F09BFDD8F8A07004F163
:105E200011010120884027EA00013046C8F8A0107F
:105E300006F046FA08EB8400D0F88C7057B1D8F819
:105E40008800294600224FF00063B84702E0304640
:105E500006F036FAD8F8A00020B108F580700021CD
:105E600005F022FE98F8A500800810D3D8F89870A5
:105E70003FB1D8F888006FF0010100224FF00043D5
:105E8000B84798F8A50000F0FD0088F8A500BDE827
:105E9000F081C04628100020F8B52A4C04F1180003
:105EA00004F1100100F04CFB0028606008BF0020E6
:105EB00047D004F12406304605F0A6FE002584F8FC
:105EC000245021486063314684F83050284604F05D
:105ED000DBFB2F46E06000B10127002830D0AB206B
:105EE0008DF8000005F056FF6846012104F014FC0F
:105EF0002F4600B9012705F045FF1FB102F078F8E1
:105F000000B12F46C7B103F0CBFC002808BF2F1CFF
:105F100014D004F1440000E0083007683FB1017973
:105F200022789142F8D1417962789142F4D1A0600F
:105F3000006800B101252F46012F01D002F00CFCB2
:105F40003846F8BD3C17002000093D002DE9F0411E
:105F50002A4C0546A0781F4616468846ADF1300DFE
:105F6000012803D0FFF7EEF80120A070B8F1000F70
:105F700009D0C5F8048036B1AE6006F099F8E17832
:105F800019B106F09DF9002033E0491CC9B2E17057
:105F900006F096F901241FB9684605F0E3FE6F4646
:105FA000386828607868E860387A00217822287498
:105FB00005F1180001F003F903A8002124220823A9
:105FC00006F0ACF88DF8244005F13000002103AA5A
:105FD00004F062FC03A800212422082306F086F8BE
:105FE0000549099505F16800002203AB04F05EF94C
:105FF00028460CB0BDE8F08155C2000028100020F2
:10600000F8B50D46EEB2290824BF25494D40254A72
:10601000B300D15885EA01040440C4F3006C224C5B
:1060200000EA050781433C4000F4E0272143B7F52F
:10603000E02F01D14C0E15D300F4E0245CEA0407F4
:1060400010D001F4E027B7F5A02707D0B7F58037C7
:1060500004BF21F4003141F4A02103E021F4803198
:1060600041F4C021114CD150C10D04D3A4F18001E1
:10607000C5F380528A55000E11D306F019F8290E87
:1060800003D201210022B14002E00121B1400A46C1
:10609000503423688B431A43226006F011F9F8BD8F
:1060A000006000A000100840FF7F077F80200240B2
:1060B000042998B545D1294C04F1240006F020F9B3
:1060C00040B994F8A500400838BFE06804D3D4F87C
:1060D000880000E0C068E06041681A4A09781160F1
:1060E00040681168007888422AD1022004F0B4FA8E
:1060F0001120FFF759FB01202072E168087C10B1E4
:10610000A079012803D00E20FFF74EFBE168496813
:106110000D488F680FB9CF681FB10021C1610B4FC7
:1061200007600B4A40F2FF7111600027876109493F
:106130004161094805F04AFF192003F0C7F998BDED
:10614000FEE798BDD021084000100440510007062A
:106150000000046002000040898300002810002035
:10616000F8B51F4616460C46054605F06BFE254958
:10617000B1F93420121B04D4B1F93620A24204DA5A
:106180000CE0B1F93620A24205DAB1F93620B1F9B6
:1061900034309A4202DC04F0BDF830E0A21004EB87
:1061A000527222F00702A41AE20002EB441289188C
:1061B00001F59C74214691F8242012F0070F17D1A5
:1061C000114A4B689A4202D04B68AB654A6005F1B0
:1061D000500181E8C00004F09DF805F130004FF057
:1061E000FF31FFF7B1FB05F1600494E80300F8BD4F
:1061F00004F090F894F8240010F0070FFAD1022070
:106200000021F8BD28100020358C0000F0B5812059
:106210000021ADF1540D6A4603F0C6FD40B981205E
:1062200054216A4603F0A4FD10B99DF8500008B946
:1062300000203CE01F4C04F5BE75284606F064F8CB
:1062400004F5D070064606F05FF81398694660635F
:106250008CC904F5BE708CC08CC98CC00EC980E896
:106260000E00284606F04EF89DF8480010B9284662
:1062700006F04AF8204609A91CC900F5D0701CC0D8
:106280001CC91CC00EC980E80E00304606F03AF862
:106290009DF8490010B9304606F036F800208DF818
:1062A000500054216A46812003F07EFD012015B084
:1062B000F0BDC046200500202DE9F84F8046087843
:1062C0001C4616460AAF022831D02348DFF88C90CE
:1062D000D1F804B08569102282464946584604F038
:1062E00083FE002740B9002D33D08AF801400120F9
:1062F00041463246A8472CE009F1100158461022C9
:1063000004F072FE10B925B30220F1E709F1200173
:106310005846102204F068FE90B9012C05D130785F
:10632000002818BF8AF80A0013D1802711E04868B6
:106330004278007842F6021500EB0220854201D037
:106340000A2706E0388832460090404601F0D2FC29
:1063500007463846BDE8F88FF4130020B0C40000AB
:106360002DE9F843254C0746E06890460E46B842B2
:1063700018BF03203BD102F0C1FA051C36D405F04A
:1063800097FE1C4B814605F00F0046EA002626F0DA
:10639000030143EA0100C4F8840004F019FD00F091
:1063A000FF0001281AD1700B0FD305F10C01012059
:1063B000114A84F8A450884094F8A560116881437C
:1063C000116046F0040084F8A500C4F8887004EB5E
:1063D0008500C0F878800127277004E0284602F085
:1063E000B7FA6FF00105484605F06AFF2846BDE898
:1063F000F883C0460100030608100440281000205E
:10640000B0B501468B681C68E26948682262520890
:1064100024D2D0F8A01049680A685D69D2F8041542
:10642000294206D01C68616A21F002016162C2F84B
:106430000455D2F8042519690A4230D01A68516A05
:1064400021F001015162D0F8A02052681969126848
:106450003830C2F8041503F05BF8B0BD1C686269FF
:1064600022F001026261D0F88870AFB9626822F050
:10647000020262601C68626A22F003026262D0F863
:10648000A0005A6940681C6900682243C0F80425CE
:10649000084604F0C5FCB0BD0846FFF73DF8B0BDA6
:1064A000F0B520480127F84201D002F01FFD204D31
:1064B000204F214EBD4206D203CD0478A4003459AA
:1064C000401CA047F6E71D48002800D08047164D25
:1064D000164FBD4202D210CDA047FAE7F0BD03250A
:1064E0001BE0416808300A1C2A400BD11A1C2A40C4
:1064F000AB4305D0046804300C600431043BF9D18F
:10650000131C05D0047801300C700131013BF9D126
:10651000021C2A4001D0A84304300368002BE0D1BC
:106520007047C046FFFFFFFF0000000000000000B2
:10653000F0CF000028D00000B4CF0000D58C0000C0
:106540002DE9F843244C884606464FF0FF31603C65
:1065500004F124008146FFF7F7F900200CE0FF2941
:1065600009D022688A4204D904EB8101D1F89470E1
:106570000FB1002627E0401CB8F1000F03D018F837
:106580002010FE29EBD10025356075600127B5602C
:1065900011E0FF280ED004EB80000B787268C0F881
:1065A000946007FA03F0104370600A6809493046A6
:1065B00004F0F6FA6D1CB8F1000F04D008EB850169
:1065C0000878FE28E5D1484601F062FB3046BDE878
:1065D000F883C046007FC767D83F0020002A4AD012
:1065E0005FEA000C8B071CD1830722D1102A08D345
:1065F00070B4103A78C978C0103AFBD270BC10322F
:1066000038D0042A2CD3082A05D30C2A24BF08C961
:1066100008C008C908C008C908C092072AD0920F4C
:1066200022E00B780370491C401C521E22D08B07BD
:10663000F7D1C30714D18307D8D0121F12D308C9CA
:1066400003801B0C4380001D121FF8D20AE008C90A
:1066500003701B0A43701B0A83701B0AC370001D62
:10666000121FF4D2121D05D00B780370491C401C78
:10667000521EF9D160467047F8B50546880F3CD3E5
:106680001E4E30681E4F20F0020040F40070306053
:10669000032147F8041C41F23004BC600121396039
:1066A0005022BA6039604FF4CA63BB603960154844
:1066B00047F80C1C05F08AFC134FB81C0078012821
:1066C00003D005F1300001F0E3FA00240220346029
:1066D00003F0AAFF1120FEF793FF287C10B90E20CB
:1066E000FEF78EFF3846094A44721178847221B150
:1066F0001470CC30042105F0D7F9F8BD0000046017
:106700000C410440B160000028100020DC42002051
:106710002DE9F8432020EFF3118780F31188214CF5
:10672000A068012105F004FE4FF001094FF00008B8
:1067300065692168A4F81C906A1A2168A4F81E8073
:10674000461B401A904227D387F3118840464519CB
:10675000361A4846294600F0E3FDB042F7D9202119
:10676000EFF3118781F31188E18B012903D14046B2
:10677000294600F0D5FDB0F1FF3F06D0A169801B8E
:10678000814238BF081C411901E0A069291804F0B2
:1067900063FFA4F820902560A4F81C8087F311887B
:1067A000BDE8F88398190020B0B50446A768ADF19C
:1067B000280D5FBB0C2000F003FB071C1DD06846B2
:1067C00000212422082305F091FC002306976A4645
:1067D0006168ADF810301848059303F055FB386038
:1067E00070B90820ADF824000C25ADF8265009A892
:1067F00003F0BAFE384604F04FF96FF0030018E0DA
:10680000E06878602069B860A7600AE004F0AFFF34
:106810000546386804F0DEFD2069B860284605F0BA
:1068200073F93868616805F091FD386805F0AEF9D4
:1068300000200AB0B0BDC046E5BF0000FEB504466A
:1068400022481646089FC069618250F821201C48E2
:1068500000681D4690420DD01B4800680090002241
:106860000191184E029231888F23384604F048FF78
:106870000120FEBD084602F007FEA6606869606060
:10688000286AB0F1FF3F08BFFF2020740026E660B1
:10689000288B00280EBF301C0120E0600146A88C28
:1068A00010B141F00200E060204601F0A7FE03466F
:1068B000384604F017FF002814BFD81C301CFEBD5A
:1068C0004CCB0000DACB000038CB0000D4180020FD
:1068D000FCB590EA01064CBF4FF0004600260202CC
:1068E00043001B0E12BF42F000420020FCBDFF2BF4
:1068F00032D05FEA01245FEA41055FEA156512BF05
:1069000044F000440020FCBDFF2D25D05B1B00207F
:10691000202764085208A24240EB000028BF121B47
:106920007F1E04D0002A18BF5200F4D1B84010F0E6
:10693000004F04BF4000B3F1010380302CBF5B1C4B
:1069400040007F33DCBF0020FCBDFF2B04D2400A97
:1069500040EAC3503043FCBDFF27FF0556EA07005D
:10696000FCBD7047F8B584460D461C4606AF287A34
:106970003B88800928BF082038D22878FF270228C2
:1069800029D1686841780078002600EB012042F6A2
:106990000211401A17D04DF2EF61401A1CD0401E70
:1069A0000FD163B9E86811462246FFF717FEE86881
:1069B000C4F165023146201800F001FC0EE0072604
:1069C0000AE00A2608E0009360462946234601F0C3
:1069D00091F9064600E00126FF2F06D00448006822
:1069E00018B1016809B1012088473046F8BDC0469A
:1069F000A01200202DE9984305F05AFB1F4CDFF848
:106A00007880814604F1E000007850B94446A068DF
:106A10000146022088470746102002F0D5FB2FB31D
:106A200020E001F06FFB002820460FD114490968CF
:106A30003222B2FBF1F101B9012100F1300420460C
:106A400005F084FC204605F0A1F80FE04446002242
:106A5000A16880F8E020022088470746102002F055
:106A6000B3FB1FB1A068014603208847484605F0E4
:106A700027FCBDE89883C04644CA000014150020D6
:106A800060CB00002DE9F84304F094FC1F4CDFF8C4
:106A90007880814604F12C000568002603272846EB
:106AA000012105F047F898B1A868A9EB00008045DE
:106AB0000ED2A87B012805D9801E012807D9801E87
:106AC000012805D83046002103F06AFA00E0AF71D2
:106AD000761C1035502EE2DB266B00250127304650
