:20000000FC2C0020590C0000870C0000870A00005F0B00005F0B00005F0B000000000000D1
:200020000000000000000000000000005F0B00005F0B0000000000005F0B00005F0B000018
:200040005F0B00005F0B00005F0B00005F0B00005F0B00005F0B00005F0B00005F0B000050
:200060005F0B00005F0B00005F0B00005F0B00005F0B00005F0B00005F0B00005F0B000030
:200080005F0B00005F0B00005F0B00005F0B00005F0B00005F0B00005F0B00005F0B000010
:2000A0005F0B00005F0B00005F0B00005F0B00005F0B00005F0B00005F0B00005F0B0000F0
:0800C0005F0B00005F0B000064
:2000C800BCB50F1C05461AD00E4C1C3420688068002102464FF080409047002808BF4FF0C0
:2000E800FF300DD02068C068694602464FF0804090479DF800007F1E05F8010BE6D100205D
:20010800BCBDC046A80100107CB50C1C064612D00A4D1C3516F8011B2868406802464FF087
:20012800804090472868C068694602464FF080409047641EEED100207CBDC046A801001042
:20014800C5492DE9F04F0122ADF1140D0390A1F130000260BD480768002FFCD0C248DFF84B
:20016800F492C0224438029009F1080A0260DAF80000800806D2484600904068000C40F05F
:20018800F00002E07220CDF80090B14AB54C002782F84C024846A4F1D0060F60C76856F8CE
:2001A800040C0196C0F304601628A8BF203800EB2770401C162805DA10F10A0FB8BF6FF091
:2001C800090000E01520A54E00F01F00114640F4F850A1F864023068800828BF47F0406740
:2001E8009F49F80EA4F13C05BE0E80F0010000F00100086086F0010000F0010088602868BD
:20020800C0F38363C0F38F26B80C22D247F3072000280BD541420020760805D15B0806BF95
:2002280001231E1C4FF6FF76491EF5D1002810DD4FF6FF71760046F00106B14207D25B00CD
:2002480043F001030F2B92BF01260F230E1C401EF0D146EA034B0022164600F079FB08B911
:20026800012216463246CC4E3368002BFCD0D8480123A0F12E08C8F810B033600AB100F00A
:200288006DFB28682B68C0F38701002203F0030041EA00212C208BB240F2FF3100F0FAFA5D
:2002A800A4F110000068C0F30D0500F051FB4FF0000B08B94FF0010B3368002BFCD0C8F880
:2002C80014500120BBF1000F306001D000F046FBA4F11800D84D0068054000F07C400543D1
:2002E80000F036FB4FF0000B08B94FF0010B3368002BFCD0C8F80C500120BBF1000F306065
:2003080001D000F02BFBA4F11C00016801F47C0009040D0C054300F01BFB4FF0000B08B9E4
:200328004FF0010B3368002BFCD0C8F808500120BBF1000F306001D000F010FBA4F11400DF
:200348000068DAF80020C0F30351C0F30343520814D24A46121D1268150511EB257103D43F
:200368001029A8BF0F2100E00021120413EB227303D4102BA8BF0F2300E00023039D43EA80
:20038800011300F47F4100F0FF02222D41EA034142EA010224BF00F080400243154600F08C
:2003A800D7FA4FF0000908B94FF001093368002BFCD0C8F804500120B9F1000F306001D031
:2003C80000F0CCFA0398222832BF01202068C0F30070039BB04D222B4FEA400040F020000C
:2003E80085F8090126BF2068C0F340700120DFF8AC92202B40F0100085F8090138BF00213E
:2004080007D348460168C80C00F44070C1F3845101438A4600F09CFA4FF0000B08B94FF01E
:20042800010B3368002BFCD0C8F820A00120BBF1000F306001D000F091FA0398202815D313
:2004480048460068C0F3015011E0C046940222430A600840A83F00504010094000000940DD
:20046800000020438C13005044600C400020039B400040F06000222B85F80C0126BF206860
:20048800C0F3C0600020222B4FEAC00040F0800085F8010126BF2068C0F345500020202BCC
:2004A8004FEA800040F47C40A5F89C0138BF7C490BD34846006801038A15920501F47C1105
:2004C80000F00F00114341EA0031894600F040FA4FF0000A08B94FF0010A3368002BFCD086
:2004E800C8F800900120BAF1000F306001D000F035FA4FF48000019E2860B06D40F20F21E0
:200508006FF31F40814215D9304601680068C1F30366C0F3034006B1761E072805D006288A
:200528000EBF0720801C00F00F00634946EA001001F8080CC7F38140401E02D0401E30D022
:200548002CE00198D0F8D000810C27D24FF48041594E2960D6F80210420AC0F3033302F095
:20056800800221F08F010A4343EA02013346C6F80210D3F80120061266F303021E46C3F809
:200588000120316800F0E703324621F0E70143EA0100106005E0C04600800C404FF000407A
:2005A80028604FF40070286420683E4E404CC0F3C14040F0300085F8C800C7F381500028C0
:2005C8003CD0401E06D0401E30D002212FE0C04636A00C40012000F0B1F907460420394670
:2005E80000F074F9042000F0A9F98742FAD10098016832480A04120C40F8082CC1F3074737
:2006080040F8047C012303603768002FFCD000222746026007F11400006803684FF0602268
:20062800080E072198474FF4806028600321042000F04CF915E0C046FCFCFC000420012138
:2006480000F044F91D4843F2BD7140F8081C862740F8047C012303603768002FFCD000219A
:20066800016001981049114ED0F8B00047F6180700F03F0085F8CB0F23460F803068186856
:20068800C16802208847012740210298094D016005B02F60BDE8F08F40A00C4098130050CF
:2006A80000803F4084088C4370B00C402C200940A0010010940460420A60084044600C404A
:2006C800F8B5414C201D0368B3F1FF3F08BF002300F09AF8002876D13C4E20683468070FAF
:2006E80004F0FF04802C28BF002400F08DF84FF0FF3578B1401E07D0401E012802D9801EFE
:2007080013D014E08FB112E0381C5CD0801E0ED114340BE03846401E55D0801E53D0001FB7
:2007280051D0401E03D1163400E00A3465B2162D49DB27482749002501270560264E0F6004
:20074800264C376020680028FCD1274A161D2449244F306820F0030001433868C0080CD252
:20076800106810F0030F0AD041F003003060106800F003000328FAD101E041F001011B4871
:200788003160006820B11A4800681846FFF7D8FC184819490560194F0A686FF35B4247EA64
:2007A8000200086016490868C0F30130012806D10A681448104040F400320A600860206836
:2007C8000028FCD1F8BDFEE718130050A0100050840460425C600C40082204430C006842AE
:2007E80004000020B03F00500040034080012843000120438C2108404820034000003901E1
:2008080004000940FFFFFCFC104A1068C0F30F314BF69A10884207D111680B20B0EB117F6C
:2008280014BF0020042070472430884208BF01200BD04BF64130884208BF032005D021386D
:2008480088420CBF02204FF0FF30704718130050F8B50E4D0E460446102E32BFAD1E103E4B
:20086800240C00F075F8002700B9012708483B460768002FFCD02D88012101600BB100F0BC
:200888006DF82C403441A0B2F8BDC04636A00C4000800C40B0B50B4D934043EA014405EB1D
:2008A800400500F055F8002700B90127064A394610680028FCD02C600120106009B100F0A4
:2008C8004DF8B0BD00A20C4000800C4038B504460D46600805D30020ABB201210246FFF7FD
:2008E800D9FFA00805D3ABB2002002210122FFF7D1FFE00805D3ABB200200C210222FFF78B
:20090800C9FF38BD08B5044B1B689B699847034A0021116008BDC046A80100108404604213
:20092800044908B5096849698847034A0021116008BDC046A801001084046042042807BF34
:200948004FF0C0401D214FF080501C21FFF780BFEFF3108072B6704700207047EFF31080F7
:0809680062B6704700207047E1
:20097000002A4AD05FEA000C8B071CD1830722D1102A08D370B4103A78C978C0103AFBD2BF
:2009900070BC103238D0042A2CD3082A05D30C2A24BF08C908C008C908C008C908C092071D
:2009B0002AD0920F22E00B780370491C401C521E22D08B07F7D1C30714D18307D8D0121F05
:2009D00012D308C903801B0C4380001D121FF8D20AE008C903701B0A43701B0A83701B0A89
:2009F000C370001D121FF4D2121D05D00B780370491C401C521EF9D16046704700221346D3
:200A10000A46194671B510F0030F0BD0002A82BF00F8011BB2F1010210F0030FF6D1002ADC
:200A300008BF71BD11F0FF0141EA0121042A18D341EA0141082A0FD30E46102A08D30C460E
:200A50000D46B2F10F0312F00F0272C0103BFCD812F0080F18BF42C012F0040F18BF40F804
:200A7000041B12F0020F18BF20F8021B12F0010F18BF017071BDFEE71448B0B5B0F1FF3F1B
:200A900001D000F08FF8124D1248A84210D01248124CA0420CD0001BC71054F8040B10F8B0
:200AB000011B55F8212054F8041B90477F1EF4D100F0E4F80A4D0B4CA54205D002E054F874
:200AD000040B8047A542FAD1B0BDC046FFFFFFFFD40C0000E00C0000F80C0000E80C00004B
:200AF0000000000000000000F8B540F6FF7C10F8014B00231DE0122F00F1010008D110F800
:200B1000015B2E0A24BF10F8016B66F3DF15EF198A1A521E12F8015B7F1E01F8015BF9D14F
:200B300003E010F8012B01F8012B5B1C6408082BDDDA6208F5D210F8012B057805F00F07AF
:200B50001201FF1C42EA25129445D4D1F8BDFEE700BF704708B5FFF7FBFFFEE738B50D4C8E
:200B70000546A06820B10C48B0F1FF3F00D080470A4800688047606810B1014628468847E9
:200B9000206800B18047064800688047FFF7E2FF38BDC04610100020FFFFFFFF2410002066
:200BB00028100020F8B506460F4D104F7388002417E0A00000EBC400321851689068D2687F
:200BD00052B9AF420BD00A7855F822200346491C08461946904701E0FFF7C2FE7388641CD9
:200BF000A4B2A342E5DCF8BDD40C0000E00C00000C4885460C4885446F4607208743BD4683
:200C10000A486F46076000F038F800F032F8002801D0FFF731FF00F00BF80120FFF79EFF56
:200C3000FEE7C046FC2B0020000100002C1000200449B1F1FF3F07BF0020011C0868091D4F
:200C50001EF0F1BAFFFFFFFF08B5FFF735FDFFF7CFBFFFF710FF08BDD0F80320C31D084683
:1E0C70001946FFF77DBED0F8032008460021FFF7C9BE01207047FEE77047704770471D
:200C9000050690FFFF00000000002000C215000000001000C214000000000800EF120000C5
:100CB00000000400EF110000000000000000000030
:200CC00000650000040100850100890C00330001B1FFF000F90A0000690C0000770C0000C0
:180CE0000200000010100000C00C000010100020E00C000000000020C2
:020000040001F9
:18F000004FF0200383F3118872B6024B9D4600F0D5B8C046F82C002068
:20F018002DE9FE4F00F08EF9B0F1FF3F00F084804FF4F02741480097861F009810213246CB
:20F0380000F050F930884FF6FF7181426BD0002869D07188814266D1F07BFF2863D1B07BCF
:20F05800012806D002285ED1344801884FF4003002E0324801880020B2898900920000F07D
:20F078005FF8B08906F1100A4FF48052841221035046E1F771FCF188A146254600238812A5
:20F09800019309EB00028900D7B2A1EB00311FFA81FB4F4524DB781B00F10108A9450CBF91
:20F0B80004240024AF42D8BFA3450ADD1AF80410019800F09DF8641CA4B2B4F5805F019062
:20F0D800F0DBAF4207D0290350464FF4805201F58051E1F741FC6D1CB8F10108EDB2DDD14A
:20F0F8000198002100F084F8002100F081F831888842A4D180203788F0731021324600984D
:20F11800778000F097F8009800F58050B0F5F22F009082D900F00FF9BDE8FE8F0600002003
:20F138002DE9FE4315464A19074615F0030F01F103014FEA1534A2F101024FEA91064FEA27
:20F1580012392CD1A1452AD3B9F11E0F27D8A14514BF4FF480681FFA86F8A0B20003E1F7EE
:20F17800D7FBE0B902E03F1D2D1D761E4046411E1FFA81F820B9641CA145E8D2BDE8FE835A
:20F19800384604216A4600F09DF840B9009829460422019001A8E1F7ADFB0028E3D0BDE81F
:20F1B800FE83000070B516460D46044600F0BAF8034632462946B3F1FF3F204613D0FFF7A5
:20F1D800AFFF00F0B8F8084A0421012011604FF08642C2F804010549C2F800010020086069
:20F1F800E1F7B4FBFEE770BD1021084000000840D0B5082241F22103C40B0027E60318BFE1
:20F218000127400031F07F0680B218BF40F0010007B158404900521EC9B2EDD1D0BD08B502
:20F23800FFF7EEFE41F210004168D0F800D0084708BD00002DE9F84FDFF880B0DFF880A0E1
:20F258004FF4804916460F46054602E0A619C8F80090002F08BF00202ED000F079F948BB24
:20F2780000F0AAF930BB05F0FF04ABF11008C4F58074BC4288BF3C1C2B0C8DF803500220D1
:20F298008DF801302A0A8DF8000004218DF802200AF110036846C3F80090E0F72DFF3F1BB7
:20F2B800651928B930462146E0F726FF0028CDD0C8F800904FF0FF30BDE8F88FA02002404D
:20F2D80090200240F8B515460E46044600F040F92146F8B9080A03238DF803100A0C8DF8D2
:20F2F80002000F4C8DF800304FF480478DF801200421103468462760E0F7FEFE40B928465C
:20F318003146E0F7D5FE44F8107C18B90020F8BD024807604FF0FF30F8BDC046902002407A
:20F338009020024008B500F009F8002814BF00204FF0FF3008BD00F08DB80000F0B53F4C62
:20F3580060684069ADF1140D0146062088476068406B0146062088470128F8D16068C06997
:20F3780001464FF4A06088470126354F354D3E6028688008FCD36068C06901464FF48070FF
:20F3980088473E6028688008FCD34FF0804505F114010868032720F00F0008602A4A2F62CC
:20F3B80020692A4900680823074600922846002201931346B8472068112113224FF0FF33EB
:20F3D800406C0091074612212846B847686840F0020068602069006902A9024628469047F7
:20F3F8000028F7D12068C06B01460E2088474FF48045AB20164F8DF80C0031463D6003A886
:20F418003D61E0F779FE002400B934463D604CB1C8210846411E002889B2FAD100F098F8B3
:20F4380000B1002414B100F05BF80446012C01D000F010F8204605B0F0BDC046B401001004
:20F45800282008602820084000093D00006CDC0290200240F8B5214CB9204FF480450121B5
:20F478008DF80000103468462560E0F745FE0A2644F8105C00F034F8002818BFB6F10106BD
:20F49800F8D14FF08054D4F8B801006A01464FF480708847012704F5DC740E4E0E4D376081
:20F4B80028688008FCD32068006A01464FF4A0608847376028688008FCD3206880690146CC
:20F4D800062088472068406B0146062088470228F8D1F8BD282008602820084090200240D6
:20F4F800F8B5174D194CD5F802004FF4804704210090103427606846E0F7FEFDE0B9114EAD
:20F5180002213046E0F7D4FD44F8107CB0B9314605F1080007683FB102790B789A4209D1D9
:20F5380042794B789A4205D107684860002007B10120F8BD0830EDE7034807600020F8BD2B
:20F55800900C00001C1000209020024090200240FEB51648164C4FF4804504F110060078C9
:20F578003560144F8DF8080007F11C000068006901A902464FF0804090470028F4D12560CF
:20F59800356002A80121E0F7B7FD68460121E0F78FFD2560002818BF6FF0010004D19DF8E6
:20F5B80000004008ECD20020FEBDC046900C000090200240A801001038B50B480B4C4FF42B
:20F5D8008045401C10340078256001218DF800006846E0F791FD002844F8105C14BF6FF0F5
:10F5F8000200002038BDC046900C00009020024058
:20FFA80000008001100082FFFDFF58003AFFBFF3FFFFFFFFFFFFFFFFFFFFFFFFFFFFFFFFF8
:20FFC800FFFFFFFFFFFFFFFFFFFFFFFFFFFFFFFFFFFFFF00FFFFFFFF00FFFFFFC500C5FFAA
:18FFE800000000FF00000000FFFFFFFFFFFFFFFFFFFFFFFFFFFFFFFF12
:00000001FF
