:040000050000D00126
:020000040000FA
:1000000068430020E17E000001CA011001CA01100E
:1000100001CA011001CA011001CA011001CA011070
:1000200001CA011001CA011001CA011001CA011060
:1000300001CA011001CA01103FCA01102149086814
:10004000C2430A600A680242FAD170471E490A6830
:10005000002AFCD1CA610860C8690028FCD00020D1
:10006000C861486870471948016821F0020141F4ED
:100070000071016003211648816041F23001416145
:100080000121C160502141610121C1604FF4CA6169
:1000900041610121C160016070470E4802680A6039
:1000A00082684A60C2688A60406B4001400940F043
:1000B0008050C8607047704701461022064802F021
:1000C000A7BD0000101004400010044000000460B0
:1000D000004104404C13005018000021002100E0B2
:0E00E000491CC9B20A5C002AFAD108467047D2
:100100003C0000000000000000000000340100007E
:1001100000000000000000000100000000000000DE
:1001200000000000000000000000000001000000CE
:100130000000000008000000000000003400000083
:100140000000000000000000680100000000000046
:10015000000000000100000000000000010000009D
:100160000000000000000000080000000000000087
:1001700030000000000000000000000098010000B6
:10018000040000000000000001000000FFFFFFFF6E
:10019000FF00000001000000080000000000000057
:1001A0002C0000000000000000000000C40100005E
:1001B000040000000000000001000000FFFFFFFF3E
:1001C000FFFFFFFF080000000000000034050000F2
:1001D000E401000099A1011095A70110A5C201102A
:1001E00009B2011045B80110000000000000000035
:1001F0002F000000280000000000000000000000A8
:10020000140200000000000000000000FFFFFFFFDC
:1002100000000000080000000000000030050000A1
:100220003002000069C201106DC101101FC201102F
:1002300095BA011000000000000000002D00000031
:10024000300500005402000075C20110A9B601106B
:100250009DBF011049B60110000000000000000021
:100260002E0000002400000000000000000000003C
:1002700080020000000000000000000000000000FC
:100280000800000000000000240000000000000042
:1002900000000000A40200000000000000000000B8
:1002A0000000000008000000000000002400000022
:1002B0000000000000000000C80200000000000074
:1002C0000100000000000000080000000000000025
:1002D00000000000B806002004000000000000003C
:1002E000000000002000000070010000300000004D
:1002F0001C020000D80600200400000000000000DE
:10030000000000000C000000300400001800000095
:1003100040020000E0060020040000000000000091
:100320000000000024000000480400001800000045
:100330000000000020070020040000000000000072
:100340000000000010000000A00100002C000000D0
:10035000CC0100002807002004000000000000007D
:1003600000000000200000006402000024000000E3
:10037000FFFFFFFF4807002004000000000000000E
:100380000000000028000000880200002400000097
:10039000FFFFFFFF700700200400000000000000C6
:1003A00000000000580000003C0100003400000084
:1003B000FFFFFFFF7807002004000000000000009E
:1003C00000000000100000006004000018000000A1
:1003D000FFFFFFFF80070020040000000000000076
:1003E000000000001C000000AC020000240000001F
:1003F000FFFFFFFF8807002004000000000000004E
:100400000000000038000000F40100002800000097
:10041000FFFFFFFFF00700200400000000000000C5
:100420000000000054000000000100003C0000003B
:100430001800000000000000000000004004000060
:10044000080000000000000018000000000000008C
:100450000000000058040000080000000000000038
:100460001800000000000000000000007004000000
:10047000080000000000000001000000287F0000CC
:01048000007B
:100484000100000000000C0000000D00320000001C
:1004940001000000C006002000020000000000006F
:1004A40001CA011000000000000000000800000064
:1004B40000002100E80600200100000030070020B1
:1004C4000800000000000000000000000000000020
:1004D4000000000000000000010000009007002060
:1004E4000600000001000000F807002000000000E2
:0C04F400000000000002000000000000FA
:0F0502002900010025002D002E002F000100010F
:10051200FF7F040000000C7F0000000000000000CC
:100522000000000001000000030087C4011038052C
:10053200000038050000000000009000000090005C
:1005420000000000000030070020C134000020003D
:100552000000F87E0000E47C00000DC3011057206B
:1005620000005920000099C801109BC8011000002A
:100572000000800400004C7C0000647C0000347C9D
:0B05820000000800090001000000015B
:10058E00004000000000000000000000000000001D
:10059E000000471C0000671C00006F1B0000911C30
:1005AE000000B51B00008B1B0000E71B0000BD1CEC
:1005BE000000393400003D360000413600000800CE
:1005CE000000240000001800000028000000200099
:1005DE0000003C0000000C00000034000000DFF8BA
:1005EE0000F049C10110DFF800F019C20110DFF868
:1005FE0000F041AC0110DFF800F0CDA00110DFF8E3
:10060E0000F085C10110DFF800F0C1C20110DFF863
:10061E0000F0E3BF0110DFF800F0C1C10110DFF8F8
:10062E0000F009B70110DFF800F03DC10110DFF84E
:10063E0000F029AF0110DFF800F0CDC10110DFF896
:10064E0000F085B00110DFF800F0DDB20110DFF828
:10065E0000F079B50110DFF800F0E1C20110DFF80B
:10066E0000F0B9C20110DFF800F0E9C20110DFF8A6
:10067E0000F061C20110DFF800F0D5C00110DFF804
:10068E0000F0E1B5011020B1082328220021FFF768
:10069E00D2BF704720B1082330220021FFF7C3BF1D
:1006AE00704738B500F0DDFF25680DB1296821606F
:1006BE00FFF799FF284632BD70B504460D462668F1
:1006CE00002028601EB9FFF78AFF25600DE0FFF7B6
:1006DE0086FF00E0366831680029FBD1AE4203D1B7
:1006EE00FFF781FF002070BD3560FFF77CFF012012
:1006FE0070BDDFF8FC1C10B100200870202088703F
:10070E007047F8B50546FFF76AFFDFF8E07B044651
:10071E00387EE8B1401E3876C0B2C8B9082107F15C
:10072E00500001F0DBF99DB1B86B683001F0ADF906
:10073E00B86BDFF8341DC0680968281A07F1F00697
:10074E00B0FBF1F13046FFF75EFF3046FFF75FFF7B
:10075E002046BDE8F240FFF746BF38B50446207B81
:10076E0000F00F00022802BFDFF8845B287D00280E
:10077E0015D100F0E6FCA1688908A1EB90006FF09E
:10078E00704188420BDA10F1805FBCBFDFF8E01CCD
:10079E000818A96BC96801F57A71814200DB002047
:1007AE0032BD38B5DFF8500CDFF8502C0168DFF899
:1007BE003C5B02EA0104E1430160A10606D54068F4
:1007CE00800603D54FF4005100F060FB14F4602F47
:1007DE000DD0DFF89C0CC16904F460221143C16195
:1007EE0005F1A000BDE83440002101F077B931BD1C
:1007FE00F8B5FFF7F4FEDFF8787C3C1D0646A069DD
:10080E0010F4602F25D0C5012D0EE80748BF002536
:10081E0006D4A80748BF012502D4680748BF0225A1
:10082E00681D40B200F0A5FFA069012105F111027B
:10083E0091408843A06100F06CFD07EB850086684F
:10084E00300008D0206800224FF00063691DB047C9
:10085E0001E000F05EFDA06920B10021DFF8180C68
:10086E0001F03CF9607F80070DD52569280006D080
:10087E00206800224FF000436FF00101A847607F0F
:10088E0000F0FD006077F1BD70B5FFF7D0FBDFF82B
:10089E005C5ADFF8584DAB6A024690071DD4D3E977
:1008AE000601104007D0EB62196A084318624FF434
:1008BE00804100F0EBFAA86A002849D16E6A002E3A
:1008CE0046D0F068A96B884224D005F15000BDE8EF
:1008DE0070404FF4805101F001B90BB9A86AEAE7F4
:1008EE000020A862D3E906011E6A024042F002020D
:1008FE0032431A62626982436261E26822EA01004F
:10090E00E060194605F13000FFF7D6FE022100F037
:10091E00BDFAE3E7B068FFF720FFE86418B1E86CB2
:10092E00BDE87040EDE6D6E90601626902436261F8
:10093E00E26841EA0200E0600020E061B0682060F9
:10094E00E0690028FCD005F12400FFF7AAFEAE6294
:10095E0070BD0020D5E6F8B506461446B76D1D46A7
:10096E0007B1B847A00706D4D6E9140120402940A4
:10097E0008BF002807D0C6E9184506F13000BDE8CB
:10098E00F240FFF734BEF1BD80B501F09AF8DFF802
:10099E005C290146906BD26BBDE80840104710B53C
:1009AE00DFF84C4901F063FC2064042104F150008F
:1009BE00BDE8104001F092B880B5FFF738FBDFF8C4
:1009CE00301C084207D0BDE804404FF00051DFF85C
:1009DE004C0D01F083B801BD10B504294AD1DFF8E2
:1009EE000C49606AA16B08B1C16805E0DFF86C0CB8
:1009FE00427FD20748BF0168A1630846DFF8601C3A
:100A0E00426812780A60096840680078814200D016
:100A1E00FEE7022001F06DFD112001F07FFD0120A7
:100A2E006077A06BE17E007C084204BF0E2001F0CF
:100A3E0075FDA06BDFF8B81B40688268002A04BF02
:100A4E00C068002804D00020C861DFF82C0C0860B4
:100A5E0040F2FF70DFF8282C106000208861DFF86C
:100A6E00900B48610FF21100E0631920BDE81040B1
:100A7E00FFF7E9BD10BD10B5044688002CD560689F
:100A8E004068010018BF804760688168002904BF74
:100A9E00C068002814D0DFF8340C01680029FAD0A1
:100AAE000021016060688068010018BF804760689F
:100ABE00C068010018BF8047DFF8180CFFF7BFFAB7
:100ACE00DFF82C080FF21501C1634FF00051BDE89D
:100ADE001040503001F002B810BDF0B50446880049
:100AEE0085B074D5DFF8085BDFF804680020E86194
:100AFE00DFF8180D2860707E10B10120FFF7F9FDA8
:100B0E00002171800FF20910317BF06301F0F001CA
:100B1E00317340F60A00002171603080717B01F064
:100B2E00F00141F0010171730021A768798000E0A6
:100B3E000F46796800291CBF0A888242F8D1787B5B
:100B4E007E6000F0F000787340F60301706A8068F2
:100B5E00008888421CBF40F60401884202D1002062
:100B6E00306415E0208B98B104F11800002141800B
:100B7E004160017B01F0F0010173417B01F0F00156
:100B8E0041F0010141737060707B00F0F0007073F2
:100B9E006946A068FFF77AFA6846FFF786FAA068FA
:100BAE00FFF782FAE8690028FCD00020E8610120F6
:100BBE0001F073FF012808D0787B00F0F00040F0C0
:100BCE00010078730FF20D00F063A068286005B085
:100BDE00F0BD012010B501F060FF0128DFF81047CD
:100BEE0008D10FF22900E063DFF8040A0460002048
:100BFE00206410BDDFF8741809683220F03400F05C
:100C0E0083FB2046BDE81040FFF701BD0000FEB596
:100C1E0006460C466004DFF8D45617D5FFF7DFFC06
:100C2E00EE6A376AFFF7DFFCB8070CD45EB1306AA4
:100C3E00B8433062706830B1B6F91010F06876685B
:100C4E003A460023B04724F480441AE1A00770D539
:100C5E002F6B002F65D03E1D2020716801E0496882
:100C6E00401E79B1C0B268B10A8840F603039A42B9
:100C7E001CBF40F604039A42F1D1B0681822183016
:100C8E0001F0CFFFF0690021F1613168D1B140F080
:100C9E00020297F824000023012807D0022809D069
:100CAE00042804BF00224FF0805306E000224FF0CC
:100CBE00005302E000224FF08043B6F90C10B068EA
:100CCE003768B847E88E401C0005000DE88605F130
:100CDE003000FFF7E6FCB5F93610B06800F18C0273
:100CEE00B2F90030994204BF297D002919D19178BB
:100CFE0009B9016821B900209070FFF702FD10E0DC
:100D0E00AA6B126812F1010F0BD0DFF85C27126884
:100D1E00B1FBF2F16830FFF776FCB0686830FFF790
:100D2E0076FC286B002824F0020401D044F0020463
:100D3E00A7E0A00005F184073FD50022DFF8EC1BE9
:100D4E00384600F0DEFEF06840F6C411884218D135
:100D5E00042001F0A2FE00281CBF286C002810D031
:100D6E00686C70B901F083FA6864696C286C88420B
:100D7E0028BF491E081A000BF060F06800F58D7050
:100D8E00F060287F60B10220ADF800006846FFF7E2
:100D9E0056F9BDF80800DFF8D8160883002028772A
:100DAE000120687524F00054287E401C287600200F
:100DBE006877192000F0A8FE63E095F8200024F073
:100DCE00080628B1200703D5002085F8200045E04D
:100DDE00200745D5002068750120A877687E10B1E0
:100DEE000020FFF786FC0FF2AD00DFF8401BE86332
:100DFE000022384600F085FE297FE87EDFF88478F1
:100E0E0081F00101084240F6090402D10120E87682
:100E1E000FE0E86CF0B101F02AFA296CAA6C401AC6
:100E2E0002EB1030A864E96CB0EBC11F12D30020A6
:100E3E00A8642C80687B00F0F00040F0010068731D
:100E4E0000206880287B00F0F00028730020686086
:100E5E003D6003E04FF0005100F018F8344610E00A
:100E6E00A0040ED5AE6A002E1CBF7068002806D0F6
:100E7E00B6F91010F068766800222023B04724F4EB
:100E8E00005414B1214600F001F8F7BD05F15000F1
:100E9E0000F024BE000038B50546880028D5FFF7BF
:100EAE00DBF8DFF84844DFF8880AE063A07D18B964
:100EBE0005F13000FFF79BFBDFF8C4170020086038
:100ECE00022001F0ACFA112001F0BDFA287C10B915
:100EDE000E2001F0B8FA0020E083A07E40B1002081
:100EEE00A076042104F15000BDE8344000F0F6BDB8
:100EFE0031BD30B58DB001F016FADFF8380ADFF8E3
:100F0E00385A0168DFF8E84341F00201016001A898
:100F1E00FFF7B9FBA878DFF8241A0790002301AA7F
:100F2E0004F15000FFF78BFB01A8FFF7B3FB002085
:100F3E00ADF81C0001AB2878DFF8F42909901921CF
:100F4E000020009004F18400FFF771FB01A8FFF769
:100F5E009AFBE878DFF8EC190790002301AA04F158
:100F6E00A000FFF76CFB01A8FFF794FB0120ADF882
:100F7E001C0001AB6878DFF8CC2909901A210020FB
:100F8E00009004F1D400FFF752FB00230022DFF89B
:100F9E00B81904F1F000FFF75AFBDFF89409E0638B
:100FAE0001F075FE012818BF002060764FF6FF7124
:100FBE00DFF89C0901800121217700214172E17641
:100FCE006177E18384F820100DB030BD2DE9F0413A
:100FDE00C74E8CB00446B07D0F4690461D4618B9DC
:100FEE00FFF787FF0120B075002F1CBF6760B8F1B7
:100FFE00000F3FD0C4F80880FFF7F1FAF17DB9BBBE
:10100E000121F175FFF7EFFA2DB90FF68C112CC9EE
:10101E0068462CC06D462868206078216868E060BC
:10102E00287A207404F1180001F099FE0823242276
:10103E00002103A8FFF7EFFA01208DF8240003AA80
:10104E00002104F13000FFF7EAFA082324220021E0
:10105E0003A8FFF7D4FA099403AB0022DFF8F418C3
:10106E0004F16800FFF7F3FA20460CB0BDE8F081FA
:10107E00FFF7B9FA0020F8E738B5DFF8D85804467C
:10108E00A87D00285CD0B5F93400B5F93610884239
:10109E0007D0B4F98C1002224FF0E043204600F046
:1010AE003BF9FFF79CFAE97D002938D0491EE97516
:1010BE00C9B2A1BBFFF797FA0020A875687D40B1B1
:1010CE000020FFF71EFB4FF0FF3104F13000FFF759
:1010DE0092FA04F13000FFF7BEFA04F16800FFF750
:1010EE00BEFA05F15000FFF7BEFA05F18400FFF7D6
:1010FE00BEFA05F1A000FFF7B6FA05F1D400FFF72E
:10110E00B6FA05F1F000FFF7AAFA0020A8632875D9
:10111E00207CA8B1BDE832400E2001F094B9FFF753
:10112E0062FAA86BA04204BF0020A86304F130004D
:10113E00FFF791FA04F16800BDE83240FFF78FBA6D
:10114E0031BDD0B5FFF74BFA694C617D31B1DFF897
:10115E0008180C68FFF747FA2046D0BDFFF743FA90
:10116E0001F085F810F50030DFF8F42741F10001A9
:10117E00A2FB006702FB017721690020321847EBC2
:10118E0001031846D0BD2DE9F84F04460E4692468F
:10119E009B46FFF724FA554D0246B5F93400B5F9D2
:1011AE003610401A0005000D08286FF0010944DAC8
:1011BE00A88E401C0005000DA886B5F93400ADF8C8
:1011CE0000001046FFF70FFABDF90000DFF8941784
:1011DE00821000EB5272D210A0EBC200282202FB4A
:1011EE00001804F1680000F050FC08F104072021FB
:1011FE007E6087F80EA0C7F800B008F11806BDF89B
:10120E000000B881BC60DDE90A23DFF85807104002
:10121E001940C6E900010020307304F18C06686A9B
:10122E0040F6FF7490B1FFF7DAF9074600F067F861
:10123E0038B900F05EF8384600E01046FFF7D3F9F3
:10124E0009E0BDF800003080384644E000F057F861
:10125E0018B900F04EF8484647E0BDF8000030805F
:10126E00FFF7BDF90021B1706A7DE97F114208D008
:10127E00012185F820100021E9772977297E491C64
:10128E002976FFF7B0F9A86A68BB687D18B11920F6
:10129E0000F03AFC27E0687F28BBFFF7A0F906466E
:1012AE00A87F20B100F035F80120A8761BE0786801
:1012BE00FFF753FAE86488B1E86CA96BC968401A65
:1012CE00DFF8A816096805F1F00400F01DF82046B5
:1012DE00FFF79DF93046FFF786F904E000F019F8A4
:1012EE000421FFF7D3FDBDF90000BDE8F28FA81D64
:1012FE000020A88E20180005000DA88670474146D4
:10130E0005F12400FFF7D8B9B0FBF1F12046FFF745
:10131E007AB93046FFF767B9F8B506460F46144658
:10132E001D46FFF7A8F9DFF82C26B2F93430DB1B87
:10133E00B2F936301FD5BB42BEBFB2F93430B2F966
:10134E00362093421FDABB1007EB5373DB10A7EB6B
:10135E00C301DFF80C26282303FB0127072297F889
:10136E002410114214D0FFF78AF9072197F82400B0
:10137E000842FBD109E0BB42A2BFB2F93430B2F948
:10138E0036209342DFDBFFF77AF902200021F4BD0D
:10139E007A68DFF8D8158A4202D07A68B265796029
:1013AE00C6E91445FFF76BF94FF0FF3106F1300037
:1013BE00FFF721F9D6E91801F4BDDCB50446180093
:1013CE0008BFDFF8A835DDE90667CDE900672046DE
:1013DE00FFF7D9FE002803D500204FF00041DCBDF9
:1013EE000146204602B0BDE8D04002224FF0E04355
:1013FE0092E7006208400810044020000E0070B50D
:10140E0000F02FF90546DFF84C650120307704F126
:10141E008C01B6F93400B1F90020801A0CD5B6F95A
:10142E003600B1F900209042BEBFB6F93400B6F9CD
:10143E003620904210DB05E0B1F90000B6F93620F7
:10144E00904209D104F1680000F01FFB0020FFF765
:10145E0058F90120F07703E00120887000203075E4
:10146E002846BDE87040FFF7BEB8207F0000F6FFAB
:10147E00FF1F841D0020481E002001E042F00202E2
:10148E002DE9F047DFF8D04482B0606A00908A46BA
:10149E00002603271546FFF7A2F81AF1010F05F0F3
:1014AE00010881460CD1A06ADFF8C814002819BFC4
:1014BE00A06AB0F910A0E08E00F1010A81F8216057
:1014CE000FFA8AF2911002EB5171C910A2EBC10111
:1014DE00DFF89004282202FB010AA06A824505F07B
:1014EE00020527D115B1606A0090666201219AF853
:1014FE00240001FA08F108438AF82400FFF7BBF82C
:10150E000646B8F1000F14BFDFF86C04DFF86C0468
:10151E00FEF795FD00F0BFF925B906E000F06CF876
:10152E0000F074F800980028F8D13046FFF7A7F8BD
:10153E00832759E00098504504F1F0081BD140462E
:10154E0000F0A3FA002D11BF6662606A0068606247
:10155E0000F0A1F900F04FF800F058F800980028BC
:10156E0018BF002DF6D183272FE00126832700F028
:10157E0042F800F04BF8009810B30068504519D1AE
:10158E00404600F082FA00980068009A002111602F
:10159E00009000F080F9002DE7D1009890F824001B
:1015AE00009940F0040081F82400832700F02BF806
:1015BE0000F02CF8002EDAD1009800680090DAE7DF
:1015CE00832F1CBF4846FFF70EF8607F10B100F066
:1015DE0022F809E0DFF8A803E06300F01CF8607D54
:1015EE0010B9DFF84C03E0633846BDE8F68700100B
:1015FE00044002000040009890F82400009940F04A
:10160E00040081F824006846FFF74BB8014604F148
:10161E003000FFF751B8022104F1500000F05EBA1D
:10162E0010B50FF274311CC91CC010BD38B500F0D6
:10163E0018F80546C848407D58B12046FEF7FFFC15
:10164E00044600F048F8E0B201280CBF81200220C9
:10165E0032BD00F040F8012032BD881D0020D0219F
:10166E0008400446FEF7BBBF0A46BA49896B88425A
:10167E0001D0032070470DE0000051000706000066
:10168E000460001004400A46B349896B884201D0B9
:10169E000320704700211046C8E770B5AE498A6B2B
:1016AE0090426FF07F0410D1487D70B1FEF797FF26
:1016BE000546B348FEF7C3FC064600F00CF8F0B240
:1016CE00012802D13002001670BD204670BD1C10DC
:1016DE000440010007062846FEF785BF70B50E468A
:1016EE001546FEF77CFF83249B491EB1022E0ED0B9
:1016FE0005D30FE08A6A42B1896A098A03E0097F3D
:10170E0019B99B49098B298005E0802403E0497DA6
:10171E00297000E00324FEF766FF204670BDF81D19
:10172E0000208A1001EB5272D210A1EBC2018C483C
:10173E00282202FB01008068704710B58649097F98
:10174E00A1B9028B012303FA01F422420AD0A2436B
:10175E00028301F10C048B480268A3401A43026015
:10176E00084610BD491C49B20F29ECDB6FF0010091
:10177E0010BD38B5FFF775FF75494A7A520702D585
:10178E000B7A9C4210D001220B8802FA04F52B43EF
:10179E000B800C347C490B68A24023EA02020A60DB
:1017AE00096809B96C4A1175BDE83240FEF71BBFD6
:1017BE002DE9F041684D0E46A96B8842984618BF38
:1017CE00032020D10A2131807260694C606026604E
:1017DE002046FFF7B2FF070014D4B7700021304641
:1017EE00FFF724FF022818BF012805D13846FFF75E
:1017FE00C0FF6FF0010705E004EB870040F80C8C8A
:10180E00012028753846BDE8F08101010E042DE94E
:10181E00F047504E8046B06B80450D46924618BF3D
:10182E00032036D1534F3846FFF787FF0446002C6E
:10183E002ED4FEF7D4FE8146200200F470600543DC
:10184E004FF6FC7028405049084338603868FEF760
:10185E00F6FBC0B2012814D1E80409D500F05BF8FC
:10186E0087F8204097F8210040F0040087F8210007
:10187E0007EB8400C7F8048040F80CAC01203075EB
:10188E0004E02046FFF775FF6FF0010400F003F847
:10189E002046BDE8F0874846FEF7A5BE0A462D490C
:1018AE00896B884201D0032070474FF6FC701040C0
:1018BE00374A00211043B9E670B50C462649896BAC
:1018CE00884201D0032070BD324841784A0707D5BF
:1018DE0003789C4204D101F0FB014170002101709C
:1018EE00FEF77DFE05462046FFF743FF4FF6FC70E0
:1018FE0000EA042040F0816040F00100FEF79FFBFB
:10190E00064600F008F8FFF7E6FEF0B201280CBF1D
:10191E008120022070BD1F480122016804F10C03D2
:10192E009A40914301607047000097080000C70974
:10193E000000E709000000200940D07A0000970956
:10194E000000FF070000B1070000AD0900009C1D5C
:10195E00002061090000A81D002004300440000989
:10196E003D0090090020F1EFFF9F207F00006509E8
:10197E000000841D002001000204010001041D0C62
:10198E000000010003040C100440010003060100D6
:10199E000406A41D002008100440FFFFFFFFC40929
:1019AE00000001000000DFF800F021B30110DFF8A5
:1019BE0000F095C00110DFF800F00DA80110DFF85F
:1019CE0000F0BDBE0110DFF8F400007D70476DE041
:1019DE0038B5FFF7FCFFDFF8F4500446A868002185
:1019EE00FFF7E5FF6969081AA969814238BF00202F
:1019FE0084F3118832BD2DE9F041FFF7E8FFDFF8DF
:101A0E00CC500446A8680121FFF7D1FF0121A9831C
:101A1E000021E9836E6929682A68871B801A711A6A
:101A2E00884204D20020A88384F311882BE084F32B
:101A3E001188002406E0A61931460120FFF7BBFFEE
:101A4E003F1B0446A742F6D2FFF7C1FF8046E88B44
:101A5E00012804D131460020FFF7ADFF0446A969E5
:101A6E0014F1010F08BF084603D0E01B814238BFB6
:101A7E0008468119FFF7A3FF012028840020A883C0
:101A8E002E6088F31188BDE8F08100218182DFF895
:101A9E003810C0684969884204D1DFF85C000068DC
:101AAE00FEF7B5BD7047808A70477047DFF8481063
:101ABE000968EFF3118081F311887047F6E7A401EE
:101ACE000020DFF838008068704778010020780128
:101ADE000020616280F311882046704738B50446B5
:101AEE000D46FFF7EBFF616A2943FFF7F2FFBDE8F2
:101AFE003240FFF758BF1C7F0000247F0000C80152
:101B0E000020816042607047102804D3DFF80C106B
:101B1E001038C1F8000F7047000000E000E001F03F
:101B2E0039B9FFF7C3BFDFF89411C20744BF0122D2
:101B3E000A60820744BF4FF480720A60400744BFB8
:101B4E004FF4803008607047DFF87821C30748BF34
:101B5E001160830748BF5160400748BF91607047CE
:101B6E0010B504460020D4E90A2347F6906101F02F
:101B7E009CFB012928BF4FF0FF3010BD10B50C465D
:101B8E0000F06BFB011D201AB0F1004F05D8081BA9
:101B9E00B0F1004F38BF8C4200D20C462146BDE852
:101BAE0010400120D0E72DE9F04180460A46D8E9E1
:101BBE000A01D8E90C45A0FB026701FB0277A619C2
:101BCE006F41340C002244EA07414046FFF7D6FF2E
:101BDE00C8E90E67BDE8F081F8B50646FFF7A1FF2C
:101BEE000446DFF8E050DFF8E0700120E861FFF70F
:101BFE009AFFF96A096A142088473069B0F5802F78
:101C0E0034BF0421010C0120FFF79EFF3A681268D1
:101C1E00232100209047DFF8B41001200860DFF880
:101C2E00B400016821F4E02141F48031016001200B
:101C3E00286084F31188F1BD00F019BB10B5DFF8F0
:101C4E009000446800F006F86069A169BDE8104094
:101C5E0008470000012066E7F8B504460D4600F07F
:101C6E0006FBD4E90A6732463B4601F01EFB3DB146
:101C7E00A6FB002306FB013307FB0033C4E90C234C
:101C8E00F2BD10B5DFF84000DFF8684000210160BA
:101C9E000121C16121602068FFF7DCFFDFF85810D9
:101CAE000968096A14208847206810BD000080B5B5
:101CBE0000F0DDFA000C40EA014002BD00000420F5
:101CCE0009401820094000002443840100108002BE
:101CDE002443E401002000200940DFF8DC140968E9
:101CEE0021B10A898242FAD1084670470020704716
:101CFE0000002C200940B001001000F008F80EBDC5
:101D0E0000BF08B582B00023009302ABF5E777B5AC
:101D1E008DB01C461498ADF8180000250F9828B900
:101D2E002CE10EAA0DA800F06FF96D1C00F032F92F
:101D3E00080000F01D812529F3D100F02BF92D2983
:101D4E0005D10120ADF8060000F024F902E00020D4
:101D5E00ADF80600302904D10120049000F01AF9E4
:101D6E0001E000200490002000904FF0FF30029020
:101D7E000A202A2918D12168216051F8042B2160EC
:101D8E00009200F0FDF8009A002A11D50122ADF85C
:101D9E000620009A524200920AE0009A00FB0211BD
:101DAE003039009100F0ECF8A1F130020A2AF4D398
:101DBE002E291AD1002100F0F2F82A290F9210D103
:101DCE0000F0F9F80291002944BF0020029000F0C3
:101DDE00E1F80AE0029A00FB0211303900F0DFF858
:101DEE000F92A1F130020A2AF4D3049808B1009898
:101DFE0004906C2918BF4C2905D10120ADF80400C0
:101E0E0000F0C8F802E00020ADF8040008A8079022
:101E1E000CA8059000200390642918BF69290DD1E4
:101E2E00BDF818000028FFD000F0BFF86FF00903CE
:101E3E000298049A8242B8BF049019E00A237529C9
:101E4E001FBF1023782908236F2903D1BDF818006E
:101E5E0038B906E0702913D1049320682060016818
:101E6E0014E000F0A2F8049A02988242B8BF0490DF
:101E7E00049A059800F0A5F807900599081A2FE026
:101E8E00632919D12068206001680FE0001D2060D1
:101E9E0010230598082200F094F8401E0790402069
:101EAE000799087005980799401A19E0001D2060DF
:101EBE0007980170012013E0732913D100F07BF80D
:101ECE00079111B90FF23C300790079801F065FAAF
:101EDE000390029810F1010F1ED0039988421BDA6D
:101EEE00039019E00F98401E0F900E98022813D3FE
:101EFE00029810F1010F02D00E99884201D30E986C
:101F0E0000E0401CDFF8BC62366802906B46224649
:101F1E000FA90DA8B047451900980399401A0090D3
:101F2E00BDF8060038B902E000F030F86D1C0098DC
:101F3E00401E0090F8D50398411E039150B10798AA
:101F4E00401C07900EAA10F8011D0DA800F05CF8B9
:101F5E006D1CF0E7BDF8060000283FF4E7AE0098D0
:101F6E00401E00903FF5E2AE00F010F86D1CF6E753
:101F7E000D9810B10D9900200870284610B070BD54
:101F8E000F990F9A0978521C0F9270470EAA2021B2
:101F9E000DA839E00F9810F8011B0F9070470291B1
:101FAE000F990F9A0978521C7047206820600168BB
:101FBE00001D206070472068206050F8041B2060D0
:101FCE007047F0B500240025002B44BF5B4200296A
:101FDE0002D54942521E2D25B1FBF3F60FF22C27E6
:101FEE0003FB1611641CC95D00F8011D3146002962
:101FFE00F2D19442BEBF302100F8011D641CF8DB03
:10200E000DB100F8015DF0BD10B50C461168022946
:10201E000BD3491E1160016819B14A1C02600C7085
:10202E0010BD01F00AFB00B100E010BD2046BDE876
:10203E00104001F000BB6349096808476348006817
:10204E000047000001207047FEE77047704710B54B
:10205E000446606808B9012010BD0B460146206891
:10206E0051A200F0B8F8A1684118A1606168012979
:10207E00A4BF081A6060002010BD2DE9F04104468F
:10208E008846A088164600F021F80746F11B002E60
:10209E0001D40A2904DB236844A200F081F8C71991
:1020AE00A08980B1F51BA468002E05D4204601F04E
:1020BE0074F9401D854206DB23460FF26012294655
:1020CE0000F06EF8C7193846BDE8F0813EB50D46F2
:1020DE003949098814468142034628BF0FF2481237
:1020EE0010D236490988814207D3FFF7F6FD214603
:1020FE004268284600F06FF83EBD2C49098831B978
:10210E000FF230122146284600F065F83EBD2F4BE7
:10211E000095002C48BF47F6FF74002102910194F0
:10212E006A461B682B49984702983EBD2DE9F84335
:10213E00170048BF47F6FF7704468846002664B36B
:10214E00208818B13A46FFF7C1FF0646B91B012990
:10215E0022DB208820B116A2404600F03CF88619FA
:10216E00A068C8B1656875B1284601F016F9A7EBED
:10217E000609401D814506DB2B460FF2C802494673
:10218E0000F00EF88619B91B122905DBA3680FF2B1
:10219E00BC0200F005F886193046BDE8F283000057
:1021AE00404618E0000025730000257000008A05E7
:1021BE0000003A2000008E05000084090020120560
:1021CE000000347F00002C7F0000307F0000387F3D
:1021DE0000005D20000008B478B504001ABF266820
:1021EE00002E00260D4605AB3046FFF78AFD8542D0
:1021FE0038BF681E16B121684118216072BC5DF8A7
:10220E0008FB286E756C6C29000030313233343582
:10221E00363738396162636465660000000028272E
:10222E002573272900007B6D6F64756C652325640B
:10223E007D007B6D6F64756C652D726F70653A25D0
:10224E00787D00000000222573222C2000006C698E
:10225E006E652025643A2000000009480168426836
:10226E0003689942FAD1100C40EA0140704710B54C
:10227E00044A136850681468A3421946F9D110BD78
:10228E00000008200940DFF800F0F5C00110DFF86B
:10229E0000F049BA011020B1082324220021FEF7D4
:1022AE00AEB9704780B50120009009234FF400723B
:1022BE000021DFF8040701F010FA01BD80B50023FC
:1022CE0001223421DFF8F40601F01AFA00B10120E0
:1022DE00C0B202BDDFF8E80680687047DFF8E0168E
:1022EE00401890F8ED0070470022022904D1012811
:1022FE0006D140F2EE2203E0012808BF4FF47A72B5
:10230E0010467047DFF8B806D0F8DC007047DFF8EB
:10231E00AC0690F8E60028B1DFF8A8064068010088
:10232E0018BF004770472DE9F041DFF8908608F19D
:10233E00E1058AB0A87900285ED10120A871DFF8E6
:10234E008066DFF88076307B687101A8FFF7A3FF07
:10235E0000200690ADF81400079001AB00220FF29A
:10236E00F54108F10C00FEF772F901AB00220FF2F5
:10237E00A15108F13000FEF76AF901AB00220FF20D
:10238E00D94108F15400FEF762F9B168012088477F
:10239E00DFF8380600787868C0F38154707B20B17E
:1023AE00032C02D10120287003E0032C18BF022C4D
:1023BE0016D1022000F09DF8032CDFF810160CBF8A
:1023CE004FF47A7042F210700968B0FBF1F108F127
:1023DE005400FEF718F908F15400FEF718F905E05D
:1023EE00012C03D100F063FAFFF75CFF3868400759
:1023FE005CBF002000F07DF80AB0BDE8F08110B59A
:10240E0008B1140001D1022010BD8160C2600361C9
:10241E000146DFF8A80501F08EF9002010BD10B5B9
:10242E000446FEF7DCF8DFF89415621892F8E830EF
:10243E005B1E82F8E830DBB223B98A680123A34021
:10244E009A438A6066E02DE9F0410546FEF7C7F82B
:10245E008046DFF86815681890F8ED20521E80F857
:10246E00ED20D2B2002A3FD10FF2A050DFF8644522
:10247E0000EB85052E786F88300615D52168096A20
:10248E00384688472168896A384688472168096B2B
:10249E0038468847DFF8401501200860DFF83C0514
:1024AE0000688007FAD512E0700606D501EB8701A9
:1024BE000020D1F80011884709E021688969384663
:1024CE0088472168496B384688470228F9D106F0BB
:1024DE003F003F2818BFFFF7B6FF687800F03F00B7
:1024EE003F2818BFFFF7AFFF4046BDE8F041FEF7AB
:1024FE007AB810B50446FEF772F8DFF8C0148A6891
:10250E000123A3401A438A60611891F8E820521CF7
:10251E0081F8E820BDE81040FEF765B8F8B506462C
:10252E00FEF75DF80446DFF89454701990F8ED103C
:10253E004A1C002980F8ED2039D10FF2CC4000EB77
:10254E008607387800F03F003F2818BFFFF7E6FFF8
:10255E00787800F03F003F2818BFFFF7DFFF7E8836
:10256E003878DFF86C7401060ED53968C9693046C3
:10257E0088473968496A304688473968C96A30469B
:10258E00884700F019F812E0400606D505EB8601E3
:10259E000120D1F80011884709E0396849693046B1
:1025AE0088473968496B304688470128F9D120465B
:1025BE00BDE8F240FEF717B8DFF81C1401200860E2
:1025CE00DFF8180400688007FAD570472DE9F04F40
:1025DE00002483B04FF0000A0128D04618BF012610
:1025EE0064D1DFF8D893D9F8DC0001285DD1022040
:1025FE00C9F8DC00FFF747FE0090012000F062F9F9
:10260E00060054D1FEF737F8DFF8DC1301900C60AA
:10261E00012000F042FA012804D1002000F0A7F9B1
:10262E004FF0010ADFF8B813DFF8B8030C6000684A
:10263E001120FFF753FE08B14FF001081020FFF7ED
:10264E004DFE08B148F002080F20FFF747FE08B113
:10265E0048F004080B20FFF741FEDFF8746320B149
:10266E003168096B4FF4806088470A20FFF736FE09
:10267E0020B13168096B4FF481608847DFF8581339
:10268E00DFF86873DFF868B30120086048F02000B7
:10269E00316889698847DFF858130120086099F876
:1026AE000800C00707D5012416E0042673E00120B8
:1026BE00C9F8DC006CE0584601F05FF80546042DC1
:1026CE00F9D0012D04D1326A526803215846904741
:1026DE003868800880003860002001F056F8C04845
:1026EE0000683068806B804754B9012D04D1326A7E
:1026FE005268012158469047386840F00300386010
:10270E000120B649086040463168496988470B2068
:10271E00FFF7E4FD20B13168C96A4FF48060884745
:10272E000A20FFF7DBFD20B13168C96A4FF48160E2
:10273E008847A849012008600020AD4908600320A1
:10274E00C9F8DC003168496B404688470128F9D149
:10275E00042000F0B7F8A34901200860A1480068E2
:10276E00A54800688006FBD5BAF1000F1CBF0120FA
:10277E0000F0FDF801F053F9082000F0A3F806462A
:10278E000120C9F8DC000198FDF779FF01F0CCF8C3
:10279E000098FFF77CFD3046BDE8FE8F38B5044645
:1027AE00FDF71DFF05462146854800F0D8FF284657
:1027BE004CE030B5002401288BB004D021D303287F
:1027CE001DD018D31DE001A8FFF765FD7C4D8A4989
:1027DE000694ADF81440079401AB012205F1780080
:1027EE00FDF735FF00940023854A2C2105F19C004E
:1027FE00FDF71DFF05E001F02AF9044601E001F0A6
:10280E00CCF920460BB030BD000000F053B938B5FE
:10281E00FDF7E5FE0546694890F8E000012410B189
:10282E00FFF74CFD04462846FDF7DDFE204632BD7F
:10283E0038B5FDF7D4FE614D044695F8E00020B1A1
:10284E0000F07EF9002085F8E0002046BDE8324019
:10285E00FDF7C9BE00007047000010B582B004201D
:10286E0000F01BF9022818BF032807D100F01FF84B
:10287E00FFF718FDBDE816400220D0E56148534928
:10288E0000684E4CC0F3815003280CBF4FF47A7091
:10289E0041F288300968B0FBF1F104F15400FDF704
:1028AE00B2FE04F15400BDE81640FDF7B0BE0320A1
:1028BE0000901C234FF0405200213F4800F00DBF06
:1028CE000020704770B504463D4E304600F029FF9B
:1028DE00002598B9304600F02AFF0646B06820421F
:1028EE0007D03269F3680021204698470546012D2E
:1028FE0005D0304600F01DFF0600EFD1284670BD12
:10290E00414901280CBF40F2FF70002008600020F2
:10291E00704770B5FDF763FE294E294D044696F8B3
:10292E00E00028B100F00CF968B1002086F8E00054
:10293E000220AD68A84706461020FFF7C3FF8EB1F0
:10294E000320A8470EE0214909683220B0FBF1F1BF
:10295E0001B9012106F13000FDF755FE06F13000F8
:10296E00FDF755FE2046BDE87040FDF73CBE38B57C
:10297E0001281ED100F091F801281CD000F0D6F8E5
:10298E000F4C1249012084F8E00032200968B0FB98
:10299E00F1F505B9012504F13000FFF776F8294667
:1029AE0004F13000FDF72FFE04F13000FDF72FFE8D
:1029BE0001E000F0E7F8002032BD00A00C407808DE
:1029CE000020287A0000B03F0050BA230020207F5C
:1029DE000000B801001028200860282008400002DE
:1029EE0022432C2009400C4009402422084000407C
:1029FE0003408001044314100940D93C0000B53A4D
:102A0E000000B43F0050000004608F3F00008F3F75
:102A1E0001008F3F02008F3F0300903F00018F3F68
:102A2E000101903F0002903F00038F3F01048F3F52
:102A3E0000058F1208048F3F00048F3F0006513FA0
:102A4E0000007F3F01003F3F04003F3F02003F3F39
:102A5E0001007F3F020070B50446E00782B00D46CC
:102A6E00614E05D5A8B200900023012200F011F8A6
:102A7E00A00705D5A8B200900123022200F009F8A4
:102A8E00600705D5ADB2009502230C2200F001F8C7
:102A9E0073BD0021304600F020BE0146042907BF59
:102AAE001D234FF0C0421C234FF080524E4834215C
:102ABE0000F026BE70B50546FFF7CFFB4B4CA16864
:102ACE00401A4FF47A714843060C01F0CEF9216991
:102ADE00401A48BF4042711940F6B932914207D2AE
:102AEE00062805DAA068E168814201D3226852B94E
:102AFE003F494A68D2074FF4FA6016D40868C0B24C
:102B0E007D21484308E0081A3A494843000C00EB7F
:102B1E009000904238BF1046C82801D2C82070BD20
:102B2E00B0F57A6F88BF4FF47A6070BD80B5012121
:102B3E000320FFF790FFFFF790FB2B49886001BD44
:102B4E0080B50120FFF7A9FF012819D0002301222B
:102B5E003421244800F0D4FD98B100F026F8FFF798
:102B6E007CFB21498B680A68C860A2EB9202C01AEE
:102B7E00204B5843000C0860904238BF1046086046
:102B8E00012002BD10B500210320FFF764FF0120D4
:102B9E00FFF783FF08B100F008F8134CFFF75DFB59
:102BAE00606001F062F9206110BD1248006801F00A
:102BBE0070B910B511490A68114909681404241630
:102BCE001B384443E41004EB2244120600FB00F3CE
:102BDE00121609065A435843091604EBA22248431B
:102BEE0002EBA04010BD00A00C409C230020AC3F87
:102BFE00005040420F008000001090130050A410AF
:102C0E00005062B38B0708D0521E11F8013B00F83A
:102C1E00013B00F024808B07F6D1830740F0208023
:102C2E0000BF103A07D330B4B1E83810103AA0E81C
:102C3E003810F9D230BC530724BFB1E80810A0E811
:102C4E00081044BF51F8043B40F8043BD20724BFA0
:102C5E0031F8022B20F8022B44BF0B78037070471B
:102C6E00083A07D3B1E80810083A40F8043B40F898
:102C7E0004CBF7D25307E4E7000030480068000C9D
:102C8E0000F00700052828BF4FF0FF3070472C4991
:102C9E000A68C2F30F324BF69A139A424FF0FF3086
:102CAE0007D10868000F0B2801D1042070470020BF
:102CBE0070474BF6BE118A4201D1012070474BF688
:102CCE0041318A4201D1032070474BF620318A42AE
:102CDE0008BF022070471A48F8B50068050F19485A
:102CEE000068C6B2802E28BF0026FFF7D0FF4FF037
:102CFE00FF3406F10A0730B102281BD012D3042884
:102D0E0019D017D318E0012D12D0032D06D0072DA0
:102D1E0006D0082D08BF06F116040DE014240BE0B2
:102D2E00152409E025B1022D08BF06F1140403E0B5
:102D3E000A2401E005B93C4660B2F2BD00009412CF
:102D4E00005018130050A010005080B5FFF79FFFE1
:102D5E0018B9FFF7C0FF162800DAFEE701BD002202
:102D6E0001F0B3B8000038B514460D1800F053FE4C
:102D7E00401E8041C00FDFF884140A68002AFCD080
:102D8E002C6001220A6000281CBFBDE8314000F013
:102D9E0046BE31BD38B5DFF86804DFF86854046804
:102DAE0014F1010F08BF0024FFF7CFFFDFF85C140A
:102DBE00002008600120DFF854140860DFF8541476
:102DCE00086028680028FCD1DFF84C04DFF84C249A
:102DDE00416812688908890041F0005141F00401F0
:102DEE00520748BF41F001010BD4026812F0030FE5
:102DFE0007D041F003024260026802F00302032A88
:102E0E00FAD14160DFF81804006828B1DFF8140425
:102E1E000068204600F031F8DFF80C14DFF80C24BF
:102E2E0000200860DFF8080401686FF31B411143AE
:102E3E000160DFF8FC030168C1F30131012907D1FC
:102E4E000168DFF8F023114041F4003202600160A6
:102E5E0028680028FCD131BDDFF8E01382B20A6089
:102E6E00C0F30740486001208860DFF8D003006897
:102E7E000028FAD00020886070472DE9F84F0446EC
:102E8E00DFF8C00301210160DFF8BC1309680029D7
:102E9E00FAD0C021DFF8B493DFF8B463DFF8B4538F
:102EAE00DFF8B473C9F80010B16889075DBF7168A7
:102EBE00090C41F0F0017221297000210163D6F84E
:102ECE000C803868C0F3046000F0EBF94FEA28710B
:102EDE00491C08181628A8BF152004DA6FF009013E
:102EEE008842B8BF084600F01F0040F4F85028830F
:102EFE00DA4DDA480068800748BF48F04068D84885
:102F0E00C8F3C06181F0010101605FEA8832C8F345
:102F1E00806181F0010181602968C1F38360C1F392
:102F2E008F2121D44FEA084212164FF6FF7307E0A5
:102F3E00490804D11946400804BF01200121521C42
:102F4E00002AF5D4012A0FDB490041F00101B1F549
:102F5E00803F21BF0121400040F00100102824BF16
:102F6E000F201946521EEDE7DFF8FCA241EA00429F
:102F7E00182100F094F928682968C0F3870001F041
:102F8E00030140EA01200090002340F2FF322C2181
:102F9E00504600F0A2FBE86A8204920C1C2100F05D
:102FAE007EF9686A20F00332142100F078F9286A5D
:102FBE00AE4901EA0002102100F071F9A86AB36867
:102FCE00DB07C0F30351C0F303420BD473684FEA1F
:102FDE00035C01EB2C711B0481F3040102EB2372E1
:102FEE0082F30402120442EA015182B20A43222CF5
:102FFE0024BF00F0804002430C2100F050F9012064
:10300E00222C03D3E86B000F00F00100DFF860B252
:10301E00400040F020008BF808000120222C03D342
:10302E00E86B400F00F00100002240F01000202C51
:10303E008BF8080007D3A86CC10C01F44071C0F3E3
:10304E00845040EA0102282100F029F90020202CAA
:10305E0003D3A86C000D00F00300400040F06000A8
:10306E008BF80B000020222C03D3E86BC00E00F06F
:10307E000100C00040F080008BF800000020222CE0
:10308E0003D3E86B400D00F03F008000794940F417
:10309E007C40202C0880774A0AD3A86C0203810A50
:1030AE0002F47C1242EA815100F00F0041EA003234
:1030BE00082100F0F4F8704C4FF48000206040F2CC
:1030CE000F22F96D6E4889B2914212D279687A68F0
:1030DE00C1F30361C2F3034201B1491E072A05D0B1
:1030EE00062A0EBF0722921C02F00F0241EA0211BD
:1030FE0001704FEA984101F00301012902D0022923
:10310E0027D023E0E96B8A0320D44FF4804222605B
:10311E004B0AD0F80A2022F08F0203F080031A43E4
:10312E00C1F303331A43C0F80A20C1F30323D0F8C6
:10313E000920120943EA0212C0F8092001F0E70142
:10314E00826822F0E7021143816002E04FF00040F6
:10315E0020604FF4007020644A49E86B4A4FC00C5F
:10316E0000F0030040F0300008704FEA985010F065
:10317E00030003D0022825D008D325E00121042026
:10318E00FFF769FC4148FFF767FE21E00120FFF7DA
:10319E0084FC804641460420FFF75DFC0420FFF7C7
:1031AE007CFC4045FAD136683002000AFFF754FE27
:1031BE007B691B684FF060220721300E98474FF451
:1031CE0080602060032100E002210420FFF743FC11
:1031DE00E8692E4900F03F00087047F618002C49A8
:1031EE0008802C4800683968C9680220884740204A
:1031FE00C9F80000012028490860BDE8F18F008061
:10320E000C401C1300500C006842840460425C6049
:10321E000C400822044300400340B03F00508001A0
:10322E002843000120438C2108400000390148202A
:10323E00034004000940FFFFFCFC3C600C40840886
:10324E008C43101009409402224300600C40A83FAA
:10325E00005056620840B812005050130050000043
:10326E0009400000204300A00C40FFFFFC0041A1DC
:10327E000C40DCA10C4000803F4040A00C4002609E
:10328E00084008A10C40A0010010BD3786000BB00D
:10329E000C4070B00C402C20094094046042504603
:1032AE0061E51628A8BF203870471B4213D109428A
:1032BE0036D12AB18446B0FBF2F002FB10C2704741
:1032CE0000F01DBEFCD30022002370470B0002004D
:1032DE00002100207047904271EB030CF6D370B5BD
:1032EE00B1FA81F4B3FA83F52C1BA340C4F1200587
:1032FE0032FA05F63343A2405FF00046E64002E0A4
:10330E005B085FEA3202841A71EB030524BF204684
:10331E0029467641F4D302000B003000002170BD27
:10332E00012ACFD970B5140C20D0B1FA81F4B2FABB
:10333E0082F5C4F120046419B4F12006D6D3B2404C
:10334E005FF00044F440002502E052085FEA3303C8
:10335E00C61A71EB020E24BF3046714664416D41B0
:10336E00F3D302000B002000290070BD0C46B1FB08
:10337E00F2F102FB11452D0445EA1045B5FBF2F4BE
:10338E0002FB145580B240EA0545B5FBF2F002FB94
:10339E00105240EA044070BD000000F101038107A5
:1033AE0004D010F8011B89B18107FAD10268B2F17D
:1033BE000131914311F0803F04BF50F8042FF6E71E
:1033CE0010F8011B11B110F8011BFBE7C01A704772
:1033DE000000DFF800F00DC30110DFF800F081C629
:1033EE000110DFF800F095B70110DFF800F08DC284
:1033FE000110DFF800F03DC20110DFF800F009C344
:10340E000110DFF800F045C00110DFF800F0D1C761
:10341E000110DFF800F067BE0110DFF800F011C8F0
:10342E000110DFF800F021C801100C381F283ED81B
:10343E00DFE800F0103D3D3D3D3D3D3D3D3D3D3D18
:10344E003D153D3D3D1A3D3D1F243D3D3D293D3D34
:10345E003D2E3338DFF8E801006800687047DFF86A
:10346E00DC01006840687047DFF8D40100688068AE
:10347E007047DFF8C8010068C0687047DFF8C00108
:10348E00006800697047DFF8B40100684069704752
:10349E00DFF8AC01006880697047DFF8A0010068B2
:1034AE00C0697047DFF898010068006A7047002015
:1034BE00704700B589B009216846FFF78AFF09B049
:1034CE0000BD00B581B0FEF72AFBDFF87401DFF80E
:1034DE0074110068884218BF00F095F8DFF86C018F
:1034EE00B0F5B26F03D001B05DF804EB8CE001B023
:1034FE0000BD2DE9F04184B01D460B688046144690
:10350E00002226681F78002003F1010C242FC1F839
:10351E0000C038D15F780CF101034C2F0B6006D13F
:10352E0056F8040BAA684146FEF7A7FD25E0462F84
:10353E000DD156F8041B0191414656F8040BADF817
:10354E00002002906846AA68FEF7F0FD15E0532FA2
:10355E0019D156F8040BE86126602346288B00909B
:10356E00EA69A968D8F80000FEF7D1FBD8F8001078
:10357E0011B14118C8F8001026680021E960012237
:10358E002968091A2960662F08D1298B002911BFD5
:10359E00361DF11D21F0070101F108061AB9E9697E
:1035AE000F700121E960266004B0BDE8F0814FF094
:1035BE00FF309060704700B581B00FF21D00FFF72D
:1035CE000CFFFFF70EFFFFF710FFFFF712FF01B022
:1035DE005DF804EBFFF711BF000000B581B0FDF7F9
:1035EE004AF8FEF750FE01B05DF804EB0320FFF73A
:1035FE0008BF10B504460320FFF703FF2046BDE8C1
:10360E001040FFF702BFFEE7FEE700B581B0FFF7FF
:10361E0000FFDFF83800C06801B05DF804EBFEF77C
:10362E00C2B9DFF82C10DFF82C0088617047FFF765
:10363E00F4BEFFF7F6BEFEF7FEBCFEF7FFBCF001D0
:10364E00002098CA011070472820900500007801CC
:10365E000020440100200004000070B504460D4611
:10366E00164600F0D8F9401E8041C00F1A490A686C
:10367E00002AFCD0012E02D0022E02D003E02570CB
:10368E0002E0258000E0256001220A6000281CBFB0
:10369E00BDE8704000F0C3B970BD38B504460D46A4
:1036AE0000F0B9F9401E8041C00F0A490A68002A8D
:1036BE00FCD0012D02D0022D02D003E0247802E0CE
:1036CE00248800E0246801220A6008B100F0A7F9FE
:1036DE00204632BD000000800C4010B500EB4100CA
:1036EE00102B144600F5007002D3103B001D240C65
:1036FE000299994041EA0441BDE810400422ACE72A
:10370E0038B51D460818102D144602D3103D801CE6
:10371E00240C0221FFF7C1FF04EA000188B2E84041
:10372E0032BD006800280CBF0120002070470068E1
:10373E0070470068704738B504460D4600F0E0FB50
:10374E0000212960616869606168002914BF0D60FD
:10375E0025606560FFE7BDE8324000F0D3BB0B6823
:10376E004A68002B0CBF42605A604A680968002AFA
:10377E000CBF01601160704700000068010701D5A1
:10378E000420704700F0030070472DE9F84F0646FD
:10379E009248924C0068924D800704D50820A8717B
:1037AE0091482060BEE000F060FB80468F480068C4
:1037BE0000900027001700F101090098800208D43C
:1037CE00C8F13E00C0100928A8BF08208145B8BF27
:1037DE00814686480068C0F30460FFF762FD8246AA
:1037EE0084480068C0F30440FFF75BFD09EB0A0153
:1037FE001629A8BF152104DA6FF009029142B8BF4D
:10380E00114601F01F027B4B42F4F8521A807A4A9D
:10381E00126812F0030F18BF0127520748BF47F076
:10382E0002070EB147F0040795F90720A8EB020234
:10383E00052A02DAAA7997425CD0A8F10F0C00266D
:10384E00BCF1000FB64607F0010207F00403DFF8E3
:10385E00AC9123D40CEB0C1C4FEA2C2EBEF1080FAE
:10386E0028BF4FF0070E7646072E28BF062609EB17
:10387E00860A59F82660DAF804A0AAEB060A5FFA5F
:10388E008AF613B1CAF3072B5E445FEA877B44BF07
:10389E00CAF3074B5E440AB106EB1A6659F82E902E
:1038AE005FFA89FA13B1C9F307239A44BB0744BFE1
:1038BE00C9F307439A440AB10AEB196A401AACEBF2
:1038CE000E220099AF71724380320128B8BF0120D9
:1038DE003423C9B258430AEB12224843B0FBF2F02C
:1038EE00B0F5803F28BF4FF6FF7008F30708A88099
:1038FE0085F8078043480068A988286000201F29A2
:10390E0004D21F21A98004E04908401CB1F5007FB4
:10391E00FAD20F39090940EAC1003A49084320603A
:10392E0000206060BDE8F18F10B53748006884B2A2
:10393E0024B300F09AFA2A4991F90720904205DA49
:10394E006FF07F029042B8BF1046C87188888442DB
:10395E0001D28C8010BD2A4A12680B68D21A921CB2
:10396E00202A28BF1F22231A520823FA02F42018F5
:10397E00B0F5803F28BF4FF6FF70888010BD2348FA
:10398E00026802B9704710B5224B986800F040618A
:10399E00B1F1406F20D010490C68A4071CD45C68AC
:1039AE00A40719D40C681B68C3F303531C331B0103
:1039BE0014F0050F05D09A420ED224F005000860CF
:1039CE0010BD934208D2020158BF44F001044001D9
:1039DE0058BF44F004040C6010BD000009403010C4
:1039EE000940B0230020FDFDA400B43F0050B812E2
:1039FE0000503C1100506E620840242208409C1377
:103A0E0000500820094000E7A480341009402850D7
:103A1E000940AC3F0050EFF3108072B67047EFF3E1
:103A2E00108062B6704710B50C18FFF7F4FF401EF9
:103A3E008041C00FDFF8D8130A68002AFCD0246832
:103A4E0001220A6008B1FFF7EAFF204610BD38B523
:103A5E00DFF8C043DFF8C0132078897B00250843C8
:103A6E000AD0FCF7BCFDA178002906BF0121A17088
:103A7E000125FCF7B8FD0DB1002032BD0220FEF786
:103A8E0038FD0E20FEF74AFDDFF89003016809B1FC
:103A9E00012032BDDFF88823402111600121C16170
:103AAE000020607032BD70B5DFF8740382B0002163
:103ABE0001604821C160DFF8680300F1D804A17AE3
:103ACE00002967D00129DFF85C2328D110684BF25A
:103ADE00F5214843050AD4480068C0F38140012807
:103AEE0006D100F0C2F9FFF764F8684305EB905574
:103AFE00607B10B10020607305E0CC4800680002C6
:103B0E0015EB10204508CA480560290C41600121BB
:103B1E008160C048807B00283AD0052039E0022918
:103B2E0009D11568284600F0F2F8A5F2FF500328D7
:103B3E002ED308202DE003292CD1116800F1B805F1
:103B4E00A1F5C0612868E961002848BF40420029FC
:103B5E0048BF49428842A8BF002018DA6868B54EAF
:103B6E0080B2009008234FF47F4230213046FFF799
:103B7E00B4FDA86800F067F904213046FFF7ADFDEB
:103B8E00A86900F066F93046FFF7A7FD0120207006
:103B9E000B202073BDE8734000BF2DE9F041A04C0F
:103BAE00DFF89482A54FA54E9D4804F1E10582B041
:103BBE00E9784A1E0B2A5BD8DFE802F0062233466C
:103BCE005B33465B3346636E9E4909680968202065
:103BDE0088470F20F860072341F61D5038614FF4D7
:103BEE00C0720220009000F06BF807234FF4C072F1
:103BFE0000214046FFF784FD01203060022044E0A2
:103C0E000120F861287800281DBF002030610320B4
:103C1E000620E8700320386000207060706880070E
:103C2E0034D4E878032804D1022000F046F80420AA
:103C3E0007E0002000F041F8E87806280CBF0720C6
:103C4E000A20E87001201AE0042903D12021B9616D
:103C5E00012105E00122BA610A290CBF03210221CC
:103C6E006970002139600821C1600160012038604F
:103C7E0021E005290CBF06200920E87000207060A5
:103C8E0004E00020306070600C20E87004F17800D1
:103C9E00BDE8F641FCF7BBBC0021016001205E4986
:103CAE0008600E20FEF7CFFB0220FEF7B8FB0120C6
:103CBE00E8700020A870BDE8F38100900523602213
:103CCE0000214046FFF709BD000055495C4891F8B8
:103CDE00E410891E0A2919D8DFE801F0060A0E1829
:103CEE000A0E180A0E18120001688907FCD50DE09D
:103CFE0041688907FCD409E041688907FCD505E0D5
:103D0E0001688907FCD441688907FCD445E7F8B5FA
:103D1E000746484C30212046FFF785FE414E06F1FE
:103D2E00B805C0F30720686004212046FFF77BFE2C
:103D3E00C0F38440A86020212046FFF774FEC0F334
:103D4E008120A861B7F5C060286002D186F8D8003E
:103D5E00F1BD296996F8D8202AB96A68A968EA607F
:103D6E00E861AA696A61E86900284CBF6FF0010238
:103D7E00022200EB40001018421000EB927001EB93
:103D8E00A0006968E960012810DA6A69032A04D183
:103D9E00153001281DDA01201BE00B300128B8BFB9
:103DAE000120491E48BF0021E96007E01F2812DBF1
:103DBE006A692AB915381F28A8BF1E20032109E0F9
:103DCE000B381F28A8BF1E20491C4029A8BF3F2121
:103DDE00E9600021696128610823E86880B20090DB
:103DEE004FF47F42302100F03CF801200090112367
:103DFE004FF4003200F034F8286900F024F800F097
:103E0E002FF8686900F025F800F02BF8F1BD00805E
:103E1E000C4059090020287A000004800C402C50D8
:103E2E000C407808002008400C40B43F0050102091
:103E3E0009403C600C4000A00C4000400C40346037
:103E4E000C40A001001080B2009012234FF4F80233
:103E5E00704780B200900A234FF4406220217047D1
:103E6E0004212046FFF739BC00000748084A816844
:103E7E0012780068C90352B2A0F54070C9135043BE
:103E8E00A1EB2010803000127047285009400C130F
:103E9E00005070B50446FFF7BEFD451EAD41ED0F57
:103EAE00074E30680028FCD0A04701203060002D5E
:103EBE001CBFBDE87040FFF7B2BD70BD00000080B2
:103ECE000C4062F30F2262F31F4200B500BF1300D5
:103EDE0096469446103928BFA0E80C50FAD85FEAEF
:103EEE00417C28BF0CC048BF40F8042BC90728BF2F
:103EFE0020F8022B48BF00F8012B00BD00007047D0
:103F0E00FCF76DBBFCF76FBB0000DFF800F0D9C10A
:103F1E000110DFF800F025B10110DFF800F013C139
:103F2E00011000B583B000F00DF8032114E0E0B5E8
:103F3E0000F008F8042100F012F8002814BF002049
:103F4E0002980EBD0821ADF800100190704700B523
:103F5E0083B0FFF7F7FF052100F001F807BDADF8BC
:103F6E0002106846DFF8CC1A0968084700B58FB012
:103F7E0008233C2200216846FFF7C7FFDFF8B80A86
:103F8E0000F15001079100234FF4587108916A46D1
:103F9E00012106910FF24D11FFF7BBFF0FB000BDCF
:103FAE0010B586B00820ADF800000120DFF8841AA5
:103FBE00DFF8884A0968ADF80200684688479DF820
:103FCE00040020700298606204F1500000F09BFE25
:103FDE00A06200230020019000904FF47A720FF639
:103FEE00012104F12C0000F04AFE0FF6052000F02E
:103FFE00F8FE00214FF0004000F08FFF20626A466D
:10400E004FF6FF70E08101210020206108208DF81D
:10401E00000040F2044000F0E5FF4FF47A61022008
:10402E0001F09CFB4FF47A61032001F097FB0FF631
:10403E0000421521002001F0A6FA44F6C740019077
:10404E0001AA01208DF80300042100208DF8020042
:10405E008DF8010001208DF800004FF4816001F011
:10406E00CCFB0DF1030201214FF4806001F0C5FB82
:10407E000DF10202012140F2024001F0BEFB0DF1F2
:10408E000102012140F2034001F0B7FB6A46012113
:10409E0040F2064001F0B1FB01F042FA207801F047
:1040AE0051FA4FF0FF3001F06BFA4FF0FF3001F094
:1040BE002EFA04F15C0000F083FF04F1600001F0C1
:1040CE00D8F9207801F0D2F9207801F026FA00F024
:1040DE00DEFA206A0FF67013002100F049FF06B0D9
:1040EE0010BD70B586B0FFF75BFFDFF84C49DFF807
:1040FE00405924E0A06A00F031FE060004D000F022
:10410E0073F83046FFF723FFA06AFFF706FF00287B
:10411E00F0D0A08AC10712D54FF6FE710840A082DA
:10412E000020A083608320830120607105A9E08BAD
:10413E002278001FADF81400E08A01F08CFA0820F6
:10414E00ADF800000A20ADF802004FF0FF300190EC
:10415E006846296888470028D6D10820ADF808009F
:10416E000920ADF80A0002A8296888479DF80E10AC
:10417E00049E0028C8D1BDF80C00102801BF20787D
:10418E008142304600F006F8002EBDD03046FFF7D3
:10419E00C8FEB9E700B585B0017891290BD0B029DA
:1041AE0005D0D0291ED105B05DF804EB79E005B03D
:1041BE005DF804EB82E241780E2902BF818841F25C
:1041CE00054291420ED100F072FA80680FF6BC13D0
:1041DE0090F90300404200900421DFF85C08006A69
:1041EE0000F0C6FE05B000BD2DE9F041044686B0D4
:1041FE002088022829D004282DD0082811D0102874
:10420E0009D020284CD16068FFF7C4FF606806B063
:10421E00BDE8F04185E6A17806B0BDE8F04100208A
:10422E001FE1646860884FF6FF71884238D0012123
:10423E0001F0AEFAA0B32188606800F046FD6088F8
:10424E0006B0BDE8F04101F0DEBB60680178A078F1
:10425E0000F0C6FA1FE06068DFF8E0670578F78ABD
:10426E0001F07BFCDFF8D817DFF8D427B0FBF1F1B3
:10427E0002FB110855B100F0DEF8CDF800800022E7
:10428E00306A0FF68413042100F072FE42460021BC
:10429E00384601F0F7F8606806B0BDE8F04156E622
:1042AE00EEE170B5DFF8945786B00446286AA2781E
:1042BE000FF2EC764FF6FE7162B1012A46D0052A56
:1042CE005CD0062A00F08B80072A00F0A8800D2A09
:1042DE0011D0ADE06089E883E01C00F04EFD00F0E7
:1042EE00DEF9286A0022012100F042FE00F0B0F84B
:1042FE000FF2607399E02069217B0918491E00E0D6
:10430E0010188842E5D210F8012B002AF9D0037854
:10431E00022B18BF032BF3D1401C521E01E0801C50
:10432E00921ED2B2022A01DB884203D3012AE8D1BF
:10433E00401CE6E70378F02B04BF4378FF2BEED149
:10434E002179601D06B0BDE87040FAE20021E970E7
:10435E000491039102910191002269780FF200738A
:10436E0000F091F9687830B100F072F80FF2047332
:10437E00032100F0FDFD6878A87059E06278C2B99B
:10438E00022028716089E88201202872A88B18B952
:10439E0005F12C0000F097FC00F05AF80FF2E463E0
:1043AE0000F072F9201D00F0E8FC034600F043F81F
:1043BE0010E00022E9822A716A710492039202923D
:1043CE000192009202210FF2C46300F0D1FD00F0C1
:1043DE0038F8607800900022286A032126E0002039
:1043EE0028716871A8832872E982A08800F0D4F938
:1043FE0000F02EF80FF2B46300F046F900F021F849
:10440E00A07900900022286A032100F0B1FD286AED
:10441E0006B0BDE870400022042100F0A4BD00F0FB
:10442E0046F9E1780FF294630091022100F0A0FDAD
:10443E0006B070BD002200200490039002900190FF
:10444E00704700200490039002900190334670470D
:10445E000020049003900290019000900022286AA0
:10446E0070472DE9F041DFF8D045DFF8D46586B00E
:10447E00206AA3786278E7780D071CD5002F38D113
:10448E00002A36D0591CC9B2914228BF0021A17012
:10449E0000F00DF9A1780FF23463491C00F0F3F827
:1044AE00A07806EBC000801C00F067FC034600F00D
:1044BE00EEF80321E2E094F804C0E58A5FEA817821
:1044CE0053D5BCF1020F18D0A7B90121E17000211C
:1044DE00617000F0B8F90FF2006300F0D5F8206AB1
:1044EE000422032100F03FFD00220121032000F0F1
:1044FE00D8FDC5E000F0EBFDC2E0A08B0028FBD09C
:10450E00217A0029F8D1E179F9B100230122122193
:10451E00284601F0BAF900280190EDD0A08B019940
:10452E00ADF800000120ADF80200A079087000205F
:10453E00ADF8080069462278E08A01F0AEF868B15D
:10454E001221684601F0B0F99AE0ADF80000694614
:10455E002278284601F09DF8002805D1012020720E
:10456E00E07980F00100E0718AE0C8060ED5BCF15A
:10457E00020FF9D14FF41670009000234FF44872D9
:10458E004FF4C871284600F07CFD79E0C80736D597
:10459E00BCF1000F1BD1002A72D00121217106EB54
:1045AE00C300851C42782B460021002000F04EFDF2
:1045BE0000F06DF8206A0FF2305300F065F82846CF
:1045CE0000F0DBFB00F06BF8002203210FE0BCF1E2
:1045DE00010F18BFBCF1020F52D1032020712846E3
:1045EE0000F02EFD00F053F80FF20C53022100F0F4
:1045FE00A5F9206A0022042100F0B5FC40E048072E
:10460E003ED5BCF1020F3BD1284600F0E1F868BB65
:10461E000121284601F0BCF8002831D0284600F0D0
:10462E00D7F807004FF47A7604D0786800F062FB72
:10463E003E8016E0E0894FF6FF71884220D124209B
:10464E00FFF775FC2061D8B1002101910091002384
:10465E0000220FF2A53100F012FBE58104F10C07E8
:10466E00A6813146786800F030FB09E0284600F05C
:10467E0093F800F00CF80FF28C43042100F05EF971
:10468E0006B0BDE8F0810091022100F071BC00205F
:10469E000490039002900190009000227047002138
:1046AE0004910391029101910091034670470021FC
:1046BE0004910391029101910022704730B5DFF809
:1046CE00785385B00446287902284FD16278286A3B
:1046DE002179162A05D100F051F800910FF23843D6
:1046EE003BE00B2909D001290FD1217A0A291CD1CF
:1046FE0000F04AF80FF2344305E0FFF7D8FFE16807
:10470E000FF238430978009109E0132914D1A979E1
:10471E000FF2484300914A1CAA7100F02FF80421B1
:10472E0000F026FC0020287220E0122919D100F09A
:10473E002BF80FF21443E6E77E2905D100F08BF833
:10474E000FF22843217A06E07F290AD100F083F880
:10475E000FF22843218900910022042100F008FC69
:10476E0004E0687910B1204600F07BF8217904F15D
:10477E00080005B0BDE8304001F096B80022049262
:10478E0003920292019270470021049103910291CB
:10479E0001910022217B704738B5044600F018F8CD
:1047AE00A0B14068A54D00F0A5FAE889A0420BD152
:1047BE00286930B1FBF753FF2869FFF7C8FB0020CB
:1047CE0028614FF6FF70E881002032BD122032BD05
:1047DE009A49CA8982420CBF01F10C000020704731
:1047EE0000B50200954885B0006A05D100F033F897
:1047FE0000910FF2A43321E0012A0B460AD121B910
:10480E0000F021F80FF2A43319E000F023F80FF2B4
:10481E00A83313E0022A05D199B900F014F80FF26B
:10482E00AC330CE0032A0CD121B900F00CF80FF2D6
:10483E00AC3304E000F00EF80FF2B8330022FFF7AD
:10484E0023FF05B000BD04910391029101910091E7
:10485E00002270470093002104910391029101916F
:10486E00704710B5754C86B06179012919D1007960
:10487E00032861D10FF2A4300FF200330088ADF897
:10488E001400FFF7D7FD04211720009000F056F812
:10489E000220607102222378E08A05A900F0E2FE70
:1048AE004AE002292FD1017907290DD1018959B189
:1048BE00C1680A78497802EB01212183C1688A78A0
:1048CE00C97802EB012161830179072906BF40787F
:1048DE001A28012930D1208B70B3ADF800000321C6
:1048EE00608B2278ADF80200617102208DF8040011
:1048FE006946F1208DF80500FF208DF80600E08A4C
:10490E0000F0C9FE18E0032916D10179092911D149
:10491E00018979B1C1680FF204330878497800EB48
:10492E000120A083FFF786FD0090022100F006F81B
:10493E00002020720020607106B010BD206A00F0C9
:10494E0017BB2DE9F8453C4D6E78082E82460C4675
:10495E001EDA0027DFF8EC8000E07F1CFFB2B742C2
:10496E0009D208EBC700811C0622504601F00DF952
:10497E000028F2D10CE008EBC60006225146801C3E
:10498E00FEF73FF9687808EBC001401C4C70687068
:10499E00BDE8F18580B502460021202000F035F8F3
:1049AE00401E8041C00F02BD38B50C461546012091
:1049BE00FFF7BDFA020005D015702146BDE838405C
:1049CE00022022E031BD10B51C460120FFF7AFFAE0
:1049DE0030B104700246BDE810400021042014E0FE
:1049EE0010BD1548818A41F001018182406AFBF7B2
:1049FE00FEBD01460022102007E00F4901EBC0006A
:104A0E0000F10C0200215FF0080070B504460D465F
:104A1E0016460820FFF78BFA50B104808570466069
:104A2E000246BDE87040044B596A986A00F072B9AC
:104A3E0070BD18060020BC1E00204C06002040420F
:104A4E000F006C220020424C452043656E7472614B
:104A5E006C00496E697469616C697A6564004465BD
:104A6E00766963657320466F756E64202564000059
:104A7E0000003C2D20546F2053656C65637400005C
:104A8E000000436F6E6E6563746564000000436FD3
:104A9E006E6E656374204661696C656400005265D4
:104AAE0061736F6E3A2025640000446973636F6E04
:104ABE006E656374656400000000506172616D2064
:104ACE005570646174653A202564000000004465E9
:104ADE0076696365202564000000446973636F7610
:104AEE006572696E672E2E2E0000436F6E6E6563C3
:104AFE0074696E670000446973636F6E6E656374EC
:104B0E00696E67000000525353492043616E63651E
:104B1E006C6C6564000041545420527370206472B2
:104B2E006F707065642025640000526561642045D5
:104B3E0072726F72202564000000526561642072EB
:104B4E0073703A2025640000000057726974652066
:104B5E004572726F72202564000057726974652069
:104B6E0073656E743A202564000046432056696FC3
:104B7E006C617465643A202564004D545520536968
:104B8E007A653A2025640000000052535349202DC7
:104B9E0064423A2025640000000050616972696E1B
:104BAE006720737461727465640050616972696E16
:104BBE006720737563636573730050616972696E04
:104BCE0067206661696C3A20256400000000426F20
:104BDE006E64696E67207375636365737300426FED
:104BEE006E642073617665207375636365737300FD
:104BFE000000426F6E642073617665206661696C99
:104C0E0065643A2025640000000050617373636F81
:104C1E0064653A20256400000000F0FF000053692F
:104C2E006D706C652053766320466F756E64000060
:104C3E00000053696D706C6520424C452043656ED3
:104C4E007472616C000000000000DFF800F0F5B82F
:104C5E000110DFF800F0B5C10110DFF800F0A9C1B6
:104C6E00011000B583B00821ADF8001001900521A8
:104C7E00ADF80210684652490968884707BDF0B57D
:104C8E0089B004460D4616461F46082324220021ED
:104C9E006846FBF7B4FC0F984B49096806906B46C3
:104CAE004FF47A70B0FBF1F101FB07F0059001FBB8
:104CBE0006F20E98ADF8100029462046FBF7C7FC09
:104CCE00204609B0F0BDFBF7A2BC38B504460D4630
:104CDE00FCF7E9FE10B12046FCF7D7FE00F00CF809
:104CEE0000FB05F12046FBF78EFC2046BDE8324066
:104CFE00FBF78DBCFCF7C9BE334909684FF47A70D7
:104D0E00B0FBF1F0704710B504460021FFF79DFF90
:104D1E00204610BD70B584B004460820ADF80000E2
:104D2E000D460420ADF802000C20254909680190BB
:104D3E0016466846884758B9029949B18E60204692
:104D4E00FFF787FF15B12846FBF751FC012003E062
:104D5E003046FFF786FF002004B070BD10B5044644
:104D6E00FFF7DBF838B92046FFF777FF8468FFF7C7
:104D7E0078FF204610BD002010BD30B585B004462A
:104D8E0068460FF248011422FDF74BFF0F48302101
:104D9E000170A21D782141700623811C6C4612F809
:104DAE00015D2D095B1E2D5D01F8015B157805F087
:104DBE000F052D5D01F8015BF1D105B030BD00008E
:104DCE00000018060020207F0000AC2200203031A9
:104DDE003233343536373839414243444546000084
:104DEE00000030B50446414D83B005F1300105F1A8
:104DFE00480001F049F8A8600FF2810101F016F9A0
:104E0E00A8683B4A00F035F8A8683A4A00F031F835
:104E1E00A868394A00F02DF8A868384A00F029F839
:104E2E00A868374A00F025F8A868364A00F01DF841
:104E3E00A868354A00F019F8A868344A00F015F849
:104E4E00A868334A00F011F8A868324A00F00DF84D
:104E5E000020019000900023C8220FF2810105F17D
:104E6E000C00FFF70CFF6C6037BD4FF0C05101F026
:104E7E00EDB84FF4E02101F0E9B810B51C4C00205C
:104E8E0020700B2001F09FF818B9207840F0010037
:104E9E002070132001F097F818B9207840F0020026
:104EAE0020700C2001F08FF818B9207840F0040023
:104EBE0020700F2001F087F818B9207840F0080014
:104ECE002070122001F07FF818B9207840F0100001
:104EDE00207004F10C00BDE81040FFF7F4BE03484B
:104EEE0041680A001CBF0078084770470000BC05E7
:104EFE0000200B000580130005800C0005800F00BC
:104F0E000580120005800B000010130000100C002D
:104F1E0000100F000010120000102DE9F0415FEAA2
:104F2E00010808BF0FF27008044600270D4E00E07E
:104F3E007F1C0C207843815979B18519BC4203D06E
:104F4E00886980472042F3D02A6812684146284675
:104F5E0090470028ECD0284600E00020BDE8F08104
:104F6E000000DC7A000010B103689B681847704798
:104F7E0000B9704710B586B00C9C04940B9C03943A
:104F8E000A9C0294099C0194089C00940468E468AD
:104F9E00A04706B010BD0300000000B583B0ADF809
:104FAE0000008DF806100020A9490968ADF802002E
:104FBE006846884700280CBF9DF80700FF200EBDED
:104FCE001CB5A34C00B1606004F10800019004F11F
:104FDE001C00009004F10C03A2786078082100F008
:104FEE0068FB16BD70B5034600244FF4806610466C
:104FFE009B1B0A46974D06D05B1E0AD05B1E10D037
:10500E009B1E13D019E0102915D1014605F10C0095
:10501E0004E010290FD1014605F11C00FDF7F1FD4A
:10502E000CE0042907D10068A86007E0012902D12D
:10503E000078A87002E0182400E00224204670BD1B
:10504E00014683484078132200F05DBBFEB506464C
:10505E0080480F46417814461D465020FFF79DFFAD
:10506E008DF800008DF801608DF802708DF8034008
:10507E000622294601A8FDF7C4FD684600F03AFB5A
:10508E00FEBDE0B5ADF80000ADF80210ADF804209D
:10509E00ADF806300498ADF80800684600F02EFB17
:1050AE000EBD70B504466A4882B00D46417816466C
:1050BE005020FFF772FF8DF800008DF801408DF83B
:1050CE0002508DF80360684600F034FB76BD6048F0
:1050DE00407800F033BB00B58FB008233C2200218E
:1050EE006846FEF712FF5B4800F15001079100235E
:1050FE004FF4DC7108916A46032106910FF20D01FF
:10510E00FEF707FF0FB000BD0000F0B585B0082018
:10511E00ADF8080001204D4C4E4D2168ADF80A0047
:10512E0002A888479DF80C00687000F04BFB2870B1
:10513E0005F10C021021022000F0BFFC05F11C024B
:10514E001021032000F0B9FC05F10802042104200F
:10515E0000F0B3FC29E0707888B905F10C0210213B
:10516E00022000F0BFFC05F11C021021032000F00C
:10517E00B9FC0622F11C05F12C00FDF742FD686812
:10518E0028B10168080002D0304688470746002E35
:10519E0018BF002F09D00820ADF800000320ADF88D
:1051AE00020001966846216888470820ADF8000085
:1051BE000A20ADF802004FF0FF30019068462168DA
:1051CE0088470028F1D10820ADF808000920ADF875
:1051DE000A0002A821688847BDF80C109DF80E2021
:1051EE00049E0028E1D10127102904BF687882426D
:1051FE00CDD130884FF6FF71884209D170884004B6
:10520E00C5D505F108020421042000F06BFCBEE7B1
:10521E003078D028BBD1B07800289CD005280CD08F
:10522E00062806D00C28AAD1317BB08800F05EF992
:10523E00A5E7B08800F04FF9A1E7707800289ED15D
:10524E007289F0780823311D00F02EF997E71806C1
:10525E000020B0190020E4190020E0B50821ADF8B7
:10526E0000100190022100F00FF8002814BF00205A
:10527E0002980EBD00B583B00821ADF80010019064
:10528E00032100F001F807BDADF802106846DFF803
:10529E009C13096808471FB5ADF806108DF8040079
:1052AE000824DFF888138DF808200393ADF800402A
:1052BE00ADF8024068460968884704B010BD30B5A5
:1052CE0085B0144608220291ADF800201922DFF8AD
:1052DE005C1309680190ADF802201D4668468847A8
:1052EE0014B1BDF80C10218015B19DF80E10297067
:1052FE00089A0499116005B030BD00B583B008203E
:10530E00ADF800001A2000F015F800280CBF9DF82B
:10531E000400FF200EBD00B583B0ADF800008DF87F
:10532E000610002000F006F800280CBF9DF80700BC
:10533E00FF200EBDDFF8F8120968ADF802006846CE
:10534E00084750B110F1040F01D10420704710F13D
:10535E00030F01D102207047012070478123037093
:10536E0042EAC111002341F47C41C3708180704731
:10537E008223037081800023C370827170473EB513
:10538E0004460820ADF800000D462020ADF80200BE
:10539E001020DFF898120968ADF8040068468847B7
:1053AE0020B9029810B16FF004003EBD00950023A5
:1053BE00002221464FF0FF30FFF781FF3EBD10B5B2
:1053CE0082B01446CA78012A03D18A88DFF8EC34F9
:1053DE001A8000F010F858B9009069462046FFF781
:1053EE00CEFF28B900984478FFF744FF204616BD3B
:1053FE00FFF7A7FF16BD0B46022210214BE738B56B
:10540E001C461546FFF7F7FFB8B9009069462846C7
:10541E00FFF7B5FF88B900984578002D04BFC07915
:10542E00A04205D10098816804982246FDF7E9FB59
:10543E000098FFF71FFF284632BDFFF782FF32BDEF
:10544E00F8B500F048FA00F0A0F907000DD032468A
:10545E002946FFF78DFF00F0F2F93872FFF74DFF86
:10546E003B4601B0BDE8F04087E0F1BD10220121BE
:10547E00E6E738B500F0DFF9050002D0042201217D
:10548E0072E031BDF8B500F0CDF907000AD0132255
:10549E0000F03BF800F03EFB3946BDE8F840DFF87F
:1054AE001C248CE70420F2BD2DE9F04100F04CF9EC
:1054BE0007000FD0142200F028F83C72FD603E82E7
:1054CE0087F81280FFF719FF3946BDE8F041DFF883
:1054DE00F02374E71EE038B500F0BBF9050004D0E8
:1054EE00152200F012F82C8141E031BD70B500F0AC
:1054FE00B5F8060008D0162200F007F800F02FF8D5
:10550E003346BDE8704038E070BD012130E700221F
:10551E00042177E00420BDE8F081102202218FE7FC
:10552E0010B500F081FA04000AD0112200F01AF82A
:10553E00FFF7E3FE2146BDE81040DFF888233EE783
:10554E00042010BD38B500F084F9050006D01222F3
:10555E0000F008F800F073F9287208E031BD3481CC
:10556E00B572CAE6022103E7FFF702FFAC60FFF750
:10557E00C4FE2B4601B0BDE83040022210218AE65F
:10558E00002203213EE000B583B00FF245030193E4
:10559E0006230093032300F04CF80EBD10788028EC
:1055AE0002BF508840F27F61884208D190889842AD
:1055BE0002BF91790098814201D1012070470020ED
:1055CE00704710B582B00624FFE70094FFF7E6FFA0
:1055DE0016BD0323F5E71078802802BF508840F2ED
:1055EE007F6188420CD19088032818BF042807D108
:1055FE00907900281CBF1028112801D10120704776
:10560E0000207047F8B500F006FA07000CD03246BD
:10561E002946FFF7ADFEBC60FFF76FFE3946BDE8C9
:10562E00F840DFF8A422CAE60420F2BD00001806F6
:10563E0000202DE9F04100F035F807000AD0069A57
:10564E004146FFF795FE3C817D8100F065FA079A91
:10565E0000F00EBA5EE7022300F0FFB804460D46D6
:10566E000C20FAE52DE9F04100F06EF807000FD09E
:10567E00062200F015F83C81BE72FD6000F019FAAA
:10568E0000F0D6F83946BDE8F0410FF2593296E6F1
:10569E0040E70A23E1E03423DFE01223DDE0424657
:1056AE0003215BE604460D46164698461020FFF78A
:1056BE00D4BD2DE9F04180460D4616461F461820F2
:1056CE00FFF7CBFD040014D0002200F044F800F0E8
:1056DE00F0F920726572A672E7600698206107984D
:1056EE006061FFF70AFE2146BDE8F0410FF261222C
:1056FE0065E60FE70FF25D23092202E00FF2592350
:10570E0011220021EBE0F8B500F09DF807000FD054
:10571E000A2200F020F800F092F838727D813E7374
:10572E00FFF7EBFD3946BDE8F8400FF22D2246E6B5
:10573E000420F2BD0FF229230422E2E70FF2252303
:10574E000522FFE70021DBE004460D46164698468B
:10575E001420FFF782BD0421FFF700BE70B5FFF7DE
:10576E007DFF06000BD03022FFF7F5FF00F009F8A1
:10577E003146BDE870400FF2ED12FFF720BE042057
:10578E0070BD34817581FFF7B8BD0A20FFF765BD86
:10579E007CB5044600208DF804000D460C20FFF762
:1057AE005CFD06000BD01122FFF7AFFEFFF7D7FE10
:1057BE0000F01CF80FF2B5123146FFF720FE9DF8EF
:1057CE00040076BD1CB500F02CF904000AD012229C
:1057DE00FFF79BFEFFF791FD00F008F80FF2951210
:1057EE0000F008F8FFE79DF8040016BD01A900912E
:1057FE00012370472146FFF702BEF8B500F012F8FC
:10580E0007000DD03622FFF7A6FF3C817D8100F008
:10581E0083F93946BDE8F8400FF26912FFF7CFBDA4
:10582E000420F2BD04460D4616461020FFF715BDA6
:10583E003874FFF762BD04460C20FFF70EBD2146FB
:10584E005020FFF768BD04460D4616460E20FFF7A2
:10585E0004BD04460A20FFF700BD2DE9F041FFF715
:10586E0073FF07000FD0FFF71AFF3C81FD60314632
:10587E0000F020F9FFF7DCFF3946BDE8F0410FF2EA
:10588E000512FFF79CBDFFF745BE38B514460F4A0B
:10589E0015682A0006D0009302460B4621460120C9
:1058AE00A84732BD002032BD0A4A13681A0003D041
:1058BE000A4601460120184770478C090020F95905
:1058CE000000FF590000055A0000E55500006C1C51
:1058DE000020701C002004460D46164670472DE928
:1058EE00F041FFF7DFFE070004D000F005F8BC60C2
:1058FE00FD60BAE0FFF70EBE32460421FFF72EBD63
:10590E002DE9F041FFF7CEFE070006D0FFF7F4FFBA
:10591E00FFF795FF3872FD60A7E0FFF7FBBD10782B
:10592E00802802BF508840F27F6188420CD1908857
:10593E004FF680710140B1F57E4F04BF00F07F003D
:10594E00984201D1012070470020704700000023CB
:10595E00E5E70923E3E71123E1E70A23DFE7042361
:10596E00DDE70523DBE73023D9E780B5112302E01D
:10597E00000080B5122300930123FFF70FFE02BD36
:10598E0000003623CBE71078802802BF508840F203
:10599E007F6188420DD190884FF6807101404FF69D
:1059AE008052914205D100F07F00012801DB0120D9
:1059BE007047002070471078802802BF508840F250
:1059CE007F6188420DD190884FF6807101404FF66D
:1059DE008052914204BF00F07F00984201D1012015
:1059EE007047002070470623E5E780B51323C2E712
:1059FE0080B51423BFE780B5112300930223BCE7C3
:105A0E0000F015F802BD80B50FF2910100F049F8D3
:105A1E0041F20540F4E704460D4616460C20FFF70A
:105A2E001CBC00208DF804000820FFF716BC2DE9E1
:105A3E00F041FFF750FF98460E20FFF70EFC0700CF
:105A4E0009D000F00AF83D817E81A7F80C80FFF79F
:105A5E0054FC069A0CE0FFF75DBD812038700120E2
:105A6E00F870BC8070473D81FE60FFF746FC4246F1
:105A7E003946BDE8F041FFF7A2BC1078802802BF7E
:105A8E00508840F27F61884204BF9088984201D1CD
:105A9E000120704700207047000041F20543ECE7FB
:105AAE000000009100230146002270473C817D8159
:105ABE00BE8141465020FFF72EBCF8B5FFF7B2FE6F
:105ACE0007000DD0012200F022F83C727D7200F02A
