:0400000500000BC725
:020000040000FA
:1000000000370020B10B0000C10B0000C30B000043
:10001000C50B0000C50B0000C50B00000000000070
:10002000000000000000000000000000C50B000000
:10003000C50B000000000000C50B0000C50B000050
:10004000C50B0000C50B0000C50B0000C50B000070
:10005000C50B0000C50B0000C50B0000C50B000060
:10006000C50B0000C50B0000C50B0000C50B000050
:10007000C50B0000C50B0000C50B0000C50B000040
:10008000C50B0000C50B0000C50B0000C50B000030
:10009000C50B0000C50B0000C50B0000C50B000020
:1000A000C50B0000C50B0000C50B0000C50B000010
:1000B000C50B0000C50B0000C50B0000C50B000000
:1000C000C50B0000C50B000038B514460D1800F034
:1000D0009DFA401E8041C00FDFF884140A68002A90
:1000E000FCD02C6001220A6000281CBFBDE8314012
:1000F00000F090BA31BD38B5DFF86804DFF8685415
:10010000046814F1010F08BF002400F0E3FADFF8DF
:100110005C14002008600120DFF854140860DFF848
:100120005414086028680028FCD1DFF84C04DFF87C
:100130004C24416812688908890041F0005141F05F
:100140000401520748BF41F001010BD4026812F0CC
:10015000030F07D041F003024260026802F003027D
:10016000032AFAD14160DFF81804006828B1DFF8EB
:1001700014040068204600F031F8DFF80C14DFF8B2
:100180000C2400200860DFF8080401686FF31B41AD
:1001900011430160DFF8FC030168C1F3013101295B
:1001A00007D10168DFF8F023114041F4003202600A
:1001B000016028680028FCD131BDDFF8E01382B26D
:1001C0000A60C0F30740486001208860DFF8D00370
:1001D00000680028FAD00020886070472DE9F84FA9
:1001E0000446DFF8C00301210160DFF8BC13096891
:1001F0000029FAD0C021DFF8B493DFF8B463DFF848
:10020000B453DFF8B473C9F80010B16889075DBF53
:100210007168090C41F0F00172212970002101631D
:10022000D6F80C803868C0F3046000F0EBF94FEAB0
:100230002871491C08181628A8BF152004DA6FF089
:1002400009018842B8BF084600F01F0040F4F8508A
:100250002883DA4DDA480068800748BF48F04068D4
:10026000D848C8F3C06181F0010101605FEA8832BB
:10027000C8F3806181F0010181602968C1F3836066
:10028000C1F38F2121D44FEA084212164FF6FF73B3
:1002900007E0490804D11946400804BF01200121A4
:1002A000521C002AF5D4012A0FDB490041F001015C
:1002B000B1F5803F21BF0121400040F0010010282E
:1002C00024BF0F201946521EEDE7DFF8FCA241EAD9
:1002D0000042182100F094F928682968C0F38700CB
:1002E00001F0030140EA01200090002340F2FF32B8
:1002F0002C21504600F038FAE86A8204920C1C2146
:1003000000F07EF9686A20F00332142100F078F9D9
:10031000286AAE4901EA0002102100F071F9A86ACA
:10032000B368DB07C0F30351C0F303420BD4736817
:100330004FEA035C01EB2C711B0481F3040102EB17
:10034000237282F30402120442EA015182B20A4388
:10035000222C24BF00F0804002430C2100F050F911
:100360000120222C03D3E86B000F00F00100DFF81E
:1003700060B2400040F020008BF808000120222CE1
:1003800003D3E86B400F00F00100002240F01000A2
:10039000202C8BF8080007D3A86CC10C01F4407125
:1003A000C0F3845040EA0102282100F029F900201E
:1003B000202C03D3A86C000D00F00300400040F097
:1003C00060008BF80B000020222C03D3E86BC00EDA
:1003D00000F00100C00040F080008BF80000002019
:1003E000222C03D3E86B400D00F03F0080007949D8
:1003F00040F47C40202C0880774A0AD3A86C020382
:10040000810A02F47C1242EA815100F00F0041EAB5
:100410000032082100F0F4F8704C4FF480002060A6
:1004200040F20F22F96D6E4889B2914212D279687A
:100430007A68C1F30361C2F3034201B1491E072A7E
:1004400005D0062A0EBF0722921C02F00F0241EAD5
:10045000021101704FEA984101F00301012902D015
:10046000022927D023E0E96B8A0320D44FF480428D
:1004700022604B0AD0F80A2022F08F0203F080039A
:100480001A43C1F303331A43C0F80A20C1F303230C
:10049000D0F80920120943EA0212C0F8092001F03D
:1004A000E701826822F0E7021143816002E04FF029
:1004B000004020604FF4007020644A49E86B4A4FC6
:1004C000C00C00F0030040F0300008704FEA985074
:1004D00010F0030003D0022825D008D325E0012125
:1004E000042000F065F94148FFF767FE21E0012094
:1004F00000F080F980464146042000F059F90420BC
:1005000000F078F94045FAD136683002000AFFF76A
:1005100054FE7B691B684FF060220721300E98471C
:100520004FF480602060032100E00221042000F0ED
:100530003FF9E8692E4900F03F00087047F61800BF
:100540002C4908802C4800683968C968022088470F
:100550004020C9F80000012028490860BDE8F18F5B
:1005600000800C401C1300500C0068428404604260
:100570005C600C400822044300400340B03F005040
:1005800080012843000120438C21084000003901EC
:100590004820034004000940FFFFFCFC3C600C4085
:1005A00084088C43101009409402224300600C40E0
:1005B000A83F005056620840B81200505013005037
:1005C000000009400000204300A00C40FFFFFC0099
:1005D00041A10C40DCA10C4000803F4040A00C40F9
:1005E0000260084008A10C40A0010010BD37860041
:1005F0000BB00C4070B00C402C20094094046042B9
:10060000504661E51628A8BF20387047EFF31080E8
:1006100072B67047EFF3108062B670472B490A68D4
:10062000C2F30F324BF69A139A424FF0FF3007D1C4
:100630000868000F0B2801D1042070470020704784
:100640004BF6BE118A4201D1012070474BF6413171
:100650008A4201D1032070474BF620318A4208BFFD
:10066000022070471948F8B50068050F184800685F
:10067000C6B2802E28BF0026FFF7D0FF4FF0FF3410
:1006800006F10A0730B102281BD012D3042819D072
:1006900017D318E0012D12D0032D06D0072D06D058
:1006A000082D08BF06F116040DE014240BE01524F4
:1006B00009E025B1022D08BF06F1140403E00A2465
:1006C00001E005B93C4660B2F2BD000018130050CD
:1006D000A010005080B5FFF7A1FF18B9FFF7C2FFC7
:1006E000162800DAFEE701BD70B504460D46164631
:1006F000FFF78CFF401E8041C00F1A490A68002A8C
:10070000FCD0012E02D0022E02D003E0257002E0C0
:10071000258000E0256001220A6000281CBFBDE89A
:100720007040FFF777BF70BD38B504460D46FFF740
:100730006DFF401E8041C00F0A490A68002AFCD0A4
:10074000012D02D0022D02D003E0247802E024889B
:1007500000E0246801220A6008B1FFF75BFF204631
:1007600032BD000000800C4010B500EB4100102BA2
:10077000144600F5007002D3103B001D240C0299B2
:10078000994041EA0441BDE810400422ACE738B585
:100790001D460818102D144602D3103D801C240C51
:1007A0000221FFF7C1FF04EA000188B2E84032BD30
:1007B00070B50446E00782B00D46154E05D5A8B2C7
:1007C00000900023012200F011F8A00705D5A8B27F
:1007D00000900123022200F009F8600705D5ADB2B0
:1007E000009502230C2200F001F873BD0021304671
:1007F000FFF7BABF0146042907BF1D234FF0C042CF
:100800001C234FF0805202483421FFF7C0BF000084
:1008100000A00C4080B507490968496905E080B52A
:10082000044B1B689B69984700E08847024A0021F7
:10083000116002BDA80100108404604280B51EF062
:100840009FFE002801D0002001E05FF0FF3002BDD4
:1008500080B51EF0C7FE01BD70B504000D00160086
:100860003200290020001EF0C5FE002801D0002023
:1008700001E05FF0FF3070BD70B504000D001600A0
:100880003200290020001EF0E6FE002801D00020E2
:1008900001E05FF0FF3070BD62B38B0708D0521EDD
:1008A00011F8013B00F8013B00F024808B07F6D1E2
:1008B000830740F0208000BF103A07D330B4B1E87E
:1008C0003810103AA0E83810F9D230BC530724BFD2
:1008D000B1E80810A0E8081044BF51F8043B40F804
:1008E000043BD20724BF31F8022B20F8022B44BF6F
:1008F0000B7803707047083A07D3B1E80810083A3C
:1009000040F8043B40F804CBF7D25307E4E7050670
:10091000416851F002014160704742698A43426177
:10092000704701627047012063490860704763485F
:100930000068400810F00100704738B504000D0051
:10094000002D10D021785FF080405D4A1268526817
:10095000904769465FF08040594A1268D2689047D4
:100960006D1E641CECE7002032BD38B504000D009C
:10097000002D17D000215FF08040514A1268926824
:100980009047002802D15FF0FF300CE069465FF02D
:1009900080404B4A1268D2689047009820706D1EC4
:1009A000641CE5E7002032BD80B569465FF08040F9
:1009B000434A1268126990470028F6D101BD7CB500
:1009C00004000D0006203F49096849698847062050
:1009D0003C490968496B88470128F8D14FF4A06069
:1009E00038490968C9698847FFF79DFFFFF79FFFEE
:1009F0000028FBD04FF4807032490968C9698847E4
:100A0000FFF791FFFFF793FF0028FBD00F215FF066
:100A10008040FFF782FF03215FF08040FFF781FFF6
:100A20000820019000940023002227495FF08040B5
:100A3000234E36683668B04700955FF0FF331322C7
:100A400012215FF08040214E3668766CB0475FF02F
:100A50008040FFF75DFF69465FF08040184A1268EA
:100A6000126990470028F6D173BD80B54FF48070AD
:100A700014490968096A8847FFF755FFFFF757FFD0
:100A80000028FBD04FF4A0600E490968096A884726
:100A9000FFF749FFFFF74BFF0028FBD0062009496D
:100AA000096889698847062006490968496B8847AB
:100AB0000228F8D101BD0000282008602820084045
:100AC000C4010010B8010010006CDC02B401001079
:100AD00019E050F8041BCB0744BFA9F101035918D2
:100AE000121F0023042A41F8043BF9D25FEA827CFA
:100AF0000B4604D54FF0000CA1F800C09B1CD10799
:100B000044BF0021197050F8042B002AE1D170472E
:100B100000002000C215000000001000C2140000F8
:100B200000000800EF12000000000400EF110000B8
:100B3000000000000000000010B50749794418319A
:100B4000064C7C44163404E00A68081D5118884796
:100B50000146A142F8D110BD0800000014000000B9
:100B600071FFFFFF080000000000002000000000EF
:100B70000120C046002801D0FFF7DEFF0020C0465C
:100B8000C0461EF00DFC00F000F800F001B80000B7
:100B90000746384600F002F8FBE7000080B5C04683
:100BA000C046024A11001820ABBEFBE72600020037
:100BB00080B5FFF7A0FA00F006F800F002F801BDDA
:100BC000FEE7FEE7FEE7C046C046C046C046FFF768
:080BD000CFFF000090FFFF00C1
:10100000FFFFFFFFFFFFFFFFFFFFFFFFFFFFFFFFF0
:1010100060430020CDE100002DD900002DD9000053
:101020002DD900002DD900002DD900002DD90000A8
:101030002DD900002DD900002DD900002DD9000098
:0C1040002DD900002DD90000F9D80000C7
:10105000DFF88408007D7047DFF87C28117D10756B
:1010600008467047DFF87018D1E90023C0E9002373
:101070007047DFF86408C0690047DFF85C18096A48
:10108000084745E110B501F04BFC38B1DFF8AC483A
:10109000A06801F04EFCA0614FF0FF3010BD10B50C
:1010A000FFF7EFFF0446DFF894088068002101F0A5
:1010B00044FC00F026BC38B5FFF7E3FFDFF87C58AE
:1010C0000446A868002101F038FC6969081AA9697A
:1010D000814238BF002084F3118832BD70B5DFF83B
:1010E000EC6804460D46B068214601F024FC3461EA
:1010F000756170BD2DE9F8438846DFF8C4180968AA
:101100000446DFF8C8080F184FF0FF393D680BE0C0
:10111000F069B1698847B08A012805D1F068A0EB71
:101120000800484598BF8146BD4211D02E462D6823
:10113000B08A0128F8D1012C04BFF0684045EAD1FB
:101140003169002907BF0020B0820818F060DFE78E
:101150004846BDE8F2832DE9F041FFF792FFDFF842
:101160006C580446A868012101F0E7FB0121A9831E
:101170000021E9836E6929682A68871B801A711A21
:10118000884204D20020A88384F311882BE084F3E2
:101190001188002406E0A61931460120FFF7AAFFB6
:1011A0003F1B0446A742F6D2FFF76BFF8046E88B51
:1011B000012804D131460020FFF79CFF0446A969AD
:1011C00014F1010F08BF084603D0E01B814238BF6D
:1011D00008468119FFF782FF012028840020A88398
:1011E0002E6088F31188BDE8F08138B504461D46AD
:1011F000A2606869DFF8C8272061A1612146A8695B
:10120000E0610020A0821268DFF8C007101800F02B
:101210009DF8288A18B12046BDE8324046E031BD2D
:1012200038B50446FFF72DFF0546204600F09DF82F
:1012300000F0DBBC8260816100220261C3618282B6
:101240000146DFF87C27DFF88407126810187DE07C
:1012500038B5DFF878570446288C012804BFA88BDE
:10126000002817D1A868012101F067FB29686A6985
:101270002B68D21A411A8A420CD3A2681118E16075
:101280000123A3826B69181A82420ED21046BDE870
:10129000344023E7FFF703FFA1680818E06001204E
:1012A000A082A88B012808BFE88331BD38B5044669
:1012B000FFF7E7FE05462046FFF7CAFF00F095BCA2
:1012C00000218182DFF87416C0684969884203D121
:1012D000DFF8C0080068E9E7704701617047816086
:1012E00070477047808A7047704780B500F001F8FA
:1012F000FCE738B50024DFF8A05804E0686850F82F
:1013000024008047641C28688442F7DB31BD00BF9D
:10131000EFF31180202181F31188704712E00168FA
:101320000A680260506008467047016881420CBF3D
:10133000012000207047426808604A6011604160E7
:10134000704700BF406000607047F4E738B504465E
:101350000D46FFF7DCFF2C606168696061680D6015
:101360006560FFE780F3118831BD01684268116054
:101370004168006841607047CAE710B50446107EB6
:10138000207261810021DFF8D4080068001901F0A3
:10139000CFFB002020600120606010BDDFF8BC188A
:1013A0000968081801F0D8BB38B50446FFF7E4FF18
:1013B0000546207C022808D12046FFF7D6FF0020F2
:1013C00020742946A06800F013FC00F00EBCF0B5B4
:1013D0000E468FB016F1010F18BF002E05460AD039
:1013E0006B463246DFF8781805A8FFF723FF05A8FB
:1013F0000390022002E00020039003208DF81000EB
:10140000DFF8580800684719FFF7B6FF04466889F7
:1014100068BB16B984F3118835E000F033FA00F0A8
:10142000C8FAC0F818D0029800F0BAFB69463846EE
:10143000FFF781FF9DF81000022804BF0398FFF713
:1014400007FF84F31188284600F023FAFFF794FF82
:101450000446039818B1FFF788FF0020039000208E
:101460000299886184F311889DF810000BE0688967
:10147000401E6881039818B1FFF777FF00200390A2
:1014800084F3118801200FB0F0BD70B50546DFF878
:10149000CC0700684619FFF76FFF04463046FFF798
:1014A00044FF38B1287AC0074EBF01206889401C2C
:1014B000688134E100F0E6F905463046FFF72FFF7A
:1014C000064601203074F06808B1FFF7F9FEB068F5
:1014D000214600F08DFB84F311882846BDE870405A
:1014E000D7E115E7EFF31180002114E72DE9F84368
:1014F0000446DFF8D057A06AD5F81080EF68AE68D0
:101500002861EC60606AA860206A60620020A083A5
:1015100028800120FFF7A0FD8146FFF7E3FF216946
:10152000E068A2689047FFF7DCFF4846FFF794FDAC
:1015300001202880C5F81080EF60AE60BDE8F1831F
:10154000F8B5DFF8804725696068B0FA80F0C0F12F
:101550001F00616901EBC0063046FFF7E0FE074659
:101560003046FFF7E2FE00F095F8606840B1B0FA4F
:1015700080F0C0F11F00616901EBC006B542EBD3FA
:10158000F1BD000070B5DFF83C472669FFF7A9FF01
:1015900005466068B0FA80F0C0F11F00616901EB98
:1015A000C00086420ED200F06DF90646DFF848080A
:1015B00001F0D6FB0020208085F311883046BDE87D
:1015C000704066E10020208085F3118870BD10B561
:1015D000002404E02146002001F013FB641CDFF826
:1015E000C00700688442F5DB002000E0401CDFF803
:1015F000381809688842F9D300F08DBB09E0DFF89C
:10160000C4060188481E8041C00F7047DFF8B41639
:101610003AE1002080B590B9FFF763FFDFF8A41628
:101620004A6822B180F31188FFF7ACFF02E00A801C
:1016300080F3118800F026F9BDE8024029E101BDE0
:1016400000B17047F8B5DFF87C466068F8B1FFF785
:1016500049FFFFF746FF25696068B0FA80F0C0F1E6
:101660001F0003E0B0FA80F0C0F11F00616901EBD8
:10167000C006B5420BD23046FFF751FE0746304652
:10168000FFF753FE00F006F860680028EAD100205A
:101690002080F1BD18B16068B96988436060384640
:1016A00024E7DFF8200680687047F8B504460F4647
:1016B00016461D46FFF745FEA76000F04AF808BF32
:1016C000052000F040F80020A08300F04AF8A06256
:1016D000284600F0CAFE00B10220F2BD704770B586
:1016E0000546FFF7FEFE0446A88B00B117E0012077
:1016F000A883FFF78BFF0646A86A2946FFF71BFE63
:10170000DFF8C005AA6941681143416084F311887C
:10171000002E04BFBDE87040FFF734BF70BD84F3F6
:10172000118870BD616280F311882046704738B51A
:1017300004460D46FFF7D5FE616A2943FFF7F2FF25
:10174000BDE83240CBE76061012061698840A0615B
:1017500070473069E06070692061B06910F1010F75
:101760007047F06960622062DFF85805616940697E
:1017700001F0D7B9CCE5EFF311800021CBE50000F3
:1017800010B5DFF848480020208101E000F047FA5A
:1017900060680028FAD06068B0FA80F0C0F11F00DD
:1017A000A16901EBC0006169814209D222696061CF
:1017B0000068206100F1100102F1100001F0C3F88F
:1017C00020890028DFD110BD10B5DFF8004820893E
:1017D00008B1FFF7D5FF00202080BDE81040CAE720
:1017E00038B501F0ACF800B3002407E02146002032
:1017F00001F03BFA002100F040F9641CDFF8E80733
:1018000000688442F2DB0024DFF8C05706E0286B52
:1018100050F82400002100F030F9641CDFF8CC07F8
:1018200000688442F3D34FF0FF3032BD5FF0000018
:1018300010B594B0FFF79EFFDFF8904701E000F08D
:10184000EEF960680028FAD06068B0FA80F0C0F164
:101850001F00A16901EBC0006061006820610020E9
:1018600020810220FFF7F8FBFFF785FFFFF782FFDB
:1018700001F050F8206900F1100104A801F063F8AC
:1018800014B010BDDFF84417088801220A807047A1
:10189000002010B558B9FFF76DFFDFF830472089F9
:1018A00020B1FFF7ACFE08B1FFF76AFF93E710BD68
:1018B00000B1704710B5DFF81447208920B1FFF759
:1018C0009EFE08B1FFF75CFF0020208010BDDFF80E
:1018D000FC06006970470000101C0020808F012862
:1018E00000D0704710B5FFF745FF0446DFF8DC066F
:1018F000C168491EC16004D184F311880020FFF73C
:10190000BCFB84F3118810BD70B5DFF8C006046914
:10191000FFF7B8FF0546FFF72DFF0646204600F00B
:101920003FF9032020752046FFF7D8FF86F3118882
:101930002046FFF706FD284644E00000701C00200A
:1019400038B500F02BF90546A06829464BE100B9EF
:10195000704730B58DB002466B46DFF8941604A888
:10196000FFF768FC04A80390FFF704FF0446FFF7A5
:1019700089FF00F01EF800F013F90398FFF768FCE8
:101980006846FFF7DEFC0299C1F818D084F311888D
:101990002846FFF77EFFFFF7EDFE04460398FFF7AA
:1019A000E4FC0020039084F31188029988610DB053
:1019B00030BD0546DFF8140600690290704700004C
:1019C0006CE20000BDE8704063E70000701C00207E
:1019D0002DE9F04116460446B069A0600D46706AD4
:1019E000984610B9DFF80C0600686062376A17B9CC
:1019F000DFF80406076800F0A8FFF26941424AB325
:101A000040B1401E801808402062381A1018084063
:101A1000E06101E02262E7614FF0FF306062A562A1
:101A20003069E06270692063B06A6063B08DA0873E
:101A3000012804D1DFF89405C168491CC160414602
:101A4000204600F01AF80446404600F00EFD90B122
:101A5000E01C10E020B1C219521E1140E16100E00B
:101A6000E7610246E169606A434600F020FD002814
:101A70002062D4D10120BDE8F08170B50D46044646
:101A80002B46DFF87825DFF8781500F05AFF206143
:101A9000284600F0EAFC38BB012020750020A06138
:101AA000A168DFF8280500290AD50021E160DFF8E8
:101AB00054150968081820642146FFF747FC13E015
:101AC000A26801219140E160A168806901F029F8D4
:101AD0002064FFF7D7FE0546FFF74CFE064620467A
:101AE00000F07BF800F002F8002070BD86F311884A
:101AF0002846CEE62DE9F84F04460D46FFF7C2FE14
:101B00008146FFF737FED4F80880A845834639D0D0
:101B1000002DDFF8B86406D5DFF8E80400684FF060
:101B2000000A871905E0012000FA05FAB06900EB08
:101B3000C507207D01281BD12046FFF716FC206C2D
:101B4000FFF7F3FB18B17068E16888437060306993
:101B5000A04205D1776121463868FFF7F6FB03E024
:101B600021463846FFF7E7FB70684AEA00007060DC
:101B7000A560C4F80CA02764002D44BF002070614C
:101B8000012030818BF311884846FFF782FE4046E2
:101B9000BDE8F28F74E200002CE200000446E9E5A3
:101BA0002DE9F0410446DFF82454266C6F68D4F820
:101BB0000C80FFF7DAFB3046FFF7B7FB10B127EADE
:101BC000080068602869A04204BF00206861022004
:101BD000207501202881BDE8F08138B5FFF7DEFFD0
:101BE00005462946204600F003F885F3118831BDEB
:101BF0002DE9F041DFF8D463776804468846E5684C
:101C0000206C2146FFF797FB45EA07007060012032
:101C10002075308188F31188BDE8F041AAE580B5D0
:101C2000DFF8E403DFF8E4230068904204D1FFF713
:101C3000A2FDFFF75EFB0DE001000AD1FFF79BFD5F
:101C4000002001E00098401C009000980028F9D086
:101C500000E08047BDE801408CE500007CE2000028
:101C6000A913000080B500F029FE08B14FF0FF3045
:101C700002BD00F051BE00F051BE00F047BE38B5C5
:101C8000044608461146049D1A462B4600F01FFEE6
:101C90006060284600F0E9FB00B1012032BD00B5CC
:101CA00085B0002101A8FFF7E8FF039804E0009940
:101CB000BE2008700098401C009000986845F6D33C
:101CC00005B000BD9C1C002000F022BEFFF720BB29
:101CD000EFF311800021FFF71EBB10B5FFF7F6FFF1
:101CE000DFF82C0341698269C90802EBC101083998
:101CF000016100244FF0FF31016007E02146002020
:101D000000F037FE002100F04DF8641CDFF80403FA
:101D100000688442F2DB4FF0FF3010BDFEB517467D
:101D2000DFF8F42205460846DFF8E41268821E4612
:101D3000C969126851F82010089C914210D0019096
:101D40000021DFF8D8020068009002918F23DFF8AD
:101D5000D00201880022204600F095FB0120FEBD44
:101D600000F0AAF8AF6070696860306A10F1010F86
:101D700008BFFF2028740020318B01B10120B18CF5
:101D800009B140F00200E8602146284600F00AF858
:101D90000546204600F069FB00B1E81CFEBD0000CE
:101DA00080E2000038B50446217BB4F912008907AF
:101DB000054602D5217C202907D2A16800F0C0F891
:101DC000B4F912004042608209E0DFF84402DFF813
:101DD0005412406A40F82540284600F0B1F8217CB2
:101DE000284600F0DBF8207BC00744BF284600F0FF
:101DF00085F80020E06032BD41150000012900D1C6
:101E0000704710B5B0F91240204600F055F8DFF8E1
:101E100008020168204600F093F8DFF8F411496ADF
:101E2000002041F8240010BD84E2000010B5DFF866
:101E3000E001DFF8F421C169DFF8F0010160036817
:101E4000934211D0002302E041F823405B1CDFF8ED
:101E5000E0412468A34207D20F2B32BF52F823403F
:101E6000DFF8B4412468EFE7DFF8C8214168126861
:101E700021F47F4101EB0221DFF8BC2151184160C0
:101E800020218176DFF8B4110968C16010BD1FE719
:101E9000000000002021EFF3118081F311887047CA
:101EA00080F311887047000040F2000CEFF31180BE
:101EB0008CF31188704700001028DFF884110FD3CD
:101EC000A0F1100252091038012300F01F0011EB9D
:101ED00082018340D1F80001C1F8803118400AE046
:101EE0000F2807D108690A6932F0020200F00200E7
:101EF0000A6100E0002000BF704700001028DFF8F2
:101F000040110FD3A0F1100252091038012300F044
:101F10001F0011EB82018340D1F80001C1F80031AC
:101F200018400AE00F2807D108690A6952F0020236
:101F300000F002000A6100E0002000BF70470000CE
:101F4000DFF8CC20D26902EB800002688A4218BF19
:101F50000160704710B5DFF8EC40206900F010FF19
:101F60000020206010BD30B5DFF8D82093694360B1
:101F70005469846025462A78BE2A04D001220021B3
:101F80000160104630BD00220029F8D015F8011B71
:101F9000BE29FBD0691E591A6118F1E7DFF8A020AD
:101FA0008218102802D382F8F0137047042828BF43
:101FB00082F8141D7047816042607047102804D376
:101FC000DFF87C101038C1F8000F7047B81C0020F3
:101FD000DFF83C305B6801221A80DFF86421126868
:101FE0001300FED0104700008CE200009CE20000CD
:101FF0004119000094E2000098E200000919000075
:10200000C917000088E2000090E20000F31200000F
:102010003C1C002050E200005CE2000048E20000AE
:10202000423500003DD800001010000008ED00E02F
:102030004CE2000060E200000000FA0554E20000FB
:1020400000E000E03C1C00202DE9F0410446FFF7D1
:102050003DFEFFF717FC0546FFF7D8FA06460020BD
:10206000FEF7FAFF8046DFF864059849406AD1F828
:10207000041DC9B250F82170FC60FFF729FE786892
:10208000B9688847FFF722FE4046FEF7E5FF06EBFA
:102090000520BDE8F081C0B2FFF7D2BA000AFFF711
:1020A00007BC7CB504460D46E169164619B1206AA5
:1020B000BE2200F089FE206B01902B46E06A009062
:1020C0003246A16A206AE4692018001F00F0EAFE87
:1020D00076BDDFF84805006870477047FFF718B90C
:1020E000FFF719B90020704710B50446DFF8300536
:1020F000006800220121001900F059FD00206060F5
:1021000010BD38B50446524D6068296988420BD02D
:10211000DFF80C0500684FF0FF310019FFF757F9A1
:1021200028696060002032BD012032BD31B94160B4
:10213000DFF8EC1409680818FFF7A7B9704700002A
:1021400058E200000120704700F0F9BEFFF7E0B848
:10215000DFF89C15C20744BF01220A60820744BF12
:102160004FF480720A60400744BF4FF4803008602B
:1021700070470000DFF8B425C30748BF116083072C
:1021800048BF5160400748BF91607047000010B5DC
:1021900004460020D4E90A2347F6906101F05AF979
:1021A000012928BF4FF0FF3010BD10B50C4601F0DB
:1021B000C9F9011D201AB0F1004F05D8081BB0F174
:1021C000004F38BF8C4200D20C462146BDE810407B
:1021D0000120CFE72DE9F04180460A46D8E90A01FF
:1021E000D8E90C45A0FB026701FB0277A6196F41F5
:1021F000340C002244EA07414046FFF7D6FFC8E905
:102200000E67BDE8F08180B5DFF8E80400680028BB
:102210001EBFDFF868054068002804D0818811B12E
:10222000002100F082F84FF0FF3002BDDFF8C40457
:10223000006800281EBFDFF844054068002806D06B
:10224000818821B1017B002908BF00F003B87047E5
:10225000B81C0020F8B50646FFF778FF0446DFF803
:102260002055DFF820750120E861FFF771FFF96A5A
:10227000096A142088473069B0F5802F34BF0421E3
:10228000010C0120FFF776FF3A6812682321002035
:102290009047DFF8F41401200860DFF8F0040168CB
:1022A00021F4E02141F4803101600120286084F3B1
:1022B0001188F1BD000010B5DFF8C004446800F0DB
:1022C00007F86069A169BDE81040084700E000E038
:1022D00001203DE7F8B504460D4601F03DF9D4E98B
:1022E0000A6732463B4601F0B5F83DB1A6FB002334
:1022F00006FB013307FB0033C4E90C23F2BD10B524
:10230000DFF87C04DFF88844002101600121C1610D
:1023100021602068FFF7DCFFDFF878140968096A9C
:1023200014208847206810BD000038B50446FFF728
:102330000DFF05462046FFF7E2FF85F311880020D8
:1023400032BD2DE9F04105461646EA699846304609
:102350000F46A96901F00CF9B8F1000F3C46766010
:1023600005D0EA6908234146304600F05CF8F6687B
:102370006969CFB9079BAA68E86800F0CBF8070045
:1023800008BF00201BD000F0AEF96968396007F182
:102390000804696849687960696849680F60696814
:1023A0004F6000F07EF803E00839204601F01CF988
:1023B000286810F1010F18BF206000F023F8BDE875
:1023C000F081F8B505460C461646EA69A9691F462C
:1023D000304601F0CDF876602FB1EA69082339461E
:1023E000304600F020F86869F668A0F10801204640
:1023F00001F0FAF8286810F1010F18BF206000F012
:1024000001F8F2BD286908B1716801512046704792
:102410000800194606D0130004D011F1010F08BFBF
:102420001047104770472DE9F843D1F80C80D8F8D1
:1024300000900446086815461E46AF1BA0EB090233
:10244000BA4288BF3A46204601F092F8256064609F
:102450003D19E560B14588BFB1464A464146284628
:1024600001F096F82E60BDE8F183DFF8401309789B
:10247000012904D118B1C06810B1012000E000208A
:10248000C0B27047000010B584B0089C0294079C4D
:102490000194069C0094DFF818432468A0471FBDF0
:1024A000FEE70146DFF8F002006800F057BA2DE9B8
:1024B000F0410546984684B00E4617464046FFF761
:1024C000D4FF044617B9DFF8EC020768002D12BFED
:1024D0002846DFF8E402006843463A46314600F0F9
:1024E00036FA070012D11CB94046FFF7BEFF68B9A3
:1024F000DFF8C80200680090029601953423DFF8E7
:10250000C002018800224046FFF7BDFF384604B0F4
:10251000BDE8F08180B50093002300F001F802BD12
:1025200070B51D46049B0C46FFF7C1FF060003D0A3
:102530002A46214600F048FC304670BD0A694260D8
:102540004A6982604969C1607047F8B50446DFF89E
:10255000740200680D46174600F0FEF96168002617
:102560007A1E0A4018BFBE1AA26873199A4203D293
:10257000FFF797FF0020F2BD7718521B921B5918E6
:10258000A2606160FFF78DFF3846F2BDDFF83802C8
:102590000088012800D07047E0B50020029001902B
:1025A0005523DFF82802006800900022DFF820029F
:1025B00001880020FFF767FF07BD00207047C26851
:1025C0000A60806848608860704700003C1C0020FA
:1025D000DFF80002818801B1704738B501218180A0
:1025E0000024DFF8F45104E0686850F824008047C4
:1025F000641C28688442F7DBDFF8E001DFF8E05173
:1026000000688047002404E0686850F82400804790
:10261000641C28688442F7DB31BD000064E20000DE
:1026200068E200002DE9F0470D4600268246012DA4
:10263000A4BFA90000F0DCFFDFF89871DFF8A40167
:10264000C7F800A00024D0F800800CE0DFF8980163
:10265000006830F8140028B158F82410002088478A
:102660004AF82400641CAC42F0DB0120F880B1463B
:1026700001E009F10109DFF874010068814518DA09
:102680000126002402E000200640641CAC420EDA61
:102690005AF8240010F1010F07D058F82410884789
:1026A0004AF8240010F1010FEDD10120ECE73000D1
:1026B000DFD01EB90FF2501000F008F8002038608B
:1026C000BDE8F08700BF4FF0FF30704710B50446FB
:1026D00000F009F8204600F043F9DFF81401006823
:1026E000BDE810400047DFF8DC00006800F034B9B6
:1026F0000420094044E2000038B50546FFF7F3FF27
:10270000DFF8F010DFF8F0304A681B6801249A42C5
:1027100006DA0B6843F822504A68521C4A6000E00F
:102720000024FFF7BEFE204632BD000018200940FD
:1027300010B5044600F00AF82046DFF8C01009681A
:10274000BDE8104008470000FEE7FEE770B504460C
:10275000DFF84400DFF89C50FFF7C7FF6E6806E023
:10276000296801EB8601761E51F8041C8847012E6A
:102770002046F5DABDE8704000F0F4B8341C0020C3
:1027800000002443840100108002244300200940FB
:102790002C200940B0010010D4E20000184909685B
:1027A0000847184909680847FEE770476A3900007A
:1027B000A4E20000FC1C0020B8E20000A0E200003F
:1027C000F6350000D4E20000EE350000A8E200007B
:1027D000E6350000001D002034E20000BCE20000ED
:1027E0003CE20000C8E20000C4E20000C0E20000D9
:1027F000D8E20000081D0020E0E20000DCE200005A
:10280000CCE20000D0E200007864632E72756E7432
:10281000696D652E537461727475703A20276D610D
:1028200078506173736573272065786365656465A7
:102830006400000000B587B007216846FFF7F2FE8C
:1028400007B000BDFFF780BC00B581B0FEF749FDC1
:10285000DFF8B001C06801B05DF804EBFEF73FBFE0
:1028600000B581B00FF21D00FFF746FFFFF7DEFC59
:10287000FFF72AFAFEF7C2FE01B05DF804EBFEF79F
:10288000D5BF000000B581B0FEF7C0FEFEF7FAFF2D
:1028900001B05DF804EB0320FEF7DEBB10B5044683
:1028A0000320FEF7D9FB2046BDE81040FFF740BFEC
:1028B000DFF85411DFF8540188617047DFF8140124
:1028C000006800281ABF4069C00F01207047F0B5AA
:1028D000044630208FB00D4600901E4613460196E8
:1028E00002AA0021DFF8A401FFF72BFD070009D0A1
:1028F000009602AB2A462146FFF710FA3046FFF752
:10290000B4FD00B1002738460FB0F0BDFFF72BBB78
:10291000FFF7BDBAFFF71EBBFFF7CEBAFFF7EEBA5F
:10292000DFF8B000006800281ABF8069C00F0120DE
:102930007047FFF72CBCFFF74DBCFFF7CBBC012065
:102940007047FFF7AEBB00F0D3BAFFF7C2BB10B5BC
:102950000468A468A04710BDFFF7C0BBFFF7C0BB69
:10296000FFF71CBFFFF71DBF09B9DFF83011FFF7F4
:102970005ABD01EB410208B9DFF8380300EBC20091
:102980007047F0B58FB004463020149F00900D467C
:102990001646019702AA2146DFF8F000FFF711FD65
:1029A000009702AB324629462046FFF7B7F9384672
:1029B000FFF75BFD0FB0F0BD00B581B001210091C4
:1029C00000230146DFF82423DFF8C000FFF720FDD5
:1029D00001B000BD001D002010B588B002AA0B99FF
:1029E0000191182100910146DFF84001FFF7A9FC91
:1029F000040008BF002003D002A9FFF76EFB2046A9
:102A000008B010BD701C00203C1C00200004000019
:102A100010B588B002AA0B990191182100910146C6
:102A20000848FFF78EFC040008BF002003D002A96D
:102A3000FFF75AFB204608B010BD09B9DFF8DC12D9
:102A4000FFF7F1BCA4DF0000F0B504462C208DB0E8
:102A50000D4600901E461346019602AA0021DFF89B
:102A6000C002FFF76EFC070009D0009602AB2A46B1
:102A70002146FFF704F93046FFF7F7FC10B10020BC
:102A80000DB0F0BD38460DB0F0BD000064DF0000B1
:102A900009B9DFF89012FFF7C6BC0000E0DD0000C6
:102AA00070B58CB004460193242000900D46134667
:102AB00002AA0021DFF87002FFF743FC060008BFFE
:102AC000002005D002AB2A462146FEF78EFB304699
:102AD0000CB070BD000070B58CB0044600200190B1
:102AE0000D4624200090164602AA2146DFF838023F
:102AF000FFF767FC02AB324629462046FEF775FB1E
:102B00000CB070BD00B581B0012100914FF0FF33D2
:102B10000146DFF81822DFF81002FFF779FC01B058
:102B200000BD08B100EBC1007047000084DF000069
:102B300010B588B00446002001900B461820009084
:102B400002AA2146DFF8E801FFF73BFC02A9204674
:102B5000FEF7E4FB08B010BD00B581B00121009183
:102B60004FF0FF3301460022DFF8C401FFF750FCAD
:102B700001B000BD09B9DFF8BC11FFF754BC30B596
:102B80008BB004462420019200900B4602AA00213B
:102B9000DFF8A401FFF7D5FB050008BF002004D033
:102BA00002AA2146FEF7E9FB28460BB030BD30B53E
:102BB0008BB00446002001900D462420009013465F
:102BC00002AA2146DFF87001FFF7FBFB02AA2946A3
:102BD0002046FEF7D2FB0BB030BD00B581B001211D
:102BE00000914FF0FF330146DFF85021DFF8480134
:102BF000FFF70EFC01B000BD09B9DFF84411FFF783
:102C000012BC01EB410208B9DFF8380100EB0210F9
:102C1000704770B5044628208CB00D4600901E46C3
:102C20001346019602AA2146DFF81C01FFF7C9FBF3
:102C3000334602AA29462046FEF737FD3046FFF705
:102C400014FC0CB070BD00B581B0012100910023CF
:102C50000146DFF8F820DFF8F000FFF7D9FB01B0FC
:102C600000BD01B93A49FFF7DEBB4C22514300B920
:102C700038480818704770B504463C2092B0154695
:102C800000900B46019502AA00213348FFF759FB3B
:102C9000060008D02B4602AA2146FEF799FE2846D8
:102CA000FFF7E3FB10B1002012B070BD304612B048
:102CB00070BD00007419002070B504463C2092B02D
:102CC0000D4600901E461346019602AA2146224850
:102CD000FFF777FB334602AA29462046FEF778FE27
:102CE0003046FFF7C2FB12B070BD0000FD1D0000B2
:102CF00010B58AB002AA0D990191202100910146D8
:102D00001648FFF71EFB040008BF002003D002A9ED
:102D1000FFF714FC20460AB010BD000010DE0000D2
:102D2000C4DF0000FCDE0000E4DF00002112000030
:102D300004E0000020DF000024E000009D130000FC
:102D40003CDE0000041A002044E00000DD16000014
:102D50006CDD00006C1A002064E0000084E00000DC
:102D600010B5EFF31484002C1CBF002181F31488EC
:102D70008047002C1CBF022181F3148810BD000085
:102D800000B5EFF3038212F0FF0F0DD06A46A2F1F7
:102D9000200282F309886FF0020E10604FF08071FC
:102DA000D1610849916170475DF804EB694681F390
:102DB000098880F308884FF00200EFF3148180F354
:102DC00014887047A92D000062F30F2262F31F429E
:102DD000401810F0030308D0C91A1FD3DB0748BFFF
:102DE00000F8012D28BF20F8022D130030B414463E
:102DF0001546103928BF20E93C00FAD8490728BFFA
:102E000020E90C0048BF40F8042D890028BF20F8B5
:102E1000022D48BF00F8012D30BC7047C91818BFFB
:102E200000F8012DCB0728BF00F8012D7047F0B442
:102E3000016844688368091801EB5402E40748BF3D
:102E40004B440C3091422BD011F8014B14F0030588
:102E500004BF11F8015BED1C26090F2E07D111F8F4
:102E6000016B0F3603E011F8017B03F8017B6D1E47
:102E7000F9D1002EE6D0A40811F8015B04F0030498
:102E8000032C08BF11F8014B05EB04241C1BB51CD7
:102E9000D8D014F8016B03F8016B6D1EF9D1D1E79E
:102EA000F0BC704740F8043D40F8042D40F8041D84
:102EB000019940F8041D009940F8041D0B4940F8A1
:102EC000041D81EA0101A1F1010140F8041D40F84F
:102ED000041D40F8041D40F8041D40F8041D40F88E
:102EE000041D40F8041D40F8041D7047012F000028
:102EF0002DE9F04FC0F800D0D1F800D0BDE8F08F38
:102F00000498804700980199029ADDF80CE0104778
:102F100038B514460D1800F06FFB401E8041C00FFD
:102F2000DFF884140A68002AFCD02C6001220A60B1
:102F300000281CBFBDE8314000F062BB31BD38B590
:102F4000DFF86804DFF86854046814F1010F08BF63
:102F5000002400F0C5FBDFF85C14002008600120AD
:102F6000DFF854140860DFF854140860286800285B
:102F7000FCD1DFF84C04DFF84C2441681268890862
:102F8000890041F0005141F00401520748BF41F06F
:102F900001010BD4026812F0030F07D041F00302C5
:102FA0004260026802F00302032AFAD14160DFF8AE
:102FB0001804006828B1DFF814040068204600F007
:102FC00031F8DFF80C14DFF80C2400200860DFF87B
:102FD000080401686FF31B4111430160DFF8FC0333
:102FE0000168C1F30131012907D10168DFF8F0233D
:102FF000114041F400320260016028680028FCD1D1
:1030000031BDDFF8E01382B20A60C0F307404860C8
:1030100001208860DFF8D00300680028FAD0002083
:10302000886070472DE9F84F0446DFF8C00301219E
:103030000160DFF8BC1309680029FAD0C021DFF86D
:10304000B493DFF8B463DFF8B453DFF8B473C9F8AE
:103050000010B16889075DBF7168090C41F0F0018B
:103060007221297000210163D6F80C803868C0F302
:10307000046000F0EBF94FEA2871491C0818162883
:10308000A8BF152004DA6FF009018842B8BF0846CE
:1030900000F01F0040F4F8502883DA4DDA48006849
:1030A000800748BF48F04068D848C8F3C06181F045
:1030B000010101605FEA8832C8F3806181F001019B
:1030C00081602968C1F38360C1F38F2121D44FEA65
:1030D000084212164FF6FF7307E0490804D119465B
:1030E000400804BF01200121521C002AF5D4012A06
:1030F0000FDB490041F00101B1F5803F21BF012103
:10310000400040F00100102824BF0F201946521E35
:10311000EDE7DFF8FCA241EA0042182100F094F943
:1031200028682968C0F3870001F0030140EA012004
:103130000090002340F2FF322C21504600F01AFB91
:10314000E86A8204920C1C2100F07EF9686A20F083
:103150000332142100F078F9286AAE4901EA00022E
:10316000102100F071F9A86AB368DB07C0F30351BE
:10317000C0F303420BD473684FEA035C01EB2C717C
:103180001B0481F3040102EB237282F30402120494
:1031900042EA015182B20A43222C24BF00F080404F
:1031A00002430C2100F050F90120222C03D3E86BDC
:1031B000000F00F00100DFF860B2400040F0200096
:1031C0008BF808000120222C03D3E86B400F00F09D
:1031D0000100002240F01000202C8BF8080007D3DB
:1031E000A86CC10C01F44071C0F3845040EA0102A4
:1031F000282100F029F90020202C03D3A86C000D11
:1032000000F00300400040F060008BF80B0000204D
:10321000222C03D3E86BC00E00F00100C00040F088
:1032200080008BF800000020222C03D3E86B400DB7
:1032300000F03F008000794940F47C40202C088059
:10324000774A0AD3A86C0203810A02F47C1242EA8C
:10325000815100F00F0041EA0032082100F0F4F83B
:10326000704C4FF48000206040F20F22F96D6E48E0
:1032700089B2914212D279687A68C1F30361C2F3CC
:10328000034201B1491E072A05D0062A0EBF0722B4
:10329000921C02F00F0241EA021101704FEA9841BC
:1032A00001F00301012902D0022927D023E0E96BB4
:1032B0008A0320D44FF4804222604B0AD0F80A20BF
:1032C00022F08F0203F080031A43C1F303331A4341
:1032D000C0F80A20C1F30323D0F80920120943EAF9
:1032E0000212C0F8092001F0E701826822F0E7022B
:1032F0001143816002E04FF0004020604FF4007005
:1033000020644A49E86B4A4FC00C00F0030040F0CB
:10331000300008704FEA985010F0030003D00228E4
:1033200025D008D325E00121042000F047FA4148C8
:10333000FFF767FE21E0012000F062FA8046414677
:10334000042000F03BFA042000F05AFA4045FAD17C
:1033500036683002000AFFF754FE7B691B684FF0A5
:1033600060220721300E98474FF4806020600321CF
:1033700000E00221042000F021FAE8692E4900F063
:103380003F00087047F618002C4908802C48006858
:103390003968C968022088474020C9F80000012028
:1033A00028490860BDE8F18F00800C401C130050D4
:1033B0000C006842840460425C600C4008220443B4
:1033C00000400340B03F00508001284300012043EB
:1033D0008C210840000039014820034004000940C6
:1033E000FFFFFCFC3C600C4084088C43101009403B
:1033F0009402224300600C40A83F005056620840EF
:10340000B812005050130050000009400000204343
:1034100000A00C40FFFFFC0041A10C40DCA10C40CF
:1034200000803F4040A00C400260084008A10C40D2
:10343000A0010010BD3786000BB00C4070B00C40EE
:103440002C20094094046042504661E51628A8BF2C
:10345000203870471B4213D1094236D12AB1844625
:10346000B0FBF2F002FB10C2704700F07DBAFCD353
:103470000022002370470B0002000021002070474B
:10348000904271EB030CF6D370B5B1FA81F4B3FA44
:1034900083F52C1BA340C4F1200532FA05F6334313
:1034A000A2405FF00046E64002E05B085FEA3202BD
:1034B000841A71EB030524BF204629467641F4D3D4
:1034C00002000B003000002170BD012ACFD970B579
:1034D000140C20D0B1FA81F4B2FA82F5C4F12004C0
:1034E0006419B4F12006D6D3B2405FF00044F44032
:1034F000002502E052085FEA3303C61A71EB020EA0
:1035000024BF3046714664416D41F3D302000B0085
:103510002000290070BD0C46B1FBF2F102FB114501
:103520002D0445EA1045B5FBF2F402FB145580B2B8
:1035300040EA0545B5FBF2F002FB105240EA0440B8
:1035400070BD220009480168426803689942FAD1B7
:10355000100C40EA0140704710B5044A13685068E7
:103560001468A3421946F9D110BD00000820094093
:1035700062B38B0708D0521E11F8013B00F8013BE3
:1035800000F024808B07F6D1830740F0208000BF35
:10359000103A07D330B4B1E83810103AA0E8381028
:1035A000F9D230BC530724BFB1E80810A0E80810D6
:1035B00044BF51F8043B40F8043BD20724BF31F824
:1035C000022B20F8022B44BF0B7803707047083A97
:1035D00007D3B1E80810083A40F8043B40F804CBA0
:1035E000F7D25307E4E70A000022FFF7F1BB01001E
:1035F000002200F0BFB90900EFF3108072B67047E7
:10360000EFF3108062B670470138FDD17047704704
:1036100030480068000C00F00700052828BF4FF074
:10362000FF3070472C490A68C2F30F324BF69A13E9
:103630009A424FF0FF3007D10868000F0B2801D1E4
:1036400004207047002070474BF6BE118A4201D11A
:10365000012070474BF641318A4201D10320704767
:103660004BF620318A4208BF022070471A48F8B54D
:103670000068050F19480068C6B2802E28BF0026D2
:10368000FFF7D0FF4FF0FF3406F10A0730B10228F0
:103690001BD012D3042819D017D318E0012D12D053
:1036A000032D06D0072D06D0082D08BF06F11604FD
:1036B0000DE014240BE0152409E025B1022D08BF0C
:1036C00006F1140403E00A2401E005B93C4660B2A7
:1036D000F2BD00009412005018130050A0100050CA
:1036E00080B5FFF79FFF18B9FFF7C0FF162800DA73
:1036F000FEE701BD70B504460D461646FFF77CFF98
:10370000401E8041C00F1A490A68002AFCD0012ED1
:1037100002D0022E02D003E0257002E0258000E0F6
:10372000256001220A6000281CBFBDE87040FFF739
:1037300067BF70BD38B504460D46FFF75DFF401EFC
:103740008041C00F0A490A68002AFCD0012D02D02E
:10375000022D02D003E0247802E0248800E02468EF
:1037600001220A6008B1FFF74BFF204632BD00007E
:1037700000800C4010B500EB4100102B144600F502
:10378000007002D3103B001D240C0299994041EABD
:103790000441BDE810400422ACE738B51D460818C6
:1037A000102D144602D3103D801C240C0221FFF77B
:1037B000C1FF04EA000188B2E84032BD70B504469A
:1037C000E00782B00D46614E05D5A8B200900023F7
:1037D000012200F011F8A00705D5A8B2009001233E
:1037E000022200F009F8600705D5ADB2009502236A
:1037F0000C2200F001F873BD00213046FFF7BABF7C
:103800000146042907BF1D234FF0C0421C234FF07F
:1038100080524E483421FFF7C0BF70B50546FFF710
:1038200091FE4B4CA168401A4FF47A714843060C44
:1038300000F0BAF82169401A48BF4042711940F6B9
:10384000B932914207D2062805DAA068E1688142C0
:1038500001D3226852B93F494A68D2074FF4FA604F
:1038600016D40868C0B27D21484308E0081A3A49D6
:103870004843000C00EB9000904238BF1046C82827
:1038800001D2C82070BDB0F57A6F88BF4FF47A605E
:1038900070BD80B501210320FFF790FFFFF752FEB6
:1038A0002B49886001BD80B50120FFF7A9FF0128E1
:1038B00019D00023012234212448FFF76EFF98B16C
:1038C00000F026F8FFF73EFE21498B680A68C860C1
:1038D000A2EB9202C01A204B5843000C08609042A1
:1038E00038BF10460860012002BD10B5002103203A
:1038F000FFF764FF0120FFF783FF08B100F008F82D
:10390000134CFFF71FFE606000F04EF8206110BD01
:103910001248006800F05CB810B511490A681149F6
:103920000968140424161B384443E41004EB2244B1
:10393000120600FB00F3121609065A4358430916F3
:1039400004EBA222484302EBA04010BD00A00C40B3
:1039500000350020AC3F005040420F0080000010B6
:1039600090130050A41000507047010062F30F2222
:1039700062F31F4200B500BF13009646944610390B
:1039800028BFA0E80C50FAD85FEA417C28BF0CC0E1
:1039900048BF40F8042BC90728BF20F8022B48BFB6
:1039A00000F8012B00BD00000748084A8168127822
:1039B0000068C90352B2A0F54070C9135043A1EB8F
:1039C0002010803000127047285009400C1300501E
:1039D00070B50446FFF710FE451EAD41ED0F074ED2
:1039E00030680028FCD0A04701203060002D1CBFAB
:1039F000BDE87040FFF704BE70BD000000800C40C1
:103A000020B1082328220021FFF7F6B8704720B123
:103A1000082330220021FEF7A7BF704738B500F019
:103A2000DDFF25680DB129682160FEF739FA2846C7
:103A300032BD70B504460D462668002028601EB9C8
:103A4000FEF728FA25600DE0FEF724FA00E036685C
:103A500031680029FBD1AE4203D1FEF721FA0020E4
:103A600070BD3560FEF71CFA012070BDDFF8FC1C4C
:103A700010B100200870202088707047F8B5054606
:103A8000FEF708FADFF8E07B0446387EE8B1401E16
:103A90003876C0B2C8B9082107F15000FDF747FEDB
:103AA0009DB1B86B6830FDF70BFCB86BDFF8341DC7
:103AB000C0680968281A07F1F006B0FBF1F130463A
:103AC000FDF70DFC3046FDF7F1FB2046BDE8F24066
:103AD000FEF7E6B938B50446207B00F00F00022857
:103AE00002BFDFF8845B287D002815D100F0E6FCDA
:103AF000A1688908A1EB90006FF0704188420BDA51
:103B000010F1805FBCBFDFF8E01C0818A96BC96822
:103B100001F57A71814200DB002032BD38B5DFF853
:103B2000500CDFF8502C0168DFF83C5B02EA01041E
:103B3000E1430160A10606D54068800603D54FF435
:103B4000005100F060FB14F4602F0DD0DFF89C0CE6
:103B5000C16904F460221143C16105F1A000BDE810
:103B600034400021FDF7E3BD31BDF8B5FEF792F911
:103B7000DFF8787C3C1D0646A06910F4602F25D044
:103B8000C5012D0EE80748BF002506D4A80748BF89
:103B9000012502D4680748BF0225681D40B200F025
:103BA000A5FFA069012105F1110291408843A061A0
:103BB00000F06CFD07EB85008668300008D02068B7
:103BC00000224FF00063691DB04701E000F05EFD88
:103BD000A06920B10021DFF8180CFDF7A8FD607F77
:103BE00080070DD52569280006D0206800224FF0F7
:103BF00000436FF00101A847607F00F0FD0060778F
:103C0000F1BD70B501F08CF8DFF85C5ADFF8584D63
:103C1000AB6A024690071DD4D3E90601104007D0D5
:103C2000EB62196A084318624FF4804100F0EBFA26
:103C3000A86A002849D16E6A002E46D0F068A96BA8
:103C4000884224D005F15000BDE870404FF4805107
:103C5000FDF76DBD0BB9A86AEAE70020A862D3E9B9
:103C600006011E6A024042F0020232431A62626991
:103C700082436261E26822EA0100E060194605F1D0
:103C80003000FFF7D6FE022100F0BDFAE3E7B0688E
:103C9000FFF720FFE86418B1E86CBDE87040EDE67E
:103CA000D6E90601626902436261E26841EA020004
:103CB000E0600020E061B0682060E0690028FCD08E
:103CC00005F12400FFF7AAFEAE6270BD0020D5E624
:103CD000F8B506461446B76D1D4607B1B847A007AC
:103CE00006D4D6E914012040294008BF002807D097
:103CF000C6E9184506F13000BDE8F240FDF7C5BB46
:103D0000F1BD80B5FDF7CDFCDFF85C290146906B75
:103D1000D26BBDE80840104710B5DFF84C49FFF7FB
:103D20001BFC2064042104F15000BDE81040FDF7A5
:103D3000FEBC80B500F0F4FFDFF8301C084207D06D
:103D4000BDE804404FF00051DFF84C0DFDF7EFBC2B
:103D500001BD10B504294AD1DFF80C49606AA16B96
:103D600008B1C16805E0DFF86C0C427FD20748BF9C
:103D70000168A1630846DFF8601C426812780A6097
:103D8000096840680078814200D0FEE7022001F017
:103D900045F9112001F057F901206077A06BE17E11
:103DA000007C084204BF0E2001F04DF9A06BDFF843
:103DB000B81B40688268002A04BFC068002804D08D
:103DC0000020C861DFF82C0C086040F2FF70DFF8BB
:103DD000282C106000208861DFF8900B48610FF2FA
:103DE0001100E0631920BDE81040FEF787B810BD50
:103DF00010B5044688002CD560684068010018BFE3
:103E0000804760688168002904BFC068002814D01A
:103E1000DFF8340C01680029FAD0002101606068E5
:103E20008068010018BF80476068C068010018BF43
:103E30008047DFF8180C00F07BFFDFF82C080FF24A
:103E40001501C1634FF00051BDE810405030FDF73F
:103E50006EBC10BDF0B50446880085B074D5DFF89F
:103E6000085BDFF804680020E861DFF8180D2860BF
:103E7000707E10B10120FFF7F9FD002171800FF273
:103E80000910317BF06301F0F001317340F60A0054
:103E9000002171603080717B01F0F00141F001017F
:103EA00071730021A768798000E00F4679680029C6
:103EB0001CBF0A888242F8D1787B7E6000F0F00057
:103EC000787340F60301706A8068008888421CBFDE
:103ED00040F60401884202D10020306415E0208BB6
:103EE00098B104F11800002141804160017B01F08C
:103EF000F0010173417B01F0F00141F001014173D8
:103F00007060707B00F0F00070736946A06800F08C
:103F100036FF684600F042FFA06800F03EFFE86907
:103F20000028FCD00020E8610120FFF769FC01288F
:103F300008D0787B00F0F00040F0010078730FF2B9
:103F40000D00F063A068286005B0F0BD012010B539
:103F5000FFF756FC0128DFF8104708D10FF22900BF
:103F6000E063DFF8040A04600020206410BDDFF87D
:103F7000741809683220F03400F083FB2046BDE855
:103F80001040FDF793B90000FEB506460C466004EC
:103F9000DFF8D45617D5FDF77DFFEE6A376AFDF7D7
:103FA0007FFFB8070CD45EB1306AB84330627068E6
:103FB00030B1B6F91010F06876683A460023B04781
:103FC00024F480441AE1A00770D52F6B002F65D030
:103FD0003E1D2020716801E04968401E79B1C0B2E1
:103FE00068B10A8840F603039A421CBF40F60403F6
:103FF0009A42F1D1B06818221830FFF7C9FAF06977
:104000000021F1613168D1B140F0020297F824003B
:104010000023012807D0022809D0042804BF002269
:104020004FF0805306E000224FF0005302E00022E0
:104030004FF08043B6F90C10B0683768B847E88E87
:10404000401C0005000DE88605F13000FFF7E6FC96
:10405000B5F93610B06800F18C02B2F9003099421F
:1040600004BF297D002919D1917809B9016821B9C6
:1040700000209070FFF702FD10E0AA6B126812F1A9
:10408000010F0BD0DFF85C271268B1FBF2F168304A
:10409000FDF725F9B0686830FDF708F9286B0028AE
:1040A00024F0020401D044F00204A7E0A00005F1CE
:1040B00084073FD50022DFF8EC1B3846FDF77BFF75
:1040C000F06840F6C411884218D10420FFF798FB2D
:1040D00000281CBF286C002810D0686C70B9FFF74E
:1040E0003BFA6864696C286C884228BF491E081A2C
:1040F000000BF060F06800F58D70F060287F60B113
:104100000220ADF80000684600F012FEBDF808007D
:10411000DFF8D8160883002028770120687524F07E
:104120000054287E401C2876002068771920FDF76F
:1041300045FF63E095F8200024F0080628B1200729
:1041400003D5002085F8200045E0200745D5002054
:1041500068750120A877687E10B10020FFF786FC03
:104160000FF2AD00DFF8401BE86300223846FDF790
:1041700022FF297FE87EDFF8847881F00101084280
:1041800040F6090402D10120E8760FE0E86CF0B1B6
:10419000FFF7E2F9296CAA6C401A02EB1030A86410
:1041A000E96CB0EBC11F12D30020A8642C80687B9F
:1041B00000F0F00040F00100687300206880287B68
:1041C00000F0F0002873002068603D6003E04FF0CD
:1041D000005100F018F8344610E0A0040ED5AE6A85
:1041E000002E1CBF7068002806D0B6F91010F068C9
:1041F000766800222023B04724F4005414B12146ED
:1042000000F001F8F7BD05F15000FDF790BA00008D
:1042100038B50546880028D500F097FDDFF84844FA
:10422000DFF8880AE063A07D18B905F13000FDF7DA
:104230002CF9DFF8C41700200860022000F084FE8B
:10424000112000F095FE287C10B90E2000F090FEA1
:104250000020E083A07E40B10020A076042104F17C
:104260005000BDE83440FDF762BA31BD30B58DB0C5
:1042700000F0EEFDDFF8380ADFF8385A0168DFF8A1
:10428000E84341F00201016001A8FFF7B9FBA878FB
:10429000DFF8241A0790002301AA04F15000FEF76A
:1042A000B8FC01A8FFF7B3FB0020ADF81C0001AB80
:1042B0002878DFF8F429099019210020009004F1F2
:1042C0008400FEF75EFB01A8FFF79AFBE878DFF8B1
:1042D000EC190790002301AA04F1A000FEF799FC55
:1042E00001A8FFF794FB0120ADF81C0001AB687832
:1042F000DFF8CC2909901A210020009004F1D400A5
:10430000FEF73FFB00230022DFF8B81904F1F000AC
:10431000FEF7E1FBDFF89409E063FFF783F901287A
:1043200018BF002060764FF6FF71DFF89C0901800E
:104330000121217700214172E1766177E18384F8E0
:1043400020100DB030BD2DE9F041C74E8CB00446B1
:10435000B07D0F4690461D4618B9FFF787FF012034
:10436000B075002F1CBF6760B8F1000F3FD0C4F8D4
:104370000880FDF78FFDF17DB9BB0121F175FDF7D7
:104380008FFD2DB90FF68C112CC968462CC06D46D7
:104390002868206078216868E060287A207404F139
:1043A0001800FFF725F908232422002103A8FEF7AF
:1043B000E1FB01208DF8240003AA002104F1300064
:1043C000FEF7F5FB08232422002103A8FEF760FB7B
:1043D000099403AB0022DFF8F41804F16800FEF73B
:1043E0007AFB20460CB0BDE8F081FDF759FD0020B6
:1043F000F8E738B5DFF8D8580446A87D00285CD027
:10440000B5F93400B5F93610884207D0B4F98C10EC
:1044100002224FF0E043204600F03BF9FDF73AFD61
:10442000E97D002938D0491EE975C9B2A1BBFDF765
:1044300037FD0020A875687D40B10020FFF71EFB06
:104440004FF0FF3104F13000FCF7C1FF04F1300000
:10445000FEF7C3FB04F16800FEF754FB05F15000C2
:10446000FEF7F1FB05F18400FEF7A6FA05F1A000C6
:10447000FEF7E9FB05F1D400FEF79EFA05F1F00026
:10448000FEF740FB0020A8632875207CA8B1BDE89A
:1044900032400E2000F06CBDFDF702FDA86BA0427B
:1044A00004BF0020A86304F13000FEF796FB04F17E
:1044B0006800BDE83240FEF725BB31BDD0B5FDF741
:1044C000E9FC694C617D31B1DFF808180C68FDF733
:1044D000E7FC2046D0BDFDF7E3FCFFF73DF810F503
:1044E0000030DFF8F42741F10001A2FB006702FB76
:1044F000017721690020321847EB01031846D0BD2F
:104500002DE9F84F04460E4692469B46FDF7C2FC45
:10451000554D0246B5F93400B5F93610401A00057C
:10452000000D08286FF0010944DAA88E401C000530
:10453000000DA886B5F93400ADF800001046FDF76F
:10454000AFFCBDF90000DFF89417821000EB527247
:10455000D210A0EBC200282202FB001804F1680070
:10456000FCF7AEFE08F1040720217E6087F80EA05C
:10457000C7F800B008F11806BDF80000B881BC60AB
:10458000DDE90A23DFF8580710401940C6E90001A9
:104590000020307304F18C06686A40F6FF7490B115
:1045A000FDF778FC074600F067F838B900F05EF8D0
:1045B000384600E01046FDF773FC09E0BDF8000046
:1045C0003080384644E000F057F818B900F04EF853
:1045D000484647E0BDF800003080FDF75BFC002155
:1045E000B1706A7DE97F114208D0012185F8201061
:1045F0000021E9772977297E491C2976FDF750FCAF
:10460000A86A68BB687D18B11920FDF7D7FC27E0C0
:10461000687F28BBFDF73EFC0646A87F20B100F06E
:1046200035F80120A8761BE07868FFF753FAE864B4
:1046300088B1E86CA96BC968401ADFF8A816096848
:1046400005F1F00400F01DF82046FCF72FFE30467F
:10465000FDF726FC04E000F019F80421FFF7D3FD74
:10466000BDF90000BDE8F28F2C2E0020A88E201886
:104670000005000DA8867047414605F12400FFF7AC
:10468000D8B9B0FBF1F12046FCF729BE3046FDF762
:1046900007BCF8B506460F4614461D46FCF7B6FFA4
:1046A000DFF82C26B2F93430DB1BB2F936301FD5D7
:1046B000BB42BEBFB2F93430B2F9362093421FDAA2
:1046C000BB1007EB5373DB10A7EBC301DFF80C261D
:1046D000282303FB0127072297F82410114214D046
:1046E000FCF798FF072197F824000842FBD109E066
:1046F000BB42A2BFB2F93430B2F936209342DFDBBD
:10470000FCF788FF02200021F4BD7A68DFF8D81595
:104710008A4202D07A68B2657960C6E91445FCF72E
:1047200079FF4FF0FF3106F13000FCF750FED6E97B
:104730001801F4BDDCB50446180008BFDFF8A83541
:10474000DDE90667CDE900672046FFF7D9FE0028BE
:1047500003D500204FF00041DCBD0146204602B0E9
:10476000BDE8D04002224FF0E04392E700620840EB
:104770000810044020000E0070B500F02FF9054627
:10478000DFF84C650120307704F18C01B6F9340074
:10479000B1F90020801A0CD5B6F93600B1F9002025
:1047A0009042BEBFB6F93400B6F93620904210DB15
:1047B00005E0B1F90000B6F93620904209D104F1C4
:1047C0006800FCF77DFD0020FFF758F90120F07725
:1047D00003E001208870002030752846BDE8704055
:1047E000FDF75EBB70E20000F6FFFF1F082E002001
:1047F000CC2E002001E042F002022DE9F047DFF864
:10480000D04482B0606A00908A460026032715468D
:10481000FDF740FB1AF1010F05F0010881460CD1AC
:10482000A06ADFF8C814002819BFA06AB0F910A068
:10483000E08E00F1010A81F821600FFA8AF29110EE
:1048400002EB5171C910A2EBC101DFF890042822DC
:1048500002FB010AA06A824505F0020527D115B1C5
:10486000606A0090666201219AF8240001FA08F15A
:1048700008438AF82400FCF7C9FE0646B8F1000F89
:1048800014BFDFF86C04DFF86C0400F051FA00F09C
:10489000BFF925B906E000F06CF800F074F8009854
:1048A0000028F8D13046FCF7B5FE832759E0009880
:1048B000504504F1F0081BD14046FCF701FD002DE6
:1048C00011BF6662606A0068606200F0A1F900F0E2
:1048D0004FF800F058F80098002818BF002DF6D1C6
:1048E00083272FE00126832700F042F800F04BF8E1
:1048F000009810B30068504519D14046FCF7E0FC21
:1049000000980068009A00211160009000F080F982
:10491000002DE7D1009890F82400009940F00400A1
:1049200081F82400832700F02BF800F02CF8002EEB
:10493000DAD1009800680090DAE7832F1CBF484660
:10494000FDF7AEFA607F10B100F022F809E0DFF861
:10495000A803E06300F01CF8607D10B9DFF84C0399
:10496000E0633846BDE8F6870010044002000040CE
:10497000009890F82400009940F0040081F8240089
:104980006846FFF74BB8014604F13000FFF751B815
:10499000022104F15000FCF7CABE10B50FF27431C9
:1049A0001CC91CC010BD38B500F018F80546C84831
:1049B000407D58B1204600F0BBF9044600F048F8AD
:1049C000E0B201280CBF8120022032BD00F040F887
:1049D000012032BD0C2E0020D02108400446FDF7F6
:1049E00059BA0A46BA49896B884201D003207047F8
:1049F0000DE00000510007060000046000100440B4
:104A00000A46B349896B884201D0032070470021D0
:104A10001046C8E770B5AE498A6B90426FF07F04CC
:104A200010D1487D70B1FDF735FA0546B34800F066
:104A30007FF9064600F00CF8F0B2012802D13002EE
:104A4000001670BD204670BD1C1004400100070612
:104A50002846FDF725BA70B50E461546FDF71AFA39
:104A600083249B491EB1022E0ED005D30FE08A6A23
:104A700042B1896A098A03E0097F19B99B49098B08
:104A8000298005E0802403E0497D297000E00324AB
:104A9000FDF706FA204670BD7C2E00208A1001EB3F
:104AA0005272D210A1EBC2018C48282202FB0100F5
:104AB0008068704710B58649097FA1B9028B012330
:104AC00003FA01F422420AD0A243028301F10C044A
:104AD0008B480268A3401A430260084610BD491C77
:104AE00049B20F29ECDB6FF0010010BD38B5FFF7BC
:104AF00075FF75494A7A520702D50B7A9C4210D04D
:104B000001220B8802FA04F52B430B800C347C49FC
:104B10000B68A24023EA02020A60096809B96C4ADC
:104B20001175BDE83240FDF7BBB92DE9F041684D84
:104B30000E46A96B8842984618BF032020D10A214F
:104B400031807260694C606026602046FFF7B2FFDA
:104B5000070014D4B77000213046FFF724FF022865
:104B600018BF012805D13846FFF7C0FF6FF00107D5
:104B700005E004EB870040F80C8C012028753846CE
:104B8000BDE8F08101010E042DE9F047504E80464A
:104B9000B06B80450D46924618BF032036D1534F67
:104BA0003846FFF787FF0446002C2ED4FDF772F934
:104BB0008146200200F4706005434FF6FC702840E7
:104BC000504908433860386800F0B2F8C0B2012894
:104BD00014D1E80409D500F05BF887F8204097F875
:104BE000210040F0040087F8210007EB8400C7F89B
:104BF000048040F80CAC0120307504E02046FFF73B
:104C000075FF6FF0010400F003F82046BDE8F0875F
:104C10004846FDF745B90A462D49896B884201D0BF
:104C2000032070474FF6FC701040374A00211043B4
:104C3000B9E670B50C462649896B884201D003203D
:104C400070BD324841784A0707D503789C4204D1A9
:104C500001F0FB01417000210170FDF71BF90546D1
:104C60002046FFF743FF4FF6FC7000EA042040F0B7
:104C7000816040F0010000F05BF8064600F008F8A3
:104C8000FFF7E6FEF0B201280CBF8120022070BDC4
:104C90001F480122016804F10C039A40914301600E
:104CA00070470000033C0000333D0000533D00000E
:104CB0000020094038D80000033D00006B3B000095
:104CC0001D3B0000193D0000202E0020CD3C0000BF
:104CD0002C2E00200430044000093D00401D00201F
:104CE000F1EFFF9F70E20000D13C0000082E002091
:104CF0000100020401000104893F000001000304D7
:104D00000C1004400100030601000406282E0020B8
:104D100008100440FFFFFFFFC4090000010000006D
:104D200021490868C2430A600A680242FAD1704702
:104D30001E490A68002AFCD1CA610860C8690028B7
:104D4000FCD00020C861486870471948016821F00C
:104D5000020141F40071016003211648816041F2B3
:104D6000300141610121C160502141610121C160D7
:104D70004FF4CA6141610121C160016070470E4872
:104D800002680A6082684A60C2688A60406B4001BB
:104D9000400940F08050C8607047704701461022BB
:104DA0000648FEF7E5BB0000101004400010044068
:104DB00000000460004104404C1300501800002122
:104DC00020B1082324220021FDF762BE704780B580
:104DD0000120009009234FF400720021DFF804073E
:104DE000FEF7C8FC01BD80B5002301223421DFF8A5
:104DF000F406FEF7D2FC00B10120C0B202BDDFF81C
:104E0000E80680687047DFF8E016401890F8ED007B
:104E100070470022022904D1012806D140F2EE2277
:104E200003E0012808BF4FF47A7210467047DFF89C
:104E3000B806D0F8DC007047DFF8AC0690F8E60062
:104E400028B1DFF8A8064068010018BF0047704786
:104E50002DE9F041DFF8908608F1E1058AB0A879E4
:104E600000285ED10120A871DFF88066DFF8807627
:104E7000307B687101A8FFF7A3FF00200690ADF812
:104E80001400079001AB00220FF2F54108F10C006D
:104E9000FDF721FE01AB00220FF2A15108F1300015
:104EA000FDF719FE01AB00220FF2D94108F15400C1
:104EB000FDF711FEB16801208847DFF83806007859
:104EC0007868C0F38154707B20B1032C02D101209B
:104ED000287003E0032C18BF022C16D1022000F02A
:104EE0009DF8032CDFF810160CBF4FF47A7042F2D5
:104EF00010700968B0FBF1F108F15400FCF7EFF90C
:104F000008F15400FCF7D2F905E0012C03D100F0C0
:104F100063FAFFF75CFF386840075CBF002000F0D1
:104F20007DF80AB0BDE8F08110B508B1140001D1D8
:104F3000022010BD8160C26003610146DFF8A80550
:104F400000F028FB002010BD10B50446FCF7A2FFBE
:104F5000DFF89415621892F8E8305B1E82F8E830AA
:104F6000DBB223B98A680123A3409A438A6066E0D2
:104F70002DE9F0410546FCF78DFF8046DFF8681506
:104F8000681890F8ED20521E80F8ED20D2B2002A69
:104F90003FD10FF2A050DFF8644500EB85052E7875
:104FA0006F88300615D52168096A38468847216818
:104FB000896A384688472168096B38468847DFF890
:104FC000401501200860DFF83C0500688007FAD52D
:104FD00012E0700606D501EB87010020D1F8001120
:104FE000884709E021688969384688472168496B04
:104FF000384688470228F9D106F03F003F2818BFFD
:10500000FFF7B6FF687800F03F003F2818BFFFF7B2
:10501000AFFF4046BDE8F041FCF742BF10B5044683
:10502000FCF738FFDFF8C0148A680123A3401A4355
:105030008A60611891F8E820521C81F8E820BDE8E8
:105040001040FCF72DBFF8B50646FCF723FF0446D9
:10505000DFF89454701990F8ED104A1C002980F87C
:10506000ED2039D10FF2CC4000EB8607387800F004
:105070003F003F2818BFFFF7E6FF787800F03F00B9
:105080003F2818BFFFF7DFFF7E883878DFF86C74A1
:1050900001060ED53968C969304688473968496ABA
:1050A000304688473968C96A3046884700F019F8A1
:1050B00012E0400606D505EB86010120D1F800116B
:1050C000884709E039684969304688473968496B3B
:1050D000304688470128F9D12046BDE8F240FCF768
:1050E000DFBEDFF81C1401200860DFF81804006838
:1050F0008007FAD570472DE9F04F002483B04FF0B8
:10510000000A0128D04618BF012664D1DFF8D893E1
:10511000D9F8DC0001285DD10220C9F8DC00FCF7D9
:10512000B1FB0090012000F062F9060054D1FCF7B9
:105130006DFADFF8DC1301900C600120FEF760FBD4
:10514000012804D1002000F0A7F94FF0010ADFF890
:10515000B813DFF8B8030C6000681120FFF753FEA6
:1051600008B14FF001081020FFF74DFE08B148F0DC
:1051700002080F20FFF747FE08B148F004080B2093
:10518000FFF741FEDFF8746320B13168096B4FF41B
:10519000806088470A20FFF736FE20B13168096B2E
:1051A0004FF481608847DFF85813DFF86873DFF841
:1051B00068B30120086048F0200031688969884799
:1051C000DFF858130120086099F80800C00707D5D8
:1051D000012416E0042673E00120C9F8DC006CE02D
:1051E000584600F0F9F90546042DF9D0012D04D1F7
:1051F000326A526803215846904738688008800018
:105200003860002000F0F0F9C04800683068806B1A
:10521000804754B9012D04D1326A526801215846A1
:105220009047386840F0030038600120B6490860B4
:1052300040463168496988470B20FFF7E4FD20B1FB
:105240003168C96A4FF4806088470A20FFF7DBFDA8
:1052500020B13168C96A4FF481608847A8490120AC
:1052600008600020AD4908600320C9F8DC003168FF
:10527000496B404688470128F9D1042000F0B7F86F
:10528000A34901200860A1480068A548006880067D
:10529000FBD5BAF1000F1CBF012000F0FDF8FEF7AE
:1052A000AFF9082000F0A3F806460120C9F8DC0099
:1052B0000198FCF7AFF900F066FA0098FCF7E9FAFC
:1052C0003046BDE8FE8F38B50446FCF7E3FD0546E1
:1052D0002146854800F072F928464CE030B500249C
:1052E00001288BB004D021D303281DD018D31DE092
:1052F00001A8FFF765FD7C4D8A490694ADF814407E
:10530000079401AB012205F17800FDF7E4FB00945E
:105310000023854A2C2105F19C00FDF732FB05E0B6
:1053200000F0BCFA044601E000F05EFB20460BB042
:1053300030BD0000FEF771BA38B5FCF7ABFD05468D
:10534000694890F8E000012410B1FFF74CFD0446D5
:105350002846FCF7A5FD204632BD38B5FCF79AFD7E
:10536000614D044695F8E00020B1FEF79CFA00205C
:1053700085F8E0002046BDE83240FCF791BD000012
:105380007047000010B582B00420FEF739FA0228F9
:1053900018BF032807D100F01FF8FFF718FDBDE87C
:1053A00016400220D0E56148534900684E4CC0F3D6
:1053B000815003280CBF4FF47A7041F2883009689D
:1053C000B0FBF1F104F15400FBF789FF04F1540044
:1053D000BDE81640FBF76ABF032000901C234FF086
:1053E000405200213F48FEF7C5B90020704770B514
:1053F00004463D4E304600F0C3F8002598B93046CB
:1054000000F0C4F80646B068204207D03269F3685D
:105410000021204698470546012D05D0304600F072
:10542000B7F80600EFD1284670BD414901280CBFEE
:1054300040F2FF70002008600020704770B5FCF754
:1054400029FD294E294D044696F8E00028B1FEF7C3
:105450002AFA68B1002086F8E0000220AD68A8476B
:1054600006461020FFF7C3FF8EB10320A8470EE0C9
:10547000214909683220B0FBF1F101B9012106F19F
:105480003000FBF72CFF06F13000FBF70FFF204642
:10549000BDE87040FCF704BD38B501281ED1FEF709
:1054A000AFF901281CD0FEF7F4F90F4C1249012086
:1054B00084F8E00032200968B0FBF1F505B9012558
:1054C00004F13000FBF7FCFE294604F13000FBF745
:1054D00006FF04F13000FBF7E9FE01E0FEF705FAF4
:1054E000002032BD00A00C40041B002084D7000027
:1054F000B03F00502035002070E20000B8010010DD
:105500002820086028200840000222432C2009405F
:105510000C4009402422084000400340800104431D
:1055200014100940195B0000F5580000B43F00500A
:10553000000004608F3F00008F3F01008F3F02009A
:105540008F3F0300903F00018F3F0101903F000219
:10555000903F00038F3F01048F3F00058F12080426
:105560008F3F00048F3F0006513F00007F3F010046
:105570003F3F04003F3F02003F3F01007F3F0200EA
:10558000006800280CBF01200020704700687047A9
:105590000068704738B504460D4600F08CFB0021CA
:1055A0002960616869606168002914BF0D60256029
:1055B0006560FFE7BDE8324000F07FBB0B684A68DA
:1055C000002B0CBF42605A604A680968002A0CBF71
:1055D00001601160704700000068010701D50420D8
:1055E000704700F0030070472DE9F84F06469248D7
:1055F000924C0068924D800704D50820A87191480C
:105600002060BEE0FEF7D0F980468F480068009029
:105610000027001700F101090098800208D4C8F1A2
:105620003E00C0100928A8BF08208145B8BF8146A8
:1056300086480068C0F30460FDF708FF824684488E
:105640000068C0F30440FDF701FF09EB0A011629C9
:10565000A8BF152104DA6FF009029142B8BF1146C4
:1056600001F01F027B4B42F4F8521A807A4A12680A
:1056700012F0030F18BF0127520748BF47F0020777
:105680000EB147F0040795F90720A8EB0202052A9E
:1056900002DAAA7997425CD0A8F10F0C0026BCF17F
:1056A000000FB64607F0010207F00403DFF8AC91E3
:1056B00023D40CEB0C1C4FEA2C2EBEF1080F28BF94
:1056C0004FF0070E7646072E28BF062609EB860AFE
:1056D00059F82660DAF804A0AAEB060A5FFA8AF6FF
:1056E00013B1CAF3072B5E445FEA877B44BFCAF35A
:1056F000074B5E440AB106EB1A6659F82E905FFA22
:1057000089FA13B1C9F307239A44BB0744BFC9F30D
:1057100007439A440AB10AEB196A401AACEB0E220D
:105720000099AF71724380320128B8BF0120342341
:10573000C9B258430AEB12224843B0FBF2F0B0F56D
:10574000803F28BF4FF6FF7008F30708A88085F850
:10575000078043480068A988286000201F2904D2D8
:105760001F21A98004E04908401CB1F5007FFAD24E
:105770000F39090940EAC1003A4908432060002076
:105780006060BDE8F18F10B53748006884B224B37B
:10579000FEF70AF92A4991F90720904205DA6FF0DD
:1057A0007F029042B8BF1046C8718888844201D2F7
:1057B0008C8010BD2A4A12680B68D21A921C202ACB
:1057C00028BF1F22231A520823FA02F42018B0F52A
:1057D000803F28BF4FF6FF70888010BD23480268C5
:1057E00002B9704710B5224B986800F04061B1F1E2
:1057F000406F20D010490C68A4071CD45C68A40733
:1058000019D40C681B68C3F303531C331B0114F039
:10581000050F05D09A420ED224F00500086010BD95
:10582000934208D2020158BF44F00104400158BF1E
:1058300044F004040C6010BD000009403010094021
:1058400014350020FDFDA400B43F0050B8120050F4
:105850003C1100506E620840242208409C13005006
:105860000820094000E7A48034100940285009406E
:10587000AC3F005010B50C18FDF7BEFE401E804135
:10588000C00FDFF8D8130A68002AFCD02468012270
:105890000A6008B1FDF7B4FE204610BD38B5DFF848
:1058A000C043DFF8C0132078897B002508430AD065
:1058B000FCF7F0FAA178002906BF0121A1700125AB
:1058C000FCF7EEFA0DB1002032BD0220FFF7A6FB77
:1058D0000E20FFF7B8FBDFF89003016809B1012043
:1058E00032BDDFF88823402111600121C161002011
:1058F000607032BD70B5DFF8740382B000210160C2
:105900004821C160DFF8680300F1D804A17A0029BA
:1059100067D00129DFF85C2328D110684BF2F5210C
:105920004843050AD4480068C0F38140012806D1E5
:10593000FEF73AF8FDF7F0FF684305EB9055607B02
:1059400010B10020607305E0CC480068000215EB40
:1059500010204508CA480560290C4160012181607A
:10596000C048807B00283AD0052039E0022909D1BF
:105970001568284600F0F2F8A5F2FF5003282ED350
:1059800008202DE003292CD1116800F1B805A1F5FC
:10599000C0612868E961002848BF4042002948BF2B
:1059A00049428842A8BF002018DA6868B54E80B224
:1059B000009008234FF47F4230213046FDF7DAFE95
:1059C000A86800F067F904213046FDF7D3FEA86906
:1059D00000F066F93046FDF7CDFE012020700B2067
:1059E0002073BDE8734000BF2DE9F041A04CDFF803
:1059F0009482A54FA54E9D4804F1E10582B0E97857
:105A00004A1E0B2A5BD8DFE802F0062233465B33DE
:105A1000465B3346636E9E490968096820208847C3
:105A20000F20F860072341F61D5038614FF4C07213
:105A30000220009000F06BF807234FF4C0720021A1
:105A40004046FDF7AAFE01203060022044E001201C
:105A5000F861287800281DBF00203061032006204F
:105A6000E87003203860002070607068800734D4CC
:105A7000E878032804D1022000F046F8042007E06B
:105A8000002000F041F8E87806280CBF07200A2023
:105A9000E87001201AE0042903D12021B961012115
:105AA00005E00122BA610A290CBF032102216970B5
:105AB000002139600821C16001600120386021E0C7
:105AC00005290CBF06200920E8700020706004E062
:105AD0000020306070600C20E87004F17800BDE8B0
:105AE000F641FBF7E3BB0021016001205E4908603D
:105AF0000E20FFF73DFA0220FFF726FA0120E8709A
:105B00000020A870BDE8F3810090052360220021E9
:105B10004046FDF72FBE000055495C4891F8E4105F
:105B2000891E0A2919D8DFE801F0060A0E180A0EA4
:105B3000180A0E18120001688907FCD50DE04168AB
:105B40008907FCD409E041688907FCD505E00168B4
:105B50008907FCD441688907FCD445E7F8B50746B6
:105B6000484C30212046FFF785FE414E06F1B8052E
:105B7000C0F30720686004212046FFF77BFEC0F3D6
:105B80008440A86020212046FFF774FEC0F38120E6
:105B9000A861B7F5C060286002D186F8D800F1BDD1
:105BA000296996F8D8202AB96A68A968EA60E86184
:105BB000AA696A61E86900284CBF6FF001020222FD
:105BC00000EB40001018421000EB927001EBA000B7
:105BD0006968E960012810DA6A69032A04D115307E
:105BE00001281DDA01201BE00B300128B8BF01207D
:105BF000491E48BF0021E96007E01F2812DB6A69DF
:105C00002AB915381F28A8BF1E20032109E00B3828
:105C10001F28A8BF1E20491C4029A8BF3F21E960BA
:105C20000021696128610823E86880B200904FF480
:105C30007F42302100F03CF80120009011234FF406
:105C4000003200F034F8286900F024F800F02FF852
:105C5000686900F025F800F02BF8F1BD00800C40D9
:105C6000E51B002084D7000004800C402C500C4021
:105C7000041B002008400C40B43F00501020094095
:105C80003C600C4000A00C4000400C4034600C40D4
:105C9000A001001080B2009012234FF4F802704768
:105CA00080B200900A234FF4406220217047042103
:105CB0002046FDF75FBDFCF7EDB8FCF7F1B800003A
:105CC00020B108232C220021FCF7B7BE704720B179
:105CD00008233C220021FCF7C4BF704780B5FBF7C6
:105CE000D1FDADF80000FCF7D5F8ADF80200009842
:105CF00002BD01B5BDF80200FCF7D2F8BDF8000006
:105D0000BDE80240FBF7C5BD38B5DFF89808DFF8FD
:105D10009818DFF8984880088000091A2161E0602F
:105D2000034602E0002523F8025B0D18AB42F9D3CD
:105D30008B0800EB8303002223F8042CE82220F8D0
:105D4000E82B4FF6FC721140EC39018060600020B6
:105D500000F004F8A060E068606031BDF8B5002490
:105D60000025061D16F003001CBF311D0E1AFFF79B
:105D7000B5FFDFF83818B6B20860112EB4BF4F680F
:105D80008F6839880B0403D581F40041002519E0A0
:105D9000A5B123883A88134423809BB2B34211D320
:105DA00027461946B7B1891B89B20429A7BFF15309
:105DB00046F40041398841F4004109E0B142F1DA8A
:105DC00001253C46CF1939880029DBD1002701E0A5
:105DD00027F8041BFFF78DFF3846F2BD10B500F021
:105DE00049F8DFF8C817221F086013885B045B0CB2
:105DF00013804B689A4238BF4A60BDE8104078E78C
:105E000070B500F037F80021DFF8A4570C2202FB30
:105E100001F6725942B1944203D1FFF76AFF70193B
:105E200070BD491C0829F1D320E070B500F022F8BC
:105E3000054600200C22DFF8781702FB00163168B7
:105E400049B90020B06034600022FCF798FE706011
:105E500018B900F045FC8C4204D12846FFF749FFF1
:105E6000304670BD401C0828E5D32846FFF741FFA7
:105E7000002070BD044631E738B5FFF7FBFF002571
:105E8000DFF830170C2202FB0512128842B194424F
:105E900003D1FFF72EFFE8B232BD6D1C0B2DF1D3FD
:105EA000FFF727FFFF2032BD10B504462088FFF71B
:105EB000E3FFFF2800D173E1DFF8F8160C2202FBA4
:105EC00000108168080002D16FF0010010BD20466B
:105ED000BDE81040084702460FF24870104710B561
:105EE00000200C21DFF8C826002401FB00F3401C31
:105EF0009C509B1808289C60F7D30020DFF8B4263C
