:0400000500010001F5
:020000040000FA
:1000000060430020C9AB000001CA011001CA011001
:1000100001CA011001CA011001CA011001CA011070
:1000200001CA011001CA011001CA011001CA011060
:1000300001CA011001CA01103FCA01102149086814
:10004000C2430A600A680242FAD170471E490A6830
:10005000002AFCD1CA610860C8690028FCD00020D1
:10006000C861486870471948016821F0020141F4ED
:100070000071016003211648816041F23001416145
:100080000121C160502141610121C1604FF4CA6169
:1000900041610121C160016070470E4802680A6039
:1000A00082684A60C2688A60406B4001400940F043
:1000B0008050C8607047704701461022064802F021
:1000C00005BC000010100440001004400000046053
:1000D000004104404C130050180000210149086001
:1000E00070470000C0060020704700000A000000B2
:0400F0005410002088
:100100003C0000000000000000000000340100007E
:1001100000000000000000000100000000000000DE
:1001200000000000000000000000000001000000CE
:100130000000000008000000000000003400000083
:100140000000000000000000680100000000000046
:10015000000000000100000000000000010000009D
:100160000000000000000000080000000000000087
:1001700030000000000000000000000098010000B6
:10018000040000000000000001000000FFFFFFFF6E
:10019000FF00000001000000080000000000000057
:1001A0002C0000000000000000000000C40100005E
:1001B000040000000000000001000000FFFFFFFF3E
:1001C000FFFFFFFF080000000000000034050000F2
:1001D000E401000099A1011095A70110A5C201102A
:1001E00009B2011045B80110000000000000000035
:1001F0002F000000280000000000000000000000A8
:10020000140200000000000000000000FFFFFFFFDC
:1002100000000000080000000000000030050000A1
:100220003002000069C201106DC101101FC201102F
:1002300095BA011000000000000000002D00000031
:10024000300500005402000075C20110A9B601106B
:100250009DBF011049B60110000000000000000021
:100260002E0000002400000000000000000000003C
:1002700080020000000000000000000000000000FC
:100280000800000000000000240000000000000042
:1002900000000000A40200000000000000000000B8
:1002A0000000000008000000000000002400000022
:1002B0000000000000000000C80200000000000074
:1002C0000100000000000000080000000000000025
:1002D00000000000BC0F002004000000000000002F
:1002E000000000002000000070010000300000004D
:1002F0001C020000DC0F00200400000000000000D1
:10030000000000000C000000300400001800000095
:1003100040020000E40F0020040000000000000084
:100320000000000024000000480400001800000045
:100330000000000024100020040000000000000065
:100340000000000010000000A00100002C000000D0
:10035000CC0100002C100020040000000000000070
:1003600000000000200000006402000024000000E3
:10037000FFFFFFFF4C100020040000000000000001
:100380000000000028000000880200002400000097
:10039000FFFFFFFF7C1000200400000000000000B1
:1003A00000000000580000003C0100003400000084
:1003B000FFFFFFFF84100020040000000000000089
:1003C00000000000100000006004000018000000A1
:1003D000FFFFFFFF8C100020040000000000000061
:1003E000000000001C000000AC020000240000001F
:1003F000FFFFFFFF94100020040000000000000039
:100400000000000038000000F40100002800000097
:10041000FFFFFFFFFC1000200400000000000000B0
:100420000000000054000000000100003C0000003B
:100430001800000000000000000000004004000060
:10044000080000000000000018000000000000008C
:100450000000000058040000080000000000000038
:100460001800000000000000000000007004000000
:1004700008000000000000000100000038AC00008F
:01048000007B
:100484000100000000000C0000000D00320000001C
:1004940001000000C40F0020000200000000000062
:1004A40001CA011000000000000000000800000064
:1004B40000002100EC0F0020010000003410002097
:1004C4000800000000000000000000000000000020
:1004D4000000000000000000010000009C1000204B
:1004E40006000000010000000411002000000000CC
:0C04F400000000000002000000000000FA
:0F0502002900010025002D002E002F000100010F
:100514000400000008AC000000000000000000001F
:10052400000001000000030087C40110380500002A
:10053400380500000000000090000000900000005A
:10054400000000003410002005900000200000008E
:10055400E0AB000074A900000DC30110311F0000BE
:10056400331F000099C801109BC80110000000004F
:100574008004000058A8000070A8000040A80000F3
:090584000800090001000000015B
:10059000000000000000000000000000000000005B
:1005A000871E0000A71E0000AF1D0000D11E000026
:1005B000F51D0000CB1D0000271E0000FD1E0000E1
:1005C0007D8F0000BD900000C19000000800000079
:1005D0002400000018000000280000002000000097
:1005E0003C0000000C00000034000000DFF800F0C8
:1005F00049C10110DFF800F019C20110DFF800F066
:1006000041AC0110DFF800F0CDA00110DFF800F0E0
:1006100085C10110DFF800F0C1C20110DFF800F061
:10062000E3BF0110DFF800F061C20110DFF800F055
:10063000CDC10110DFF800F03DC10110DFF800F07E
:10064000DDB20110DFF800F085B00110DFF800F036
:1006500029AF0110DFF800F079B50110DFF800F0E4
:10066000C1C10110DFF800F009B70110DFF800F098
:10067000E1C20110DFF800F0B9C20110DFF800F0AC
:10068000E9C20110DFF800F0D5C00110DFF800F07A
:10069000E1B5011020B1082328220021FFF7C6BFD1
:1006A000704720B1082330220021FFF7C3BF7047F5
:1006B00038B500F0DDFF25680DB129682160FFF72E
:1006C00099FF284632BD70B504460D4626680020C5
:1006D00028601EB9FFF78AFF25600DE0FFF786FF4F
:1006E00000E0366831680029FBD1AE4203D1FFF744
:1006F00081FF002070BD3560FFF77CFF012070BDD9
:10070000DFF8FC1C10B100200870202088707047B2
:10071000F8B50546FFF76AFFDFF8E07B0446387E50
:10072000E8B1401E3876C0B2C8B9082107F15000C0
:1007300001F0DDFA9DB1B86B683001F0E1F9B86BFA
:10074000DFF8341DC0680968281A07F1F006B0FB0D
:10075000F1F13046FFF75EFF3046FFF75FFF2046BE
:10076000BDE8F240FFF746BF38B50446207B00F0F5
:100770000F00022802BFDFF8845B287D002815D116
:1007800000F0E6FCA1688908A1EB90006FF07041D1
:1007900088420BDA10F1805FBCBFDFF8E01C08185C
:1007A000A96BC96801F57A71814200DB002032BD76
:1007B00038B5DFF8500CDFF8502C0168DFF83C5BEF
:1007C00002EA0104E1430160A10606D54068800603
:1007D00003D54FF4005100F060FB14F4602F0DD0EE
:1007E000DFF89C0CC16904F460221143C16105F17A
:1007F000A000BDE83440002101F079BA31BDF8B560
:10080000FFF7F4FEDFF8787C3C1D0646A06910F483
:10081000602F25D0C5012D0EE80748BF002506D45E
:10082000A80748BF012502D4680748BF0225681DF4
:1008300040B200F0A5FFA069012105F1110291402D
:100840008843A06100F06CFD07EB850086683000EE
:1008500008D0206800224FF00063691DB04701E016
:1008600000F05EFDA06920B10021DFF8180C01F056
:100870003EFA607F80070DD52569280006D02068E4
:1008800000224FF000436FF00101A847607F00F0A5
:10089000FD006077F1BD70B5FFF7D0FBDFF85C5A63
:1008A000DFF8584DAB6A024690071DD4D3E9060124
:1008B000104007D0EB62196A084318624FF4804178
:1008C00000F0EBFAA86A002849D16E6A002E46D0E3
:1008D000F068A96B884224D005F15000BDE8704053
:1008E0004FF4805101F003BA0BB9A86AEAE700207F
:1008F000A862D3E906011E6A024042F002023243B6
:100900001A62626982436261E26822EA0100E06081
:10091000194605F13000FFF7D6FE022100F0BDFABE
:10092000E3E7B068FFF720FFE86418B1E86CBDE8C2
:100930007040EDE6D6E90601626902436261E26851
:1009400041EA0200E0600020E061B0682060E069F8
:100950000028FCD005F12400FFF7AAFEAE6270BDAE
:100960000020D5E6F8B506461446B76D1D4607B11A
:10097000B847A00706D4D6E914012040294008BF93
:10098000002807D0C6E9184506F13000BDE8F2405E
:10099000FFF734BEF1BD80B501F09CF9DFF85C29AA
:1009A0000146906BD26BBDE80840104710B5DFF8E8
:1009B0004C4901F0C9FA2064042104F15000BDE85B
:1009C000104001F094B980B5FFF738FBDFF8301C18
:1009D000084207D0BDE804404FF00051DFF84C0D4D
:1009E00001F085B901BD10B504294AD1DFF80C49E1
:1009F000606AA16B08B1C16805E0DFF86C0C427F4A
:100A0000D20748BF0168A1630846DFF8601C42684E
:100A100012780A60096840680078814200D0FEE7D9
:100A2000022001F0CBFB112001F0DDFB01206077FB
:100A3000A06BE17E007C084204BF0E2001F0D3FBD6
:100A4000A06BDFF8B81B40688268002A04BFC0684A
:100A5000002804D00020C861DFF82C0C086040F2A8
:100A6000FF70DFF8282C106000208861DFF8900B01
:100A700048610FF21100E0631920BDE81040FFF754
:100A8000DDBD10BD10B5044688002CD560684068F7
:100A9000010018BF804760688168002904BFC068F2
:100AA000002814D0DFF8340C01680029FAD00021A6
:100AB000016060688068010018BF80476068C06896
:100AC000010018BF8047DFF8180CFFF7BFFADFF806
:100AD0002C080FF21501C1634FF00051BDE8104022
:100AE000503001F004B910BDF0B50446880085B05F
:100AF00074D5DFF8085BDFF804680020E861DFF8F0
:100B0000180D2860707E10B10120FFF7F9FD00215B
:100B100071800FF20910317BF06301F0F001317345
:100B200040F60A00002171603080717B01F0F00115
:100B300041F0010171730021A768798000E00F4640
:100B4000796800291CBF0A888242F8D1787B7E60D0
:100B500000F0F000787340F60301706A8068008846
:100B600088421CBF40F60401884202D10020306454
:100B700015E0208B98B104F11800002141804160FC
:100B8000017B01F0F0010173417B01F0F00141F0C4
:100B9000010141737060707B00F0F0007073694672
:100BA000A068FFF77AFA6846FFF786FAA068FFF7B1
:100BB00082FAE8690028FCD00020E861012001F0F9
:100BC000D1FD012808D0787B00F0F00040F0010052
:100BD00078730FF20D00F063A068286005B0F0BDD7
:100BE000012010B501F0BEFD0128DFF8104708D143
:100BF0000FF22900E063DFF8040A0460002020649B
:100C000010BDDFF8741809683220F03400F083FB5F
:100C10002046BDE81040FFF701BD0000FEB50646C6
:100C20000C466004DFF8D45617D5FFF7DFFCEE6AF8
:100C3000376AFFF7DFFCB8070CD45EB1306AB843FF
:100C40003062706830B1B6F91010F06876683A46D4
:100C50000023B04724F480441AE1A00770D52F6B1D
:100C6000002F65D03E1D2020716801E04968401EBC
:100C700079B1C0B268B10A8840F603039A421CBF3A
:100C800040F604039A42F1D1B0681822183001F0FE
:100C90002DFEF0690021F1613168D1B140F002020E
:100CA00097F824000023012807D0022809D004283F
:100CB00004BF00224FF0805306E000224FF00053A3
:100CC00002E000224FF08043B6F90C10B06837689C
:100CD000B847E88E401C0005000DE88605F130009D
:100CE000FFF7E6FCB5F93610B06800F18C02B2F9F6
:100CF0000030994204BF297D002919D1917809B9A2
:100D0000016821B900209070FFF702FD10E0AA6B86
:100D1000126812F1010F0BD0DFF85C271268B1FBEB
:100D2000F2F16830FFF776FCB0686830FFF776FCC8
:100D3000286B002824F0020401D044F00204A7E04C
:100D4000A00005F184073FD50022DFF8EC1B3846F0
:100D500000F0FEFFF06840F6C411884218D104206C
:100D600001F000FD00281CBF286C002810D0686C22
:100D700070B901F0E9F86864696C286C884228BF92
:100D8000491E081A000BF060F06800F58D70F060E5
:100D9000287F60B10220ADF800006846FFF756F9E1
:100DA000BDF80800DFF8D816088300202877012056
:100DB000687524F00054287E401C2876002068774F
:100DC000192000F0C8FF63E095F8200024F0080621
:100DD00028B1200703D5002085F8200045E0200732
:100DE00045D5002068750120A877687E10B10020E5
:100DF000FFF786FC0FF2AD00DFF8401BE86300222E
:100E0000384600F0A5FF297FE87EDFF8847881F07E
:100E10000101084240F6090402D10120E8760FE002
:100E2000E86CF0B101F090F8296CAA6C401A02EB62
:100E30001030A864E96CB0EBC11F12D30020A86485
:100E40002C80687B00F0F00040F001006873002007
:100E50006880287B00F0F0002873002068603D6007
:100E600003E04FF0005100F018F8344610E0A00401
:100E70000ED5AE6A002E1CBF7068002806D0B6F9E9
:100E80001010F068766800222023B04724F4005444
:100E900014B1214600F001F8F7BD05F1500000F053
:100EA00026BF000038B50546880028D5FFF7DBF8D7
:100EB000DFF84844DFF8880AE063A07D18B905F13F
:100EC0003000FFF79BFBDFF8C4170020086002200A
:100ED00001F00AF9112001F01BF9287C10B90E204D
:100EE00001F016F90020E083A07E40B10020A0763A
:100EF000042104F15000BDE8344000F0F8BE31BDDB
:100F000030B58DB001F074F8DFF8380ADFF8385AE0
:100F10000168DFF8E84341F00201016001A8FFF732
:100F2000B9FBA878DFF8241A0790002301AA04F17E
:100F30005000FFF787FB01A8FFF7B3FB0020ADF8D7
:100F40001C0001AB2878DFF8F42909901921002052
:100F5000009004F18400FFF779FB01A8FFF79AFBEA
:100F6000E878DFF8EC190790002301AA04F1A0004B
:100F7000FFF768FB01A8FFF794FB0120ADF81C0008
:100F800001AB6878DFF8CC2909901A210020009085
:100F900004F1D400FFF75AFB00230022DFF8B81950
:100FA00004F1F000FFF756FBDFF89409E06301F06D
:100FB000D3FC012818BF002060764FF6FF71DFF8E0
:100FC0009C0901800121217700214172E17661773E
:100FD000E18384F820100DB030BD2DE9F041C74EFB
:100FE0008CB00446B07D0F4690461D4618B9FFF7F9
:100FF00087FF0120B075002F1CBF6760B8F1000F9C
:101000003FD0C4F80880FFF7F1FAF17DB9BB0121A8
:10101000F175FFF7EFFA2DB90FF68C112CC9684660
:101020002CC06D462868206078216868E060287AC6
:10103000207404F1180001F0F7FC08232422002199
:1010400003A8FFF70BFB01208DF8240003AA002161
:1010500004F13000FFF706FB08232422002103A837
:10106000FFF7D4FA099403AB0022DFF8F41804F177
:101070006800FFF7EFFA20460CB0BDE8F081FFF7FB
:10108000B9FA0020F8E738B5DFF8D8580446A87D4B
:1010900000285CD0B5F93400B5F93610884207D085
:1010A000B4F98C1002224FF0E043204600F03BF9E7
:1010B000FFF79CFAE97D002938D0491EE975C9B2CD
:1010C000A1BBFFF797FA0020A875687D40B100200A
:1010D000FFF71EFB4FF0FF3104F13000FFF792FAEB
:1010E00004F13000FFF7C2FA04F16800FFF7C2FA1A
:1010F00005F15000FFF7C2FA05F18400FFF792FAFC
:1011000005F1A000FFF7BAFA05F1D400FFF78AFA5B
:1011100005F1F000FFF7AEFA0020A8632875207CE7
:10112000A8B1BDE832400E2000F0F2BFFFF762FA2E
:10113000A86BA04204BF0020A86304F13000FFF7B1
:1011400095FA04F16800BDE83240FFF793BA31BD6B
:10115000D0B5FFF74BFA694C617D31B1DFF8081863
:101160000C68FFF747FA2046D0BDFFF743FA00F0BE
:10117000EBFE10F50030DFF8F42741F10001A2FB8F
:10118000006702FB017721690020321847EB010359
:101190001846D0BD2DE9F84F04460E4692469B46B0
:1011A000FFF724FA554D0246B5F93400B5F936106B
:1011B000401A0005000D08286FF0010944DAA88ED6
:1011C000401C0005000DA886B5F93400ADF80000FC
:1011D0001046FFF70FFABDF90000DFF894178210F0
:1011E00000EB5272D210A0EBC200282202FB0018C2
:1011F00004F1680000F084FC08F1040720217E60FF
:1012000087F80EA0C7F800B008F11806BDF8000076
:10121000B881BC60DDE90A23DFF8580710401940A7
:10122000C6E900010020307304F18C06686A40F6BC
:10123000FF7490B1FFF7DAF9074600F067F838B9A4
:1012400000F05EF8384600E01046FFF7D3F909E0F9
:10125000BDF800003080384644E000F057F818B977
:1012600000F04EF8484647E0BDF800003080FFF738
:10127000BDF90021B1706A7DE97F114208D00121DA
:1012800085F820100021E9772977297E491C2976E5
:10129000FFF7B0F9A86A68BB687D18B1192000F0A3
:1012A0005AFD27E0687F28BBFFF7A0F90646A87F14
:1012B00020B100F035F80120A8761BE07868FFF730
:1012C00053FAE86488B1E86CA96BC968401ADFF882
:1012D000A816096805F1F00400F01DF82046FFF794
:1012E0009DF93046FFF786F904E000F019F8042173
:1012F000FFF7D3FDBDF90000BDE8F28F542E0020AA
:10130000A88E20180005000DA8867047414605F1FB
:101310002400FFF7D8B9B0FBF1F12046FFF77AB906
:101320003046FFF767B9F8B506460F4614461D4626
:10133000FFF7A8F9DFF82C26B2F93430DB1BB2F93D
:1013400036301FD5BB42BEBFB2F93430B2F93620B9
:1013500093421FDABB1007EB5373DB10A7EBC301FB
:10136000DFF80C26282303FB0127072297F8241017
:10137000114214D0FFF78AF9072197F82400084298
:10138000FBD109E0BB42A2BFB2F93430B2F936203A
:101390009342DFDBFFF77AF902200021F4BD7A687F
:1013A000DFF8D8158A4202D07A68B2657960C6E95A
:1013B0001445FFF76BF94FF0FF3106F13000FFF7EE
:1013C00021F9D6E91801F4BDDCB50446180008BFC0
:1013D000DFF8A835DDE90667CDE900672046FFF7AD
:1013E000D9FE002803D500204FF00041DCBD0146A6
:1013F000204602B0BDE8D04002224FF0E04392E721
:10140000006208400810044020000E0070B500F093
:101410002FF90546DFF84C650120307704F18C0187
:10142000B6F93400B1F90020801A0CD5B6F93600AF
:10143000B1F900209042BEBFB6F93400B6F93620AB
:10144000904210DB05E0B1F90000B6F93620904279
:1014500009D104F1680000F053FB0020FFF758F9B0
:101460000120F07703E001208870002030752846C5
:10147000BDE87040FFF7BEB8EC000000F6FFFF1FAC
:10148000302E0020F42E002001E042F002022DE96F
:10149000F047DFF8D04482B0606A00908A460026A8
:1014A00003271546FFF7A2F81AF1010F05F001080E
:1014B00081460CD1A06ADFF8C814002819BFA06AC1
:1014C000B0F910A0E08E00F1010A81F821600FFA56
:1014D0008AF2911002EB5171C910A2EBC101DFF841
:1014E0009004282202FB010AA06A824505F0020549
:1014F00027D115B1606A0090666201219AF8240034
:1015000001FA08F108438AF82400FFF7BBF8064601
:10151000B8F1000F14BFDFF86C04DFF86C04FEF7BD
:1015200095FD00F0BFF925B906E000F06CF800F079
:1015300074F800980028F8D13046FFF7A7F8832701
:1015400059E00098504504F1F0081BD1404600F0E6
:10155000D7FA002D11BF6662606A0068606200F011
:10156000A1F900F04FF800F058F80098002818BFD3
:10157000002DF6D183272FE00126832700F042F8C3
:1015800000F04BF8009810B30068504519D1404660
:1015900000F0B6FA00980068009A002111600090EF
:1015A00000F080F9002DE7D1009890F82400009910
:1015B00040F0040081F82400832700F02BF800F0AD
:1015C0002CF8002EDAD1009800680090DAE7832F1B
:1015D0001CBF4846FFF70EF8607F10B100F022F8FC
:1015E00009E0DFF8A803E06300F01CF8607D10B9A3
:1015F000DFF84C03E0633846BDE8F687001004408E
:1016000002000040009890F82400009940F0040087
:1016100081F824006846FFF74BB8014604F130001A
:10162000FFF751B8022104F1500000F060BB10B583
:101630000FF274311CC91CC010BD38B500F018F889
:101640000546C848407D58B12046FEF7FFFC0446D9
:1016500000F048F8E0B201280CBF8120022032BD22
:1016600000F040F8012032BD342E0020D021084087
:101670000446FEF7BBBF0A46BA49896B884201D0CF
:10168000032070470DE000005100070600000460D1
:10169000001004400A46B349896B884201D00320F8
:1016A000704700211046C8E770B5AE498A6B90427A
:1016B0006FF07F0410D1487D70B1FEF797FF0546AB
:1016C000B348FEF7C3FC064600F00CF8F0B2012860
:1016D00002D13002001670BD204670BD1C100440BF
:1016E000010007062846FEF785BF70B50E46154671
:1016F000FEF77CFF83249B491EB1022E0ED005D33A
:101700000FE08A6A42B1896A098A03E0097F19B940
:101710009B49098B298005E0802403E0497D2970DD
:1017200000E00324FEF766FF204670BDA42E0020D3
:101730008A1001EB5272D210A1EBC2018C48282210
:1017400002FB01008068704710B58649097FA1B986
:10175000028B012303FA01F422420AD0A24302833E
:1017600001F10C048B480268A3401A43026008464A
:1017700010BD491C49B20F29ECDB6FF0010010BD10
:1017800038B5FFF775FF75494A7A520702D50B7ACB
:101790009C4210D001220B8802FA04F52B430B80E7
:1017A0000C347C490B68A24023EA02020A600968F3
:1017B00009B96C4A1175BDE83240FEF71BBF2DE92F
:1017C000F041684D0E46A96B8842984618BF032029
:1017D00020D10A2131807260694C60602660204609
:1017E000FFF7B2FF070014D4B77000213046FFF7AF
:1017F00024FF022818BF012805D13846FFF7C0FF93
:101800006FF0010705E004EB870040F80C8C012025
:1018100028753846BDE8F08101010E042DE9F04736
:10182000504E8046B06B80450D46924618BF03204F
:1018300036D1534F3846FFF787FF0446002C2ED48D
:10184000FEF7D4FE8146200200F4706005434FF697
:10185000FC7028405049084338603868FEF7F6FBB2
:10186000C0B2012814D1E80409D500F05BF887F86C
:10187000204097F8210040F0040087F8210007EB92
:101880008400C7F8048040F80CAC0120307504E0F7
:101890002046FFF775FF6FF0010400F003F82046C3
:1018A000BDE8F0874846FEF7A5BE0A462D49896B7C
:1018B000884201D0032070474FF6FC701040374A31
:1018C00000211043B9E670B50C462649896B884261
:1018D00001D0032070BD324841784A0707D503780C
:1018E0009C4204D101F0FB01417000210170FEF720
:1018F0007DFE05462046FFF743FF4FF6FC7000EAE9
:10190000042040F0816040F00100FEF79FFB064696
:1019100000F008F8FFF7E6FEF0B201280CBF8120C6
:10192000022070BD1F480122016804F10C039A4097
:10193000914301607047000097080000C70900004C
:10194000E709000000200940E4A500009709000015
:10195000FF070000B1070000AD090000482E00207D
:1019600061090000542E00200430044000093D00AD
:10197000C0120020F1EFFF9FEC000000650900009D
:10198000302E002001000204010001041D0C0000A3
:10199000010003040C1004400100030601000406CA
:1019A000502E002008100440FFFFFFFFC409000074
:1019B00001000000DFF800F0F5C00110DFF800F0D2
:1019C00049BA0110DFF800F013C10110DFF800F090
:1019D000E5C10110DFF800F0F5B80110DFF800F004
:1019E000B5C10110DFF800F021B30110DFF800F0FD
:1019F00095C00110DFF800F00DA80110DFF800F02D
:101A0000BDBE0110DFF800F021C10110DFF800F0C9
:101A1000A5B90110DFF800F021BA0110DFF800F0DD
:101A2000BDC20110DFF800F015B60110DFF800F0BC
:101A300019A70110DFF800F0D5C20110DFF89002FD
:101A4000007D70476EE038B5FFF7FCFFDFF890527D
:101A50000446A8680021FFF7C9FF6969081AA96947
:101A6000814238BF002084F3118832BD2DE9F04156
:101A7000FFF7E8FFDFF868520446A8680121FFF786
:101A8000B5FF0121A9830021E9836E6929682A68CD
:101A9000871B801A711A884204D20020A88384F31D
:101AA00011882BE084F31188002406E0A619314642
:101AB0000120FFF79FFF3F1B0446A742F6D2FFF726
:101AC000C1FF8046E88B012804D131460020FFF792
:101AD00091FF0446A96914F1010F08BF084603D01D
:101AE000E01B814238BF08468119FFF787FF0120BC
:101AF00028840020A8832E6088F31188BDE8F08137
:101B000000218182DFF8D411C0684969884204D17C
:101B1000DFF800020068FEF781BD7047808A7047D9
:101B2000704700BFDFF8E8110968EFF3118081F317
:101B3000118870470021DFF8E42101601268101855
:101B4000FFF748BF38B50446FFF7EBFF0546207C9A
:101B5000022808D12046FFF755FF002020742946AF
:101B6000A068FFF753FF00F0DBB803681A40036872
:101B70000B408B4208BF0A4312B1016891430160D8
:101B8000104670472DE9F0431F4691B017F1010F41
:101B900018BF002F00F0B8F80AD06B463A46DFF8BD
:101BA000781108A8FFF736FF08A80390022002E08A
:101BB0000020039003208DF8100006950796DFF8AB
:101BC0005C01006800EB0409FFF700FF0290FFF7DB
:101BD000A8FF8046324629462046FFF7C6FF04008C
:101BE00009D0039818B1FFF719FF0020039088F37C
:101BF000118820462AE01FB988F31188002025E0CB
:101C0000FFF7D8FE02990446C1F818D06946484645
:101C1000FFF7E4FE0298FFF705FF9DF81000022889
:101C200004BF0398FFF702FF88F311882046FFF7EF
:101C3000C5FEFFF776FF0446039818B1FFF7EEFEE6
:101C40000020039000F03BF800B1059811B0BDE80A
:101C5000F083F8B50446DFF8C40000680E460719A3
:101C6000FFF75FFF05462068304320603846FFF7E6
:101C7000A9FE10B185F31188F1BDFFF79BFE064662
:101C80003846FFF7D7FE0746FA69B9692046FFF7DD
:101C90006CFF786160B13846FFF7B4FE01203874FC
:101CA000F86808B1FFF72CFFB8682946FFF7AEFEC9
:101CB00085F311883046BDE8F240FFF77FBE002073
:101CC0000299886184F311889DF81000704729E714
:101CD000A4010020DFF850008068704778010020E0
:101CE00078010020616280F311882046704738B582
:101CF00004460D46FFF7EBFF616A2943FFF7F2FF49
:101D0000BDE83240FFF76EBE04460D4616467047EA
:101D100030F80100F0000000451B000034AC00006A
:101D200085F3118831BD0000C801002010280ED3B2
:101D3000A0F11002DFF83010520901EB82011038D7
:101D4000012200F01F0002FA00F0C1F88002704783
:101D5000816042607047102804D3DFF80C101038FF
:101D6000C1F8000F7047000000E000E000F077BE0F
:101D7000FFF7D8BEDFF89411C20744BF01220A6002
:101D8000820744BF4FF480720A60400744BF4FF49B
:101D9000803008607047DFF87821C30748BF1160C2
:101DA000830748BF5160400748BF9160704710B536
:101DB00004460020D4E90A2347F6906101F0DAF8DE
:101DC000012928BF4FF0FF3010BD10B50C4600F0C0
:101DD000B1F8011D201AB0F1004F05D8081BB0F171
:101DE000004F38BF8C4200D20C462146BDE810405F
:101DF0000120D0E72DE9F04180460A46D8E90A01E2
:101E0000D8E90C45A0FB026701FB0277A6196F41D8
:101E1000340C002244EA07414046FFF7D6FFC8E9E8
:101E20000E67BDE8F081F8B50646FFF7A1FF04464E
:101E3000DFF8E050DFF8E0700120E861FFF79AFF7B
:101E4000F96A096A142088473069B0F5802F34BFD9
:101E50000421010C0120FFF79EFF3A68126823213C
:101E600000209047DFF8B41001200860DFF8B400CC
:101E7000016821F4E02141F48031016001202860F3
:101E800084F31188F1BD00F05FB810B5DFF8900061
:101E9000446800F006F86069A169BDE81040084791
:101EA0000000012066E7F8B504460D4600F04CF846
:101EB000D4E90A6732463B4601F05CF83DB1A6FB27
:101EC000002306FB013307FB0033C4E90C23F2BDFA
:101ED00010B5DFF84000DFF850400021016001211B
:101EE000C16121602068FFF7DCFFDFF8401009685E
:101EF000096A14208847206810BD000080B500F0F2
:101F000023F8000C40EA014002BD00000420094013
:101F1000182009400000244384010010800224435B
:101F2000E4010020002009402C200940B0010010ED
:101F3000FEE7704709480168426803689942FAD190
:101F4000100C40EA0140704710B5044A136850680D
:101F50001468A3421946F9D110BD000008200940B9
:101F600020B1082324220021FEF750BB704780B522
:101F70000120009009234FF400720021DFF80407CC
:101F800001F0B0F801BD80B5002301223421DFF853
:101F9000F40601F0BAF800B10120C0B202BDDFF8CA
:101FA000E80680687047DFF8E016401890F8ED000A
:101FB00070470022022904D1012806D140F2EE2206
:101FC00003E0012808BF4FF47A7210467047DFF82B
:101FD000B806D0F8DC007047DFF8AC0690F8E600F1
:101FE00028B1DFF8A8064068010018BF0047704715
:101FF0002DE9F041DFF8908608F1E1058AB0A87973
:1020000000285ED10120A871DFF88066DFF88076B5
:10201000307B687101A8FFF7A3FF00200690ADF8A0
:102020001400079001AB00220FF2F54108F10C00FB
:10203000FEF710FB01AB00220FF2A15108F13000B6
:10204000FEF708FB01AB00220FF2D94108F1540062
:10205000FEF700FBB16801208847DFF838060078FA
:102060007868C0F38154707B20B1032C02D1012029
:10207000287003E0032C18BF022C16D1022000F0B8
:102080009DF8032CDFF810160CBF4FF47A7042F263
:1020900010700968B0FBF1F108F15400FEF7BAFACC
:1020A00008F15400FEF7BAFA05E0012C03D100F064
:1020B00063FAFFF75CFF386840075CBF002000F060
:1020C0007DF80AB0BDE8F08110B508B1140001D167
:1020D000022010BD8160C26003610146DFF8A805DF
:1020E00001F02EF8002010BD10B50446FEF77EFA70
:1020F000DFF89415621892F8E8305B1E82F8E83039
:10210000DBB223B98A680123A3409A438A6066E060
:102110002DE9F0410546FEF769FA8046DFF86815BB
:10212000681890F8ED20521E80F8ED20D2B2002AF7
:102130003FD10FF2A050DFF8644500EB85052E7803
:102140006F88300615D52168096A384688472168A6
:10215000896A384688472168096B38468847DFF81E
:10216000401501200860DFF83C0500688007FAD5BB
:1021700012E0700606D501EB87010020D1F80011AE
:10218000884709E021688969384688472168496B92
:10219000384688470228F9D106F03F003F2818BF8B
:1021A000FFF7B6FF687800F03F003F2818BFFFF741
:1021B000AFFF4046BDE8F041FEF71CBA10B504463B
:1021C000FEF714FADFF8C0148A680123A3401A430B
:1021D0008A60611891F8E820521C81F8E820BDE877
:1021E0001040FEF707BAF8B50646FEF7FFF90446B9
:1021F000DFF89454701990F8ED104A1C002980F80B
:10220000ED2039D10FF2CC4000EB8607387800F092
:102210003F003F2818BFFFF7E6FF787800F03F0047
:102220003F2818BFFFF7DFFF7E883878DFF86C742F
:1022300001060ED53968C969304688473968496A48
:10224000304688473968C96A3046884700F019F82F
:1022500012E0400606D505EB86010120D1F80011F9
:10226000884709E039684969304688473968496BC9
:10227000304688470128F9D12046BDE8F240FEF7F4
:10228000B9B9DFF81C1401200860DFF818040068F1
:102290008007FAD570472DE9F04F002483B04FF046
:1022A000000A0128D04618BF012664D1DFF8D89370
:1022B000D9F8DC0001285DD10220C9F8DC00FFF765
:1022C00079FB0090012000F062F9060054D1FEF77E
:1022D000D9F9DFF8DC1301900C60012000F042FA1C
:1022E000012804D1002000F0A7F94FF0010ADFF81F
:1022F000B813DFF8B8030C6000681120FFF753FE35
:1023000008B14FF001081020FFF74DFE08B148F06A
:1023100002080F20FFF747FE08B148F004080B2021
:10232000FFF741FEDFF8746320B13168096B4FF4A9
:10233000806088470A20FFF736FE20B13168096BBC
:102340004FF481608847DFF85813DFF86873DFF8CF
:1023500068B30120086048F0200031688969884727
:10236000DFF858130120086099F80800C00707D566
:10237000012416E0042673E00120C9F8DC006CE0BB
:10238000584600F0FFFE0546042DF9D0012D04D17A
:10239000326A5268032158469047386880088000A6
:1023A0003860002000F0F6FEC04800683068806B9E
:1023B000804754B9012D04D1326A52680121584630
:1023C0009047386840F0030038600120B649086043
:1023D00040463168496988470B20FFF7E4FD20B18A
:1023E0003168C96A4FF4806088470A20FFF7DBFD37
:1023F00020B13168C96A4FF481608847A84901203B
:1024000008600020AD4908600320C9F8DC0031688D
:10241000496B404688470128F9D1042000F0B7F8FD
:10242000A34901200860A1480068A548006880060B
:10243000FBD5BAF1000F1CBF012000F0FDF800F041
:10244000F3FF082000F0A3F806460120C9F8DC00DD
:102450000198FEF71BF900F06CFF0098FFF7AEFA49
:102460003046BDE8FE8F38B50446FEF7BFF8054696
:102470002146854800F078FE28464CE030B500241F
:1024800001288BB004D021D303281DD018D31DE020
:1024900001A8FFF765FD7C4D8A490694ADF814400C
:1024A000079401AB012205F17800FEF7D3F8009400
:1024B0000023854A2C2105F19C00FEF7C7F805E0B2
:1024C00000F0CEFF044601E001F070F820460BB0AA
:1024D00030BD000000F053B938B5FEF787F8054667
:1024E000694890F8E000012410B1FFF74CFD044664
:1024F0002846FEF77FF8204632BD38B5FEF776F85D
:10250000614D044695F8E00020B100F07EF900200E
:1025100085F8E0002046BDE83240FEF76BB80000C9
:102520007047000010B582B0042000F01BF90228AB
:1025300018BF032807D100F01FF8FFF718FDBDE80A
:1025400016400220D0E56148534900684E4CC0F364
:10255000815003280CBF4FF47A7041F2883009682B
:10256000B0FBF1F104F15400FEF754F804F154000B
:10257000BDE81640FEF752B8032000901C234FF030
:10258000405200213F4800F0ADBD0020704770B5BB
:1025900004463D4E304600F0C9FD002598B930464E
:1025A00000F0CAFD0646B068204207D03269F368E1
:1025B0000021204698470546012D05D0304600F001
:1025C000BDFD0600EFD1284670BD414901280CBF72
:1025D00040F2FF70002008600020704770B5FEF7E1
:1025E00005F8294E294D044696F8E00028B100F080
:1025F0000CF968B1002086F8E0000220AD68A84719
:1026000006461020FFF7C3FF8EB10320A8470EE057
:10261000214909683220B0FBF1F101B9012106F12D
:102620003000FDF7F7FF06F13000FDF7F7FF204619
:10263000BDE87040FDF7DEBF38B501281ED100F0BF
:1026400091F801281CD000F0D6F80F4C1249012057
:1026500084F8E00032200968B0FBF1F505B90125E6
:1026600004F13000FFF74CFA294604F13000FDF781
:10267000D1FF04F13000FDF7D1FF01E000F0E7F8F1
:10268000002032BD00A00C408411002068A600008C
:10269000B03F005015320020EC000000B8010010DF
:1026A0002820086028200840000222432C200940EE
:1026B0000C400940242208400040034080010443AC
:1026C00014100940DD360000B9340000B43F00505A
:1026D000000004608F3F00008F3F01008F3F020029
:1026E0008F3F0300903F00018F3F0101903F0002A8
:1026F000903F00038F3F01048F3F00058F120804B5
:102700008F3F00048F3F0006513F00007F3F0100D4
:102710003F3F04003F3F02003F3F01007F3F020078
:1027200070B50446E00782B00D46614E05D5A8B2EB
:1027300000900023012200F011F8A00705D5A8B2EF
:1027400000900123022200F009F8600705D5ADB220
:10275000009502230C2200F001F873BD00213046E1
:1027600000F0C0BC0146042907BF1D234FF0C04242
:102770001C234FF080524E48342100F0C6BC70B587
:102780000546FFF7D7FB4B4CA168401A4FF47A710E
:102790004843060C01F072F82169401A48BF4042D4
:1027A000711940F6B932914207D2062805DAA068BD
:1027B000E168814201D3226852B93F494A68D20791
:1027C0004FF4FA6016D40868C0B27D21484308E08F
:1027D000081A3A494843000C00EB9000904238BF79
:1027E0001046C82801D2C82070BDB0F57A6F88BFE6
:1027F0004FF47A6070BD80B501210320FFF790FF90
:10280000FFF798FB2B49886001BD80B50120FFF7D9
:10281000A9FF012819D0002301223421244800F007
:1028200074FC98B100F026F8FFF784FB21498B680F
:102830000A68C860A2EB9202C01A204B5843000CF1
:102840000860904238BF10460860012002BD10B5F4
:1028500000210320FFF764FF0120FFF783FF08B189
:1028600000F008F8134CFFF765FB606001F006F814
:10287000206110BD1248006801F014B810B511496C
:102880000A6811490968140424161B384443E410EB
:1028900004EB2244120600FB00F3121609065A4309
:1028A0005843091604EBA222484302EBA04010BD96
:1028B00000A00C40E4310020AC3F005040420F002B
:1028C0008000001090130050A410005062B38B07DA
:1028D00008D0521E11F8013B00F8013B00F02480A3
:1028E0008B07F6D1830740F0208000BF103A07D352
:1028F00030B4B1E83810103AA0E83810F9D230BC42
:10290000530724BFB1E80810A0E8081044BF51F8ED
:10291000043B40F8043BD20724BF31F8022B20F8D7
:10292000022B44BF0B7803707047083A07D3B1E815
:102930000810083A40F8043B40F804CBF7D253079C
:10294000E4E7000030480068000C00F007000528AC
:1029500028BF4FF0FF3070472C490A68C2F30F328E
:102960004BF69A139A424FF0FF3007D10868000FD8
:102970000B2801D104207047002070474BF6BE1190
:102980008A4201D1012070474BF641318A4201D180
:10299000032070474BF620318A4208BF022070475F
:1029A0001A48F8B50068050F19480068C6B2802EAD
:1029B00028BF0026FFF7D0FF4FF0FF3406F10A07CB
:1029C00030B102281BD012D3042819D017D318E035
:1029D000012D12D0032D06D0072D06D0082D08BFDB
:1029E00006F116040DE014240BE0152409E025B1CE
:1029F000022D08BF06F1140403E00A2401E005B922
:102A00003C4660B2F2BD0000941200501813005012
:102A1000A010005080B5FFF79FFF18B9FFF7C0FF67
:102A2000162800DAFEE701BD002200F057BF0000C3
:102A300038B514460D1800F0F3FC401E8041C00F5D
:102A4000DFF884140A68002AFCD02C6001220A6096
:102A500000281CBFBDE8314000F0E6BC31BD38B5F0
:102A6000DFF86804DFF86854046814F1010F08BF48
:102A70000024FFF7CFFFDFF85C140020086001207E
:102A8000DFF854140860DFF8541408602868002840
:102A9000FCD1DFF84C04DFF84C2441681268890847
:102AA000890041F0005141F00401520748BF41F054
:102AB00001010BD4026812F0030F07D041F00302AA
:102AC0004260026802F00302032AFAD14160DFF893
:102AD0001804006828B1DFF814040068204600F0EC
:102AE00031F8DFF80C14DFF80C2400200860DFF860
:102AF000080401686FF31B4111430160DFF8FC0318
:102B00000168C1F30131012907D10168DFF8F02321
:102B1000114041F400320260016028680028FCD1B5
:102B200031BDDFF8E01382B20A60C0F307404860AD
:102B300001208860DFF8D00300680028FAD0002068
:102B4000886070472DE9F84F0446DFF8C003012183
:102B50000160DFF8BC1309680029FAD0C021DFF852
:102B6000B493DFF8B463DFF8B453DFF8B473C9F893
:102B70000010B16889075DBF7168090C41F0F00170
:102B80007221297000210163D6F80C803868C0F3E7
:102B9000046000F0EBF94FEA2871491C0818162868
:102BA000A8BF152004DA6FF009018842B8BF0846B3
:102BB00000F01F0040F4F8502883DA4DDA4800682E
:102BC000800748BF48F04068D848C8F3C06181F02A
:102BD000010101605FEA8832C8F3806181F0010180
:102BE00081602968C1F38360C1F38F2121D44FEA4A
:102BF000084212164FF6FF7307E0490804D1194640
:102C0000400804BF01200121521C002AF5D4012AEA
:102C10000FDB490041F00101B1F5803F21BF0121E7
:102C2000400040F00100102824BF0F201946521E1A
:102C3000EDE7DFF8FCA241EA0042182100F094F928
:102C400028682968C0F3870001F0030140EA0120E9
:102C50000090002340F2FF322C21504600F042FA4F
:102C6000E86A8204920C1C2100F07EF9686A20F068
:102C70000332142100F078F9286AAE4901EA000213
:102C8000102100F071F9A86AB368DB07C0F30351A3
:102C9000C0F303420BD473684FEA035C01EB2C7161
:102CA0001B0481F3040102EB237282F30402120479
:102CB00042EA015182B20A43222C24BF00F0804034
:102CC00002430C2100F050F90120222C03D3E86BC1
:102CD000000F00F00100DFF860B2400040F020007B
:102CE0008BF808000120222C03D3E86B400F00F082
:102CF0000100002240F01000202C8BF8080007D3C0
:102D0000A86CC10C01F44071C0F3845040EA010288
:102D1000282100F029F90020202C03D3A86C000DF5
:102D200000F00300400040F060008BF80B00002032
:102D3000222C03D3E86BC00E00F00100C00040F06D
:102D400080008BF800000020222C03D3E86B400D9C
:102D500000F03F008000794940F47C40202C08803E
:102D6000774A0AD3A86C0203810A02F47C1242EA71
:102D7000815100F00F0041EA0032082100F0F4F820
:102D8000704C4FF48000206040F20F22F96D6E48C5
:102D900089B2914212D279687A68C1F30361C2F3B1
:102DA000034201B1491E072A05D0062A0EBF072299
:102DB000921C02F00F0241EA021101704FEA9841A1
:102DC00001F00301012902D0022927D023E0E96B99
:102DD0008A0320D44FF4804222604B0AD0F80A20A4
:102DE00022F08F0203F080031A43C1F303331A4326
:102DF000C0F80A20C1F30323D0F80920120943EADE
:102E00000212C0F8092001F0E701826822F0E7020F
:102E10001143816002E04FF0004020604FF40070E9
:102E200020644A49E86B4A4FC00C00F0030040F0B0
:102E3000300008704FEA985010F0030003D00228C9
:102E400025D008D325E001210420FFF769FC414883
:102E5000FFF767FE21E00120FFF784FC8046414632
:102E60000420FFF75DFC0420FFF77CFC4045FAD10D
:102E700036683002000AFFF754FE7B691B684FF08A
:102E800060220721300E98474FF4806020600321B4
:102E900000E002210420FFF743FCE8692E4900F01E
:102EA0003F00087047F618002C4908802C4800683D
:102EB0003968C968022088474020C9F8000001200D
:102EC00028490860BDE8F18F00800C401C130050B9
:102ED0000C006842840460425C600C400822044399
:102EE00000400340B03F00508001284300012043D0
:102EF0008C210840000039014820034004000940AB
:102F0000FFFFFCFC3C600C4084088C43101009401F
:102F10009402224300600C40A83F005056620840D3
:102F2000B812005050130050000009400000204328
:102F300000A00C40FFFFFC0041A10C40DCA10C40B4
:102F400000803F4040A00C400260084008A10C40B7
:102F5000A0010010BD3786000BB00C4070B00C40D3
:102F60002C20094094046042504661E51628A8BF11
:102F7000203870471B4213D1094236D12AB184460A
:102F8000B0FBF2F002FB10C2704700F0C1BCFCD3F2
:102F90000022002370470B00020000210020704730
:102FA000904271EB030CF6D370B5B1FA81F4B3FA29
:102FB00083F52C1BA340C4F1200532FA05F63343F8
:102FC000A2405FF00046E64002E05B085FEA3202A2
:102FD000841A71EB030524BF204629467641F4D3B9
:102FE00002000B003000002170BD012ACFD970B55E
:102FF000140C20D0B1FA81F4B2FA82F5C4F12004A5
:103000006419B4F12006D6D3B2405FF00044F44016
:10301000002502E052085FEA3303C61A71EB020E84
:1030200024BF3046714664416D41F3D302000B006A
:103030002000290070BD0C46B1FBF2F102FB1145E6
:103040002D0445EA1045B5FBF2F402FB145580B29D
:1030500040EA0545B5FBF2F002FB105240EA04409D
:1030600070BD000070B504460D46164600F0D8F954
:10307000401E8041C00F1A490A68002AFCD0012E68
:1030800002D0022E02D003E0257002E0258000E08D
:10309000256001220A6000281CBFBDE8704000F0D6
:1030A000C3B970BD38B504460D4600F0B9F9401EED
:1030B0008041C00F0A490A68002AFCD0012D02D0C5
:1030C000022D02D003E0247802E0248800E0246886
:1030D00001220A6008B100F0A7F9204632BD0000C5
:1030E00000800C4010B500EB4100102B144600F599
:1030F000007002D3103B001D240C0299994041EA54
:103100000441BDE810400422ACE738B51D4608185C
:10311000102D144602D3103D801C240C0221FFF711
:10312000C1FF04EA000188B2E84032BD006800280F
:103130000CBF01200020704700687047006870478E
:1031400038B504460D4600F0E4FB002129606168B3
:1031500069606168002914BF0D6025606560FFE744
:10316000BDE8324000F0D7BB0B684A68002B0CBFAB
:1031700042605A604A680968002A0CBF0160116009
:10318000704700000068010701D50420704700F077
:10319000030070472DE9F84F06469248924C0068AC
:1031A000924D800704D50820A87191482060BEE0A8
:1031B00000F064FB80468F480068009000270017ED
:1031C00000F101090098800208D4C8F13E00C01047
:1031D0000928A8BF08208145B8BF814686480068F5
:1031E000C0F30460FFF7C2FE824684480068C0F363
:1031F0000440FFF7BBFE09EB0A011629A8BF152101
:1032000004DA6FF009029142B8BF114601F01F02C3
:103210007B4B42F4F8521A807A4A126812F0030F7C
:1032200018BF0127520748BF47F002070EB147F009
:10323000040795F90720A8EB0202052A02DAAA7909
:1032400097425CD0A8F10F0C0026BCF1000FB646E7
:1032500007F0010207F00403DFF8AC9123D40CEB74
:103260000C1C4FEA2C2EBEF1080F28BF4FF0070EA2
:103270007646072E28BF062609EB860A59F82660EF
:10328000DAF804A0AAEB060A5FFA8AF613B1CAF3C9
:10329000072B5E445FEA877B44BFCAF3074B5E445B
:1032A0000AB106EB1A6659F82E905FFA89FA13B143
:1032B000C9F307239A44BB0744BFC9F307439A44A1
:1032C0000AB10AEB196A401AACEB0E220099AF71F1
:1032D000724380320128B8BF01203423C9B2584359
:1032E0000AEB12224843B0FBF2F0B0F5803F28BF52
:1032F0004FF6FF7008F30708A88085F80780434859
:103300000068A988286000201F2904D21F21A980F5
:1033100004E04908401CB1F5007FFAD20F390909D1
:1033200040EAC1003A490843206000206060BDE8DF
:10333000F18F10B53748006884B224B300F09EFACC
:103340002A4991F90720904205DA6FF07F029042F6
:10335000B8BF1046C8718888844201D28C8010BDE5
:103360002A4A12680B68D21A921C202A28BF1F22F0
:10337000231A520823FA02F42018B0F5803F28BF20
:103380004FF6FF70888010BD2348026802B970476D
:1033900010B5224B986800F04061B1F1406F20D029
:1033A00010490C68A4071CD45C68A40719D40C68E5
:1033B0001B68C3F303531C331B0114F0050F05D026
:1033C0009A420ED224F00500086010BD934208D244
:1033D000020158BF44F00104400158BF44F0040406
:1033E0000C6010BD0000094030100940F831002089
:1033F000FDFDA400B43F0050B81200503C11005035
:103400006E620840242208409C13005008200940A6
:1034100000E7A4803410094028500940AC3F005018
:10342000EFF3108072B67047EFF3108062B670470A
:103430000138FDD17047704710B50C18FFF7F0FF49
:10344000401E8041C00FDFF8D8130A68002AFCD064
:10345000246801220A6008B1FFF7E6FF204610BD8C
:1034600038B5DFF8C043DFF8C0132078897B00252A
:1034700008430AD0FDF7BAF8A178002906BF012158
:10348000A1700125FDF7B6F80DB1002032BD022074
:10349000FEF794FE0E20FEF7A6FEDFF8900301680B
:1034A00009B1012032BDDFF88823402111600121DC
:1034B000C1610020607032BD70B5DFF8740382B066
:1034C000002101604821C160DFF8680300F1D804E1
:1034D000A17A002967D00129DFF85C2328D1106880
:1034E0004BF2F5214843050AD4480068C0F38140F7
:1034F000012806D100F0C2F9FFF7C0F9684305EBD7
:103500009055607B10B10020607305E0CC480068E6
:10351000000215EB10204508CA480560290C4160DF
:1035200001218160C048807B00283AD0052039E025
:10353000022909D11568284600F0F2F8A5F2FF50DB
:1035400003282ED308202DE003292CD1116800F187
:10355000B805A1F5C0612868E961002848BF40426C
:10356000002948BF49428842A8BF002018DA68688D
:10357000B54E80B2009008234FF47F423021304690
:10358000FFF7B0FDA86800F067F904213046FFF7A7
:10359000A9FDA86900F066F93046FFF7A3FD0120F8
:1035A00020700B202073BDE8734000BF2DE9F0416F
:1035B000A04CDFF89482A54FA54E9D4804F1E1058B
:1035C00082B0E9784A1E0B2A5BD8DFE802F00622B7
:1035D00033465B33465B3346636E9E490968096830
:1035E000202088470F20F860072341F61D503861DE
:1035F0004FF4C0720220009000F06BF807234FF4E4
:10360000C07200214046FFF780FD0120306002209B
:1036100044E00120F861287800281DBF00203061B7
:1036200003200620E8700320386000207060706876
:10363000800734D4E878032804D1022000F046F84B
:10364000042007E0002000F041F8E87806280CBFCD
:1036500007200A20E87001201AE0042903D1202164
:10366000B961012105E00122BA610A290CBF0321D9
:1036700002216970002139600821C16001600120C8
:10368000386021E005290CBF06200920E8700020E1
:10369000706004E00020306070600C20E87004F17D
:1036A0007800BDE8F641FCF7B9BF002101600120B8
:1036B0005E4908600E20FEF72BFD0220FEF714FD88
:1036C0000120E8700020A870BDE8F3810090052378
:1036D000602200214046FFF705BD000055495C48C7
:1036E00091F8E410891E0A2919D8DFE801F0060ACA
:1036F0000E180A0E180A0E18120001688907FCD568
:103700000DE041688907FCD409E041688907FCD5D0
:1037100005E001688907FCD441688907FCD445E7C6
:10372000F8B50746484C30212046FFF785FE414E4C
:1037300006F1B805C0F30720686004212046FFF7B2
:103740007BFEC0F38440A86020212046FFF774FE72
:10375000C0F38120A861B7F5C060286002D186F867
:10376000D800F1BD296996F8D8202AB96A68A968F5
:10377000EA60E861AA696A61E86900284CBF6FF0F5
:103780000102022200EB40001018421000EB927080
:1037900001EBA0006968E960012810DA6A69032A70
:1037A00004D1153001281DDA01201BE00B3001285F
:1037B000B8BF0120491E48BF0021E96007E01F286B
:1037C00012DB6A692AB915381F28A8BF1E200321F9
:1037D00009E00B381F28A8BF1E20491C4029A8BF9C
:1037E0003F21E9600021696128610823E86880B20F
:1037F00000904FF47F42302100F03CF8012000900F
:1038000011234FF4003200F034F8286900F024F856
:1038100000F02FF8686900F025F800F02BF8F1BDF2
:1038200000800C406512002068A6000004800C4057
:103830002C500C408411002008400C40B43F005034
:10384000102009403C600C4000A00C4000400C409F
:1038500034600C40A001001080B2009012234FF49D
:10386000F802704780B200900A234FF44062202192
:10387000704704212046FFF735BC00000748084A7E
:10388000816812780068C90352B2A0F54070C9136C
:103890005043A1EB2010803000127047285009409F
:1038A0000C13005070B50446FFF7BAFD451EAD413C
:1038B000ED0F074E30680028FCD0A0470120306093
:1038C000002D1CBFBDE87040FFF7AEBD70BD00000D
:1038D00000800C4062F30F2262F31F4200B500BF6C
:1038E000130096469446103928BFA0E80C50FAD829
:1038F0005FEA417C28BF0CC048BF40F8042BC907D1
:1039000028BF20F8022B48BF00F8012B00BD0000A3
:103910007047FCF76BBEFCF76DBE0000DFF800F0EF
:10392000D9C10110DFF800F025B10110E0B5082180
:10393000ADF800100190042100F00FF8002814BF2A
:10394000002002980EBD00B583B00821ADF800102C
:103950000190052100F001F807BDADF8021068469E
:10396000DFF8D0190968084700B58FB008233C225A
:1039700000216846FFF7D2FFDFF8BC0900F15001D3
:10398000079100234FF4C87108916A4602210691FD
:103990000FF20901FFF7C6FF0FB000BDFEB500F042
:1039A000DCF80120DFF88C49DFF890592168DFF856
:1039B0009069ADF80200684688479DF804002873B6
:1039C0000298E86105F1780000F023FD28620023E9
:1039D0000220019043F698220020009005F130006B
:1039E0000FF6F90100F0CAFC00208DF800006A46CD
:1039F000012140F20D4000F0F9FF4FF0FF3000F0E0
:103A0000A3FE4FF0FF3000F075FE01F0D5F901F094
:103A100041FA01F05BFB0FF2E56001F062FA0FF290
:103A2000E56001F07AFB00200190009000234FF444
:103A30007A720FF6E10105F1840000F09FFC3BE093
:103A4000A87501F0C3FD288B81070CD54FF6FD71D9
:103A500008402883687B062805D101F076FA05F135
:103A6000300000F0AFFC288B010725D54FF6F77129
:103A700008402883A87B00281CBFA87D00281BD0F5
:103A8000287D697D884211D0401C0B2190FBF1F10B
:103A90000B2202FB110028750C21287D01FB006020
:103AA00082784178C31C007800F05AFB287D697D3C
:103AB000884201D000F0EBFA00F04FF80A20ADF890
:103AC00002004FF0FF30019068462168884798BB9C
:103AD00000F043F80920ADF80200684621688847E5
:103AE0009DF80610029F10BBBDF80400102801BF0E
:103AF000287B81423878B02804D1397907F1080051
:103B000000F0F2FF9FB100F028F80320ADF80200AA
:103B1000019768462168884709E0286A00F0A4FCFC
:103B2000070004D000F0E0F93846FFF70CFF286AE0
:103B3000FDF748FF0028F0D0288B410783D54FF6CA
:103B4000FB7108402883687B062805D1E87B0028A4
:103B50003FF476AF00F0A1F975E70820ADF800005A
:103B6000704780B5DFF8DC0701F018FDBDE80240C2
:103B70000FF2DC7000F07FBD1CB5DFF8C047A1621A
:103B8000E06200281CBF0268002A0AD004200190CD
:103B900000230020009004F154000FF2417100F066
:103BA000EDFB13BDDFF89427516290747047F8B5B0
:103BB00016460A2E04460D461F461CDADFF87C071F
:103BC000417B06290BD1817B69B1017D407D81421A
:103BD00009D12946204601B0BDE8F040C0E20229E3
:103BE00018BF00F070F93B4632462946204601B026
:103BF000BDE8F0400CE3F1BD70B50024002831D1E0
:103C000071BBDFF838576978287800F091FA060020
:103C100019D0A9780A2909DA002200E0521CD2B290
:103C20008A420BD25319DB78002BF7D0E81C01F045
:103C30007DFFA9783088EA1C00F0C4FA002000213A
:103C4000002207C50C3D687B062808BF01F0BEFCBA
:103C5000AC820022002140F2094000F0C7FE02E0E1
:103C6000182400E00224204670BD00220128DFF85D
:103C7000CC3602D0022802D004E0587B00E0587C09
:103C8000087000E00222104670470A460146DFF83D
:103C9000AC06408B00F0F8BCF0B583B04868144621
:103CA0000278407802EB002708981D460026BFB234
:103CB00042F64B2218B1974227D00B20FEBD42F6A8
:103CC0004D239F421CBF42F622239F4207D042F65B
:103CD00032239F421CBF42F633239F4213D14889AF
:103CE00000F011FA08B9288049E0019400950123F9
:103CF000DFF84846A46A417A007A24683A46A04729
:103D000006003ED13BE0974214D1DFF83C26137801
:103D10001F46874238BF072633D38446099AA3EB50
:103D20000C039A42A8BF3A1A2A80C8682A880CEB6A
:103D3000000107E042F64A20874207D1042028808C
:103D40000422C9682046FEF7C1FD18E042F60810BB
:103D500087420DD042F64E20874205D101202880AF
:103D6000C868007820700AE042F60710874206D142
:103D700002202880C868017821704178617000F0C5
:103D80008CF83046FEBD2DE9F84183B00F460A9904
:103D90001646002409B10B2023E07968DFF89C5512
:103DA0000A78497802EB01211FFA81F842F64D2189
:103DB00088451CBF42F63221884515D1788900F02C
:103DC000A2F958B103A9009101960023AC6A417A87
:103DD000007A24684246A04704460CB900F05DF81A
:103DE000204604B0BDE8F08142F64C2188450AD156
:103DF000012B50D13078002818BF012849D1A96A79
:103E000049688847EAE742F6021188452ED1012128
:103E1000019100943246BDF80C30394601F002FFA2
:103E20000400DAD130787178AA7C00EB012079891E
:103E30006F6A01E0521E0C37D2B2002ACED07B68E6
:103E4000002BF7D05B898B42F4D1002FC6D080B213
:103E500001280CBF02230323AD6A019603A800903A
:103E6000797A387A2D684246A847B7E742F64E205D
:103E70008045B3D1012B0ED13078002818BF01281E
:103E800007D1F96808703078002814BF0320022099
:103E9000B5E78024A4E70D24A2E7DFF8A004C16AF7
:103EA00029B1096800291CBF543000F08BBA704753
:103EB000DFF88804C16A29B1096800291CBF5430A1
:103EC00000F09EBA704780B500F0FBF948B12021A0
:103ED000062000F03BFD3021072000F037FD0521D2
:103EE000D7E100F0CCF901BD70B50546DFF84C64B0
:103EF0002888012806D0102808D0202849D040283A
:103F000018D070BDA878BDE8704062E0A97801299A
:103F100008D1707B062851D106F13000BDE8704011
:103F200000F050BA022949D106F13000BDE87040D6
:103F300000F066BA6868AC78027814B90120F073B2
:103F400013E0012C06F1840006D10021F1733274D4
:103F50005AB900F034F808E0022C08BF002A04D156
:103F600000F02DF8708B01F0DBF8B16A7474052055
:103F700049688847307D717D88421CBFB07B00282E
:103F800018D0308B40F008003083F069FCF736FB26
:103F900010E06C68B16A637A227AE08831B18E6889
:103FA000310003D001462046B04703E00022002143
:103FB00000F06AFB6868BDE87040C4E470BD012190
:103FC000B1734FF47A7100F0FFB90146002201206D
:103FD0008BE170B50446062C82B040F20536D74D11
:103FE00015D100208DF8000005F11A0140F20E30C5
:103FF00001F045FA0020A87300F050F8FFF74DFFDC
:10400000287D697D88423CD000F041F839E0687B2A
:10401000062836D1FFF74CFF0020E8810120CB496C
:104020000870FF20687400210020002207C500F0FE
:1040300048F90C3DC0B1E86A0079800714D54FF407
:10404000C861062000F082FC4FF4C861072000F030
:104050007DFC0021012000F079FC00F029F901200D
:104060008DF8000000F01AF8A96A49680520884711
:104070000120E874287C042803D100F000F9002016
:1040800028746C730420A96A4968884773BD288B1B
:1040900040F008002883E869FCF7B0BA6A460121BD
:1040A000304601F0A5B838B50C4615460120FFF79B
:1040B0003DFC020005D015702146BDE83840402087
:1040C00013E131BD2DE9F04180460D4616461F46ED
:1040D0000A20FFF72BFC04000CD006224146FEF715
:1040E000F5FBE580267267722246BDE8F0410021AB
:1040F0002020FAE0BDE8F081000000000146002227
:104100001020F2E0704710B58C4A516A927C01E0B1
:10411000521E0C31D2B24AB10B88834201BF8B7A56
:104120008A4C2478A342F3D1084610BD002010BD6C
:1041300030B5824B5A6A9B7C01E05B1E0C32DBB2CD
:1041400063B1147A844204BF547A8C4201BF947ADA
:104150007E4D2D78AC42F0D1104630BD002030BDF0
:104160002DE9F84304460D4690469946FFF7E0FFD7
:10417000060025D07068714FC0680168788B01F027
:1041800079FDC0071CD5F87C40B107F1130201216D
:1041900040F2193001F02CF80020F8744A463088BB
:1041A000414600F00FF840B93C707D7087F80280FE
:1041B00042464946F81CFEF789FBBDE8F1436CE630
:1041C000BDE8F183F0B55D4F83B004460D46164659
:1041D000788B00232A461B2100F077FC0190A0B1C8
:1041E0000198ADF80040ADF802502A463146FEF77E
:1041F0006DFB788B0022694600F019FB040005D0A6
:104200001B21684600F070FC00E013242046FEBD30
:104210002DE9F04104460D461646984600F051F847
:1042200058B3464F787D411C0B220B2091FBF2F2D4
:1042300000FB121179757A7D397D8A4206D1491CBD
:104240000B2391FBF3F300FB131038750C213C4852
:1042500001FB020004704570867032464146C01C66
:10426000FEF734FBB87B40B1388B40F00800388350
:10427000F869BDE8F041FCF7C1B9BDE8F08180B54F
:104280003021062000F062FB5021072000F05EFB89
:104290003C21012000F05AFB00F00AF801208DF8C3
:1042A00000006A46012140F2053000F0A1FF01BD87
:1042B00000208DF800006A46012140F20D3000F028
:1042C00097BF80B500208DF80000694640F20E408F
:1042D00000F0A7FB9DF8000002BD000017490A8B03
:1042E00010430883C869FCF789B970B504460D46C8
:1042F00016460820FFF71AFB50B10480857046600F
:104300000246BDE870400D4BD969186A00F088B8C4
:1043100070BD0000094801218175427D017D9142F7
:1043200006D0018B41F008010183C069FCF766B932
:1043300070470000180D002050220020580A00206D
:1043400030240020000B0020AC120020B01200200E
:10435000C5400000A7400000DFF800F0A9C101102F
:1043600000B583B00821ADF8001001900521ADF82B
:104370000210684644490968884707BDF0B589B00E
:1043800004460D4616461F4608232422002168468F
:10439000FCF73CF90F983D49096806906B464FF4CD
:1043A0007A70B0FBF1F101FB07F0059001FB06F21A
:1043B0000E98ADF8100029462046FCF74BF9204630
:1043C00009B0F0BDFCF72AB938B504460D46FDF733
:1043D000A5FB10B12046FDF793FB00F013F800FB9E
:1043E00005F12046FCF716F92046BDE83240FCF7FF
:1043F00015B980B5FDF792FB00B10120C0B202BD36
:10440000FDF77EBB214909684FF47A70B0FBF1F0EB
:10441000704710B504460021FDF7DCFA204610BDB8
:1044200070B584B004460820ADF800000D460420A5
:10443000ADF802000C201449096801901646684640
:10444000884758B9029949B18E602046FDF7C6FAEF
:1044500015B12846FCF7D2F8012003E03046FFF7FB
:104460007FFF002004B070BD10B50446FDF7AAFA26
:1044700038B92046FFF770FF8468FFF771FF2046C8
:1044800010BD002010BD0000180D0020EC00000041
:10449000E0B50821ADF800100190022100F00FF8FE
:1044A000002814BF002002980EBD00B583B008217B
:1044B000ADF800100190032100F001F807BDADF840
:1044C00002106846DFF83013096808471FB5ADF8D9
:1044D00006108DF804000824DFF81C138DF808205E
:1044E0000393ADF80040ADF802406846096888477C
:1044F00004B010BD30B585B0144608220291ADF865
:1045000000201922DFF8F01209680190ADF80220AE
:104510001D466846884714B1BDF80C10218015B1BE
:104520009DF80E102970089A0499116005B030BDED
:1045300000B583B00820ADF800001A2000F015F88F
:1045400000280CBF9DF80400FF200EBD00B583B00D
:10455000ADF800008DF80610002000F006F80028E5
:104560000CBF9DF80700FF200EBDDFF88C12096814
:10457000ADF802006846084750B110F1040F01D1B0
:104580000420704710F1030F01D102207047012071
:1045900070478123037042EAC111002341F47C413A
:1045A000C370818070478223037081800023C370B1
:1045B000827170473EB504460820ADF800000D46F4
:1045C0002020ADF802001020DFF82C120968ADF8A9
:1045D00004006846884720B9029810B16FF00400C3
:1045E0003EBD00950023002221464FF0FF30FFF72B
:1045F00081FF3EBD10B582B01446CA78012A03D1AE
:104600008A88DFF8F8341A8000F010F858B9009062
:1046100069462046FFF7CEFF28B900984478FFF797
:1046200044FF204616BDFFF7A7FF16BD0B4602222A
:1046300010214BE738B51C461546FFF7F7FFB8B910
:10464000009069462846FFF7B5FF88B9009845787D
:10465000002D04BFC079A04205D10098816804985C
:104660002246FEF733F90098FFF71FFF284632BDB8
:10467000FFF782FF32BD38B500F0FBF9050002D02C
:104680000422012154E031BDF8B500F0C4F907005F
:104690000AD0132200F02CF800F06BFB3946BDE87D
:1046A000F840DFF85C24A5E70420F2BD2DE9F041D5
:1046B00000F042F907000FD0142200F019F83C7204
:1046C000FD603E8287F81280FFF732FF3946BDE871
:1046D000F041DFF830248DE725E038B500F0D7F958
:1046E000050004D0152200F003F82C8123E031BD31
:1046F000012158E70022042169E02DE9F04100F092
:104700001BF907000FD0022200F010F8BC60BD8139
:10471000BE73C7F81080FFF70BFF3946BDE8F041C4
:10472000DFF8E42366E70420BDE8F08104213AE7DE
:10473000FFF739FFAC60FFF7FBFE2B4601B0BDE889
:10474000304002221021C1E6002203213FE000B5E3
:1047500083B00FF24903019306230093032300F073
:104760004DF80EBD1078802802BF508840F27F615E
:10477000884208D19088984202BF9179009881427E
:1047800001D1012070470020704710B582B0062487
:10479000FFE70094FFF7E6FF16BD00000323F4E7F0
:1047A0001078802802BF508840F27F6188420CD187
:1047B0009088032818BF042807D1907900281CBFCF
:1047C0001028112801D10120704700207047F8B54A
:1047D00000F044FA07000CD032462946FFF7E3FE0A
:1047E000BC60FFF7A5FE3946BDE8F840DFF81C23A2
:1047F00000E70420F2BD0000180D00202DE9F04173
:1048000000F02BF807000AD0069A4146FFF7CBFECE
:104810003C817D8100F0AFFA079A00F04CBA82E744
:1048200004460D460C2033E642460321B1E670B53E
:1048300082B000F082F9FFF77BFE1B210091034656
:1048400032462946204600F026F976BD10B582B0E2
:104850001D24009400F01FF916BD04460D461646AF
:1048600098461020FFF714BE2DE9F04180460D4612
:1048700016461F461820FFF70BFE040014D0002236
:1048800000F061F800F03FFA20726572A672E760EE
:104890000698206107986061FFF74AFE2146BDE84F
:1048A000F0410FF20D32A5E63DE70FF20933112278
:1048B000002146E1F8B500F0E4F807000FD00A2225
:1048C00000F041F800F0D9F838727D813E73FFF7AF
:1048D0002FFE3946BDE8F8400FF2DD228AE60420BB
:1048E000F2BD0FF2D92306223CE12DE9F0418046CA
:1048F0000D4616461F461020FFF7CAFD040011D0D2
:10490000072200F020F800F0FEF920726572A6720E
:10491000E760FFF70DFE2146BDE8F0410FF2A1224E
:10492000FFF768BEFFE60FF29D230822002119E180
:104930000FF295231022EFE004460D4616469846E6
:104940001420FFF7A5BD0421FFF723BE70B5FFF7C4
:1049500067FF06000BD03022FFF7F5FF00F009F8E3
:104960003146BDE870400FF26522FFF743BE0420D8
:1049700070BD34817581FFF7DBBD30B583B004466F
:104980000020ADF8040000F013F805000DD031222E
:10499000FFF7D9FF2C81FFF7CBFD01A9009102237E
:1049A0000FF22D222946FFF745FEBDF804003EBD5B
:1049B0000A20FFF76DBD1CB500F056F904000AD0BF
:1049C0001222FFF795FEFFF7B3FD00F008F80FF293
:1049D000052200F008F8FFE79DF8040016BD01A9C4
:1049E0000091012370472146FFF724BEF8B500F07F
:1049F00012F807000DD03622FFF7A5FF3C817D811C
:104A000000F0B9F93946BDE8F8400FF2D912FFF7C6
:104A1000F1BD0420F2BD04460D4616461020FFF7F6
:104A200037BD70B5054682B00C46FFF7C1FF0600E2
:104A30001DD03722FFF787FF3581FFF779FD334619
:104A4000FFF7F5FD80B9009069460FF29D10FFF762
:104A5000B1FD48B9009845780DB900F0FAF8009812
:104A6000FFF723FD284676BDFFF786FD76BD0420BF
:104A700076BD04460C20FFF70BBD21465020FFF702
:104A800065BD04460D4616460E20FFF701BD0446DF
:104A90000A20FFF7FDBC2DE9F041FFF74DFF0700AD
:104AA00011D0069AFFF7C1FE3C813E74FD6000F014
:104AB0002AF97874FFF73CFD3946BDE8F0410FF262
:104AC0005D12FFF797BDFFF72EBE38B51446104AAA
:104AD00015682A0006D0009302460B4621460120A5
:104AE000A84732BD002032BD0A4A13681A0003D01D
:104AF0000A46014601201847704700009E12002018
:104B00003D4C0000434C0000494C0000A147000010
:104B10004C250020502500202DE9F04100F00DF833
:104B200098460C20FFF7B4FC070004D000F016F8FC
:104B30003C81BD72BCE0FFF7F6BD04460D4616464B
:104B400070472DE9F041FFF788FE070004D000F020
:104B500005F8BC60FD60ABE0FFF7E5BD324604211F
:104B6000FFF717BD2DE9F041FFF777FE070006D0EC
:104B7000FFF7F4FFFFF781FF3872FD6098E0FFF761
:104B8000D2BD1078802802BF508840F27F618842F1
:104B90000CD190884FF680710140B1F57E4F04BF73
:104BA00000F07F00984201D101207047002070473B
:104BB0000023E6E71123E4E70A23E2E70623E0E720
:104BC0000723DEE70823DCE71023DAE73023D8E702
:104BD0003123D6E780B5122300930123FFF7C2FDEE
:104BE00002BD00003623CCE73723CAE710788028BF
:104BF00002BF508840F27F6188420DD190884FF605
:104C0000807101404FF68052914204BF00F07F0056
:104C1000984201D1012070470020704770B5FFF71E
:104C20008CFF1D23FFF7E2FF30B9324629462046AC
:104C3000BDE870401B23D9E7012070BD80B5132368
:104C4000CAE780B51423C7E780B502230093042385
:104C5000C4E7C27981682046FDF738BE04460D4698
:104C600016460C20FFF714BC00208DF80400082025
:104C7000FFF70EBC2DE9F041FFF75FFF98460E20CD
:104C8000FFF706FC070009D000F00AF83D817E819D
:104C9000A7F80C80FFF74CFC069A0CE0FFF743BD29
:104CA000812038700120F870BC8070473D81FE6023
:104CB000FFF73EFC42463946BDE8F041FFF79ABC9B
:104CC0001078802802BF508840F27F61884204BF7C
:104CD0009088984201D10120704700207047000061
:104CE00080B50FF22D0100F006F84FF60140FFE706
:104CF000FFF7C0FF02BD009100230146002270476C
:104D00003C817D81BE8141465020FFF71FBC0000E1
:104D10004FF60143D4E70000F8B5FFF77CFE07002B
:104D20000DD0012200F022F83C727D7200F023F8D1
:104D30003946BDE8F8400FF27902FFF75BBC04206A
:104D4000F2BDF8B5FFF767FE07000DD0022200F0B4
:104D50000DF83C727D7200F00EF83946BDE8F8405F
:104D60000FF25102FFF746BC0420F2BD0521FFF708
:104D700010BC3C81BD72FE60FFF7DABB1078802862
:104D800002BF508840F27F6188420DD190884FF673
:104D9000807101404FF68062914204BF00F07F00B5
:104DA000984201D1012070470020704700000000A8
:104DB0000123E3E70223E1E70FF2CC03304810229E
:104DC0001321FFF79ABC00002DE9FE4990464A687E
:104DD0000A9C107852780B9D00EB02201F4600269B
:104DE00080B242F62322274B801A04EB030C07D033
:104DF000401E052810D9801F1ED0263829D03AE041
:104E0000092C28D2C4F10800854228BFC4F1080546
:104E10003D800CF1080129E0D1F80CB0584600F0B3
:104E200093FF80B2A04216DB011B8D42A8BF051B79
:104E30003D8004EB0B0119E018780146A1420AD32A
:104E4000001B8542A8BF0D1B3D8058683A88211879
:104E50000DE0082C01D307260FE0C4F107008542BE
:104E600028BFC4F107053D800CF1B0013A884046E7
:104E7000FDF72CFD01E03E800A263046BDE8FE89A4
:104E8000D807002020070020C94D000000000000C6
:104E90000000000010B584B00820ADF80000042028
:104EA000ADF802007F498048007809687F4C800097
:104EB000019068468847002814BF002002982066A9
:104EC000010008BF13200AD04FF6FF7000F032FE39
:104ED0000FF2EC13102206212046FFF70EFC04B05F
:104EE00010BD73490860704710B50024012808D12F
:104EF000107870498870C978814203D200F09DF81B
:104F000000E00224204610BD10B500220328674BA4
:104F1000684C17D8DFE800F00204070AE07800E0E8
:104F2000A07808700FE0588908800CE0207808729B
:104F300060784872588D088003F130004860012085
:104F4000887200E00222104610BD80B500F05FF8C4
:104F50005849CA789042BCBFC87000F06EF8002073
:104F600002BD70B5049814461D46002608B10B20FA
:104F700070BD48680278407802EB002080B242F6AB
:104F8000192290420CD100F042F84A49CA78904266
:104F900088BF1046C87001202880C87820700CE0B7
:104FA00042F60812904207D102202880C868017892
:104FB00021704178617000E00A26304670BD30B53E
:104FC00083B014464A681578527805EB022292B2F3
:104FD00042F60215AA4217D101220192069A0092C6
:104FE000224600F01FFE05000FD13148016808007D
:104FF0000BD02078627800EB022080B200280CBF32
:1050000002200120884700E00A2528463EBD38B529
:10501000294C6068010018BF8047284800687D213E
:1050200048434009642148432188B0FBF1F5A0685A
:10503000010018BF8047E8B232BDF0B583B000244C
:105040001A4D194E27E0296E31F824704FF6FF7083
:1050500087421FD0384600F00DFEC0071AD5002346
:1050600001221B213846FFF730FD019090B1698D78
:10507000ADF8001000220121ADF802100D49C978E9
:10508000017038466946FFF7D2FB18B11B2168460C
:10509000FFF72AFD641C3078E4B28442D3D3F7BD15
:1050A00000000000180D00200C0E00200C0600204F
:1050B000801C002098120020F8050020285009408C
:1050C000634F0000BF4F00000000000010B584B027
:1050D0000820ADF800000420ADF802003D493E482C
:1050E000007809683D4C8000019068468847002898
:1050F00014BF002002982066010008BF13200AD0C8
:105100004FF6FF7000F016FD0FF2D80310220621B3
:105110002046FFF7F2FA04B010BD3149086070472D
:1051200030B52E4D83B0296E044600F0A3FDC007B4
:105130001BD5002301221B212046FFF7C6FC01904E
:1051400098B1B5F85A000199ADF80000002201208D
:10515000ADF802000020087069462046FFF767FBA3
:1051600018B11B216846FFF7BFFC37BD0020704710
:105170007CB50D4611461A46069B00240BB10B2048
:1051800076BD6B681E785B7806EB03239BB242F614
:105190004F26B3420BD1042A07D1E868FDF796FBEE
:1051A0000F4909680120884711E00D240FE042F6FD
:1051B0000214A3420AD10123019300230093134652
:1051C0000A46294600F02EFD044600E00A24204647
:1051D00076BD0000180D00200C0E0020280F0020C6
:1051E000682F00206D510000715100000000000088
:1051F0002DE9F84CDFF824790C46002640F2013BFB
:105200009246BB78797897F805C097F804E0B0EB40
:105210000B0540F67B4232D06D1E37D06D1E3DD05F
:10522000AD1E41D06D1E00F07D806D1E00F08080AF
:105230006D1E00F08D806D1E00F09C806D1E00F0D4
:10524000A1806D1E00F0A6806D1E00F0AC806D1E6A
:1052500000F0B180ED1E00F0B6806D1E00F0BB8046
:105260006D1E00F0C0806D1E00F0C5806D1E00F048
:10527000CA806D1F00F0D280AD1E2ED0E8E0102C49
:1052800005D11022514607F1A40089E0102C40F00E
:10529000DD801022514607F1B40081E0042C6AD170
:1052A000DAF80000F862DEE0012C64D1BCF1010FF5
:1052B00036D09AF800003871BEF1000F06D00028F1
:1052C000F1D1022B1BD0052BEDD118E00028EAD03C
:1052D000012B21D0042B1DD11EE0012C4BD1BEF19E
:1052E000010F1DD09AF800007871BCF1000F0AD0B0
:1052F000002807D1032B1CBF072B052B02D1084622
:10530000FFF711FBAFE00028FCD0012B1CBF042BE2
:10531000062B01D0052B02D1012000F0F8FBA2E002
:105320001226A0E0022C26D1BAF80000F8839AE0F9
:10533000202C0EDA07F1CC061F21304600F0F6FBD8
:1053400000F098F87878BC713346224601210EE0CF
:10535000202C7BDA07F1EC061F21304600F0E6FB3B
:1053600000F088F87878FC71334622460021FFF778
:10537000BCFA75E0012C69D19AF80000052865DABD
:10538000387270E0012C61D19AF8000004285DDACF
:10539000787268E0062C59D10622514607F58670CE
:1053A000FDF794FA5FE0012C50D19AF8000008282C
:1053B0004CDAB87257E0012C48D19AF80000042862
:1053C00044DAF8724FE0012C40D19AF8000002282C
:1053D0003CDA387447E000F049F837D1811F914238
:1053E00034D278823FE000F041F82FD1811F914202
:1053F0002CD2B88237E000F039F827D1B0F5FA7F27
:1054000024DAF8822FE000F031F81FD1A0F10A0170
:1054100040F67742914219D2388324E0012C04BF30
:105420009AF80000012811D107F18000FEF7E1FF92
:1054300050B907F1100100F01DFB060013D107F170
:105440005C00FEF7DDFF0EE016260CE018260AE0F1
:10545000282807DA022C05D1BAF80010FFF776FAEF
:10546000064600E002263046BDE8F28CBAF800009D
:10547000022C7047224651463046FDF727BA38B510
:1054800000244FF440730D46C21ADFF8901636D050
:10549000521E36D0521E37D0521E38D0521E39D02E
:1054A000521E3AD0521E3CD0521E3CD0521E3DD00D
:1054B000521E3ED0521E3ED0521E3ED0521E40D0F2
:1054C000521E40D0521E40D0921E40D0521E40D09C
:1054D000521E40D0521E40D0521E40D0521E40D0CC
:1054E000521E45D0521E45D0521E45D0921E47D066
:1054F000521E14D0521E41D0521E43D045E0C878EF
:1055000041E01022A4312FE01022B4312CE0C86A0F
:10551000286041E00622C43126E0087933E048796A
:1055200031E0C88B35E08A79CC311DE0CA79EC31A5
:105530001AE0087A27E0487A25E0062201F586710C
:1055400012E0887A1FE0C87A1DE0088C21E0087C10
:105550001FE0488A1DE0888A1BE0C88A19E0088B92
:1055600017E0062201F58A712846FDF7AFF913E02E
:10557000488C0EE0888C0CE0C88C0AE0087B02E0C6
:10558000887800E0487B287006E0282803DAFFF7D7
:10559000F4F9288000E00224204632BD1CB5DFF873
:1055A0007C45A17881B900B1206304F12C00019001
:1055B00004F1B400009004F1A403E17860780022C3
:1055C000FFF752F9002016BD112016BDDFF84C057B
:1055D0008178062918BF072904D1018C407813224D
:1055E000FFF768B91220704700B58FB008233C223E
:1055F00000216846FEF792F9DFF8240500F150011A
:10560000079100234FF4DC7108916A46032106914B
:105610000FF2D101FEF786F90FB000BD70B584B06E
:1056200000F018F90120DFF8FC14DFF8F0440968F5
:105630000FF2F545ADF802000026684688479DF850
:10564000040060700298A0620020A0704FF6FF7006
:105650002084FFF7B0F92070002301200190002280
:1056600000200090294604F13800FEF787FE022052
:1056700000F02FF804F15C00FEF780FE042000F03B
:1056800028F804F18000FEF779FE0420E07004F1B0
:10569000A40200200021002300252BC204F1B40540
:1056A000103A4BC5E06220726072E1720720A0726E
:1056B00010210220FFF730FB103D2A461021032065
:1056C000FFF72AFB04F12C0204210420FFF724FB3E
:1056D0007FBD0190002300200090002229467047E2
:1056E00000000000FEB5FFF799FFDFF83054DFF847
:1056F000344405F1800700F0ADF80A20ADF802004F
:105700004FF0FF30019068462168884700284BD150
:1057100000F0A0F80920ADF802006846216888472B
:105720009DF80610029E00283ED1BDF80400102806
:1057300004BF687881422DD130884FF6FF718842CE
:1057400009D17088400425D505F12C0204210420DC
:10575000FFF7F7FA1EE03078A22805D0D02804BF62
:10576000304600F07BF815E07079132812D13089AB
:10577000012804BFA87B022805D13846FEF740FE69
:10578000FFF724FF06E00520FFF7F7F8014638464B
:10579000FEF71AFE46B100F05DF80320ADF80200F6
:1057A0000196684621688847A88BC1072FD54FF618
:1057B000FE710840A88329796879014327D018B180
:1057C00003208DF800000CE0287A8DF800000622F6
:1057D000687A8DF8010005F586710DF10200FDF77C
:1057E00075F8A87A8DF808006946E87A8DF80900FE
:1057F0006878FFF776F800281FBF0820A870286B8C
:10580000002804D0016808001CBF08208847A88B26
:10581000810708D54FF6FD710840A88305F11001F6
:10582000002000F027F9A88B41070AD54FF6FB713D
:105830000840A883A87B012804D0022808BFFFF7EE
:10584000C5FE58E700902B8BEA8AA98A688A00F087
:1058500046F950E70820ADF800007047F8B5054656
:10586000AE4CA878010004F58A7704F1800612D0C6
:1058700002283AD0032818BF04285CD0052800F07D
:105880008280062800F0AC80072800F0CE800F2828
:1058900000F0EA80F1BD6878D0B904F1A4021021CB
:1058A0000220FFF74EFA04F1B40210210320FFF7A3
:1058B00048FA0622E91C04F1C400FDF707F80120AC
:1058C000A07004F1CC03A27960780121FFF70DF8F4
:1058D00008B10820A070206B30B10168080003D027
:1058E000A078BDE8F4400847F1BD6878F8B9E878D9
:1058F00040B1E279607804F1EC030021FEF7F5FF96
:10590000687014E0A078022818BF07280FD0062876
:1059100003D1607901280AD101E0032807D004F1FE
:105920003800FEF766FD10B9012000F0F0F8687845
:105930000028D9D0CDE7697821BB03280AD1A07807
:10594000062808BF0720C5D0207900280CBF0320F7
:105950000220BFE7E18B2079002907D0627910434C
:105960000AD004F13800FEF72FFD05E0012807BF3B
:105970000020207100206071A078072814BF042047
:105980000620A7E7A5E7687820BB0622291D384630
:10599000FCF79CFF688920840620A070E889608459
:1059A000288AA084688AE084E8782073207C012813
:1059B00009D11F20FEF7E1FF4FF47A71414304F152
:1059C0005C00FEF701FD6A89E8780423291DFEF7D3
:1059D0006DFE80E73128D5D100202071042079E7C1
:1059E000A888FEF77AFE0621384600F09FF80020CE
:1059F0006084A084E084A879607304F15C00FEF701
:105A0000FFFC3046FEF7FCFC4FF6FF702084607907
:105A100008B103205EE7A87908280CBF0520042000
:105A2000A070012000F073F855E73046FEF7E8FC5F
:105A3000687800280AD1E88860842889A084688969
:105A4000E08404F15C00FEF7D4FC00287FF44CAF46
:105A5000636B002B3FF448AFE28CA18C608C1B6819
:105A600001B0BDE8F0401847A888BDE8F440052122
:105A7000FEF75EBFFEB50F46284D79880446688C58
:105A8000884224BFB988814207D3A88CF98888420C
:105A900002BFE88C398988421ED00520FEF76DFFD1
:105AA0000646288CADF800007888ADF80200B8886A
:105AB000ADF80400F888ADF806003889ADF80800A4
:105AC0006846FEF7F2FE070007D1AC73314605F1D8
:105AD0008000FEF779FC00E018273846FEBD3EB591
