:0400000500010001F5
:020000040000FA
:10000000684300208D6E000001CA011001CA011072
:1000100001CA011001CA011001CA011001CA011070
:1000200001CA011001CA011001CA011001CA011060
:0C00300001CA011001CA01103FCA0110F2
:100100003C0000000000000000000000340100007E
:1001100000000000000000000100000000000000DE
:1001200000000000000000000000000001000000CE
:100130000000000008000000000000003400000083
:100140000000000000000000680100000000000046
:10015000000000000100000000000000010000009D
:100160000000000000000000080000000000000087
:1001700030000000000000000000000098010000B6
:10018000040000000000000001000000FFFFFFFF6E
:10019000FF00000001000000080000000000000057
:1001A0002C0000000000000000000000C40100005E
:1001B000040000000000000001000000FFFFFFFF3E
:1001C000FFFFFFFF080000000000000034050000F2
:1001D000E401000099A1011095A70110A5C201102A
:1001E00009B2011045B80110000000000000000035
:1001F0002F000000280000000000000000000000A8
:10020000140200000000000000000000FFFFFFFFDC
:1002100000000000080000000000000030050000A1
:100220003002000069C201106DC101101FC201102F
:1002300095BA011000000000000000002D00000031
:10024000300500005402000075C20110A9B601106B
:100250009DBF011049B60110000000000000000021
:100260002E0000002400000000000000000000003C
:1002700080020000000000000000000000000000FC
:100280000800000000000000240000000000000042
:1002900000000000A40200000000000000000000B8
:1002A0000000000008000000000000002400000022
:1002B0000000000000000000C80200000000000074
:1002C0000100000000000000080000000000000025
:1002D00000000000000800200400000000000000F2
:1002E000000000002000000070010000300000004D
:1002F0001C02000020080020040000000000000094
:10030000000000000C000000300400001800000095
:100310004002000028080020040000000000000047
:100320000000000024000000480400001800000045
:100330000000000068080020040000000000000029
:100340000000000010000000A00100002C000000D0
:10035000CC01000070080020040000000000000034
:1003600000000000200000006402000024000000E3
:10037000FFFFFFFF900800200400000000000000C5
:100380000000000028000000880200002400000097
:10039000FFFFFFFFB808002004000000000000007D
:1003A00000000000580000003C0100003400000084
:1003B000FFFFFFFFC0080020040000000000000055
:1003C00000000000100000006004000018000000A1
:1003D000FFFFFFFFC808002004000000000000002D
:1003E000000000001C000000AC020000240000001F
:1003F000FFFFFFFFD0080020040000000000000005
:100400000000000038000000F40100002800000097
:10041000FFFFFFFF3809002004000000000000007B
:100420000000000054000000000100003C0000003B
:100430001800000000000000000000004004000060
:10044000080000000000000018000000000000008C
:100450000000000058040000080000000000000038
:100460001800000000000000000000007004000000
:10047000080000000000000001000000F86E00000D
:100484000100000000000C0000000D00320000001C
:100494000100000008080020000200000000000025
:1004A40001CA011000000000000000000800000064
:1004B400000021003008002001000000780800201E
:1004C4000800000000000000000000000000000020
:1004D400000000000000000001000000D808002017
:1004E4000600000001000000400900200000000098
:0C04F400000000000002000000000000FA
:0F0502002900010025002D002E002F000100010F
:1005140004000000CC6E0000000000000000000099
:10052400000001000000030087C40110380500002A
:10053400380500000000000090000000900000005A
:100544000000000078080020256900002000000059
:10055400A46E0000AC6C00000DC30110F11C00007F
:10056400F31C000099C801109BC801100000000092
:100574009E270000146C00002C6C0000FC6B000033
:090584000800090001000000015B
:10059000000000000000000000000000000000005B
:1005A000471C0000671C00006F1B0000911C00002E
:1005B000B51B00008B1B0000E71B0000BD1C0000EA
:1005C0009D680000DD690000E1690000080000008E
:1005D0002400000018000000280000002000000097
:1005E0003C0000000C00000034000000DFF800F0C8
:1005F00049C10110DFF800F019C20110DFF800F066
:1006000041AC0110DFF800F0CDA00110DFF800F0E0
:1006100085C10110DFF800F0C1C20110DFF800F061
:10062000E3BF0110DFF800F0CDC10110DFF800F0EA
:100630003DC10110DFF800F0DDB20110DFF800F07D
:1006400085B00110DFF800F029AF0110DFF800F0ED
:1006500079B50110DFF800F0C1C10110DFF800F03A
:1006600009B70110DFF800F0E1C20110DFF800F077
:10067000B9C20110DFF800F0E9C20110DFF800F0A4
:1006800061C20110DFF800F0D5C00110DFF800F002
:10069000E1B5011020B1082328220021FFF7C2BFD5
:1006A000704720B1082330220021FFF7BFBF7047F9
:1006B00038B500F0DDFF25680DB129682160FFF72E
:1006C00099FF284632BD70B504460D4626680020C5
:1006D00028601EB9FFF78AFF25600DE0FFF786FF4F
:1006E00000E0366831680029FBD1AE4203D1FFF744
:1006F00081FF002070BD3560FFF77CFF012070BDD9
:10070000DFF8FC1C10B100200870202088707047B2
:10071000F8B50546FFF76AFFDFF8E07B0446387E50
:10072000E8B1401E3876C0B2C8B9082107F15000C0
:1007300001F0DBF99DB1B86B683001F0ADF9B86B31
:10074000DFF8341DC0680968281A07F1F006B0FB0D
:10075000F1F13046FFF75EFF3046FFF75FFF2046BE
:10076000BDE8F240FFF746BF38B50446207B00F0F5
:100770000F00022802BFDFF8845B287D002815D116
:1007800000F0E6FCA1688908A1EB90006FF07041D1
:1007900088420BDA10F1805FBCBFDFF8E01C08185C
:1007A000A96BC96801F57A71814200DB002032BD76
:1007B00038B5DFF8500CDFF8502C0168DFF83C5BEF
:1007C00002EA0104E1430160A10606D54068800603
:1007D00003D54FF4005100F060FB14F4602F0DD0EE
:1007E000DFF89C0CC16904F460221143C16105F17A
:1007F000A000BDE83440002101F077B931BDF8B563
:10080000FFF7F4FEDFF8787C3C1D0646A06910F483
:10081000602F25D0C5012D0EE80748BF002506D45E
:10082000A80748BF012502D4680748BF0225681DF4
:1008300040B200F0A5FFA069012105F1110291402D
:100840008843A06100F06CFD07EB850086683000EE
:1008500008D0206800224FF00063691DB04701E016
:1008600000F05EFDA06920B10021DFF8180C01F056
:100870003CF9607F80070DD52569280006D02068E7
:1008800000224FF000436FF00101A847607F00F0A5
:10089000FD006077F1BD70B501F02CFADFF85C5A0D
:1008A000DFF8584DAB6A024690071DD4D3E9060124
:1008B000104007D0EB62196A084318624FF4804178
:1008C00000F0EBFAA86A002849D16E6A002E46D0E3
:1008D000F068A96B884224D005F15000BDE8704053
:1008E0004FF4805101F001B90BB9A86AEAE7002082
:1008F000A862D3E906011E6A024042F002023243B6
:100900001A62626982436261E26822EA0100E06081
:10091000194605F13000FFF7D6FE022100F0BDFABE
:10092000E3E7B068FFF720FFE86418B1E86CBDE8C2
:100930007040EDE6D6E90601626902436261E26851
:1009400041EA0200E0600020E061B0682060E069F8
:100950000028FCD005F12400FFF7AAFEAE6270BDAE
:100960000020D5E6F8B506461446B76D1D4607B11A
:10097000B847A00706D4D6E914012040294008BF93
:10098000002807D0C6E9184506F13000BDE8F2405E
:10099000FFF734BEF1BD80B501F09AF8DFF85C29AD
:1009A0000146906BD26BBDE80840104710B5DFF8E8
:1009B0004C4901F0F9F92064042104F15000BDE82C
:1009C000104001F092B880B501F094F9DFF8301CC6
:1009D000084207D0BDE804404FF00051DFF84C0D4D
:1009E00001F083B801BD10B504294AD1DFF80C49E4
:1009F000606AA16B08B1C16805E0DFF86C0C427F4A
:100A0000D20748BF0168A1630846DFF8601C42684E
:100A100012780A60096840680078814200D0FEE7D9
:100A2000022001F003FB112001F015FB012060778B
:100A3000A06BE17E007C084204BF0E2001F00BFB9E
:100A4000A06BDFF8B81B40688268002A04BFC0684A
:100A5000002804D00020C861DFF82C0C086040F2A8
:100A6000FF70DFF8282C106000208861DFF8900B01
:100A700048610FF21100E0631920BDE81040FFF754
:100A8000D9BD10BD10B5044688002CD560684068FB
:100A9000010018BF804760688168002904BFC068F2
:100AA000002814D0DFF8340C01680029FAD00021A6
:100AB000016060688068010018BF80476068C06896
:100AC000010018BF8047DFF8180C01F01BF9DFF8B0
:100AD0002C080FF21501C1634FF00051BDE8104022
:100AE000503001F002B810BDF0B50446880085B062
:100AF00074D5DFF8085BDFF804680020E861DFF8F0
:100B0000180D2860707E10B10120FFF7F9FD00215B
:100B100071800FF20910317BF06301F0F001317345
:100B200040F60A00002171603080717B01F0F00115
:100B300041F0010171730021A768798000E00F4640
:100B4000796800291CBF0A888242F8D1787B7E60D0
:100B500000F0F000787340F60301706A8068008846
:100B600088421CBF40F60401884202D10020306454
:100B700015E0208B98B104F11800002141804160FC
:100B8000017B01F0F0010173417B01F0F00141F0C4
:100B9000010141737060707B00F0F0007073694672
:100BA000A06801F0D6F8684601F0E2F8A06801F00C
:100BB000DEF8E8690028FCD00020E861012001F09F
:100BC000FFFC012808D0787B00F0F00040F0010025
:100BD00078730FF20D00F063A068286005B0F0BDD7
:100BE000012010B501F0ECFC0128DFF8104708D116
:100BF0000FF22900E063DFF8040A0460002020649B
:100C000010BDDFF8741809683220F03400F083FB5F
:100C10002046BDE81040FFF701BD0000FEB50646C6
:100C20000C466004DFF8D45617D5FFF7DFFCEE6AF8
:100C3000376AFFF7DFFCB8070CD45EB1306AB843FF
:100C40003062706830B1B6F91010F06876683A46D4
:100C50000023B04724F480441AE1A00770D52F6B1D
:100C6000002F65D03E1D2020716801E04968401EBC
:100C700079B1C0B268B10A8840F603039A421CBF3A
:100C800040F604039A42F1D1B0681822183001F0FE
:100C90005BFDF0690021F1613168D1B140F00202E1
:100CA00097F824000023012807D0022809D004283F
:100CB00004BF00224FF0805306E000224FF00053A3
:100CC00002E000224FF08043B6F90C10B06837689C
:100CD000B847E88E401C0005000DE88605F130009D
:100CE000FFF7E6FCB5F93610B06800F18C02B2F9F6
:100CF0000030994204BF297D002919D1917809B9A2
:100D0000016821B900209070FFF702FD10E0AA6B86
:100D1000126812F1010F0BD0DFF85C271268B1FBEB
:100D2000F2F16830FFF776FCB0686830FFF776FCC8
:100D3000286B002824F0020401D044F00204A7E04C
:100D4000A00005F184073FD50022DFF8EC1B3846F0
:100D500000F0DEFEF06840F6C411884218D104208D
:100D600001F02EFC00281CBF286C002810D0686CF5
:100D700070B901F019F86864696C286C884228BF62
:100D8000491E081A000BF060F06800F58D70F060E5
:100D9000287F60B10220ADF80000684600F0B2FF85
:100DA000BDF80800DFF8D816088300202877012056
:100DB000687524F00054287E401C2876002068774F
:100DC000192000F0A8FE63E095F8200024F0080642
:100DD00028B1200703D5002085F8200045E0200732
:100DE00045D5002068750120A877687E10B10020E5
:100DF000FFF786FC0FF2AD00DFF8401BE86300222E
:100E0000384600F085FE297FE87EDFF8847881F09F
:100E10000101084240F6090402D10120E8760FE002
:100E2000E86CF0B100F0C0FF296CAA6C401A02EB2C
:100E30001030A864E96CB0EBC11F12D30020A86485
:100E40002C80687B00F0F00040F001006873002007
:100E50006880287B00F0F0002873002068603D6007
:100E600003E04FF0005100F018F8344610E0A00401
:100E70000ED5AE6A002E1CBF7068002806D0B6F9E9
:100E80001010F068766800222023B04724F4005444
:100E900014B1214600F001F8F7BD05F1500000F053
:100EA00024BE000038B50546880028D500F037FF7D
:100EB000DFF84844DFF8880AE063A07D18B905F13F
:100EC0003000FFF79BFBDFF8C4170020086002200A
:100ED00001F042F8112001F053F8287C10B90E20DF
:100EE00001F04EF80020E083A07E40B10020A07603
:100EF000042104F15000BDE8344000F0F6BD31BDDE
:100F000030B58DB000F0ACFFDFF8380ADFF8385AA2
:100F10000168DFF8E84341F00201016001A8FFF732
:100F2000B9FBA878DFF8241A0790002301AA04F17E
:100F30005000FFF783FB01A8FFF7B3FB0020ADF8DB
:100F40001C0001AB2878DFF8F42909901921002052
:100F5000009004F18400FFF775FB01A8FFF79AFBEE
:100F6000E878DFF8EC190790002301AA04F1A0004B
:100F7000FFF764FB01A8FFF794FB0120ADF81C000C
:100F800001AB6878DFF8CC2909901A210020009085
:100F900004F1D400FFF756FB00230022DFF8B81954
:100FA00004F1F000FFF752FBDFF89409E06301F071
:100FB00001FC012818BF002060764FF6FF71DFF8B2
:100FC0009C0901800121217700214172E17661773E
:100FD000E18384F820100DB030BD2DE9F041C74EFB
:100FE0008CB00446B07D0F4690461D4618B9FFF7F9
:100FF00087FF0120B075002F1CBF6760B8F1000F9C
:101000003FD0C4F80880FFF7F1FAF17DB9BB0121A8
:10101000F175FFF7EFFA2DB90FF68C112CC9684660
:101020002CC06D462868206078216868E060287AC6
:10103000207404F1180001F025FC0823242200216B
:1010400003A8FFF707FB01208DF8240003AA002165
:1010500004F13000FFF702FB08232422002103A83B
:10106000FFF7D4FA099403AB0022DFF8F41804F177
:101070006800FFF7EBFA20460CB0BDE8F081FFF7FF
:10108000B9FA0020F8E738B5DFF8D8580446A87D4B
:1010900000285CD0B5F93400B5F93610884207D085
:1010A000B4F98C1002224FF0E043204600F03BF9E7
:1010B000FFF79CFAE97D002938D0491EE975C9B2CD
:1010C000A1BBFFF797FA0020A875687D40B100200A
:1010D000FFF71EFB4FF0FF3104F13000FFF792FAEB
:1010E00004F13000FFF7BEFA04F16800FFF7BEFA22
:1010F00005F15000FFF7BEFA05F18400FFF7BEFAD4
:1011000005F1A000FFF7B6FA05F1D400FFF7B6FA33
:1011100005F1F000FFF7AAFA0020A8632875207CEB
:10112000A8B1BDE832400E2000F02ABFFFF762FAF6
:10113000A86BA04204BF0020A86304F13000FFF7B1
:1011400091FA04F16800BDE83240FFF78FBA31BD73
:10115000D0B5FFF74BFA694C617D31B1DFF8081863
:101160000C68FFF747FA2046D0BDFFF743FA00F0BE
:101170001BFE10F50030DFF8F42741F10001A2FB5F
:10118000006702FB017721690020321847EB010359
:101190001846D0BD2DE9F84F04460E4692469B46B0
:1011A000FFF724FA554D0246B5F93400B5F936106B
:1011B000401A0005000D08286FF0010944DAA88ED6
:1011C000401C0005000DA886B5F93400ADF80000FC
:1011D0001046FFF70FFABDF90000DFF894178210F0
:1011E00000EB5272D210A0EBC200282202FB0018C2
:1011F00004F1680000F050FC08F1040720217E6033
:1012000087F80EA0C7F800B008F11806BDF8000076
:10121000B881BC60DDE90A23DFF8580710401940A7
:10122000C6E900010020307304F18C06686A40F6BC
:10123000FF7490B1FFF7DAF9074600F067F838B9A4
:1012400000F05EF8384600E01046FFF7D3F909E0F9
:10125000BDF800003080384644E000F057F818B977
:1012600000F04EF8484647E0BDF800003080FFF738
:10127000BDF90021B1706A7DE97F114208D00121DA
:1012800085F820100021E9772977297E491C2976E5
:10129000FFF7B0F9A86A68BB687D18B1192000F0A3
:1012A0003AFC27E0687F28BBFFF7A0F90646A87F35
:1012B00020B100F035F80120A8761BE07868FFF730
:1012C00053FAE86488B1E86CA96BC968401ADFF882
:1012D000A816096805F1F00400F01DF82046FFF794
:1012E0009DF93046FFF786F904E000F019F8042173
:1012F000FFF7D3FDBDF90000BDE8F28F54170020C1
:10130000A88E20180005000DA8867047414605F1FB
:101310002400FFF7D8B9B0FBF1F12046FFF77AB906
:101320003046FFF767B9F8B506460F4614461D4626
:10133000FFF7A8F9DFF82C26B2F93430DB1BB2F93D
:1013400036301FD5BB42BEBFB2F93430B2F93620B9
:1013500093421FDABB1007EB5373DB10A7EBC301FB
:10136000DFF80C26282303FB0127072297F8241017
:10137000114214D0FFF78AF9072197F82400084298
:10138000FBD109E0BB42A2BFB2F93430B2F936203A
:101390009342DFDBFFF77AF902200021F4BD7A687F
:1013A000DFF8D8158A4202D07A68B2657960C6E95A
:1013B0001445FFF76BF94FF0FF3106F13000FFF7EE
:1013C00021F9D6E91801F4BDDCB50446180008BFC0
:1013D000DFF8A835DDE90667CDE900672046FFF7AD
:1013E000D9FE002803D500204FF00041DCBD0146A6
:1013F000204602B0BDE8D04002224FF0E04392E721
:10140000006208400810044020000E0070B500F093
:101410002FF90546DFF84C650120307704F18C0187
:10142000B6F93400B1F90020801A0CD5B6F93600AF
:10143000B1F900209042BEBFB6F93400B6F93620AB
:10144000904210DB05E0B1F90000B6F93620904279
:1014500009D104F1680000F01FFB0020FFF758F9E4
:101460000120F07703E001208870002030752846C5
:10147000BDE87040FFF7BEB8F06E0000F6FFFF1F3A
:1014800030170020F417002001E042F002022DE99D
:10149000F047DFF8D04482B0606A00908A460026A8
:1014A00003271546FFF7A2F81AF1010F05F001080E
:1014B00081460CD1A06ADFF8C814002819BFA06AC1
:1014C000B0F910A0E08E00F1010A81F821600FFA56
:1014D0008AF2911002EB5171C910A2EBC101DFF841
:1014E0009004282202FB010AA06A824505F0020549
:1014F00027D115B1606A0090666201219AF8240034
:1015000001FA08F108438AF82400FFF7BBF8064601
:10151000B8F1000F14BFDFF86C04DFF86C0400F0C2
:10152000F1FB00F0BFF925B906E000F06CF800F01F
:1015300074F800980028F8D13046FFF7A7F8832701
:1015400059E00098504504F1F0081BD1404600F0E6
:10155000A3FA002D11BF6662606A0068606200F045
:10156000A1F900F04FF800F058F80098002818BFD3
:10157000002DF6D183272FE00126832700F042F8C3
:1015800000F04BF8009810B30068504519D1404660
:1015900000F082FA00980068009A00211160009023
:1015A00000F080F9002DE7D1009890F82400009910
:1015B00040F0040081F82400832700F02BF800F0AD
:1015C0002CF8002EDAD1009800680090DAE7832F1B
:1015D0001CBF4846FFF70EF8607F10B100F022F8FC
:1015E00009E0DFF8A803E06300F01CF8607D10B9A3
:1015F000DFF84C03E0633846BDE8F687001004408E
:1016000002000040009890F82400009940F0040087
:1016100081F824006846FFF74BB8014604F130001A
:10162000FFF751B8022104F1500000F05EBA10B586
:101630000FF274311CC91CC010BD38B500F018F889
:101640000546C848407D58B1204600F05BFB044683
:1016500000F048F8E0B201280CBF8120022032BD22
:1016600000F040F8012032BD34170020D02108409E
:101670000446FEF7BBBF0A46BA49896B884201D0CF
:10168000032070470DE000005100070600000460D1
:10169000001004400A46B349896B884201D00320F8
:1016A000704700211046C8E770B5AE498A6B90427A
:1016B0006FF07F0410D1487D70B1FEF797FF0546AB
:1016C000B34800F01FFB064600F00CF8F0B201280A
:1016D00002D13002001670BD204670BD1C100440BF
:1016E000010007062846FEF785BF70B50E46154671
:1016F000FEF77CFF83249B491EB1022E0ED005D33A
:101700000FE08A6A42B1896A098A03E0097F19B940
:101710009B49098B298005E0802403E0497D2970DD
:1017200000E00324FEF766FF204670BDA4170020EA
:101730008A1001EB5272D210A1EBC2018C48282210
:1017400002FB01008068704710B58649097FA1B986
:10175000028B012303FA01F422420AD0A24302833E
:1017600001F10C048B480268A3401A43026008464A
:1017700010BD491C49B20F29ECDB6FF0010010BD10
:1017800038B5FFF775FF75494A7A520702D50B7ACB
:101790009C4210D001220B8802FA04F52B430B80E7
:1017A0000C347C490B68A24023EA02020A600968F3
:1017B00009B96C4A1175BDE83240FEF71BBF2DE92F
:1017C000F041684D0E46A96B8842984618BF032029
:1017D00020D10A2131807260694C60602660204609
:1017E000FFF7B2FF070014D4B77000213046FFF7AF
:1017F00024FF022818BF012805D13846FFF7C0FF93
:101800006FF0010705E004EB870040F80C8C012025
:1018100028753846BDE8F08101010E042DE9F04736
:10182000504E8046B06B80450D46924618BF03204F
:1018300036D1534F3846FFF787FF0446002C2ED48D
:10184000FEF7D4FE8146200200F4706005434FF697
:10185000FC702840504908433860386800F052FA5C
:10186000C0B2012814D1E80409D500F05BF887F86C
:10187000204097F8210040F0040087F8210007EB92
:101880008400C7F8048040F80CAC0120307504E0F7
:101890002046FFF775FF6FF0010400F003F82046C3
:1018A000BDE8F0874846FEF7A5BE0A462D49896B7C
:1018B000884201D0032070474FF6FC701040374A31
:1018C00000211043B9E670B50C462649896B884261
:1018D00001D0032070BD324841784A0707D503780C
:1018E0009C4204D101F0FB01417000210170FEF720
:1018F0007DFE05462046FFF743FF4FF6FC7000EAE9
:10190000042040F0816040F0010000F0FBF9064641
:1019100000F008F8FFF7E6FEF0B201280CBF8120C6
:10192000022070BD1F480122016804F10C039A4097
:10193000914301607047000097080000C70900004C
:10194000E709000000200940F86B0000970900003B
:10195000FF070000B1070000AD0900004817002094
:1019600061090000541700200430044000093D00C4
:10197000E00A0020F1EFFF9FF06E00006509000013
:101980003017002001000204010001041D0C0000BA
:10199000010003040C1004400100030601000406CA
:1019A0005017002008100440FFFFFFFFC40900008B
:1019B00001000000DFF800F021B30110DFF800F0B3
:1019C00095C00110DFF800F00DA80110DFF800F05D
:1019D000BDBE0110DFF8F400007D70476DE038B542
:1019E000FFF7FCFFDFF8F4500446A8680021FFF77A
:1019F000E5FF6969081AA969814238BF002084F3AC
:101A0000118832BD2DE9F041FFF7E8FFDFF8CC5037
:101A10000446A8680121FFF7D1FF0121A983002115
:101A2000E9836E6929682A68871B801A711A8842BF
:101A300004D20020A88384F311882BE084F311885A
:101A4000002406E0A61931460120FFF7BBFF3F1B2B
:101A50000446A742F6D2FFF7C1FF8046E88B012873
:101A600004D131460020FFF7ADFF0446A96914F107
:101A7000010F08BF084603D0E01B814238BF08466B
:101A80008119FFF7A3FF012028840020A8832E607E
:101A900088F31188BDE8F08100218182DFF83810D9
:101AA000C0684969884204D1DFF85C000068FEF72D
:101AB000B5BD7047808A70477047DFF848100968E5
:101AC000EFF3118081F311887047F6E7A40100203D
:101AD000DFF8380080687047780100207801002026
:101AE000616280F311882046704738B504460D4680
:101AF000FFF7EBFF616A2943FFF7F2FFBDE83240D1
:101B0000FFF758BFEC6E0000F46E0000C801002023
:101B1000816042607047102804D3DFF80C10103841
:101B2000C1F8000F7047000000E000E000F0C5BE03
:101B3000FFF7C3BFDFF89411C20744BF01220A6058
:101B4000820744BF4FF480720A60400744BF4FF4DD
:101B5000803008607047DFF87821C30748BF116004
:101B6000830748BF5160400748BF9160704710B578
:101B700004460020D4E90A2347F6906101F028F9D1
:101B8000012928BF4FF0FF3010BD10B50C4600F002
:101B900001F9011D201AB0F1004F05D8081BB0F162
:101BA000004F38BF8C4200D20C462146BDE81040A1
:101BB0000120D0E72DE9F04180460A46D8E90A0124
:101BC000D8E90C45A0FB026701FB0277A6196F411B
:101BD000340C002244EA07414046FFF7D6FFC8E92B
:101BE0000E67BDE8F081F8B50646FFF7A1FF044691
:101BF000DFF8E050DFF8E0700120E861FFF79AFFBE
:101C0000F96A096A142088473069B0F5802F34BF1B
:101C10000421010C0120FFF79EFF3A68126823217E
:101C200000209047DFF8B41001200860DFF8B4000E
:101C3000016821F4E02141F4803101600120286035
:101C400084F31188F1BD00F0AFB810B5DFF8900053
:101C5000446800F006F86069A169BDE810400847D3
:101C60000000012066E7F8B504460D4600F09CF838
:101C7000D4E90A6732463B4601F0AAF83DB1A6FB1B
:101C8000002306FB013307FB0033C4E90C23F2BD3C
:101C900010B5DFF84000DFF850400021016001215D
:101CA000C16121602068FFF7DCFFDFF840100968A0
:101CB000096A14208847206810BD000080B500F034
:101CC00073F8000C40EA014002BD00000420094006
:101CD000182009400000244384010010800224439E
:101CE000E4010020002009402C200940B001001030
:101CF000FEE7704721490868C2430A600A68024249
:101D0000FAD170471E490A68002AFCD1CA610860EE
:101D1000C8690028FCD00020C8614868704719488D
:101D2000016821F0020141F40071016003211648AD
:101D3000816041F2300141610121C1605021416166
:101D40000121C1604FF4CA6141610121C16001609C
:101D500070470E4802680A6082684A60C2688A60FA
:101D6000406B4001400940F08050C86070477047A8
:101D700001461022064800F0D7BC000010100440B5
:101D80000010044000000460004104404C13005067
:101D90001800002109480168426803689942FAD195
:101DA000100C40EA0140704710B5044A13685068AF
:101DB0001468A3421946F9D110BD0000082009405B
:101DC000DFF800F0F5C00110DFF800F049BA0110AB
:101DD00020B1082324220021FEF718BC704780B5EB
:101DE0000120009009234FF400720021DFF8F00673
:101DF00001F0A6F801BD80B5002301223421DFF8EF
:101E0000E00601F0B0F800B10120C0B202BDDFF879
:101E1000D40680687047DFF8CC16401890F8ED00C3
:101E200070470022022904D1012806D140F2EE2297
:101E300003E0012808BF4FF47A7210467047DFF8BC
:101E4000A406D0F8DC007047DFF8980690F8E600AA
:101E500028B1DFF894064068010018BF00477047BA
:101E60002DE9F041DFF87C8608F1E1058AB0A87918
:101E700000285ED10120A871DFF86C66DFF86C766F
:101E8000307B687101A8FFF7A3FF00200690ADF832
:101E90001400079001AB00220FF2E14108F10C00A1
:101EA000FEF7D4FB01AB00220FF28D5108F1300098
:101EB000FEF7CCFB01AB00220FF2C54108F1540044
:101EC000FEF7C4FBB16801208847DFF824060078DC
:101ED0007868C0F38154707B20B1032C02D10120BB
:101EE000287003E0032C18BF022C16D1022000F04A
:101EF0009DF8032CDFF8FC150CBF4FF47A7042F20A
:101F000010700968B0FBF1F108F15400FEF782FB94
:101F100008F15400FEF782FB05E0012C03D100F02C
:101F200059FAFFF75CFF386840075CBF002000F0FB
:101F30007DF80AB0BDE8F08110B508B1140001D1F8
:101F4000022010BD8160C26003610146DFF8940584
:101F500001F024F8002010BD10B50446FEF746FB42
:101F6000DFF88015621892F8E8305B1E82F8E830DE
:101F7000DBB223B98A680123A3409A438A6066E0F2
:101F80002DE9F0410546FEF731FB8046DFF8541598
:101F9000681890F8ED20521E80F8ED20D2B2002A89
:101FA0003FD10FF28C50DFF8504500EB85052E78BD
:101FB0006F88300615D52168096A38468847216838
:101FC000896A384688472168096B38468847DFF8B0
:101FD0002C1501200860DFF8280500688007FAD575
:101FE00012E0700606D501EB87010020D1F8001140
:101FF000884709E021688969384688472168496B24
:10200000384688470228F9D106F03F003F2818BF1C
:10201000FFF7B6FF687800F03F003F2818BFFFF7D2
:10202000AFFF4046BDE8F041FEF7E4BA10B5044604
:10203000FEF7DCFADFF8AC148A680123A3401A43E8
:102040008A60611891F8E820521C81F8E820BDE808
:102050001040FEF7CFBAF8B50646FEF7C7FA0446B9
:10206000DFF88054701990F8ED104A1C002980F8B0
:10207000ED2039D10FF2B84000EB8607387800F038
:102080003F003F2818BFFFF7E6FF787800F03F00D9
:102090003F2818BFFFF7DFFF7E883878DFF85874D5
:1020A00001060ED53968C969304688473968496ADA
:1020B000304688473968C96A3046884700F019F8C1
:1020C00012E0400606D505EB86010120D1F800118B
:1020D000884709E039684969304688473968496B5B
:1020E000304688470128F9D12046BDE8F240FEF786
:1020F00081BADFF8081401200860DFF804040068E2
:102100008007FAD570472DE9F04F002483B04FF0D7
:10211000000A0128D04618BF012664D1DFF8C49315
:10212000D9F8DC0001285DD10220C9F8DC00FFF7F6
:1021300047FE0090012000F058F9060054D1FEF748
:10214000A1FADFF8C81301900C60012000F038FA02
:10215000012804D1002000F09DF94FF0010ADFF8BA
:10216000A413DFF8A4030C6000681120FFF753FEEE
:1021700008B14FF001081020FFF74DFE08B148F0FC
:1021800002080F20FFF747FE08B148F004080B20B3
:10219000FFF741FEDFF8606320B13168096B4FF44F
:1021A000806088470A20FFF736FE20B13168096B4E
:1021B0004FF481608847DFF84413DFF85473DFF889
:1021C00054B30120086048F02000316889698847CD
:1021D000DFF844130120086099F80800C00707D50C
:1021E000012416E0042673E00120C9F8DC006CE04D
:1021F000584600F0E7FE0546042DF9D0012D04D124
:10220000326A526803215846904738688008800037
:102210003860002000F0DEFEBB4800683068806B4C
:10222000804754B9012D04D1326A526801215846C1
:102230009047386840F0030038600120B1490860D9
:1022400040463168496988470B20FFF7E4FD20B11B
:102250003168C96A4FF4806088470A20FFF7DBFDC8
:1022600020B13168C96A4FF481608847A3490120D1
:1022700008600020A84908600320C9F8DC00316824
:10228000496B404688470128F9D1042000F0ADF899
:102290009E49012008609C480068A04800688006AC
:1022A000FBD5BAF1000F1CBF012000F0F3F800F0DD
:1022B000DBFF082000F099F806460120C9F8DC0091
:1022C0000198FEF7E3F900F054FF0098FFF77CFD5A
:1022D0003046BDE8FE8F30B5002401288BB004D015
:1022E00021D303281DD018D31DE001A8FFF770FDEE
:1022F0007C4D8B490694ADF81440079401AB012244
:1023000005F17800FEF7A2F900940023854A2C21FC
:1023100005F19C00FEF796F905E000F0BDFF0446CC
:1023200001E001F05FF820460BB030BD000000F086
:1023300054B938B5FEF75AF905466A4890F8E000F6
:10234000012410B1FFF757FD04462846FEF752F965
:10235000204632BD38B5FEF749F9624D044695F87E
:10236000E00020B100F07FF9002085F8E000204671
:10237000BDE83240FEF73EB90000000070470000A3
:1023800010B582B0042000F01BF9022818BF032802
:1023900007D100F01FF8FFF722FDBDE8164002202C
:1023A000DAE56148534900684E4CC0F38150032878
:1023B0000CBF4FF47A7041F288300968B0FBF1F13C
:1023C00004F15400FEF726F904F15400BDE816406C
:1023D000FEF724B9032000901C234FF04052002147
:1023E0003F4800F0ADBD0020704770B504463D4E3B
:1023F000304600F0C9FD002598B9304600F0CAFD0E
:102400000646B068204207D03269F36800212046B2
:1024100098470546012D05D0304600F0BDFD060069
:10242000EFD1284670BD414901280CBF40F2FF7032
:10243000002008600020704770B5FEF7D7F8294EDD
:10244000294D044696F8E00028B100F00CF968B177
:10245000002086F8E0000220AD68A847064610205C
:10246000FFF7C3FF8EB10320A8470EE0214909689A
:102470003220B0FBF1F101B9012106F13000FEF785
:10248000C9F806F13000FEF7C9F82046BDE87040F3
:10249000FEF7B0B838B501281ED100F091F8012838
:1024A0001CD000F0D6F80F4C1249012084F8E0004F
:1024B00032200968B0FBF1F505B9012504F13000BF
:1024C000FFF7EAFA294604F13000FEF7A3F804F119
:1024D0003000FEF7A3F801E000F0E7F8002032BD7D
:1024E00000A00C40C0090020E86B0000B03F005085
:1024F0003A1D0020F06E0000B8010010282008608E
:1025000028200840000222432C2009400C400940AA
:102510002422084000400340800104431410094075
:1025200015350000F1320000B43F00500000046097
:102530008F3F00008F3F01008F3F02008F3F03005D
:10254000903F00018F3F0101903F0002903F000348
:102550008F3F01048F3F00058F1208048F3F000456
:102560008F3F0006513F00007F3F01003F3F0400C6
:102570003F3F02003F3F01007F3F020070B504462D
:10258000E00782B00D46614E05D5A8B20090002349
:10259000012200F011F8A00705D5A8B20090012390
:1025A000022200F009F8600705D5ADB200950223BC
:1025B0000C2200F001F873BD0021304600F0C0BCD1
:1025C0000146042907BF1D234FF0C0421C234FF0D2
:1025D00080524E48342100F0C6BC70B50546FFF766
:1025E000D9FB4B4CA168401A4FF47A714843060C52
:1025F00001F060F82169401A48BF4042711940F665
:10260000B932914207D2062805DAA068E168814212
:1026100001D3226852B93F494A68D2074FF4FA60A1
:1026200016D40868C0B27D21484308E0081A3A4928
:102630004843000C00EB9000904238BF1046C82879
:1026400001D2C82070BDB0F57A6F88BF4FF47A60B0
:1026500070BD80B501210320FFF790FFFFF79AFBC3
:102660002B49886001BD80B50120FFF7A9FF012833
:1026700019D0002301223421244800F074FC98B1C1
:1026800000F026F8FFF786FB21498B680A68C860CE
:10269000A2EB9202C01A204B5843000C08609042F3
:1026A00038BF10460860012002BD10B5002103208C
:1026B000FFF764FF0120FFF783FF08B100F008F87F
:1026C000134CFFF767FB606000F0F4FF206110BD62
:1026D0001248006801F002B810B511490A681149A2
:1026E0000968140424161B384443E41004EB224404
:1026F000120600FB00F3121609065A435843091646
:1027000004EBA222484302EBA04010BD00A00C4005
:102710001C1D0020AC3F005040420F008000001004
:1027200090130050A410005062B38B0708D0521EC3
:1027300011F8013B00F8013B00F024808B07F6D133
:10274000830740F0208000BF103A07D330B4B1E8CF
:102750003810103AA0E83810F9D230BC530724BF23
:10276000B1E80810A0E8081044BF51F8043B40F855
:10277000043BD20724BF31F8022B20F8022B44BFC0
:102780000B7803707047083A07D3B1E80810083A8D
:1027900040F8043B40F804CBF7D25307E4E70000CD
:1027A00030480068000C00F00700052828BF4FF0F3
:1027B000FF3070472C490A68C2F30F324BF69A1368
:1027C0009A424FF0FF3007D10868000F0B2801D163
:1027D00004207047002070474BF6BE118A4201D199
:1027E000012070474BF641318A4201D103207047E6
:1027F0004BF620318A4208BF022070471A48F8B5CC
:102800000068050F19480068C6B2802E28BF002650
:10281000FFF7D0FF4FF0FF3406F10A0730B102286E
:102820001BD012D3042819D017D318E0012D12D0D1
:10283000032D06D0072D06D0082D08BF06F116047B
:102840000DE014240BE0152409E025B1022D08BF8A
:1028500006F1140403E00A2401E005B93C4660B225
:10286000F2BD00009412005018130050A010005048
:1028700080B5FFF79FFF18B9FFF7C0FF162800DAF1
:10288000FEE701BD002200F045BF000038B5144648
:102890000D1800F0E5FC401E8041C00FDFF88414E5
:1028A0000A68002AFCD02C6001220A6000281CBFA4
:1028B000BDE8314000F0D8BC31BD38B5DFF8680460
:1028C000DFF86854046814F1010F08BF0024FFF713
:1028D000CFFFDFF85C14002008600120DFF85414FB
:1028E0000860DFF85414086028680028FCD1DFF87D
:1028F0004C04DFF84C24416812688908890041F0D3
:10290000005141F00401520748BF41F001010BD4CE
:10291000026812F0030F07D041F003024260026820
:1029200002F00302032AFAD14160DFF818040068BC
:1029300028B1DFF814040068204600F031F8DFF811
:102940000C14DFF80C2400200860DFF8080401688C
:102950006FF31B4111430160DFF8FC030168C1F311
:102960000131012907D10168DFF8F023114041F45A
:1029700000320260016028680028FCD131BDDFF818
:10298000E01382B20A60C0F307404860012088600B
:10299000DFF8D00300680028FAD000208860704774
:1029A0002DE9F84F0446DFF8C00301210160DFF88C
:1029B000BC1309680029FAD0C021DFF8B493DFF80E
:1029C000B463DFF8B453DFF8B473C9F80010B1682A
:1029D00089075DBF7168090C41F0F001722129700F
:1029E00000210163D6F80C803868C0F3046000F061
:1029F000EBF94FEA2871491C08181628A8BF1520C2
:102A000004DA6FF009018842B8BF084600F01F00E1
:102A100040F4F8502883DA4DDA480068800748BF50
:102A200048F04068D848C8F3C06181F001010160F6
:102A30005FEA8832C8F3806181F001018160296812
:102A4000C1F38360C1F38F2121D44FEA08421216EB
:102A50004FF6FF7307E0490804D11946400804BF48
:102A600001200121521C002AF5D4012A0FDB490064
:102A700041F00101B1F5803F21BF0121400040F04C
:102A80000100102824BF0F201946521EEDE7DFF881
:102A9000FCA241EA0042182100F094F92868296854
:102AA000C0F3870001F0030140EA012000900023F9
:102AB00040F2FF322C21504600F042FAE86A8204CC
:102AC000920C1C2100F07EF9686A20F00332142178
:102AD00000F078F9286AAE4901EA0002102100F0FE
:102AE00071F9A86AB368DB07C0F30351C0F303426E
:102AF0000BD473684FEA035C01EB2C711B0481F368
:102B0000040102EB237282F30402120442EA01512F
:102B100082B20A43222C24BF00F0804002430C21E1
:102B200000F050F90120222C03D3E86B000F00F0D5
:102B30000100DFF860B2400040F020008BF8080090
:102B40000120222C03D3E86B400F00F0010000228B
:102B500040F01000202C8BF8080007D3A86CC10CA3
:102B600001F44071C0F3845040EA0102282100F0D2
:102B700029F90020202C03D3A86C000D00F00300DD
:102B8000400040F060008BF80B000020222C03D3A3
:102B9000E86BC00E00F00100C00040F080008BF830
:102BA00000000020222C03D3E86B400D00F03F0012
:102BB0008000794940F47C40202C0880774A0AD371
:102BC000A86C0203810A02F47C1242EA815100F0EF
:102BD0000F0041EA0032082100F0F4F8704C4FF485
:102BE0008000206040F20F22F96D6E4889B2914258
:102BF00012D279687A68C1F30361C2F3034201B16A
:102C0000491E072A05D0062A0EBF0722921C02F091
:102C10000F0241EA021101704FEA984101F00301ED
:102C2000012902D0022927D023E0E96B8A0320D4AE
:102C30004FF4804222604B0AD0F80A2022F08F0223
:102C400003F080031A43C1F303331A43C0F80A2088
:102C5000C1F30323D0F80920120943EA0212C0F895
:102C6000092001F0E701826822F0E7021143816048
:102C700002E04FF0004020604FF4007020644A49A9
:102C8000E86B4A4FC00C00F0030040F030000870C1
:102C90004FEA985010F0030003D0022825D008D343
:102CA00025E001210420FFF769FC4148FFF767FE9A
:102CB00021E00120FFF784FC804641460420FFF715
:102CC0005DFC0420FFF77CFC4045FAD136683002F9
:102CD000000AFFF754FE7B691B684FF06022072152
:102CE000300E98474FF480602060032100E00221FD
:102CF0000420FFF743FCE8692E4900F03F0008700C
:102D000047F618002C4908802C4800683968C968C3
:102D1000022088474020C9F80000012028490860A7
:102D2000BDE8F18F00800C401C1300500C0068427D
:102D3000840460425C600C4008220443004003406D
:102D4000B03F005080012843000120438C210840FF
:102D5000000039014820034004000940FFFFFCFC4B
:102D60003C600C4084088C431010094094022243BC
:102D700000600C40A83F005056620840B812005056
:102D800050130050000009400000204300A00C40F8
:102D9000FFFFFC0041A10C40DCA10C4000803F4043
:102DA00040A00C400260084008A10C40A0010010A7
:102DB000BD3786000BB00C4070B00C402C20094091
:102DC00094046042504661E51628A8BF2038704739
:102DD0001B4213D1094236D12AB18446B0FBF2F02E
:102DE00002FB10C2704700F0AFBCFCD300220023EE
:102DF00070470B000200002100207047904271EBE9
:102E0000030CF6D370B5B1FA81F4B3FA83F52C1B39
:102E1000A340C4F1200532FA05F63343A2405FF027
:102E20000046E64002E05B085FEA3202841A71EB7A
:102E3000030524BF204629467641F4D302000B0047
:102E40003000002170BD012ACFD970B5140C20D0FC
:102E5000B1FA81F4B2FA82F5C4F120046419B4F134
:102E60002006D6D3B2405FF00044F440002502E0D3
:102E700052085FEA3303C61A71EB020E24BF3046D4
:102E8000714664416D41F3D302000B00200029001C
:102E900070BD0C46B1FBF2F102FB11452D0445EA71
:102EA0001045B5FBF2F402FB145580B240EA05452B
:102EB000B5FBF2F002FB105240EA044070BD000086
:102EC00070B504460D46164600F0CAF9401E804112
:102ED000C00F1A490A68002AFCD0012E02D0022E27
:102EE00002D003E0257002E0258000E02560012289
:102EF0000A6000281CBFBDE8704000F0B5B970BD85
:102F000038B504460D4600F0ABF9401E8041C00FB5
:102F10000A490A68002AFCD0012D02D0022D02D0F5
:102F200003E0247802E0248800E0246801220A609B
:102F300008B100F099F9204632BD000000800C4035
:102F400010B500EB4100102B144600F5007002D3C1
:102F5000103B001D240C0299994041EA0441BDE850
:102F600010400422ACE738B51D460818102D144651
:102F700002D3103D801C240C0221FFF7C1FF04EA9C
:102F8000000188B2E84032BD006800280CBF012073
:102F900000207047006870470068704738B50446E5
:102FA0000D4600F0D2FB002129606168696061680C
:102FB000002914BF0D6025606560FFE7BDE8324061
:102FC00000F0C5BB0068010701D50420704700F080
:102FD000030070472DE9F84F06469248924C00686E
:102FE000924D800704D50820A87191482060BEE06A
:102FF00000F060FB80468F480068009000270017B3
:1030000000F101090098800208D4C8F13E00C01008
:103010000928A8BF08208145B8BF814686480068B6
:10302000C0F30460FFF7D0FE824684480068C0F316
:103030000440FFF7C9FE09EB0A011629A8BF1521B4
:1030400004DA6FF009029142B8BF114601F01F0285
:103050007B4B42F4F8521A807A4A126812F0030F3E
:1030600018BF0127520748BF47F002070EB147F0CB
:10307000040795F90720A8EB0202052A02DAAA79CB
:1030800097425CD0A8F10F0C0026BCF1000FB646A9
:1030900007F0010207F00403DFF8AC9123D40CEB36
:1030A0000C1C4FEA2C2EBEF1080F28BF4FF0070E64
:1030B0007646072E28BF062609EB860A59F82660B1
:1030C000DAF804A0AAEB060A5FFA8AF613B1CAF38B
:1030D000072B5E445FEA877B44BFCAF3074B5E441D
:1030E0000AB106EB1A6659F82E905FFA89FA13B105
:1030F000C9F307239A44BB0744BFC9F307439A4463
:103100000AB10AEB196A401AACEB0E220099AF71B2
:10311000724380320128B8BF01203423C9B258431A
:103120000AEB12224843B0FBF2F0B0F5803F28BF13
:103130004FF6FF7008F30708A88085F8078043481A
:103140000068A988286000201F2904D21F21A980B7
:1031500004E04908401CB1F5007FFAD20F39090993
:1031600040EAC1003A490843206000206060BDE8A1
:10317000F18F10B53748006884B224B300F09AFA92
:103180002A4991F90720904205DA6FF07F029042B8
:10319000B8BF1046C8718888844201D28C8010BDA7
:1031A0002A4A12680B68D21A921C202A28BF1F22B2
:1031B000231A520823FA02F42018B0F5803F28BFE2
:1031C0004FF6FF70888010BD2348026802B970472F
:1031D00010B5224B986800F04061B1F1406F20D0EB
:1031E00010490C68A4071CD45C68A40719D40C68A7
:1031F0001B68C3F303531C331B0114F0050F05D0E8
:103200009A420ED224F00500086010BD934208D205
:10321000020158BF44F00104400158BF44F00404C7
:103220000C6010BD0000094030100940301D002026
:10323000FDFDA400B43F0050B81200503C110050F6
:103240006E620840242208409C1300500820094068
:1032500000E7A4803410094028500940AC3F0050DA
:10326000EFF3108072B67047EFF3108062B67047CC
:1032700010B50C18FFF7F4FF401E8041C00FDFF8B7
:10328000D8130A68002AFCD0246801220A6008B119
:10329000FFF7EAFF204610BD38B5DFF8C043DFF87E
:1032A000C0132078897B002508430AD0FDF79EF9DA
:1032B000A178002906BF0121A1700125FDF79AF927
:1032C0000DB1002032BD0220FEF7B0FE0E20FEF749
:1032D000C2FEDFF89003016809B1012032BDDFF8BA
:1032E0008823402111600121C1610020607032BD3E
:1032F00070B5DFF8740382B0002101604821C1601D
:10330000DFF8680300F1D804A17A002967D0012909
:10331000DFF85C2328D110684BF2F5214843050AF9
:10332000D4480068C0F38140012806D100F0C2F9FA
:10333000FFF7D2F9684305EB9055607B10B1002090
:10334000607305E0CC480068000215EB10204508CA
:10335000CA480560290C416001218160C048807B1A
:1033600000283AD0052039E0022909D115682846FD
:1033700000F0F2F8A5F2FF5003282ED308202DE02C
:1033800003292CD1116800F1B805A1F5C0612868A6
:10339000E961002848BF4042002948BF49428842AD
:1033A000A8BF002018DA6868B54E80B200900823E4
:1033B0004FF47F4230213046FFF7C2FDA86800F08D
:1033C00067F904213046FFF7BBFDA86900F066F9F4
:1033D0003046FFF7B5FD012020700B202073BDE8BB
:1033E000734000BF2DE9F041A04CDFF89482A54F57
:1033F000A54E9D4804F1E10582B0E9784A1E0B2AEA
:103400005BD8DFE802F0062233465B33465B334687
:10341000636E9E4909680968202088470F20F8607C
:10342000072341F61D5038614FF4C072022000900E
:1034300000F06BF807234FF4C07200214046FFF7FD
:1034400092FD01203060022044E00120F8612878DC
:1034500000281DBF0020306103200620E8700320F3
:103460003860002070607068800734D4E8780328E2
:1034700004D1022000F046F8042007E0002000F00C
:1034800041F8E87806280CBF07200A20E8700120E0
:103490001AE0042903D12021B961012105E00122AC
:1034A000BA610A290CBF0321022169700021396029
:1034B0000821C16001600120386021E005290CBFAE
:1034C00006200920E8700020706004E000203060D1
:1034D00070600C20E87004F17800BDE8F641FDF75B
:1034E0009DB80021016001205E4908600E20FEF7B2
:1034F00047FD0220FEF730FD0120E8700020A87093
:10350000BDE8F38100900523602200214046FFF7CB
:1035100017BD000055495C4891F8E410891E0A293E
:1035200019D8DFE801F0060A0E180A0E180A0E185C
:10353000120001688907FCD50DE041688907FCD4B9
:1035400009E041688907FCD505E001688907FCD4DA
:1035500041688907FCD445E7F8B50746484C302157
:103560002046FFF785FE414E06F1B805C0F307205F
:10357000686004212046FFF77BFEC0F38440A8600A
:1035800020212046FFF774FEC0F38120A861B7F523
:10359000C060286002D186F8D800F1BD296996F88C
:1035A000D8202AB96A68A968EA60E861AA696A61EC
:1035B000E86900284CBF6FF00102022200EB4000D6
:1035C0001018421000EB927001EBA0006968E960EE
:1035D000012810DA6A69032A04D1153001281DDA9E
:1035E00001201BE00B300128B8BF0120491E48BF55
:1035F0000021E96007E01F2812DB6A692AB9153843
:103600001F28A8BF1E20032109E00B381F28A8BFD0
:103610001E20491C4029A8BF3F21E96000216961A3
:1036200028610823E86880B200904FF47F4230217F
:1036300000F03CF80120009011234FF4003200F01C
:1036400034F8286900F024F800F02FF8686900F0D9
:1036500025F800F02BF8F1BD00800C40A10A0020F5
:10366000E86B000004800C402C500C40C009002086
:1036700008400C40B43F0050102009403C600C4012
:1036800000A00C4000400C4034600C40A001001031
:1036900080B2009012234FF4F802704780B200907D
:1036A0000A234FF440622021704704212046FFF78F
:1036B00047BC00000748084A816812780068C903BF
:1036C00052B2A0F54070C9135043A1EB20108030D6
:1036D00000127047285009400C13005070B5044682
:1036E000FFF7BEFD451EAD41ED0F074E30680028C7
:1036F000FCD0A04701203060002D1CBFBDE8704009
:10370000FFF7B2BD70BD000000800C4062F30F22D5
:1037100062F31F4200B500BF13009646944610396D
:1037200028BFA0E80C50FAD85FEA417C28BF0CC043
:1037300048BF40F8042BC90728BF20F8022B48BF18
:1037400000F8012B00BD00007047FCF74FBFFCF7ED
:1037500051BF0000DFF800F0D9C10110DFF800F020
:10376000ADB50110DFF800F019AE0110DFF800F080
:10377000E5C10110DFF800F085C20110DFF800F0AC
:1037800081C20110DFF800F055C10110DFF800F030
:1037900043C20110DFF800F079AB0110DFF800F050
:1037A000D9B60110DFF800F0EDB3011020B1082305
:1037B0002C22002100F00ABD704720B108233C22D2
:1037C0000021FFF7C7BF704780B5FEF7F9FAADF8E3
:1037D0000000FCF70BFFADF80200009802BD01B538
:1037E000BDF80200FCF706FFBDF80000BDE802408E
:1037F000FEF7EABA38B5DFF89C08DFF89C18DFF866
:103800009C4880088000091A2161E060034602E0BC
:10381000002523F8025B0D18AB42F9D38B0800EBAF
:103820008303002223F8042CE82220F8E82B4FF62B
:10383000FC721140EC3901806060002000F004F857
:10384000A060E068606031BDF8B500240025061D69
:1038500016F003001CBF311D0E1AFFF7B5FFDFF88D
:103860003C18B6B20860112EB4BF4F688F68398813
:103870000B0403D581F40041002519E0A5B123888C
:103880003A88134423809BB2B34211D3274619468A
:10389000B7B1891B89B20429A7BFF15346F400418F
:1038A000398841F4004109E0B142F1DA01253C4692
:1038B000CF1939880029DBD1002701E027F8041B44
:1038C000FFF78DFF3846F2BD10B50446FFF77CFFC9
:1038D000DFF8C817221F086013885B045B0C138095
:1038E0004B689A4238BF4A60BDE8104077E738B568
:1038F0000446FFF769FF00210C23DFF8A42703FB30
:103900000125AA6C4AB1944204D1FFF768FF05F182
:10391000480032BD491C0329EFD3FFF760FF0020A8
:1039200032BD70B50546FFF74FFF044600200C225C
:10393000DFF86C1702FB001101F14806316849B944
:103940000020B06035600022FFF708FF706018B9F2
:1039500000F046FC8D4204D12046FFF740FF304680
:1039600070BD401C0328E3D32046FFF738FF00203A
:1039700070BD38B50446FFF727FF0025DFF8201794
:103980000C2202FB0512128842B1944203D1FFF7C8
:1039900026FFE8B232BD6D1C062DF1D3FFF71FFFE5
:1039A000FF2032BD10B504462088FFF7E2FFFF2854
:1039B00000D16DE1DFF8E8160C2202FB00108168EF
:1039C000080002D16FF0010010BD2046BDE8104094
:1039D000084702460FF23870104710B500200C213E
:1039E000DFF8BC26002401FB0023401C03289C6454
:1039F0001C65F8D30020002301FB0024401C06288E
:103A00002380F9D3082010800FF2ED609060BDE8AC
:103A10001040EFE670B590B0FEF7D2F90446684664
:103A2000FFF7CBFE0520069000224FF4617008904E
:103A300069464FF001100490DFF868060590DFF842
:103A40006806FFF78FFE050006D0FFF7BDFE0646AD
:103A50002846FFF766FF08B900F0C2FB3046FFF7C3
:103A6000BEFE2046FEF7B0F910B070BDF8B500F00C
:103A7000E8F8FFF756FF05006FF0020616D0FFF7D3
:103A8000A3FEA2880021DFF818360C2707FB0133BC
:103A90001F883FB91A805D60A2689A6021736968C7
:103AA0002161C7E2BA4203D1FFF799FE3046F2BD69
:103AB000491C0629E7D300F093FB00BF38B500F09E
:103AC000C0F8FFF72EFF050016D0FFF77DFE00219E
:103AD000DFF8CC250C2303FB012213884BB94FF6EA
:103AE000F873138055600023936021716968A160A9
:103AF00013E7491C0629EBD300F072FB00BF10B599
:103B0000044660680C3080B2FFF79EFE10B96FF07B
:103B1000030010BD6168018100210160FF218172F5
:103B20000C30A060002010BD80B540680C3810E05B
:103B300080B289E610B50446606880B2FFF784FE63
:103B4000A06000280CBF6FF00300002010BD80B5FE
:103B50004068FFF7B9FE002002BD38B504460D46A7
:103B6000FFF732FE002145F80C1C216811B92560D1
:103B700006E0114651F80C2C002AFAD141F80C5CF1
:103B8000BDE832402BE62DE9F04104466FF0020615
:103B9000E068A0F10C05A0790628BCBF20790628B2
:103BA0000BDAFFF711FEA179DFF8F4840C2707FB8D
:103BB0000181496819B9FFF712FE304617E0FFF797
:103BC0000EFE20792871A0796871207AA871A079F9
:103BD000E16807FB008040680830FFF7BEFFA0796E
:103BE00007FB008040684068FCF708FD0020BDE846
:103BF000F08170B500F025F8FFF779FE10B96FF08D
:103C0000040070BD00F10806FFF7DEFD31680025F5
:103C100041B10D46A5F10C010A68326000220A602C
:103C2000FF228A72FFF7DBFD2800A56001D1022088
:103C300070BDA5F10C00017921714079A0710020BF
:103C400070BD0446FFF792BD06280BDADFF850245A
:103C50000C2303FB0020008800281CBF4FF6F872DD
:103C6000904202D14FF0FF3070470880002070472B
:103C7000811D0079E8E710B50446E088FFF779FE7A
:103C8000FF2800D104E0A0712046BDE810407AE78B
:103C90004FF0FF3010BD3EB50446FFF7AAFF050008
:103CA00017D120796946FFF7CFFF78B10820ADF82A
:103CB00004000320ADF80600DFF8F013A06889685F
:103CC000029001A888476FF005003EBDBDF80000D6
:103CD000A08028463EBD10B5DFF8D42312680C46FC
:103CE0004FF47A71A1FB00010023FFF771F800295E
:103CF00002D8B0F1004F02D36FF0020010BD206077
:103D0000002010BD38B5FFF79CFFFFF7F0FD05461A
:103D1000FDF760FE002818BF012800D015B96FF02C
:103D2000040032BD606840B9009000996868FCF7F3
:103D300069FC401E8041C00F32BD10F1010F08BF69
:103D40004FF0FF30F0D06946FFF7C5FF0028ECD0F8
:103D500032BD80B54068FCF751FC002002BD00F088
:103D60003FFA00BF80B54068FFF704FD002002BDA8
:103D700080B54068FFF702FD002002BD80B5FFF767
:103D800001FDFFF703FD002002BD80B5FEF718F826
:103D9000FCF72CFC002002BD10B58CB00446684630
:103DA000FFF704FDE02000F013F808B900F018FA5E
:103DB0000BE010B58CB004466846FFF7F7FCE068EE
:103DC00000F006F808B900F00BFA00200CB010BDA6
:103DD00008900023A16860686A46FFF7DBBC10B555
:103DE0000446FFF7DBFC6060002010BD01468868D8
:103DF00049680847F0B507468BB0BC68AB4D6CBB53
:103E00000C20FFF721FD04006FF003061ED00823ED
:103E10002422002101A8FCF7F9FB0020ADF81400D2
:103E20000690079400237968A24801AAFFF7BAFC1C
:103E3000206068B90820ADF800000C20ADF8020041
:103E40006846A96888472046FFF73EFD304618E0DF
:103E5000F86860603869A060BC600AE02868804744
:103E600006462068FDF718FE3869A060304669688C
:103E7000884779682068FCF7CDFB2068FCF7CEFB0B
:103E800000200BB0F0BD10B5044682B060686946F2
:103E9000FFF721FF20B9009860602046FFF7AAFFD6
:103EA00016BD80B5406810B96FF0020002BD006811
:103EB000FDF7F2FD002002BD7D4909684160002048
:103EC000704750B504467A4802686FF00046A6FB7A
:103ED000020100234FF47A72FEF77AFF002902D81C
:103EE000B0F1004F00D330466060002050BD2DE996
:103EF000F04186B00646FFF739FCFFF7F8FC0446B0
:103F0000002002900025FDF765FD002818BF01285C
:103F100000D014B96FF0040067E0706820B110F1B0
:103F2000010F03D14FF0FF30009005E06946FFF725
:103F3000D2FE5FEA000857D1FFF730FC00994FF03E
:103F400001080F1800E0009000996068FCF75AFB28
:103F500080B303A8FFF74DFE5FEA00081AD19DF871
:103F6000100001A9FFF770FE80B9059A9DF81210A4
:103F7000BDF80400B368984740B1BDF80400B081B3
:103F80009DF81200B0730598306113E0059902A8FE
:103F9000FFF7E3FD00986D1C10F1010F18BF00281A
:103FA0004FF00108D0D0FFF7F9FB381A02D0009982
:103FB0008142C8D2029EFFF707FC04F1080756B100
:103FC000314600E0114651F80C2C002AFAD13A682B
:103FD00041F80C2C3E60FFF702FC002D03E0606806
:103FE000FCF70CFB6D1EFAD1404606B0BDE8F0812F
:103FF000F8B5FFF726FE0546FDF7ECFC002818BFD4
:1040000001286FF0040613D0FFF7DEFB0021244ADD
:104010000C234B439F5A4FB19B185B681B68AB4204
:1040200001D1217106E0491C0629F1D3FFF7D7FB26
:104030003046F2BDFFF7D3FB0020F2BDF8B50446D1
:10404000FDF7C8FC002818BF012802D16FF004005A
:10405000F2BDFFF78BFB0546FFF7B6FBA788104ABA
:1040600000210C234B439E5A6EB1BE4208D19918D1
:1040700049680968A9420CBF01210021A160D9E764
:10408000491C0629EDD3FFF7AAFB4FF0FF30F2BD24
:1040900000000000401D0020683F00200C1500209B
:1040A000A0140020A0040020D33900008C040020BC
:1040B000F06E0000ED3D000070B504463C20FFF7B7
:1040C000C3FB05006FF0030611D0FFF776FB207AE3
:1040D000A8610022608928622946E068286160683A
:1040E000FFF740FB04462846FFF7EEFB0CB93046CD
:1040F00070BD002070BD000041882A2902D36FF0F6
:10410000010070470FF2140252F821100847000016
:10411000A5390000C9370000DF3700006D3A000004
:10412000BD3A0000FF3A0000293B0000353B00008B
:104130004F3B0000873B0000F33B0000773C000052
:10414000973C0000053D0000533D00005F3D00002E
:10415000653D0000713D00007D3D00008B3D00008D
:10416000993D0000DF3D0000873E0000B93E0000A1
:10417000C33E0000713C000007670000D9670000E3
:10418000EF3E0000F13F0000F53D0000A33E0000BF
:1041900073670000AB670000BF6700003D40000090
:1041A0000D68000025680000B94000000000000014
:1041B000000000001B68000033680000B33D0000F1
:1041C00000000000DFF800F0F1C5011001B901495D
:1041D000FFF7F8BFA0010000DFF800F0ED8C011040
:1041E0000120FFF7F9BF0000E0B50821ADF800108D
:1041F0000190022100F00FF8002814BF002002985F
:104200000EBD00B583B00821ADF800100190032168
:1042100000F001F807BDADF802106846DFF86C1336
:10422000096808471FB5ADF806108DF8040008248A
:10423000DFF858138DF808200393ADF80040ADF86F
:10424000024068460968884704B010BD30B585B0A3
:10425000144608220291ADF800201922DFF82C1331
:1042600009680190ADF802201D466846884714B1E0
:10427000BDF80C10218015B19DF80E102970089A18
:104280000499116005B030BD00B583B00820ADF8C9
:1042900000001A2000F015F800280CBF9DF804005B
:1042A000FF200EBD00B583B0ADF800008DF80610FC
:1042B000002000F006F800280CBF9DF80700FF2042
:1042C0000EBDDFF8C8120968ADF80200684608475D
:1042D00050B110F1040F01D10420704710F1030F09
:1042E00001D102207047012070478123037042EA08
:1042F000C111002341F47C41C37081807047822347
:10430000037081800023C370827170473EB50446FC
:104310000820ADF800000D462020ADF80200102066
:10432000DFF868120968ADF804006846884720B9CC
:10433000029810B16FF004003EBD009500230022EA
:1043400021464FF0FF30FFF781FF3EBD10B582B030
:104350001446CA78012A03D18A88DFF83C351A80CE
:1043600000F010F858B9009069462046FFF7CEFFDC
:1043700028B900984478FFF744FF204616BDFFF7A0
:10438000A7FF16BD0B46022210214BE738B51C468D
:104390001546FFF7F7FFB8B9009069462846FFF7C2
:1043A000B5FF88B900984578002D04BFC079A042B8
:1043B00005D10098816804982246FEF7B5F9009867
:1043C000FFF71FFF284632BDFFF782FF32BDF8B569
:1043D00000F081FA00F0B6F907000DD03246294608
:1043E000FFF78DFF00F017FA3872FFF74DFF3B46DD
:1043F00001B0BDE8F0405CE0F1BD10220121E6E72C
:1044000038B500F004FA050002D00422012147E08B
:1044100031BD2DE9F04100F059F907000FD0142209
:1044200000F019F83C72FD603E8287F81280FFF7B9
:104430002BFF3946BDE8F041DFF8602486E725E030
:1044400038B500F0F2F9050004D0152200F003F8A9
:104450002C8128E031BD012151E70022042180E0B8
:104460002DE9F04100F032F907000FD0022200F0F0
:1044700010F8BC60BD81BE73C7F81080FFF704FF61
:104480003946BDE8F041DFF818245FE70420BDE8B5
:10449000F081042133E71022022198E702212EE760
:1044A000FFF72DFFAC60FFF7EFFE2B4601B0BDE834
:1044B000304002221021B5E6F8B500F0A2F907005D
:1044C0000AD01522FFF7EAFF00F043FB3946BDE8AA
:1044D000F840DFF8D02339E70420F2BD00220321A1
:1044E0003FE000B583B00FF2490301930623009328
:1044F000032300F04DF80EBD1078802802BF5088CD
:1045000040F27F61884208D19088984202BF917939
:104510000098814201D1012070470020704710B5FA
:1045200082B00624FFE70094FFF7E6FF16BD000007
:104530000323F4E71078802802BF508840F27F619F
:1045400088420CD19088032818BF042807D190799D
:1045500000281CBF1028112801D10120704700201D
:104560007047F8B500F055FA07000CD032462946DE
:10457000FFF7C5FEBC60FFF787FE3946BDE8F8408F
:10458000DFF82423E2E60420F2BD000094040020BA
:104590002DE9F04100F02BF807000AD0069A4146B9
:1045A000FFF7ADFE3C817D8100F0D5FA079A00F05F
:1045B00073BA6BE704460D460C2015E6424603210C
:1045C00093E670B582B000F086F9FFF75DFE1B211F
:1045D0000091034632462946204600F02AF976BD6E
:1045E00010B582B01D24009400F023F916BD0446D6
:1045F0000D46164698461020FFF7F6BD2DE9F0410E
:1046000080460D4616461F461820FFF7EDFD0400B4
:1046100014D0002200F061F800F066FA2072657292
:10462000A672E7600698206107986061FFF72CFE8C
:104630002146BDE8F0410FF2153287E626E70FF27A
:104640001133112200214AE1F8B500F0E8F8070023
:104650000FD00A2200F041F800F0DDF838727D81B9
:104660003E73FFF711FE3946BDE8F8400FF2E52230
:104670006CE60420F2BD0FF2E123062240E12DE9B1
:10468000F04180460D4616461F461020FFF7ACFD50
:10469000040011D0072200F020F800F025FA207263
:1046A0006572A672E760FFF7EFFD2146BDE8F041B5
:1046B0000FF2A922FFF74ABEE8E60FF2A52308226F
:1046C00000211DE10FF29D231022F3E004460D4668
:1046D000164698461420FFF787BD0421FFF705BE54
:1046E00070B5FFF767FF06000BD03022FFF7F5FF2C
:1046F00000F009F83146BDE870400FF26D22FFF777
:1047000025BE042070BD34817581FFF7BDBD30B575
:1047100083B004460020ADF8040000F013F8050053
:104720000DD03122FFF7D9FF2C81FFF7ADFD01A994
:10473000009102230FF235222946FFF727FEBDF82C
:1047400004003EBD0A20FFF74FBD1CB500F07DF907
:1047500004000AD01222FFF77EFEFFF795FD00F05D
:1047600018F80FF20D2200F018F80FE01CB500F059
:104770006CF904000AD01822FFF76DFEFFF784FDE4
:1047800000F007F80FF2F91200F007F89DF80400A6
:1047900016BD01A90091012370472146FFF7F6BD20
:1047A00070B500F014F806000BD01922FFF753FE85
:1047B00000F009F83146BDE870400FF2CD12FFF766
:1047C000C5BD042070BD3481F560FFF75DBD0446B2
:1047D0000D461020FFF708BDF8B500F012F80700ED
:1047E0000DD03622FFF779FF3C817D8100F0B3F9CF
:1047F0003946BDE8F8400FF29912FFF7A7BD042033
:10480000F2BD04460D4616461020FFF7EDBC0446E7
:104810000C20FFF7E9BC21465020FFF743BD0446BA
:104820000D4616460E20FFF7DFBC04460A20FFF7B0
:10483000DBBC2DE9F041FFF749FF070011D0069AD4
:10484000FFF7BDFE3C813E74FD6000F04DF97874C9
:10485000FFF71AFD3946BDE8F0410FF26912FFF784
:1048600075BDFFF713BE38B51446104A15682A0007
:1048700006D0009302460B4621460120A84732BDD0
:10488000002032BD0A4A13681A0003D00A460146C6
:104890000120184770470000CC0A0020E5490000BD
:1048A000F5490000EB4900003545000020150020C7
:1048B000241500202DE9F04100F00DF898460C2059
:1048C000FFF792FC070004D000F016F83C81BD729F
:1048D000DFE0FFF7DBBD04460D46164670472DE9C5
:1048E000F041FFF784FE070004D000F005F8BC603B
:1048F000FD60CEE0FFF7CABD32460421FFF7F5BCEC
:104900002DE9F041FFF773FE070006D0FFF7F4FF33
:10491000FFF781FF3872FD60BBE0FFF7B7BD10788D
:10492000802802BF508840F27F6188420CD1908875
:104930004FF680710140B1F57E4F04BF00F07F005B
:10494000984201D101207047002070470023E6E71C
:104950001123E4E70A23E2E70623E0E70723DEE783
:104960000823DCE71023DAE73023D8E73123D6E742
:1049700080B5122300930123FFF7BEFD02BD0000A6
:1049800080B51823F6E7000080B51923F2E7000090
:104990003623C4E71078802802BF508840F27F6138
:1049A00088420DD190884FF6807101404FF68052B9
:1049B000914204BF00F07F00984201D1012070476E
:1049C0000020704770B5FFF786FF1D23FFF7E2FF59
:1049D00030B9324629462046BDE870401B23D9E74E
:1049E000012070BD80B51423C4E780B51523009362
:1049F0000223C1E780B5022300930423BCE70FF232
:104A00000D0142F22F000AE00000000042F22F03E5
:104A100047E004460D4616460C20FFF7E5BB70B58F
:104A200004460D4600F014F806000CD081203070CA
:104A3000B4800120F070FFF727FC2A463146BDE81C
:104A40007040FFF783BC042070BD00208DF8040087
:104A50000820FFF7C9BB2DE9F041FFF73CFF98465E
:104A60000E20FFF7C1FB070009D000F00AF83D81D6
:104A70007E81A7F80C80FFF707FC069A0CE0FFF791
:104A800005BD812038700120F870BC8070473D81E1
:104A9000FE60FFF7F9FB42463946BDE8F041FFF7FB
:104AA00055BC1078802802BF508840F27F61884250
:104AB00004BF9088984201D10120704700207047C0
:104AC000000038B50446154600F00FF80FF221013A
:104AD0000091C2B22B4621464FF61840FFF7BBFFAC
:104AE00032BD3C817D81BE8141465020FFF7DABB5B
:104AF0004FF61843D5E70000F8B5FFF782FE070030
:104B00000DD0012200F022F83C727D7200F023F8F3
:104B10003946BDE8F8400FF27902FFF717BC0420D0
:104B2000F2BDF8B5FFF76DFE07000DD0022200F0D0
:104B30000DF83C727D7200F00EF83946BDE8F84081
:104B40000FF25102FFF702BC0420F2BD0521FFF76E
:104B5000CCBB3C81BD72FE60FFF796BB107880280D
:104B600002BF508840F27F6188420DD190884FF695
:104B7000807101404FF68062914204BF00F07F00D7
:104B8000984201D1012070470020704700000000CA
:104B90000123E3E70223E1E7DFF800F025B101108C
:104BA0002DE9F84CDFF824790C46002640F2013B51
:104BB0009246BB78797897F805C097F804E0B0EB97
:104BC0000B0540F67B4232D06D1E37D06D1E3DD0B6
:104BD000AD1E41D06D1E00F07D806D1E00F0808006
:104BE0006D1E00F08D806D1E00F09C806D1E00F02B
:104BF000A1806D1E00F0A6806D1E00F0AC806D1EC1
:104C000000F0B180ED1E00F0B6806D1E00F0BB809C
:104C10006D1E00F0C0806D1E00F0C5806D1E00F09E
:104C2000CA806D1F00F0D280AD1E2ED0E8E0102C9F
:104C300005D11022514607F1A40089E0102C40F064
:104C4000DD801022514607F1B40081E0042C6AD1C6
:104C5000DAF80000F862DEE0012C64D1BCF1010F4B
:104C600036D09AF800003871BEF1000F06D0002847
:104C7000F1D1022B1BD0052BEDD118E00028EAD092
:104C8000012B21D0042B1DD11EE0012C4BD1BEF1F4
:104C9000010F1DD09AF800007871BCF1000F0AD006
:104CA000002807D1032B1CBF072B052B02D1084678
:104CB000FFF703FDAFE00028FCD0012B1CBF042B45
:104CC000062B01D0052B02D1012000F0F8FBA2E059
:104CD0001226A0E0022C26D1BAF80000F8839AE050
:104CE000202C0EDA07F1CC061F21304600F0F6FB2F
:104CF00000F098F87878BC713346224601210EE026
:104D0000202C7BDA07F1EC061F21304600F0E6FB91
:104D100000F088F87878FC71334622460021FFF7CE
:104D2000AEFC75E0012C69D19AF80000052865DA1F
:104D3000387270E0012C61D19AF8000004285DDA25
:104D4000787268E0062C59D10622514607F5867024
:104D5000FDF7EAFC5FE0012C50D19AF8000008282A
:104D60004CDAB87257E0012C48D19AF800000428B8
:104D700044DAF8724FE0012C40D19AF80000022882
:104D80003CDA387447E000F049F837D1811F91428E
:104D900034D278823FE000F041F82FD1811F914258
:104DA0002CD2B88237E000F039F827D1B0F5FA7F7D
:104DB00024DAF8822FE000F031F81FD1A0F10A01C7
:104DC00040F67742914219D2388324E0012C04BF87
:104DD0009AF80000012811D107F1800000F0DBFBF8
:104DE00050B907F1100100F01DFB060013D107F1C7
:104DF0005C0000F0D7FB0EE016260CE018260AE057
:104E0000282807DA022C05D1BAF80010FFF768FC51
:104E1000064600E002263046BDE8F28CBAF80000F3
:104E2000022C7047224651463046FDF77DBC38B50E
:104E300000244FF440730D46C21ADFF8901636D0A6
:104E4000521E36D0521E37D0521E38D0521E39D084
:104E5000521E3AD0521E3CD0521E3CD0521E3DD063
:104E6000521E3ED0521E3ED0521E3ED0521E40D048
:104E7000521E40D0521E40D0921E40D0521E40D0F2
:104E8000521E40D0521E40D0521E40D0521E40D022
:104E9000521E45D0521E45D0521E45D0921E47D0BC
:104EA000521E14D0521E41D0521E43D045E0C87845
:104EB00041E01022A4312FE01022B4312CE0C86A66
:104EC000286041E00622C43126E0087933E04879C1
:104ED00031E0C88B35E08A79CC311DE0CA79EC31FC
:104EE0001AE0087A27E0487A25E0062201F5867163
:104EF00012E0887A1FE0C87A1DE0088C21E0087C67
:104F00001FE0488A1DE0888A1BE0C88A19E0088BE8
:104F100017E0062201F58A712846FDF705FC13E02B
:104F2000488C0EE0888C0CE0C88C0AE0087B02E01C
:104F3000887800E0487B287006E0282803DAFFF72D
:104F4000E6FB288000E00224204632BD1CB5DFF8D5
:104F50007C45A17881B900B1206304F12C00019057
:104F600004F1B400009004F1A403E1786078002219
:104F7000FFF744FB002016BD112016BDDFF84C05DD
:104F80008178062918BF072904D1018C40781322A3
:104F9000FFF75ABB1220704700B58FB008233C22A0
:104FA00000216846FEF7D6FBDFF8240500F150012A
:104FB000079100234FF4DC7108916A4603210691A2
:104FC0000FF2D101FFF7E8FD0FB000BD70B584B05E
:104FD00000F018F90120DFF8FC14DFF8F04409684C
:104FE0000FF2F545ADF802000026684688479DF8A7
:104FF000040060700298A0620020A0704FF6FF705D
:105000002084FFF7A2FB20700023012001900022E2
:1050100000200090294604F1380000F081FA0220B7
:1050200000F02FF804F15C0000F07AFA042000F0A0
:1050300028F804F1800000F073FA0420E07004F115
:10504000A40200200021002300252BC204F1B40596
:10505000103A4BC5E06220726072E1720720A072C4
:1050600010210220FFF748FD103D2A4610210320A1
:10507000FFF742FD04F12C0204210420FFF73CFD60
:105080007FBD019000230020009000222946704738
:1050900000000000FEB5FFF799FFDFF83054DFF89D
:1050A000344405F1800700F0ADF80A20ADF80200A5
:1050B0004FF0FF30019068462168884700284BD1A7
:1050C00000F0A0F80920ADF8020068462168884782
:1050D0009DF80610029E00283ED1BDF8040010285D
:1050E00004BF687881422DD130884FF6FF71884225
:1050F00009D17088400425D505F12C020421042033
:10510000FFF70FFD1EE03078A22805D0D02804BF9D
:10511000304600F07BF815E07079132812D1308901
:10512000012804BFA87B022805D1384600F03AFACE
:10513000FFF724FF06E00520FFF7E9FA01463846AD
:1051400000F014FA46B100F05DF80320ADF802005B
:105150000196684621688847A88BC1072FD54FF66E
:10516000FE710840A88329796879014327D018B1D6
:1051700003208DF800000CE0287A8DF8000006224C
:10518000687A8DF8010005F586710DF10200FDF7D2
:10519000CBFAA87A8DF808006946E87A8DF80900FC
:1051A0006878FFF768FA00281FBF0820A870286BEE
:1051B000002804D0016808001CBF08208847A88B7D
:1051C000810708D54FF6FD710840A88305F110014D
:1051D000002000F027F9A88B41070AD54FF6FB7194
:1051E0000840A883A87B012804D0022808BFFFF745
:1051F000C5FE58E700902B8BEA8AA98A688A00F0DE
:1052000046F950E70820ADF800007047F8B50546AC
:10521000AE4CA878010004F58A7704F1800612D01C
:1052200002283AD0032818BF04285CD0052800F0D3
:105230008280062800F0AC80072800F0CE800F287E
:1052400000F0EA80F1BD6878D0B904F1A402102121
:105250000220FFF766FC04F1B40210210320FFF7DF
:1052600060FC0622E91C04F1C400FDF75DFA012090
:10527000A07004F1CC03A27960780121FFF7FFF957
:1052800008B10820A070206B30B10168080003D07D
:10529000A078BDE8F4400847F1BD6878F8B9E8782F
:1052A00040B1E279607804F1EC030021FFF7E7F9FF
:1052B000687014E0A078022818BF07280FD00628CD
:1052C00003D1607901280AD101E0032807D004F155
:1052D000380000F060F910B9012000F0F0F86878AB
:1052E0000028D9D0CDE7697821BB03280AD1A0785E
:1052F000062808BF0720C5D0207900280CBF03204E
:105300000220BFE7E18B2079002907D062791043A2
:105310000AD004F1380000F029F905E0012807BFA0
:105320000020207100206071A078072814BF04209D
:105330000620A7E7A5E7687820BB0622291D384686
:10534000FDF7F2F9688920840620A070E88960845E
:10535000288AA084688AE084E8782073207C012869
:1053600009D11F20FFF7D3F94FF47A71414304F1BB
:105370005C0000F0FBF86A89E8780423291DFFF738
:1053800048F880E73128D5D100202071042079E742
:10539000A888FFF755F80621384600F09FF800204E
:1053A0006084A084E084A879607304F15C0000F05C
:1053B000F9F8304600F0F6F84FF6FF702084607977
:1053C00008B103205EE7A87908280CBF0520042057
:1053D000A070012000F073F855E7304600F0E2F8C5
:1053E000687800280AD1E88860842889A0846889C0
:1053F000E08404F15C0000F0CEF800287FF44CAFAC
:10540000636B002B3FF448AFE28CA18C608C1B686F
:1054100001B0BDE8F0401847A888BDE8F440052178
:10542000FFF750B9FEB50F46284D79880446688CC1
:10543000884224BFB988814207D3A88CF988884262
:1054400002BFE88C398988421ED00520FFF75FF93A
:105450000646288CADF800007888ADF80200B888C0
:10546000ADF80400F888ADF806003889ADF80800FA
:105470006846FFF7E4F8070007D1AC73314605F141
:10548000800000F073F800E018273846FEBD3EB5F6
:105490000E4CA578062D01D014203EBDADF80200BB
:1054A000ADF80410ADF80620ADF8083004F15C004A
:1054B00000F078F806986946FFF7B4FF3EBD03494F
:1054C0008A8B10438883886AFBF798B8C804002049
:1054D0002815002094040020F1E70000002200F0CD
:1054E000A9B80000DFF800F013C10110DFF800F0E8
:1054F000F5B80110DFF800F0B5C10110DFF800F0D9
:10550000A9C1011000B583B00821ADF800100190C9
:105510000521ADF80210684644490968884707BD6F
:10552000F0B589B004460D4616461F4608232422CE
:1055300000216846FBF76AF80F983D490968069014
:105540006B464FF47A70B0FBF1F101FB07F0059068
:1055500001FB06F20E98ADF8100029462046FBF735
:1055600075F8204609B0F0BDFBF758B838B50446C9
:105570000D46FCF79FFA10B12046FCF78DFA00F0BB
:1055800013F800FB05F12046FBF744F82046BDE880
:105590003240FBF743B880B5FCF78CFA00B101202C
:1055A000C0B202BDFCF778BA214909684FF47A709D
:1055B000B0FBF1F0704710B504460021FFF796FFED
:1055C000204610BD70B584B004460820ADF8000038
:1055D0000D460420ADF802000C2014490968019022
:1055E00016466846884758B9029949B18E602046E8
:1055F000FFF780FF15B12846FBF700F8012003E014
:105600003046FFF77FFF002004B070BD10B50446A0
:10561000FFF768FF38B92046FFF770FF8468FFF78F
:1056200071FF204610BD002010BD00009404002032
:10563000F06E0000401810F0030308D0C91A1FD301
:10564000DB0748BF00F8012D28BF20F8022D13000A
:1056500030B414461546103928BF20E93C00FAD86A
:10566000490728BF20E90C0048BF40F8042D8900F5
:1056700028BF20F8022D48BF00F8012D30BC70472C
:10568000C91818BF00F8012DCB0728BF00F8012D5D
:105690007047000000B583B00821ADF800100190FC
:1056A0000321ADF802106846DFF8B0140968884796
:1056B00007BD00B58FB008233C2200216846FEF7E5
:1056C00049F8DFF89C0400F15001079100234FF4E2
:1056D000217108916A46012106910FF23121FFF7ED
:1056E0005BFA0FB000BD10B584B000F0FBF90120EB
:1056F000DFF86814DFF86C440968ADF8020068460A
:1057000088479DF8040020700298A06004F13800DA
:10571000FFF751FFE06000230420019041F288323E
:105720000020009004F114000FF2F131FFF7F8FEB1
:105730000020606006211F20FEF7D2FF01208DF8B7
:1057400001000DF101020020ADF80A000121012045
:105750008DF800005020ADF808004FF44870ADF807
:1057600006000020ADF804004FF47A70ADF8020096
:1057700040F20530FFF714FA0DF10A02022140F25F
:105780000630FFF70DFA04F144021E214FF4427077
:10579000FFF706FA04F16402072140F20730FFF731
:1057A000FFF96A4601214FF44470FFF7F9F902AAA4
:1057B000022140F21130FFF7F3F90DF10602022148
:1057C00040F21230FFF7ECF901AA022140F2133047
:1057D000FFF7E6F90DF1020202214FF44570FFF7E1
:1057E000DFF904F16C0215210020FEF77AFEA021FA
:1057F0000620FEF775FFA0210720FEF771FFA0210C
:105800000820FEF76DFFA0210920FEF769FF0020A8
:10581000019001AA01208DF803008DF802000421F7
:1058200000208DF8010001208DF800004FF4816008
:10583000FEF7D2FF0DF1030201214FF48060FEF765
:10584000CBFF0DF10202012140F20240FEF7C4FF3E
:105850000DF10102012140F20340FEF7BDFF6A464F
:10586000012140F20640FEF7B7FF4FF0FF30FEF790
:1058700035FE4FF0FF30FEF7F0FD00F079F94FF004
:10588000FF3000F07FFA01208DF8030002208DF830
:10589000020003208DF8010004208DF8000001A80B
:1058A0000FF2C4210CC90CC00DF10302012100202C
:1058B00000F09AFA0DF102020121012000F094FAA1
:1058C0000DF101020121022000F08EFA6A46012149
:1058D000032000F089FA01AA0521042000F084FACF
:1058E00004F1900000F079FA04F18400FFF72EFB38
:1058F00004F18800FEF784FD2078FEF77EFD207815
:10590000FEF7C9FDFFF77BF81FBD00002DE9F04E43
:105910008EB0FFF7E8FE06AE4FF6FF7A914DDFF846
:105920003C9214E06888410711D54FF6FB7108409E
:10593000688005F11400FFF717FE02A9022000F0AD
:105940008FFA20B902AA0121032000F04DFA00F0DD
:10595000C9F80A20ADF802004FF0FF30019000F0C6
:10596000BDF80028DED10820ADF80C000920ADF804
:105970000E0003A800F0B3F89DF81220059F002840
:105980006DD1BDF810000124102804BF29788A4287
:1059900035D1388850451CD1B87800072FD52869F3
:1059A00068B36978491C697000F108020179408880
:1059B000FEF782FD162818BF042883461FD02869E9
:1059C000297840880022FFF77CF8584600F08EF8CE
:1059D00015E03878B02812D1787816280AD178885E
:1059E0000822FFF76EF828B9012000F07FF82F6138
:1059F000002404E0397907F10800FEF743FF77B38C
:105A00006CB33846FFF746FE29E006A94FF4417013
:105A1000FFF70DFA9DF818008DF800006A467078BF
:105A20008DF801000821B0788DF8020000208DF873
:105A300004008DF8030070798DF8070030798DF837
:105A40000600F0788DF80500002000F099F800F0CD
:105A500049F80520ADF80200019400F03FF8E8682D
:105A6000FFF740FD00287FF45DAFE868FFF7CEFD4B
:105A70000400F4D0208801280AD00228E7D1A078B9
:105A8000002818BF0228E2D102A900F0E9F9DEE7F8
:105A9000A0780128B9D0042808D0052802D006280B
:105AA00009D0D4E7142000F021F8D0E705F1140064
:105AB000FFF778FDF6E705F11400FFF755FDFEF757
:105AC00055FE504408A980B2FEF76AFE0028BED0F9
:105AD000694640F21530FFF7AAF9B8E76846D9F8E9
:105AE000001008470820ADF80000704710B51D4CA5
:105AF00022695AB120B1117902F10800FEF7C2FE05
:105B00002069FFF7C7FD00202061607010BD0146CD
:105B100001200AE00146022007E0000011494A88FE
:105B2000104348808868FAF769BD3EB50446FFF720
:105B3000D9FF0D4604200949ADF8020001906846DE
:105B40000968884740B9029A32B1148095700548B7
:105B50008168C068FFF736FD37BD0000940400205F
:105B6000681800206C0700200102030405000000F3
:105B70000FF204237D4810221321FEF771BC0000B0
:105B80002DE9F0430024082885B00E469146784F51
:105B900000F28A80DFE800F0050C1824303C4853FE
