:040000050000800176
:020000040000FA
:1000000040430020195F000001CA011001CA01101D
:1000100001CA011001CA011001CA011001CA011070
:1000200001CA011001CA011001CA011001CA011060
:1000300001CA011001CA01103FCA01102149086814
:10004000C2430A600A680242FAD170471E490A6830
:10005000002AFCD1CA610860C8690028FCD00020D1
:10006000C861486870471948016821F0020141F4ED
:100070000071016003211648816041F23001416145
:100080000121C160502141610121C1604FF4CA6169
:1000900041610121C160016070470E4802680A6039
:1000A00082684A60C2688A60406B4001400940F043
:1000B0008050C8607047704701461022064802F021
:1000C000EBBA00001010044000100440000004606F
:1000D000004104404C130050180000210149086001
:1000E00070470000A0020020704701207047000008
:0800F00020000000A80300201D
:100100003C0000000000000000000000340100007E
:1001100000000000000000000100000000000000DE
:1001200000000000000000000000000001000000CE
:100130000000000008000000000000003400000083
:100140000000000000000000680100000000000046
:10015000000000000100000000000000010000009D
:100160000000000000000000080000000000000087
:1001700030000000000000000000000098010000B6
:10018000040000000000000001000000FFFFFFFF6E
:10019000FF00000001000000080000000000000057
:1001A0002C0000000000000000000000C40100005E
:1001B000040000000000000001000000FFFFFFFF3E
:1001C000FFFFFFFF080000000000000034050000F2
:1001D000E401000099A1011095A70110A5C201102A
:1001E00009B2011045B80110000000000000000035
:1001F0002F000000280000000000000000000000A8
:10020000140200000000000000000000FFFFFFFFDC
:1002100000000000080000000000000030050000A1
:100220003002000069C201106DC101101FC201102F
:1002300095BA011000000000000000002D00000031
:10024000300500005402000075C20110A9B601106B
:100250009DBF011049B60110000000000000000021
:100260002E0000002400000000000000000000003C
:1002700080020000000000000000000000000000FC
:100280000800000000000000240000000000000042
:1002900000000000A40200000000000000000000B8
:1002A0000000000008000000000000002400000022
:1002B0000000000000000000C80200000000000074
:1002C0000100000000000000080000000000000025
:1002D00000000000100300200400000000000000E7
:1002E000000000002000000070010000300000004D
:1002F0001C02000030030020040000000000000089
:10030000000000000C000000300400001800000095
:10031000400200003803002004000000000000003C
:100320000000000024000000480400001800000045
:10033000000000007803002004000000000000001E
:100340000000000010000000A00100002C000000D0
:10035000CC01000080030020040000000000000029
:1003600000000000200000006402000024000000E3
:10037000FFFFFFFFA00300200400000000000000BA
:100380000000000028000000880200002400000097
:10039000FFFFFFFFC8030020040000000000000072
:1003A00000000000580000003C0100003400000084
:1003B000FFFFFFFFD003002004000000000000004A
:1003C00000000000100000006004000018000000A1
:1003D000FFFFFFFFD8030020040000000000000022
:1003E000000000001C000000AC020000240000001F
:1003F000FFFFFFFFE00300200400000000000000FA
:100400000000000038000000F40100002800000097
:10041000FFFFFFFF48040020040000000000000070
:100420000000000054000000000100003C0000003B
:100430001800000000000000000000004004000060
:10044000080000000000000018000000000000008C
:100450000000000058040000080000000000000038
:100460001800000000000000000000007004000000
:10047000080000000000000001000000545F0000C0
:01048000007B
:100484000100000000000C0000000D00320000001C
:10049400010000001803002000020000000000001A
:1004A40001CA011000000000000000000800000064
:1004B4000000210040030020010000008803002008
:1004C4000800000000000000000000000000000020
:1004D400000000000000000001000000E80300200C
:1004E400060000000100000050040020000000008D
:0C04F400000000000002000000000000FA
:0F0502002900010025002D002E002F000100010F
:1005140004000000445F0000000000000000000030
:10052400000001000000030087C40110380500002A
:10053400380500000000000090000000900000005A
:10054400000000008803002041FB0100200000009F
:10055400305F0000585D00000DC30110ED1C000069
:10056400EF1C000099C801109BC801100000000096
:1005740080040000985C0000B05C0000805C000017
:090584000800090001000000015B
:10059000000000000000000000000000000000005B
:1005A000431C0000631C00006B1B00008D1C00003E
:1005B000B11B0000871B0000E31B0000B91C0000FA
:1005C000B9FA0100F9FB0100FDFB01000800000081
:1005D0002400000018000000280000002000000097
:1005E0003C0000000C00000034000000DFF800F0C8
:1005F00049C10110DFF800F019C20110DFF800F066
:1006000041AC0110DFF800F0CDA00110DFF800F0E0
:1006100085C10110DFF800F0C1C20110DFF800F061
:10062000E3BF0110DFF800F0CDC10110DFF800F0EA
:100630003DC10110DFF800F0DDB20110DFF800F07D
:1006400085B00110DFF800F029AF0110DFF800F0ED
:1006500079B50110DFF800F0C1C10110DFF800F03A
:1006600009B70110DFF800F0E1C20110DFF800F077
:10067000B9C20110DFF800F0E9C20110DFF800F0A4
:1006800061C20110DFF800F0D5C00110DFF800F002
:10069000E1B5011020B1082328220021FFF7C2BFD5
:1006A000704720B1082330220021FFF7BFBF7047F9
:1006B00038B500F0DDFF25680DB129682160FFF72E
:1006C00099FF284632BD70B504460D4626680020C5
:1006D00028601EB9FFF78AFF25600DE0FFF786FF4F
:1006E00000E0366831680029FBD1AE4203D1FFF744
:1006F00081FF002070BD3560FFF77CFF012070BDD9
:10070000DFF8FC1C10B100200870202088707047B2
:10071000F8B50546FFF76AFFDFF8E07B0446387E50
:10072000E8B1401E3876C0B2C8B9082107F15000C0
:1007300001F0D9F99DB1B86B683001F0ADF9B86B33
:10074000DFF8341DC0680968281A07F1F006B0FB0D
:10075000F1F13046FFF75EFF3046FFF75FFF2046BE
:10076000BDE8F240FFF746BF38B50446207B00F0F5
:100770000F00022802BFDFF8845B287D002815D116
:1007800000F0E6FCA1688908A1EB90006FF07041D1
:1007900088420BDA10F1805FBCBFDFF8E01C08185C
:1007A000A96BC96801F57A71814200DB002032BD76
:1007B00038B5DFF8500CDFF8502C0168DFF83C5BEF
:1007C00002EA0104E1430160A10606D54068800603
:1007D00003D54FF4005100F060FB14F4602F0DD0EE
:1007E000DFF89C0CC16904F460221143C16105F17A
:1007F000A000BDE83440002101F075B931BDF8B565
:10080000FFF7F4FEDFF8787C3C1D0646A06910F483
:10081000602F25D0C5012D0EE80748BF002506D45E
:10082000A80748BF012502D4680748BF0225681DF4
:1008300040B200F0A5FFA069012105F1110291402D
:100840008843A06100F06CFD07EB850086683000EE
:1008500008D0206800224FF00063691DB04701E016
:1008600000F05EFDA06920B10021DFF8180C01F056
:100870003AF9607F80070DD52569280006D02068E9
:1008800000224FF000436FF00101A847607F00F0A5
:10089000FD006077F1BD70B5FFF7D0FBDFF85C5A63
:1008A000DFF8584DAB6A024690071DD4D3E9060124
:1008B000104007D0EB62196A084318624FF4804178
:1008C00000F0EBFAA86A002849D16E6A002E46D0E3
:1008D000F068A96B884224D005F15000BDE8704053
:1008E0004FF4805101F0FFB80BB9A86AEAE7002085
:1008F000A862D3E906011E6A024042F002023243B6
:100900001A62626982436261E26822EA0100E06081
:10091000194605F13000FFF7D6FE022100F0BDFABE
:10092000E3E7B068FFF720FFE86418B1E86CBDE8C2
:100930007040EDE6D6E90601626902436261E26851
:1009400041EA0200E0600020E061B0682060E069F8
:100950000028FCD005F12400FFF7AAFEAE6270BDAE
:100960000020D5E6F8B506461446B76D1D4607B11A
:10097000B847A00706D4D6E914012040294008BF93
:10098000002807D0C6E9184506F13000BDE8F2405E
:10099000FFF734BEF1BD80B501F098F8DFF85C29AF
:1009A0000146906BD26BBDE80840104710B5DFF8E8
:1009B0004C4901F0A7F92064042104F15000BDE87E
:1009C000104001F090B880B5FFF738FBDFF8301C1D
:1009D000084207D0BDE804404FF00051DFF84C0D4D
:1009E00001F081B801BD10B504294AD1DFF80C49E6
:1009F000606AA16B08B1C16805E0DFF86C0C427F4A
:100A0000D20748BF0168A1630846DFF8601C42684E
:100A100012780A60096840680078814200D0FEE7D9
:100A2000022001F0B1FA112001F0C3FA0120607731
:100A3000A06BE17E007C084204BF0E2001F0B9FAF1
:100A4000A06BDFF8B81B40688268002A04BFC0684A
:100A5000002804D00020C861DFF82C0C086040F2A8
:100A6000FF70DFF8282C106000208861DFF8900B01
:100A700048610FF21100E0631920BDE81040FFF754
:100A8000D9BD10BD10B5044688002CD560684068FB
:100A9000010018BF804760688168002904BFC068F2
:100AA000002814D0DFF8340C01680029FAD00021A6
:100AB000016060688068010018BF80476068C06896
:100AC000010018BF8047DFF8180CFFF7BFFADFF806
:100AD0002C080FF21501C1634FF00051BDE8104022
:100AE000503001F000B810BDF0B50446880085B064
:100AF00074D5DFF8085BDFF804680020E861DFF8F0
:100B0000180D2860707E10B10120FFF7F9FD00215B
:100B100071800FF20910317BF06301F0F001317345
:100B200040F60A00002171603080717B01F0F00115
:100B300041F0010171730021A768798000E00F4640
:100B4000796800291CBF0A888242F8D1787B7E60D0
:100B500000F0F000787340F60301706A8068008846
:100B600088421CBF40F60401884202D10020306454
:100B700015E0208B98B104F11800002141804160FC
:100B8000017B01F0F0010173417B01F0F00141F0C4
:100B9000010141737060707B00F0F0007073694672
:100BA000A068FFF77AFA6846FFF786FAA068FFF7B1
:100BB00082FAE8690028FCD00020E861012001F0F9
:100BC000B7FC012808D0787B00F0F00040F001006D
:100BD00078730FF20D00F063A068286005B0F0BDD7
:100BE000012010B501F0A4FC0128DFF8104708D15E
:100BF0000FF22900E063DFF8040A0460002020649B
:100C000010BDDFF8741809683220F03400F083FB5F
:100C10002046BDE81040FFF701BD0000FEB50646C6
:100C20000C466004DFF8D45617D5FFF7DFFCEE6AF8
:100C3000376AFFF7DFFCB8070CD45EB1306AB843FF
:100C40003062706830B1B6F91010F06876683A46D4
:100C50000023B04724F480441AE1A00770D52F6B1D
:100C6000002F65D03E1D2020716801E04968401EBC
:100C700079B1C0B268B10A8840F603039A421CBF3A
:100C800040F604039A42F1D1B0681822183001F0FE
:100C900013FDF0690021F1613168D1B140F0020229
:100CA00097F824000023012807D0022809D004283F
:100CB00004BF00224FF0805306E000224FF00053A3
:100CC00002E000224FF08043B6F90C10B06837689C
:100CD000B847E88E401C0005000DE88605F130009D
:100CE000FFF7E6FCB5F93610B06800F18C02B2F9F6
:100CF0000030994204BF297D002919D1917809B9A2
:100D0000016821B900209070FFF702FD10E0AA6B86
:100D1000126812F1010F0BD0DFF85C271268B1FBEB
:100D2000F2F16830FFF776FCB0686830FFF776FCC8
:100D3000286B002824F0020401D044F00204A7E04C
:100D4000A00005F184073FD50022DFF8EC1B3846F0
:100D500000F0DCFEF06840F6C411884218D104208F
:100D600001F0E6FB00281CBF286C002810D0686C3E
:100D700070B900F0C7FF6864696C286C884228BFAE
:100D8000491E081A000BF060F06800F58D70F060E5
:100D9000287F60B10220ADF800006846FFF756F9E1
:100DA000BDF80800DFF8D816088300202877012056
:100DB000687524F00054287E401C2876002068774F
:100DC000192000F0A6FE63E095F8200024F0080644
:100DD00028B1200703D5002085F8200045E0200732
:100DE00045D5002068750120A877687E10B10020E5
:100DF000FFF786FC0FF2AD00DFF8401BE86300222E
:100E0000384600F083FE297FE87EDFF8847881F0A1
:100E10000101084240F6090402D10120E8760FE002
:100E2000E86CF0B100F06EFF296CAA6C401A02EB7E
:100E30001030A864E96CB0EBC11F12D30020A86485
:100E40002C80687B00F0F00040F001006873002007
:100E50006880287B00F0F0002873002068603D6007
:100E600003E04FF0005100F018F8344610E0A00401
:100E70000ED5AE6A002E1CBF7068002806D0B6F9E9
:100E80001010F068766800222023B04724F4005444
:100E900014B1214600F001F8F7BD05F1500000F053
:100EA00022BE000038B50546880028D5FFF7DBF8DC
:100EB000DFF84844DFF8880AE063A07D18B905F13F
:100EC0003000FFF79BFBDFF8C4170020086002200A
:100ED00000F0F0FF112001F001F8287C10B90E207D
:100EE00000F0FCFF0020E083A07E40B10020A0764F
:100EF000042104F15000BDE8344000F0F4BD31BDE0
:100F000030B58DB000F05AFFDFF8380ADFF8385AF4
:100F10000168DFF8E84341F00201016001A8FFF732
:100F2000B9FBA878DFF8241A0790002301AA04F17E
:100F30005000FFF783FB01A8FFF7B3FB0020ADF8DB
:100F40001C0001AB2878DFF8F42909901921002052
:100F5000009004F18400FFF775FB01A8FFF79AFBEE
:100F6000E878DFF8EC190790002301AA04F1A0004B
:100F7000FFF764FB01A8FFF794FB0120ADF81C000C
:100F800001AB6878DFF8CC2909901A210020009085
:100F900004F1D400FFF756FB00230022DFF8B81954
:100FA00004F1F000FFF752FBDFF89409E06301F071
:100FB000B9FB012818BF002060764FF6FF71DFF8FB
:100FC0009C0901800121217700214172E17661773E
:100FD000E18384F820100DB030BD2DE9F041C74EFB
:100FE0008CB00446B07D0F4690461D4618B9FFF7F9
:100FF00087FF0120B075002F1CBF6760B8F1000F9C
:101000003FD0C4F80880FFF7F1FAF17DB9BB0121A8
:10101000F175FFF7EFFA2DB90FF68C112CC9684660
:101020002CC06D462868206078216868E060287AC6
:10103000207404F1180001F0DDFB082324220021B4
:1010400003A8FFF707FB01208DF8240003AA002165
:1010500004F13000FFF702FB08232422002103A83B
:10106000FFF7D4FA099403AB0022DFF8F41804F177
:101070006800FFF7EBFA20460CB0BDE8F081FFF7FF
:10108000B9FA0020F8E738B5DFF8D8580446A87D4B
:1010900000285CD0B5F93400B5F93610884207D085
:1010A000B4F98C1002224FF0E043204600F03BF9E7
:1010B000FFF79CFAE97D002938D0491EE975C9B2CD
:1010C000A1BBFFF797FA0020A875687D40B100200A
:1010D000FFF71EFB4FF0FF3104F13000FFF792FAEB
:1010E00004F13000FFF7BEFA04F16800FFF7BEFA22
:1010F00005F15000FFF7BEFA05F18400FFF7BEFAD4
:1011000005F1A000FFF7B6FA05F1D400FFF7B6FA33
:1011100005F1F000FFF7AAFA0020A8632875207CEB
:10112000A8B1BDE832400E2000F0D8BEFFF762FA49
:10113000A86BA04204BF0020A86304F13000FFF7B1
:1011400091FA04F16800BDE83240FFF78FBA31BD73
:10115000D0B5FFF74BFA694C617D31B1DFF8081863
:101160000C68FFF747FA2046D0BDFFF743FA00F0BE
:10117000C9FD10F50030DFF8F42741F10001A2FBB2
:10118000006702FB017721690020321847EB010359
:101190001846D0BD2DE9F84F04460E4692469B46B0
:1011A000FFF724FA554D0246B5F93400B5F936106B
:1011B000401A0005000D08286FF0010944DAA88ED6
:1011C000401C0005000DA886B5F93400ADF80000FC
:1011D0001046FFF70FFABDF90000DFF894178210F0
:1011E00000EB5272D210A0EBC200282202FB0018C2
:1011F00004F1680000F050FC08F1040720217E6033
:1012000087F80EA0C7F800B008F11806BDF8000076
:10121000B881BC60DDE90A23DFF8580710401940A7
:10122000C6E900010020307304F18C06686A40F6BC
:10123000FF7490B1FFF7DAF9074600F067F838B9A4
:1012400000F05EF8384600E01046FFF7D3F909E0F9
:10125000BDF800003080384644E000F057F818B977
:1012600000F04EF8484647E0BDF800003080FFF738
:10127000BDF90021B1706A7DE97F114208D00121DA
:1012800085F820100021E9772977297E491C2976E5
:10129000FFF7B0F9A86A68BB687D18B1192000F0A3
:1012A00038FC27E0687F28BBFFF7A0F90646A87F37
:1012B00020B100F035F80120A8761BE07868FFF730
:1012C00053FAE86488B1E86CA96BC968401ADFF882
:1012D000A816096805F1F00400F01DF82046FFF794
:1012E0009DF93046FFF786F904E000F019F8042173
:1012F000FFF7D3FDBDF90000BDE8F28F4C1A0020C6
:10130000A88E20180005000DA8867047414605F1FB
:101310002400FFF7D8B9B0FBF1F12046FFF77AB906
:101320003046FFF767B9F8B506460F4614461D4626
:10133000FFF7A8F9DFF82C26B2F93430DB1BB2F93D
:1013400036301FD5BB42BEBFB2F93430B2F93620B9
:1013500093421FDABB1007EB5373DB10A7EBC301FB
:10136000DFF80C26282303FB0127072297F8241017
:10137000114214D0FFF78AF9072197F82400084298
:10138000FBD109E0BB42A2BFB2F93430B2F936203A
:101390009342DFDBFFF77AF902200021F4BD7A687F
:1013A000DFF8D8158A4202D07A68B2657960C6E95A
:1013B0001445FFF76BF94FF0FF3106F13000FFF7EE
:1013C00021F9D6E91801F4BDDCB50446180008BFC0
:1013D000DFF8A835DDE90667CDE900672046FFF7AD
:1013E000D9FE002803D500204FF00041DCBD0146A6
:1013F000204602B0BDE8D04002224FF0E04392E721
:10140000006208400810044020000E0070B500F093
:101410002FF90546DFF84C650120307704F18C0187
:10142000B6F93400B1F90020801A0CD5B6F93600AF
:10143000B1F900209042BEBFB6F93400B6F93620AB
:10144000904210DB05E0B1F90000B6F93620904279
:1014500009D104F1680000F01FFB0020FFF758F9E4
:101460000120F07703E001208870002030752846C5
:10147000BDE87040FFF7BEB81CFC0100F6FFFF1F7F
:10148000281A0020EC1A002001E042F002022DE9A7
:10149000F047DFF8D04482B0606A00908A460026A8
:1014A00003271546FFF7A2F81AF1010F05F001080E
:1014B00081460CD1A06ADFF8C814002819BFA06AC1
:1014C000B0F910A0E08E00F1010A81F821600FFA56
:1014D0008AF2911002EB5171C910A2EBC101DFF841
:1014E0009004282202FB010AA06A824505F0020549
:1014F00027D115B1606A0090666201219AF8240034
:1015000001FA08F108438AF82400FFF7BBF8064601
:10151000B8F1000F14BFDFF86C04DFF86C04FEF7BD
:1015200095FD00F0BFF925B906E000F06CF800F079
:1015300074F800980028F8D13046FFF7A7F8832701
:1015400059E00098504504F1F0081BD1404600F0E6
:10155000A3FA002D11BF6662606A0068606200F045
:10156000A1F900F04FF800F058F80098002818BFD3
:10157000002DF6D183272FE00126832700F042F8C3
:1015800000F04BF8009810B30068504519D1404660
:1015900000F082FA00980068009A00211160009023
:1015A00000F080F9002DE7D1009890F82400009910
:1015B00040F0040081F82400832700F02BF800F0AD
:1015C0002CF8002EDAD1009800680090DAE7832F1B
:1015D0001CBF4846FFF70EF8607F10B100F022F8FC
:1015E00009E0DFF8A803E06300F01CF8607D10B9A3
:1015F000DFF84C03E0633846BDE8F687001004408E
:1016000002000040009890F82400009940F0040087
:1016100081F824006846FFF74BB8014604F130001A
:10162000FFF751B8022104F1500000F05CBA10B588
:101630000FF274311CC91CC010BD38B500F018F889
:101640000546C848407D58B12046FEF7FFFC0446D9
:1016500000F048F8E0B201280CBF8120022032BD22
:1016600000F040F8012032BD2C1A0020D0210840A3
:101670000446FEF7BBBF0A46BA49896B884201D0CF
:10168000032070470DE000005100070600000460D1
:10169000001004400A46B349896B884201D00320F8
:1016A000704700211046C8E770B5AE498A6B90427A
:1016B0006FF07F0410D1487D70B1FEF797FF0546AB
:1016C000B348FEF7C3FC064600F00CF8F0B2012860
:1016D00002D13002001670BD204670BD1C100440BF
:1016E000010007062846FEF785BF70B50E46154671
:1016F000FEF77CFF83249B491EB1022E0ED005D33A
:101700000FE08A6A42B1896A098A03E0097F19B940
:101710009B49098B298005E0802403E0497D2970DD
:1017200000E00324FEF766FF204670BD9C1A0020EF
:101730008A1001EB5272D210A1EBC2018C48282210
:1017400002FB01008068704710B58649097FA1B986
:10175000028B012303FA01F422420AD0A24302833E
:1017600001F10C048B480268A3401A43026008464A
:1017700010BD491C49B20F29ECDB6FF0010010BD10
:1017800038B5FFF775FF75494A7A520702D50B7ACB
:101790009C4210D001220B8802FA04F52B430B80E7
:1017A0000C347C490B68A24023EA02020A600968F3
:1017B00009B96C4A1175BDE83240FEF71BBF2DE92F
:1017C000F041684D0E46A96B8842984618BF032029
:1017D00020D10A2131807260694C60602660204609
:1017E000FFF7B2FF070014D4B77000213046FFF7AF
:1017F00024FF022818BF012805D13846FFF7C0FF93
:101800006FF0010705E004EB870040F80C8C012025
:1018100028753846BDE8F08101010E042DE9F04736
:10182000504E8046B06B80450D46924618BF03204F
:1018300036D1534F3846FFF787FF0446002C2ED48D
:10184000FEF7D4FE8146200200F4706005434FF697
:10185000FC7028405049084338603868FEF7F6FBB2
:10186000C0B2012814D1E80409D500F05BF887F86C
:10187000204097F8210040F0040087F8210007EB92
:101880008400C7F8048040F80CAC0120307504E0F7
:101890002046FFF775FF6FF0010400F003F82046C3
:1018A000BDE8F0874846FEF7A5BE0A462D49896B7C
:1018B000884201D0032070474FF6FC701040374A31
:1018C00000211043B9E670B50C462649896B884261
:1018D00001D0032070BD324841784A0707D503780C
:1018E0009C4204D101F0FB01417000210170FEF720
:1018F0007DFE05462046FFF743FF4FF6FC7000EAE9
:10190000042040F0816040F00100FEF79FFB064696
:1019100000F008F8FFF7E6FEF0B201280CBF8120C6
:10192000022070BD1F480122016804F10C039A4097
:10193000914301607047000097080000C70900004C
:10194000E7090000002009407C5C000097090000C6
:10195000FF070000B1070000AD090000401A002099
:10196000610900004C1A00200430044000093D00C9
:10197000E8050020F1EFFF9F1CFC01006509000055
:10198000281A002001000204010001041D0C0000BF
:10199000010003040C1004400100030601000406CA
:1019A000481A002008100440FFFFFFFFC409000090
:1019B00001000000DFF800F021B30110DFF800F0B3
:1019C00095C00110DFF800F00DA80110DFF800F05D
:1019D000BDBE0110DFF8F000007D70476BE038B548
:1019E000FFF7FCFFDFF8F0500446A8680021FFF77E
:1019F000E5FF6969081AA969814238BF002084F3AC
:101A0000118832BD2DE9F041FFF7E8FFDFF8C8503B
:101A10000446A8680121FFF7D1FF0121A983002115
:101A2000E9836E6929682A68871B801A711A8842BF
:101A300004D20020A88384F311882BE084F311885A
:101A4000002406E0A61931460120FFF7BBFF3F1B2B
:101A50000446A742F6D2FFF7C1FF8046E88B012873
:101A600004D131460020FFF7ADFF0446A96914F107
:101A7000010F08BF084603D0E01B814238BF08466B
:101A80008119FFF7A3FF012028840020A8832E607E
:101A900088F31188BDE8F08100218182DFF83410DD
:101AA000C0684969884204D1DFF858000068FEF731
:101AB000B5BD70477047DFF848100968EFF3118033
:101AC00081F311887047F6E7A4010020DFF83800A1
:101AD000806870477801002078010020616280F3FF
:101AE00011882046704738B504460D46FFF7EBFFD6
:101AF000616A2943FFF7F2FFBDE83240FFF75ABFA2
:101B0000F0000000F4000000C80100208160426085
:101B10007047102804D3DFF80C101038C1F8000FFC
:101B20007047000000E000E000F07FBEFFF7C3BF99
:101B3000DFF89411C20744BF01220A60820744BF44
:101B40004FF480720A60400744BF4FF48030086051
:101B50007047DFF87821C30748BF1160830748BF8B
:101B60005160400748BF9160704710B5044600209F
:101B7000D4E90A2347F6906101F0E2F8012928BF71
:101B80004FF0FF3010BD10B50C4600F0B1F8011D4C
:101B9000201AB0F1004F05D8081BB0F1004F38BF34
:101BA0008C4200D20C462146BDE810400120D0E70F
:101BB0002DE9F04180460A46D8E90A01D8E90C45EA
:101BC000A0FB026701FB0277A6196F41340C0022CB
:101BD00044EA07414046FFF7D6FFC8E90E67BDE873
:101BE000F081F8B50646FFF7A1FF0446DFF8E050A4
:101BF000DFF8E0700120E861FFF79AFFF96A096AEF
:101C0000142088473069B0F5802F34BF0421010CBF
:101C10000120FFF79EFF3A681268232100209047B9
:101C2000DFF8B41001200860DFF8B400016821F487
:101C3000E02141F4803101600120286084F31188A3
:101C4000F1BD00F05FB810B5DFF89000446800F017
:101C500006F86069A169BDE810400847000001204E
:101C600066E7F8B504460D4600F04CF8D4E90A677B
:101C700032463B4601F064F83DB1A6FB002306FB6B
:101C8000013307FB0033C4E90C23F2BD10B5DFF8C4
:101C90004000DFF85040002101600121C161216056
:101CA0002068FFF7DCFFDFF840100968096A14209C
:101CB0008847206810BD000080B500F023F8000CB4
:101CC00040EA014002BD00000420094018200940FC
:101CD000000024438401001080022443E40100201A
:101CE000002009402C200940B0010010FEE7704799
:101CF00009480168426803689942FAD1100C40EA29
:101D00000140704710B5044A136850681468A34234
:101D10001946F9D110BD000008200940DFF800F095
:101D2000F5C00110DFF800F049BA011020B1082316
:101D300024220021FEF76ABC704780B50120009084
:101D400009234FF400720021DFF8040701F0B0F816
:101D500001BD80B5002301223421DFF8F40601F033
:101D6000BAF800B10120C0B202BDDFF8E806806811
:101D70007047DFF8E016401890F8ED007047002239
:101D8000022904D1012806D140F2EE2203E0012805
:101D900008BF4FF47A7210467047DFF8B806D0F8E3
:101DA000DC007047DFF8AC0690F8E60028B1DFF8F9
:101DB000A8064068010018BF004770472DE9F041B0
:101DC000DFF8908608F1E1058AB0A87900285ED195
:101DD0000120A871DFF88066DFF88076307B6871BB
:101DE00001A8FFF7A3FF00200690ADF814000790AC
:101DF00001AB00220FF2F54108F10C00FEF726FCC2
:101E000001AB00220FF2A15108F13000FEF71EFCD9
:101E100001AB00220FF2D94108F15400FEF716FC85
:101E2000B16801208847DFF8380600787868C0F389
:101E30008154707B20B1032C02D10120287003E073
:101E4000032C18BF022C16D1022000F09DF8032CA1
:101E5000DFF810160CBF4FF47A7042F21070096868
:101E6000B0FBF1F108F15400FEF7D4FB08F1540087
:101E7000FEF7D4FB05E0012C03D100F063FAFFF775
:101E80005CFF386840075CBF002000F07DF80AB0B6
:101E9000BDE8F08110B508B1140001D1022010BDD9
:101EA0008160C26003610146DFF8A80501F02EF8E9
:101EB000002010BD10B50446FEF798FBDFF894151E
:101EC000621892F8E8305B1E82F8E830DBB223B982
:101ED0008A680123A3409A438A6066E02DE9F041B5
:101EE0000546FEF783FB8046DFF86815681890F812
:101EF000ED20521E80F8ED20D2B2002A3FD10FF221
:101F0000A050DFF8644500EB85052E786F88300619
:101F100015D52168096A384688472168896A384694
:101F200088472168096B38468847DFF8401501204B
:101F30000860DFF83C0500688007FAD512E07006FB
:101F400006D501EB87010020D1F80011884709E090
:101F500021688969384688472168496B384688472F
:101F60000228F9D106F03F003F2818BFFFF7B6FF5F
:101F7000687800F03F003F2818BFFFF7AFFF4046EA
:101F8000BDE8F041FEF736BB10B50446FEF72EFB68
:101F9000DFF8C0148A680123A3401A438A606118DD
:101FA00091F8E820521C81F8E820BDE81040FEF7C7
:101FB00021BBF8B50646FEF719FB0446DFF894543A
:101FC000701990F8ED104A1C002980F8ED2039D1E5
:101FD0000FF2CC4000EB8607387800F03F003F2836
:101FE00018BFFFF7E6FF787800F03F003F2818BFE2
:101FF000FFF7DFFF7E883878DFF86C7401060ED5B6
:102000003968C969304688473968496A304688471F
:102010003968C96A3046884700F019F812E040066E
:1020200006D505EB86010120D1F80011884709E0AB
:1020300039684969304688473968496B304688476E
:102040000128F9D12046BDE8F240FEF7D3BADFF807
:102050001C1401200860DFF8180400688007FAD516
:1020600070472DE9F04F002483B04FF0000A01289B
:10207000D04618BF012664D1DFF8D893D9F8DC0028
:1020800001285DD10220C9F8DC00FFF747FE00906F
:10209000012000F062F9060054D1FEF7F3FADFF8F0
:1020A000DC1301900C60012000F042FA012804D1F9
:1020B000002000F0A7F94FF0010ADFF8B813DFF8AD
:1020C000B8030C6000681120FFF753FE08B14FF011
:1020D00001081020FFF74DFE08B148F002080F205C
:1020E000FFF747FE08B148F004080B20FFF741FE58
:1020F000DFF8746320B13168096B4FF48060884762
:102100000A20FFF736FE20B13168096B4FF4816079
:102110008847DFF85813DFF86873DFF868B30120E9
:10212000086048F02000316889698847DFF8581353
:102130000120086099F80800C00707D5012416E0BF
:10214000042673E00120C9F8DC006CE0584600F07A
:10215000FFFE0546042DF9D0012D04D1326A5268E4
:102160000321584690473868800880003860002076
:1021700000F0F6FEC04800683068806B804754B9B4
:10218000012D04D1326A52680121584690473868BF
:1021900040F0030038600120B649086040463168CD
:1021A000496988470B20FFF7E4FD20B13168C96A0F
:1021B0004FF4806088470A20FFF7DBFD20B13168CB
:1021C000C96A4FF481608847A8490120086000204F
:1021D000AD4908600320C9F8DC003168496B40460E
:1021E00088470128F9D1042000F0B7F8A34901205D
:1021F0000860A1480068A54800688006FBD5BAF1D0
:10220000000F1CBF012000F0FDF800F0F3FF0820D4
:1022100000F0A3F806460120C9F8DC000198FEF79B
:1022200035FA00F06CFF0098FFF77CFD3046BDE802
:10223000FE8F38B50446FEF7D9F905462146854894
:1022400000F078FE28464CE030B5002401288BB021
:1022500004D021D303281DD018D31DE001A8FFF717
:1022600065FD7C4D8A490694ADF81440079401AB96
:10227000012205F17800FEF7E9F900940023854A70
:102280002C2105F19C00FEF7DDF905E000F0CAFF06
:10229000044601E001F06CF820460BB030BD0000B0
:1022A00000F053B938B5FEF7A1F90546694890F832
:1022B000E000012410B1FFF74CFD04462846FEF76C
:1022C00099F9204632BD38B5FEF790F9614D0446C4
:1022D00095F8E00020B100F07EF9002085F8E000DC
:1022E0002046BDE83240FEF785B900007047000087
:1022F00010B582B0042000F01BF9022818BF032893
:1023000007D100F01FF8FFF718FDBDE816400220C6
:10231000D0E56148534900684E4CC0F38150032812
:102320000CBF4FF47A7041F288300968B0FBF1F1CC
:1023300004F15400FEF76EF904F15400BDE81640B4
:10234000FEF76CB9032000901C234FF0405200218F
:102350003F4800F0ADBD0020704770B504463D4ECB
:10236000304600F0C9FD002598B9304600F0CAFD9E
:102370000646B068204207D03269F3680021204643
:1023800098470546012D05D0304600F0BDFD0600FA
:10239000EFD1284670BD414901280CBF40F2FF70C3
:1023A000002008600020704770B5FEF71FF9294E25
:1023B000294D044696F8E00028B100F00CF968B108
:1023C000002086F8E0000220AD68A84706461020ED
:1023D000FFF7C3FF8EB10320A8470EE0214909682B
:1023E0003220B0FBF1F101B9012106F13000FEF716
:1023F00011F906F13000FEF711F92046BDE87040F2
:10240000FEF7F8B838B501281ED100F091F8012880
:102410001CD000F0D6F80F4C1249012084F8E000DF
:1024200032200968B0FBF1F505B9012504F130004F
:10243000FFF732FB294604F13000FEF7EBF804F118
:102440003000FEF7EBF801E000F0E7F8002032BDC5
:1024500000A00C40D00400203C5C0000B03F0050C5
:10246000641D00201CFC0100B80100102820086039
:1024700028200840000222432C2009400C4009403B
:102480002422084000400340800104431410094006
:10249000A13400007D320000B43F00500000046011
:1024A0008F3F00008F3F01008F3F02008F3F0300EE
:1024B000903F00018F3F0101903F0002903F0003D9
:1024C0008F3F01048F3F00058F1208048F3F0004E7
:1024D0008F3F0006513F00007F3F01003F3F040057
:1024E0003F3F02003F3F01007F3F020070B50446BE
:1024F000E00782B00D46614E05D5A8B200900023DA
:10250000012200F011F8A00705D5A8B20090012320
:10251000022200F009F8600705D5ADB2009502234C
:102520000C2200F001F873BD0021304600F0C0BC61
:102530000146042907BF1D234FF0C0421C234FF062
:1025400080524E48342100F0C6BC70B50546FFF7F6
:10255000CFFB4B4CA168401A4FF47A714843060CEC
:1025600001F06EF82169401A48BF4042711940F6E7
:10257000B932914207D2062805DAA068E1688142A3
:1025800001D3226852B93F494A68D2074FF4FA6032
:1025900016D40868C0B27D21484308E0081A3A49B9
:1025A0004843000C00EB9000904238BF1046C8280A
:1025B00001D2C82070BDB0F57A6F88BF4FF47A6041
:1025C00070BD80B501210320FFF790FFFFF790FB5E
:1025D0002B49886001BD80B50120FFF7A9FF0128C4
:1025E00019D0002301223421244800F074FC98B152
:1025F00000F026F8FFF77CFB21498B680A68C86069
:10260000A2EB9202C01A204B5843000C0860904283
:1026100038BF10460860012002BD10B5002103201C
:10262000FFF764FF0120FFF783FF08B100F008F80F
:10263000134CFFF75DFB606001F002F8206110BDF4
:102640001248006801F010B810B511490A68114924
:102650000968140424161B384443E41004EB224494
:10266000120600FB00F3121609065A4358430916D6
:1026700004EBA222484302EBA04010BD00A00C4096
:10268000401D0020AC3F005040420F008000001071
:1026900090130050A410005062B38B0708D0521E54
:1026A00011F8013B00F8013B00F024808B07F6D1C4
:1026B000830740F0208000BF103A07D330B4B1E860
:1026C0003810103AA0E83810F9D230BC530724BFB4
:1026D000B1E80810A0E8081044BF51F8043B40F8E6
:1026E000043BD20724BF31F8022B20F8022B44BF51
:1026F0000B7803707047083A07D3B1E80810083A1E
:1027000040F8043B40F804CBF7D25307E4E700005D
:1027100030480068000C00F00700052828BF4FF083
:10272000FF3070472C490A68C2F30F324BF69A13F8
:102730009A424FF0FF3007D10868000F0B2801D1F3
:1027400004207047002070474BF6BE118A4201D129
:10275000012070474BF641318A4201D10320704776
:102760004BF620318A4208BF022070471A48F8B55C
:102770000068050F19480068C6B2802E28BF0026E1
:10278000FFF7D0FF4FF0FF3406F10A0730B10228FF
:102790001BD012D3042819D017D318E0012D12D062
:1027A000032D06D0072D06D0082D08BF06F116040C
:1027B0000DE014240BE0152409E025B1022D08BF1B
:1027C00006F1140403E00A2401E005B93C4660B2B6
:1027D000F2BD00009412005018130050A0100050D9
:1027E00080B5FFF79FFF18B9FFF7C0FF162800DA82
:1027F000FEE701BD002200F053BF000038B51446CB
:102800000D1800F0F3FC401E8041C00FDFF8841467
:102810000A68002AFCD02C6001220A6000281CBF34
:10282000BDE8314000F0E6BC31BD38B5DFF86804E2
:10283000DFF86854046814F1010F08BF0024FFF7A3
:10284000CFFFDFF85C14002008600120DFF854148B
:102850000860DFF85414086028680028FCD1DFF80D
:102860004C04DFF84C24416812688908890041F063
:10287000005141F00401520748BF41F001010BD45F
:10288000026812F0030F07D041F0030242600268B1
:1028900002F00302032AFAD14160DFF8180400684D
:1028A00028B1DFF814040068204600F031F8DFF8A2
:1028B0000C14DFF80C2400200860DFF8080401681D
:1028C0006FF31B4111430160DFF8FC030168C1F3A2
:1028D0000131012907D10168DFF8F023114041F4EB
:1028E00000320260016028680028FCD131BDDFF8A9
:1028F000E01382B20A60C0F307404860012088609C
:10290000DFF8D00300680028FAD000208860704704
:102910002DE9F84F0446DFF8C00301210160DFF81C
:10292000BC1309680029FAD0C021DFF8B493DFF89E
:10293000B463DFF8B453DFF8B473C9F80010B168BA
:1029400089075DBF7168090C41F0F001722129709F
:1029500000210163D6F80C803868C0F3046000F0F1
:10296000EBF94FEA2871491C08181628A8BF152052
:1029700004DA6FF009018842B8BF084600F01F0072
:1029800040F4F8502883DA4DDA480068800748BFE1
:1029900048F04068D848C8F3C06181F00101016087
:1029A0005FEA8832C8F3806181F0010181602968A3
:1029B000C1F38360C1F38F2121D44FEA084212167C
:1029C0004FF6FF7307E0490804D11946400804BFD9
:1029D00001200121521C002AF5D4012A0FDB4900F5
:1029E00041F00101B1F5803F21BF0121400040F0DD
:1029F0000100102824BF0F201946521EEDE7DFF812
:102A0000FCA241EA0042182100F094F928682968E4
:102A1000C0F3870001F0030140EA01200090002389
:102A200040F2FF322C21504600F042FAE86A82045C
:102A3000920C1C2100F07EF9686A20F00332142108
:102A400000F078F9286AAE4901EA0002102100F08E
:102A500071F9A86AB368DB07C0F30351C0F30342FE
:102A60000BD473684FEA035C01EB2C711B0481F3F8
:102A7000040102EB237282F30402120442EA0151C0
:102A800082B20A43222C24BF00F0804002430C2172
:102A900000F050F90120222C03D3E86B000F00F066
:102AA0000100DFF860B2400040F020008BF8080021
:102AB0000120222C03D3E86B400F00F0010000221C
:102AC00040F01000202C8BF8080007D3A86CC10C34
:102AD00001F44071C0F3845040EA0102282100F063
:102AE00029F90020202C03D3A86C000D00F003006E
:102AF000400040F060008BF80B000020222C03D334
:102B0000E86BC00E00F00100C00040F080008BF8C0
:102B100000000020222C03D3E86B400D00F03F00A2
:102B20008000794940F47C40202C0880774A0AD301
:102B3000A86C0203810A02F47C1242EA815100F07F
:102B40000F0041EA0032082100F0F4F8704C4FF415
:102B50008000206040F20F22F96D6E4889B29142E8
:102B600012D279687A68C1F30361C2F3034201B1FA
:102B7000491E072A05D0062A0EBF0722921C02F022
:102B80000F0241EA021101704FEA984101F003017E
:102B9000012902D0022927D023E0E96B8A0320D43F
:102BA0004FF4804222604B0AD0F80A2022F08F02B4
:102BB00003F080031A43C1F303331A43C0F80A2019
:102BC000C1F30323D0F80920120943EA0212C0F826
:102BD000092001F0E701826822F0E70211438160D9
:102BE00002E04FF0004020604FF4007020644A493A
:102BF000E86B4A4FC00C00F0030040F03000087052
:102C00004FEA985010F0030003D0022825D008D3D3
:102C100025E001210420FFF769FC4148FFF767FE2A
:102C200021E00120FFF784FC804641460420FFF7A5
:102C30005DFC0420FFF77CFC4045FAD13668300289
:102C4000000AFFF754FE7B691B684FF060220721E2
:102C5000300E98474FF480602060032100E002218D
:102C60000420FFF743FCE8692E4900F03F0008709C
:102C700047F618002C4908802C4800683968C96854
:102C8000022088474020C9F8000001202849086038
:102C9000BDE8F18F00800C401C1300500C0068420E
:102CA000840460425C600C400822044300400340FE
:102CB000B03F005080012843000120438C21084090
:102CC000000039014820034004000940FFFFFCFCDC
:102CD0003C600C4084088C4310100940940222434D
:102CE00000600C40A83F005056620840B8120050E7
:102CF00050130050000009400000204300A00C4089
:102D0000FFFFFC0041A10C40DCA10C4000803F40D3
:102D100040A00C400260084008A10C40A001001037
:102D2000BD3786000BB00C4070B00C402C20094021
:102D300094046042504661E51628A8BF20387047C9
:102D40001B4213D1094236D12AB18446B0FBF2F0BE
:102D500002FB10C2704700F0BDBCFCD30022002370
:102D600070470B000200002100207047904271EB79
:102D7000030CF6D370B5B1FA81F4B3FA83F52C1BCA
:102D8000A340C4F1200532FA05F63343A2405FF0B8
:102D90000046E64002E05B085FEA3202841A71EB0B
:102DA000030524BF204629467641F4D302000B00D8
:102DB0003000002170BD012ACFD970B5140C20D08D
:102DC000B1FA81F4B2FA82F5C4F120046419B4F1C5
:102DD0002006D6D3B2405FF00044F440002502E064
:102DE00052085FEA3303C61A71EB020E24BF304665
:102DF000714664416D41F3D302000B0020002900AD
:102E000070BD0C46B1FBF2F102FB11452D0445EA01
:102E10001045B5FBF2F402FB145580B240EA0545BB
:102E2000B5FBF2F002FB105240EA044070BD000016
:102E300070B504460D46164600F0D8F9401E804194
:102E4000C00F1A490A68002AFCD0012E02D0022EB7
:102E500002D003E0257002E0258000E02560012219
:102E60000A6000281CBFBDE8704000F0C3B970BD07
:102E700038B504460D4600F0B9F9401E8041C00F38
:102E80000A490A68002AFCD0012D02D0022D02D086
:102E900003E0247802E0248800E0246801220A602C
:102EA00008B100F0A7F9204632BD000000800C40B8
:102EB00010B500EB4100102B144600F5007002D352
:102EC000103B001D240C0299994041EA0441BDE8E1
:102ED00010400422ACE738B51D460818102D1446E2
:102EE00002D3103D801C240C0221FFF7C1FF04EA2D
:102EF000000188B2E84032BD006800280CBF012004
:102F000000207047006870470068704738B5044675
:102F10000D4600F0E0FB002129606168696061688E
:102F2000002914BF0D6025606560FFE7BDE83240F1
:102F300000F0D3BB0B684A68002B0CBF42605A609C
:102F40004A680968002A0CBF0160116070470000E0
:102F50000068010701D50420704700F003007047A6
:102F60002DE9F84F06469248924C0068924D800732
:102F700004D50820A87191482060BEE000F060FBF5
:102F800080468F48006800900027001700F1010973
:102F90000098800208D4C8F13E00C0100928A8BFDC
:102FA00008208145B8BF814686480068C0F30460A8
:102FB000FFF7C2FE824684480068C0F30440FFF772
:102FC000BBFE09EB0A011629A8BF152104DA6FF030
:102FD00009029142B8BF114601F01F027B4B42F437
:102FE000F8521A807A4A126812F0030F18BF0127AC
:102FF000520748BF47F002070EB147F0040795F9A2
:103000000720A8EB0202052A02DAAA7997425CD0CF
:10301000A8F10F0C0026BCF1000FB64607F0010224
:1030200007F00403DFF8AC9123D40CEB0C1C4FEA3F
:103030002C2EBEF1080F28BF4FF0070E7646072E44
:1030400028BF062609EB860A59F82660DAF804A09C
:10305000AAEB060A5FFA8AF613B1CAF3072B5E449D
:103060005FEA877B44BFCAF3074B5E440AB106EBB5
:103070001A6659F82E905FFA89FA13B1C9F307233B
:103080009A44BB0744BFC9F307439A440AB10AEB09
:10309000196A401AACEB0E220099AF71724380326C
:1030A0000128B8BF01203423C9B258430AEB1222C9
:1030B0004843B0FBF2F0B0F5803F28BF4FF6FF70F9
:1030C00008F30708A88085F8078043480068A988A6
:1030D000286000201F2904D21F21A98004E049088C
:1030E000401CB1F5007FFAD20F39090940EAC1004E
:1030F0003A490843206000206060BDE8F18F10B5B8
:103100003748006884B224B300F09AFA2A4991F94A
:103110000720904205DA6FF07F029042B8BF104658
:10312000C8718888844201D28C8010BD2A4A1268F6
:103130000B68D21A921C202A28BF1F22231A520879
:1031400023FA02F42018B0F5803F28BF4FF6FF7035
:10315000888010BD2348026802B9704710B5224B21
:10316000986800F04061B1F1406F20D010490C68C0
:10317000A4071CD45C68A40719D40C681B68C3F3AB
:1031800003531C331B0114F0050F05D09A420ED2D5
:1031900024F00500086010BD934208D2020158BF18
:1031A00044F00104400158BF44F004040C6010BD19
:1031B0000000094030100940541D0020FDFDA4000E
:1031C000B43F0050B81200503C1100506E620840ED
:1031D000242208409C1300500820094000E7A480E6
:1031E0003410094028500940AC3F0050EFF31080E4
:1031F00072B67047EFF3108062B6704710B50C18C6
:10320000FFF7F4FF401E8041C00FDFF8D8130A68B3
:10321000002AFCD0246801220A6008B1FFF7EAFF07
:10322000204610BD38B5DFF8C043DFF8C013207862
:10323000897B002508430AD0FDF7D8F9A178002939
:1032400006BF0121A1700125FDF7D4F90DB10020C1
:1032500032BD0220FEF798FE0E20FEF7AAFEDFF830
:103260009003016809B1012032BDDFF888234021B5
:1032700011600121C1610020607032BD70B5DFF8BE
:10328000740382B0002101604821C160DFF8680347
:1032900000F1D804A17A002967D00129DFF85C2366
:1032A00028D110684BF2F5214843050AD44800683C
:1032B000C0F38140012806D100F0C2F9FFF7C4F93C
:1032C000684305EB9055607B10B10020607305E00A
:1032D000CC480068000215EB10204508CA4805607C
:1032E000290C416001218160C048807B00283AD0D0
:1032F000052039E0022909D11568284600F0F2F8C6
:10330000A5F2FF5003282ED308202DE003292CD14D
:10331000116800F1B805A1F5C0612868E9610028CD
:1033200048BF4042002948BF49428842A8BF002008
:1033300018DA6868B54E80B2009008234FF47F42D7
:1033400030213046FFF7B4FDA86800F067F904218A
:103350003046FFF7ADFDA86900F066F93046FFF78B
:10336000A7FD012020700B202073BDE8734000BF33
:103370002DE9F041A04CDFF89482A54FA54E9D4861
:1033800004F1E10582B0E9784A1E0B2A5BD8DFE838
:1033900002F0062233465B33465B3346636E9E493A
:1033A00009680968202088470F20F860072341F644
:1033B0001D5038614FF4C0720220009000F06BF88D
:1033C00007234FF4C07200214046FFF784FD01201F
:1033D0003060022044E00120F861287800281DBFF9
:1033E0000020306103200620E870032038600020B0
:1033F00070607068800734D4E878032804D1022014
:1034000000F046F8042007E0002000F041F8E878DA
:1034100006280CBF07200A20E87001201AE00429C2
:1034200003D12021B961012105E00122BA610A29F5
:103430000CBF032102216970002139600821C1609D
:1034400001600120386021E005290CBF0620092019
:10345000E8700020706004E00020306070600C2094
:10346000E87004F17800BDE8F641FDF7D7B8002117
:10347000016001205E4908600E20FEF72FFD02204A
:10348000FEF718FD0120E8700020A870BDE8F38168
:1034900000900523602200214046FFF709BD00008F
:1034A00055495C4891F8E410891E0A2919D8DFE8CB
:1034B00001F0060A0E180A0E180A0E18120001680A
:1034C0008907FCD50DE041688907FCD409E0416813
:1034D0008907FCD505E001688907FCD441688907A4
:1034E000FCD445E7F8B50746484C30212046FFF7A5
:1034F00085FE414E06F1B805C0F30720686004213F
:103500002046FFF77BFEC0F38440A86020212046C0
:10351000FFF774FEC0F38120A861B7F5C060286092
:1035200002D186F8D800F1BD296996F8D8202AB9C9
:103530006A68A968EA60E861AA696A61E8690028BE
:103540004CBF6FF00102022200EB40001018421045
:1035500000EB927001EBA0006968E960012810DAC5
:103560006A69032A04D1153001281DDA01201BE005
:103570000B300128B8BF0120491E48BF0021E96077
:1035800007E01F2812DB6A692AB915381F28A8BF6F
:103590001E20032109E00B381F28A8BF1E20491C4C
:1035A0004029A8BF3F21E960002169612861082303
:1035B000E86880B200904FF47F42302100F03CF880
:1035C0000120009011234FF4003200F034F82869F4
:1035D00000F024F800F02FF8686900F025F800F0FA
:1035E0002BF8F1BD00800C40B10500203C5C0000D0
:1035F00004800C402C500C40D004002008400C40AB
:10360000B43F0050102009403C600C4000A00C402A
:1036100000400C4034600C40A001001080B20090CB
:1036200012234FF4F802704780B200900A234FF43F
:1036300040622021704704212046FFF739BC00007A
:103640000748084A816812780068C90352B2A0F599
:103650004070C9135043A1EB201080300012704716
:10366000285009400C13005070B50446FFF7BEFD0A
:10367000451EAD41ED0F074E30680028FCD0A04735
:1036800001203060002D1CBFBDE87040FFF7B2BDC7
:1036900070BD000000800C4062F30F2262F31F42F5
:1036A00000B500BF130096469446103928BFA0E825
:1036B0000C50FAD85FEA417C28BF0CC048BF40F8E4
:1036C000042BC90728BF20F8022B48BF00F8012BA4
:1036D00000BD00007047FCF789BFFCF78BBF0000FE
:1036E000DFF800F0D9C10110DFF800F0ADB501102E
:1036F000DFF800F019AE0110DFF800F0E5C10110AD
:10370000DFF800F085C20110DFF800F081C201107F
:10371000DFF800F055C10110DFF800F043C20110DE
:10372000DFF800F079AB0110DFF800F0D9B6011036
:10373000DFF800F0EDB3011020B108232C220021A6
:103740001BF062BC704720B108233C220021FFF728
:10375000C7BF704780B5FEF7E1FAADF80000FCF78F
:1037600045FFADF80200009802BD01B5BDF80200AA
:10377000FCF740FFBDF80000BDE80240FEF7D2BAFA
:1037800038B5DFF89C08DFF89C18DFF89C48800803
:103790008000091A2161E060034602E0002523F859
:1037A000025B0D18AB42F9D38B0800EB83030022B8
:1037B00023F8042CE82220F8E82B4FF6FC72114085
:1037C000EC3901806060002000F004F8A060E0683F
:1037D000606031BDF8B500240025061D16F0030019
:1037E0001CBF311D0E1AFFF7B5FFDFF83C18B6B24B
:1037F0000860112EB4BF4F688F6839880B0403D559
:1038000081F40041002519E0A5B123883A881344CA
:1038100023809BB2B34211D327461946B7B1891B07
:1038200089B20429A7BFF15346F40041398841F415
:10383000004109E0B142F1DA01253C46CF1939884F
:103840000029DBD1002701E027F8041BFFF78DFFDB
:103850003846F2BD10B50446FFF77CFFDFF8C81705
:10386000221F086013885B045B0C13804B689A422C
:1038700038BF4A60BDE8104077E738B50446FFF727
:1038800069FF00210C23DFF8A42703FB0125AA6CA4
:103890004AB1944204D1FFF768FF05F1480032BDF8
:1038A000491C0329EFD3FFF760FF002032BD70B53C
:1038B0000546FFF74FFF044600200C22DFF86C1787
:1038C00002FB001101F14806316849B90020B060DF
:1038D00035600022FFF708FF706018B91BF09EFBEF
:1038E0008D4204D12046FFF740FF304670BD401C9A
:1038F0000328E3D32046FFF738FF002070BD38B51A
:103900000446FFF727FF0025DFF820170C2202FBF3
:103910000512128842B1944203D1FFF726FFE8B2A4
:1039200032BD6D1C062DF1D3FFF71FFFFF2032BD06
:1039300010B504462088FFF7E2FFFF2800D16DE1B3
:10394000DFF8E8160C2202FB00108168080002D1A3
:103950006FF0010010BD2046BDE810400847024648
:103960000FF23870104710B500200C21DFF8BC268C
:10397000002401FB0023401C03289C641C65F8D331
:103980000020002301FB0024401C06282380F9D3DB
:10399000082010800FF2ED609060BDE81040EFE667
:1039A00070B590B0FEF7BAF904466846FFF7CBFE53
:1039B0000520069000224FF461700890694648F295
:1039C00001000490DFF868060590DFF86806FFF74D
:1039D0008FFE050006D0FFF7BDFE06462846FFF71E
:1039E00066FF08B91BF01AFB3046FFF7BEFE204603
:1039F000FEF798F910B070BDF8B500F0E8F8FFF7E1
:103A000056FF05006FF0020616D0FFF7A3FEA2884E
:103A10000021DFF818360C2707FB01331F883FB958
:103A20001A805D60A2689A60217369682161C7E2AB
:103A3000BA4203D1FFF799FE3046F2BD491C062970
:103A4000E7D31BF0EBFA00BF38B500F0C0F8FFF782
:103A50002EFF050016D0FFF77DFE0021DFF8CC25F4
:103A60000C2303FB012213884BB94FF6F873138024
:103A700055600023936021716968A16013E7491CB8
:103A80000629EBD31BF0CAFA00BF10B504466068E4
:103A90000C3080B2FFF79EFE10B96FF0030010BD2E
:103AA0006168018100210160FF2181720C30A060FA
:103AB000002010BD80B540680C3810E080B289E667
:103AC00010B50446606880B2FFF784FEA06000284D
:103AD0000CBF6FF00300002010BD80B54068FFF7F9
:103AE000B9FE002002BD38B504460D46FFF732FE90
:103AF000002145F80C1C216811B9256006E011462B
:103B000051F80C2C002AFAD141F80C5CBDE8324087
:103B10002BE62DE9F04104466FF00206E068A0F1C3
:103B20000C05A0790628BCBF207906280BDAFFF720
:103B300011FEA179DFF8F4840C2707FB01814968A5
:103B400019B9FFF712FE304617E0FFF70EFE207995
:103B50002871A0796871207AA871A079E16807FBC3
:103B6000008040680830FFF7BEFFA07907FB0080A7
:103B700040684068FCF742FD0020BDE8F08170B568
:103B800000F025F8FFF779FE10B96FF0040070BD62
:103B900000F10806FFF7DEFD3168002541B10D4652
:103BA000A5F10C010A68326000220A60FF228A72C5
:103BB000FFF7DBFD2800A56001D1022070BDA5F153
:103BC0000C00017921714079A071002070BD04467C
:103BD000FFF792BD06280BDADFF850240C2303FB15
:103BE0000020008800281CBF4FF6F872904202D1D6
:103BF0004FF0FF307047088000207047811D00792A
:103C0000E8E710B50446E088FFF779FEFF2800D109
:103C100004E0A0712046BDE810407AE74FF0FF3085
:103C200010BD3EB50446FFF7AAFF050017D1207965
:103C30006946FFF7CFFF78B10820ADF804000320F4
:103C4000ADF80600DFF8F013A0688968029001A8BB
:103C500088476FF005003EBDBDF80000A0802846F3
:103C60003EBD10B5DFF8D42312680C464FF47A71CC
:103C7000A1FB00010023FFF763F8002902D8B0F18F
:103C8000004F02D36FF0020010BD2060002010BD75
:103C900038B5FFF79CFFFFF7F0FD0546FDF79AFEEC
:103CA000002818BF012800D015B96FF0040032BDFC
:103CB000606840B9009000996868FCF7A3FC401E5A
:103CC0008041C00F32BD10F1010F08BF4FF0FF302F
:103CD000F0D06946FFF7C5FF0028ECD032BD80B5B3
:103CE0004068FCF78BFC002002BD1BF097F900BF79
:103CF00080B54068FFF704FD002002BD80B5406834
:103D0000FFF702FD002002BD80B5FFF701FDFFF7C0
:103D100003FD002002BD80B5FEF700F8FCF766FC4D
:103D2000002002BD10B58CB004466846FFF704FDC4
:103D3000E02000F013F808B91BF070F90BE010B5A3
:103D40008CB004466846FFF7F7FCE06800F006F820
:103D500008B91BF063F900200CB010BD08900023D7
:103D6000A16860686A46FFF7DBBC10B50446FFF740
:103D7000DBFC6060002010BD014688684968084788
:103D8000F0B507468BB0BC68AB4D6CBB0C20FFF7A1
:103D900021FD04006FF003061ED008232422002119
:103DA00001A8FCF733FC0020ADF81400069007943E
:103DB00000237968A24801AAFFF7BAFC206068B91D
:103DC0000820ADF800000C20ADF802006846A96894
:103DD00088472046FFF73EFD304618E0F8686060EF
:103DE0003869A060BC600AE0286880470646206801
:103DF000FDF752FE3869A0603046696888477968E7
:103E00002068FCF707FC2068FCF708FC00200BB0DA
:103E1000F0BD10B5044682B060686946FFF721FF27
:103E200020B9009860602046FFF7AAFF16BD80B554
:103E3000406810B96FF0020002BD0068FDF72CFE6B
:103E4000002002BD7D49096841600020704750B5DF
:103E500004467A4802686FF00046A6FB0201002380
:103E60004FF47A72FEF76CFF002902D8B0F1004FD0
:103E700000D330466060002050BD2DE9F04186B08F
:103E80000646FFF739FCFFF7F8FC044600200290D5
:103E90000025FDF79FFD002818BF012800D014B9A8
:103EA0006FF0040067E0706820B110F1010F03D1DA
:103EB0004FF0FF30009005E06946FFF7D2FE5FEA61
:103EC000000857D1FFF730FC00994FF001080F1898
:103ED00000E0009000996068FCF794FB80B303A8B1
:103EE000FFF74DFE5FEA00081AD19DF8100001A906
:103EF000FFF770FE80B9059A9DF81210BDF8040016
:103F0000B368984740B1BDF80400B0819DF8120035
:103F1000B0730598306113E0059902A8FFF7E3FD3F
:103F200000986D1C10F1010F18BF00284FF0010818
:103F3000D0D0FFF7F9FB381A02D000998142C8D2DD
:103F4000029EFFF707FC04F1080756B1314600E076
:103F5000114651F80C2C002AFAD13A6841F80C2C81
:103F60003E60FFF702FC002D03E06068FCF746FBB3
:103F70006D1EFAD1404606B0BDE8F081F8B5FFF7F6
:103F800026FE0546FDF726FD002818BF01286FF024
:103F9000040613D0FFF7DEFB0021244A0C234B4319
:103FA0009F5A4FB19B185B681B68AB4201D12171CE
:103FB00006E0491C0629F1D3FFF7D7FB3046F2BDD6
:103FC000FFF7D3FB0020F2BDF8B50446FDF702FD74
:103FD000002818BF012802D16FF00400F2BDFFF7DE
:103FE0008BFB0546FFF7B6FBA788104A00210C2380
:103FF0004B439E5A6EB1BE4208D199184968096870
:10400000A9420CBF01210021A160D9E7491C062962
:10401000EDD3FFF7AAFB4FF0FF30F2BD0000000028
:104020006C1D0020403F0020FC1300209013002056
:10403000E80200205F390000D40200201CFC0100CF
:10404000793D000070B504463C20FFF7C3FB050036
:104050006FF0030611D0FFF776FB207AA8610022EB
:10406000608928622946E06828616068FFF740FBA4
:1040700004462846FFF7EEFB0CB9304670BD002021
:1040800070BD000041882A2902D36FF001007047FB
:104090000FF2140252F821100847000031390000D5
:1040A000553700006B370000F9390000493A00002D
:1040B0008B3A0000B53A0000C13A0000DB3A00003C
:1040C000133B00007F3B0000033C0000233C00004A
:1040D000913C0000DF3C0000EB3C0000F13C0000A4
:1040E000FD3C0000093D0000173D0000253D00009B
:1040F0006B3D0000133E0000453E00004F3E0000B7
:10410000FD3B000023F90100F5F901007B3E0000B2
:104110007D3F0000813D00002F3E00008FF901002F
:10412000C7F90100DBF90100C93F000029FA0100CD
:1041300041FA0100454000000000000000000000BE
:1041400037FA01004FFA01003F3D00000000000077
:10415000DFF800F0F9BF011050F8382F114301606B
:10416000704750F8382F22EA010101607047817DC5
:10417000FF291DBFC07DFF2801200020704738B5F2
:104180000446FCF733FA0546207820B90220FDF7F3
:10419000FBFE012020700BE038B50446FCF726FA40
:1041A0000546207820B10220FDF784FE0020207013
:1041B0002846BDE83240FCF71DBA4068B830FCF72D
:1041C0001DBA4068D430FCF719BA70B544688568E8
:1041D0000E4606E0206A401C2062761E606A401C83
:1041E00060624EB1206ADFF8A8271268017828685B
:1041F000926990470028EDD1304670BD70B5456892
:1042000086680C4608E0296B0870641E286B401C09
:104210002863686B401C68633CB100F005FA3068A5
:104220000969884710F1010FEDD1204670BD70B5C6
:10423000446804F1F0050E462846FDF72DFC0FF208
:10424000C471627F207F51F822100818C01D70438E
:10425000DFF840174843A169B0FBF1F0DFF83817E9
:1042600009686430B0FBF1F12846FCF7D3F9284621
:10427000BDE87040FCF7D2B9F8B504466568A76898
:1042800005F1F0063046FDF707FC38688069000745
:1042900011D5DFF8041709684FF4FA70B0FBF1F19B
:1042A000022938BF01213046FCF7B4F93046BDE899
:1042B000F240FCF7B3B9DFF8E406FFF76DFF3868AA
:1042C0002021FFF74EFF00F061FA00F059FA204676
:1042D00001B0BDE8F040184738B504460D4620212E
:1042E0002868FFF73EFF297DE06C01221BF05EF895
:1042F000297DE06C01221BF076F8297DE06C00221C
:104300001BF098F8A97DE06C00221BF093F8A078D0
:10431000012804D1286880690007FBD405E04FF02C
:10432000FF3104F1B800FCF76DF900F04BFB2846B3
:10433000FFF71DFF30B1A97DE06CBDE838401122C8
:104340001BF078B831BD2DE9F84380460024D8F839
:1043500008703868D8F80490056C456415F4F06F5F
:1043600009F1280628D069050ED500F059F801603A
:1043700040463769212F28BF20273946FFF73EFFE7
:1043800014E03069401E3061306978B10121404647
:10439000FFF734FF386800F043F8002C0160F0D0DC
:1043A000B068401EB060F068401EF06089F81F40A1
:1043B000404600F032FA22E0680609F184090BD584
:1043C00031694046FFF71AFF3061707908B13461F6
:1043D00012E0306900280EE0E80610D5307D37691C
:1043E000401EB84238BF074639464046FFF706FF31
:1043F0003069C01B306102D14846FDF7DBFAA806E0
:104400000CD5356855B129464046FFF7DEFE3060D1
:1044100020B9291D4046BDE8F44308E7BDE8F18313
:1044200050F8041F01F00F040021704770B50446D6
:104430006568A668DFF86805FFF7AEFE00F00EFAC3
:1044400003E2406800210170DFF8540501704170FB
:104450007047F0B504468DB06568A7680E46FCF756
:10446000C5F82978002943D101212970FCF7C2F849
:104470003078687000217078A87070686860B068E3
:10448000A860F068E86030692861307D2875707D2B
:104490006875B07DA875B069A861307F2877707F96
:1044A0006877B07FA8770020286205F12C00416072
:1044B00069628160A962C16001704170102101745C
:1044C000002141747868FDF774FD204600F0CFF9B3
:1044D000204600F01EFA78B900F0A6F83868C968DE
:1044E00088477868FDF7FAFCFCF780F8002129700E
:1044F000FCF780F800205EE008233022002101A8AC
:10450000FCF794F8069401AB387BDFF89824099007
:104510000020009005F16800B968FCF793F80823C3
:104520002822002101A8FCF77DF8059400233869B2
:10453000DFF87414079001AA05F18400FCF77EF8F7
:1045400008232422002101A8FCF784F801208DF81B
:104550001C00A87840B901AA002105F1B800FCF7B9
:104560007DF8DFF848042861687840B901AA002185
:1045700005F1D400FCF772F8DFF83404E860082392
:104580002422002101A8FCF741F800200690ADF894
:104590001400079401AB0A22DFF8181405F1F000AB
:1045A000FCF754F823460FF22942042105F1540088
:1045B000FDF770FC20460DB0F0BD38B54468856845
:1045C000E06C1AF0E4FE286840F2F271FFF7C9FDD2
:1045D00000F02AF82868C96888476868FDF77EFCFB
:1045E00004F16800FCF74AF804F18400FCF742F893
:1045F000A07818B904F1B800FCF734F8607818B95D
:1046000004F1D400FCF72EF804F1F000FCF72EF8CA
:10461000FBF7ECFF00212170FBF7ECFF04F15400E5
:10462000BDE83240FDF705BEDFF864130968704746
:1046300070B50246202954686FF0010004D01DD3E4
:10464000222909D004D370BD012084F82D0014E084
:10465000002084F82D0070BD9568FBF7C7FF064663
:10466000FFF7E2FF28680969884710F1010FF7D1C9
:104670000020A0633046FBF7BDFF002070BD2DE990
:10468000F84304466668A76889469046FBF7AEFF84
:104690000546B06A18B12846FBF7ACFF42E006F1C8
:1046A000F000FDF7F9F90020F0777062C6F820906D
:1046B0002846FBF79FFFBA4D681CFFF760FDBE4818
:1046C000016841F48071016020464146FFF77DFD9D
:1046D000B06206F1B80958B941462046FFF7A7FD78
:1046E000B07820BBB1684846FBF78CFFE8B90FE013
:1046F00038682021FFF730FDB078C0B9B16848466E
:10470000FBF780FF88B941462046FFF790FD002067
:10471000B06239461020F0773046FFF7DDFD681CA7
:10472000FFF73AFD4FF0FF3002E0706A00E0002032
:10473000BDE8F2836EE070B500F094F8A96A39B96B
:104740003168896909075CBFBDE87040FBF752BF5B
:104750000021A962FBF74EFF3046FFF708FD18B1B4
:1047600031462846FFF7B8FD30682021FFF7F9FCF5
:1047700000F00CF88948FFF70FFD00F001F869E040
:104780006A6A286A2B69811A296270478A48016817
:1047900021F4807101607047F8B5446885680E4661
:1047A0001746FBF723FFA16B21B1FBF723FF4FF067
:1047B000FF30F2BDE1776163A7632663FBF71AFF61
:1047C000774E3046FFF7DBFC7B48016841F400710F
:1047D00001604FF4FA612868FFF7BEFC6078B0B959
:1047E000616804F1D400FBF70DFF70B9A0634FF4CA
:1047F000FA612868FFF7B5FC3046FFF7CDFC206B67
:10480000616B401A20631020E077606BF2BD0020DE
:10481000F2BD00BF4FF0FF30704770B500F022F8D6
:10482000A96B002904BFBDE87040FBF7E3BE00217F
:10483000A963FBF7DFFE00F011F85F48016821F47F
:10484000007101605648FFF7A7FC6A6B286BEB68A4
:10485000811A29632046BDE87040184730684FF43C
:10486000FA617EE404466568A668FBF7BFBEF0B552
:1048700087B0044602A80FF26811454E1422FDF7D6
:104880001BFF6568A46831682068C968884740F2E2
:10489000F27720683946FFF764FC206805F13C0197
:1048A000476402AB4A780978C90853F821101143CC
:1048B00041636846FFF74CFC05F118000FF2341114
:1048C000027951F822100FF23C12437952F823205A
:1048D000837935686D6811430FF2301252F8232046
:1048E00042EA0103026801992068A847334D28680D
:1048F00040F010002860686840F0010068602046C1
:10490000FFF735FC18B1686840F44040686007B0B4
:10491000F0BD2DE9F04186B085684468687DDFF818
:10492000A08040F0004000906E46287D48EA0000DC
:10493000706008272846FFF71AFC40B1A87D40F0B8
:104940000040B0601027E87D48EA00000390FE2098
:10495000B851694604F140001AF0B1FCE064A0B11E
:10496000697D0F221AF066FD00F02CF82846FFF74B
:10497000FEFB48B1A97DE06C11221AF05BFDE97DD8
:10498000E06C12221AF056FD012006B0BDE8F0815D
:10499000D001001040420F001CFC0100631D0020EC
:1049A000621D0020474300002D440000BB41000071
:1049B000C341000079420000301000402C1000403C
:1049C0000000C0A0297DE06C10221AF033BD000069
:1049D00080B5042804BF1046FFF749FF002002BD40
:1049E0000000000008000000100000001800000097
:1049F0002000000000000000200000004000000037
:104A0000600000000000000008000000000000003E
:104A10000600000002000000860000008200000086
:104A2000DFF800F025B10110DFF800F013C101102C
:104A3000DFF800F0B5C10110DFF800F0A9C10110E6
:104A4000DFF800F021B9011000B583B000F00DF8D7
:104A5000032114E0E0B500F008F8042100F012F89A
:104A6000002814BF002002980EBD0821ADF80010E8
:104A70000190704700B583B0FFF7F7FF052100F004
:104A800001F807BDADF802106846DFF8B8130968F1
:104A900008472DE9F04784B0DFF8A883DFF8A85372
:104AA000DFF8A863DFF8A8730FE0B869FBF7A6FD8D
:104AB000B888410709D54FF6FB710840B880F868FF
:104AC000FFF7B2FF08B900F0CFF8B8694FF0FF3137
:104AD000FBF798FD30688047FA883B89B9881A430C
:104AE0007B891A431143B9800021F980398179818A
:104AF00029688847B888010603D54FF67F710840BA
:104B0000B8800820ADF800000920ADF80200684622
:104B1000D8F800108847002801BF029C9DF80600C5
:104B20003978884231D1396A080007D0B87801282D
:104B300002D002281BD001E02046884720461AF008
:104B4000CFFC040021D00C20FFF784FF5FEA0009AE
:104B500019D0306880478246C9F80840207848B9A3
:104B6000F8684946FFF764FF00F07EF807E020464A
:104B700088470AE04846FFF77DFF00F012F92968F0
:104B80005046884701E000F00CF93879C0062DD571
:104B9000F868FFF749FFE0B91AF0FFFDC8B93068BF
:104BA00080470446F868FFF747FF5FEA00090DD029
:104BB000D9F808104868786149881AF025FED9F8B4
:104BC0000800FFF757FF4846FFF754FF29682046C3
:104BD0008847F868FFF728FF28B1B8884FF6EF71CB
:104BE0000840B88002E0B869FBF708FD3879800713
:104BF0000DD51AF0A7FC00F062F928B9B8884FF675
:104C0000FD710840B88002E0B869FBF7F7FC38791D
:104C1000000728D53869FFF70FFF040018D0F9699D
:104C200038780A001CBF7A78002A0CD0022A01D0FA
:104C300002D30BE0A06804E0A16800F095F8A0683A
:104C4000F969884702E0A16800F08EF800F0A9F841
:104C50003869FFF7E9FE00283FF427AFB8884FF620
:104C6000F7710840B88023E7B88840F01000B8809A
:104C7000B869FBF7C3BC10B5754C86B00020A080A6
:104C800060610021FFF7DCFEE06000210020FFF7FB
:104C9000D7FE20610820ADF800000020ADF802002A
:104CA0003820ADF804000020664909680290684683
:104CB00088479DF80C0020700498A0610FF209103D
:104CC0001AF005FC0FF295120FF259110FF2D900EC
:104CD0001AF04CFDFFF7DDFE06B010BDCBE730B596
:104CE0005C4C8FB020604FF40075DD22294604F142
:104CF0005400FEF7D1FC08233C2200216846FEF751
:104D0000EFFC04F154000790089502200690002360
:104D10006A465149201DFFF783FE0FB030BD70B5C4
:104D20001AF0DEFB04460C20FFF794FE05464748C8
:104D300000688047002C18BF002D06460ED0AC60DE
:104D4000207858B9424CE0682946FFF771FEA088E8
:104D500040F01000A080A069FBF750FC3046BDE891
:104D6000704039490968084730B585B00C468DF860
:104D70000400082137480068ADF80600ADF80010BF
:104D800000208DF80800ADF8021060682D49096810
:104D9000039068468847054600F003F8284605B0AA
:104DA00030BD204666E6000010B5294C606918B198
:104DB000FFF74AFE002060610420E080A069BDE8A2
:104DC0001040FBF71BBC0000F8B504460D46164624
:104DD0000C20FFF73FFE07460820FFF73BFE002FA1
:104DE00018BF00281CD045604480B8607EB90021FF
:104DF000174C017039462069FFF71AFEA08840F071
:104E00000800A080A069BDE8F240FBF7F7BBFFF700
:104E100031FE3846FFF72EFE2846BDE8F24013E685
:104E2000F1BD000010B5044600F059F8844208DADC
:104E3000A0B200F01DF8064802214181BDE81040F3
:104E400012E0FEE7DC020020D8020020D40200209D
:104E50009817002044150020DD4C0000004801E0B8
:104E600098170020802101818069FBF7C7BB0000F3
:104E7000F8B52B4C2B4F0646608800258119B1F5FB
:104E8000877F08DDC0F58775A9B2C0191AF0A4FCA8
:104E90000020761B6080B1B26088C0191AF09CFCBB
:104EA0006088301880B24FF4877190FBF1F14FF4B5
:104EB000877202FB11006080A81980B2F2BD184809
:104EC00041880088081A00F587704FF4877190FBBD
:104ED000F1F14FF4877202FB110080B2704780B588
:104EE000FFF7EDFFC0F5877080B202BDF0B50C4B47
:104EF0000C4D1C8800224FF487770BE0A4B2521CA3
:104F0000665D00F8016B641CA4B23E4694FBF6F6A5
:104F100007FB164492B28A42F0D31C800846F0BDCB
:104F20005C1D002034140020E0B50821ADF800100D
:104F30000190022100F00FF8002814BF0020029811
:104F40000EBD00B583B00821ADF80010019003211B
:104F500000F001F807BDADF802106846DFF89012C6
:104F6000096808471FB5ADF806108DF8040008243D
:104F7000DFF87C128DF808200393ADF80040ADF8FF
:104F8000024068460968884704B010BD30B585B056
:104F9000144608220291ADF800201922DFF85012C1
:104FA00009680190ADF802201D466846884714B193
:104FB000BDF80C10218015B19DF80E102970089ACB
:104FC0000499116005B030BD00B583B00820ADF87C
:104FD00000001A2000F015F800280CBF9DF804000E
:104FE000FF200EBD00B583B0ADF800008DF80610AF
:104FF000002000F006F800280CBF9DF80700FF20F5
:105000000EBDDFF8EC110968ADF8020068460847EC
:1050100050B110F1040F01D10420704710F1030FBB
:1050200001D102207047012070478123037042EABA
:10503000C111002341F47C41C370818070478223F9
:10504000037081800023C370827170473EB50446AF
:105050000820ADF800000D462020ADF80200102019
:10506000DFF88C110968ADF804006846884720B95C
:10507000029810B16FF004003EBD0095002300229D
:1050800021464FF0FF30FFF781FF3EBD10B582B0E3
:105090001446CA78012A03D18A88DFF8A0311A8021
:1050A00000F010F858B9009069462046FFF7CEFF8F
:1050B00028B900984478FFF744FF204616BDFFF753
:1050C000A7FF16BD0B46022210214BE7F8B500F0F2
:1050D000BBF800F0A8F807000DD032462946FFF7CC
:1050E000AEFF00F0A7F83872FFF76EFF3B4601B045
:1050F000BDE8F04021E0F1BD10220121E6E71022D9
:10510000FFE70021E2E7002204215CE00420BDE883
:10511000F08110B500F0B0F804000AD0112200F0C0
:105120000AF8FFF751FF2146BDE81040DFF81021D3
:10513000ACE7042010BD022181E70222102111E713
:10514000002203213FE000B583B00FF24903019331
:1051500006230093032300F04DF80EBD107880283D
:1051600002BF508840F27F61884208D190889842FF
:1051700002BF91790098814201D10120704700203F
:10518000704710B582B00624FFE70094FFF7E6FFF2
:1051900016BD00000323F4E71078802802BF508872
:1051A00040F27F6188420CD19088032818BF042800
:1051B00007D1907900281CBF1028112801D10120A7
:1051C000704700207047F8B500F04DF807000CD08C
:1051D00032462946FFF733FFBC60FFF7F5FE39463C
:1051E000BDE8F840DFF85C2050E70420F2BD000085
:1051F000DC0200202DE9F04100F00EF807000AD093
:10520000069A4146FFF71BFF3C817D8100F041F883
:10521000079A00F034B879E704460D4616469846DA
:105220001020FFF781BE0A20FFF77EBE04460C2047
:10523000FFF77ABE21465020FFF7D4BEE0050020DC
:105240005D5200009951000004460D461646704715
:1052500000930123FFF782FF02BD000080B51123F8
:1052600000930223F6E704460D4616460C20FFF78E
:105270005BBE00208DF804000820FFF755BE3946BC
:10528000BDE8F041FFF702BF0521FFF7CEBE3C812C
:10529000BD72FE60FFF798BE1078802802BF50886C
:1052A00040F27F6188420DD190884FF680710140B5
:1052B0004FF68062914204BF00F07F00984201D116
:1052C0000120704700207047000038B5FFF7AEFF9F
:1052D00005000CD00422FFF7D7FFAC60FFF774FE87
:1052E0002946BDE838400FF20D02FFF7CFBE04207B
:1052F00032BD00000423CFE710B5504C8AB0E06205
:105300002163A262684600F0B7F84FF4E1300690DE
:10531000694600208DF815008DF8160003208DF8E1
:105320001C0000208DF81D0001208DF800008DF874
:10533000010000208DF817000FF23D0003900FF2DE
:105340001D000490002000F082F8606200222021FD
:1053500000F07AF800F044F80AB010BD10B53848F3
:105360000068804704463548826A110002D0418CAB
:105370000020904740E00000F8B500F05AF81446CD
:1053800080470546CCB1318C002089B2B1F5877FCA
:1053900009DAF76A835DCB5500228255401C491C0F
:1053A000C0B2A042F1D38442318406D0B26A100068
:1053B00009D0718C4FF487709047B26A100002D008
:1053C0000021A0B29047002030842022706A31462C
:1053D00000F057F82846BDE8F4401A490968084724
:1053E00010B5174800688047044614490020088417
:1053F0002022486A00F045F8204612490968BDE8B5
:105400001040084770B5044600F013F88047054681
:10541000316B706A7484224600F036F8094910F145
:10542000010F04BF00207084096828468847708CEB
:1054300070BD0348014E006870470000F419002059
:10544000D4020020D802002003685B681847084A8D
:105450001268904201D30020704709B90FF2300161
:10546000044A0C2303FB00200268D26810470000A6
:10547000DC050020645C00000FF214012422FDF71B
:105480001BB903681B6918470368DB6918470000EC
:1054900000000000FFFFFFFFFFFFFFFF0000000014
:1054A000000000000101010100C201000300000032
:1054B00000000000E0B50821ADF8001001900221C5
:1054C000ADF802106846894909688847002814BF6A
:1054D000002002980EBD00B58FB008233C220021A9
:1054E0006846FEF7FDF8824800F15001079100235D
:1054F0004FF4217108916A46012106910FF2A5012E
:10550000FFF78EFA0FB000BD10B584B00820ADF8DB
:10551000000001207549774C0968ADF80200684623
:1055200088479DF80400207000212161FFF7E4FD09
:10553000FFF7EFFD201DFFF7C8FE4FF0FF30FFF72C
:10554000FFFD4FF0FF30FFF7DEFDE08900F00C01BA
:105550000C2903D10A220FF2A0210DE0010703D587
:105560000E220FF2A02107E0400747BF11220FF2E1
:10557000A4210E220FF2B02104F11800FDF79CF8CF
:1055800004F1180000F058F9C1B204F1180200202B
:10559000FFF7D9FD04F1140202210120FFF7D3FD2A
:1055A0001FBD000070B586B0FFF7AEFF514C4F4DE8
:1055B0000820ADF800000A20ADF802004FF0FF30DF
:1055C00001906846296888470028F1D10820ADF885
:1055D00008000920ADF80A0002A829688847BDF82C
:1055E0000C109DF80E20049E0028E1D1102904BF64
:1055F0002078824205D13078912804BF304600F0EF
:105600000BF80820ADF800000320ADF80200019669
:10561000684629688847CBE730B5374A83B0447875
:105620001388811C0E2C4FF6FF7506D00F2C10D05E
:105630003E2C3AD0FF2C4DD037BD8488A3424CD0AD
:10564000836830F8040CA0F10C02D2B221460E207F
:1056500049E08488A34240D042F23200844244D1DF
:105660000D780F20FFF726FF00283ED0042101709F
:10567000FF2141700721418000F1080141600421B0
:10568000426811700F214268517004214268917084
:105690004168CD7001214268117141684C71210A45
:1056A00042689171FFF73BFB37BD09780C291CD18B
:1056B0008DF800106946C2784A7082888A708288A4
:1056C000120ACA7082790A71C0794871062000F006
:1056D0006AF837BD4C88A34201D1158037BD836875
:1056E0000A782146FF2000F009F837BDDC020020CF
:1056F000BC100020A4020020E00500202DE9F042AB
:1057000081460C461546B9F1FF0F05F10B0014BF99
:105710000321022108181E46C0B2FFF7CBFE070086
:105720003FD004203870FF20787007F108007860BF
:10573000042079680870786880F80190200A7968F8
:10574000B9F1FF0F10D0EA1C8A7001217A68D1707C
:105750002A4679680C717968487131467868801DED
:10576000FCF79AFFA81D15E0AA1C8A707A683178A8
:10577000D1707A68717811717A68B1785171EA1EC6
:1057800079688C717968C871F11C78680830FCF709
:1057900083FF681DC0B278803846BDE8F042FFF74D
:1057A000BEBABDE8F08270B5044604F10B000D46A8
:1057B000C0B2FFF77FFE06001CD004203070FF202F
:1057C0007070E01C708006F1080070600420716841
:1057D00008703E2071684870706884702CB17068E1
:1057E00022462946C01CFCF757FF3046BDE87040F2
:1057F000FFF795BA70BD0000544920424C45204146
:105800006C6C0000544920424C452043656E747214
:10581000616C0000544920424C452050657269700B
:10582000686572616C000000544920424C45205567
:105830006E6B6E6F776E000000F10103810704D07C
:1058400010F8011B89B18107FAD10268B2F1013168
:10585000914311F0803F04BF50F8042FF6E710F891
:10586000011B11B110F8011BFBE7C01A70478168DA
:1058700007E002681168536889185B18C360083232
:105880000260C2689142F4D04A1C82600878704776
:1058900038B504460D46A068E168884212D12068F8
:1058A0006168884208BF19F0B9FB2068227C016852
:1058B00002B14944A16042685218E2600830914246
:1058C0002060ECD0A068401CA06000F8015D31BDF4
:1058D0002DE9F0418AB000F10801009102685208F8
:1058E00001EBC20101910021029103910168490875
:1058F00000EBC10108310491017901F001018DF83B
:10590000201040680499400801EBC0000590002079
:105910000690079084E06846FFF7A9FF044614F05C
:10592000030603D16846FFF7A2FFC61C25090F2D09
:105930001BD16846FFF79BFF00F10F0515E00098AB
:1059400001680818009902904968081803900098A7
:1059500008300090029803998842F0D0401C0290D1
:1059600010F8011D04A8FFF793FF761EF2D1002D59
:1059700051D06846FFF77BFF0646A00800F0030001
:10598000032804BF6846FFF772FFDDF81080069910
:10599000079F06EB002008E0A8F10808A8F108011D
:1059A000801A0A6849688F18394658F8082C8A1AEC
:1059B0008242F1D30C1AAE1C2DD0BC4206D158F84D
:1059C000044B58F8040B0719BC42F8D00698079905
:1059D00014F8015B884217D104980599884208BFE2
:1059E00019F01CFB049800689DF82010069009B17E
:1059F00048440690049906984968049A09180832A0
:105A0000884207910492E7D00698401C0690761EC3
:105A100000F8015DD1D10298039988427FF47BAFF1
:105A20000098019988427FF476AF05980AB0BDE8E6
:105A3000F081000030BF704738B5FDF7D7FBFCF7A9
:105A400094F9044604F00C000C2841D0600721D4DE
:105A5000FBF7C5FF054601210120FCF790F920491D
:105A6000096801FB05F2904214D28220B0FBF1F0EC
:105A70001C4C291A04F10C00FAF7CCFD04F10C00BF
:105A8000FAF7CCFD0120FCF7ECFA04F10C00FCF76E
:105A900003F81FE020071BD41348144DE1060168EA
:105AA000134C5ABF4908490041F0010101601148F7
:105AB000016841F00301016020202168896988475D
:105AC00028682068806B804701202860286801E0F2
:105AD000FFF7B0FFFDF78EFBBDE83140FDF73ABBA5
